:100000000C945A030C9477030C9477030C947703A5
:100010000C9477030C9477030C9477030C94770378
:100020000C9477030C9477030C945F1F0C941B1FA4
:100030000C945C200C9477030C9477030C94770356
:100040000C9477030C9477030C9477030C94770348
:100050000C9477030C9438200C9477030C9477035A
:100060000C9477030C9477030C9477030C94770328
:100070000C9477030C9477030C9477030C94770318
:100080000C9477030C9477030C9477030C94770308
:100090000C9477030C9477030C9477030C947703F8
:1000A0000C9477030C9477030C94770305010902F1
:1000B000A10185020901A1000509190129081500FE
:1000C0002501950875018102050109300931158165
:1000D000257F95027508810609381581257F9501D0
:1000E00075088106050C0A38021581257F95017572
:1000F000088106C0C005010980A101850319012AF4
:10010000B700150126B700950175108100C0050CD8
:100110000901A101850419012AA002150126A002E6
:10012000950175108100C005010906A1018506052C
:100130000719E029E71500250195087501810205D9
:1001400007190029EF1500250195F07501810205B9
:10015000081901290595057501910295017503910D
:1001600001C00660FF0961A1010962150026FF00B8
:100170009520750881020963150026FF00952075FA
:10018000089102C005010906A101050719E029E748
:1001900015002501950875018102950175088101F9
:1001A0000507190029FF150026FF0095067508812F
:1001B000000508190129059505750191029501753C
:1001C000039101C0000000000000000000000000DA
:1001D000000000000000000000000000000000001F
:1001E00000000000000000007E0F00D4FFFFFFC7EA
:1001F0000000007800000000000000002A2B28000A
:1002000000000000000000000000000000000029C5
:10021000000000002C1E3420212224342627252E05
:10022000362D3738271E1F2021222324252633333D
:10023000362E37381F0405060708090A0B0C0D0E69
:100240000F101112131415161718191A1B1C1D2F35
:100250003130232D350405060708090A0B0C0D0E55
:100260000F101112131415161718191A1B1C1D2F15
:100270003130354C00047F3F1F64321464321478EF
:100280003C1E1E140A0500010101010101010101CA
:100290000202020202020202020303030303030337
:1002A0000304040404040404050505050506060604
:1002B0000606070707070708080808090909090AC1
:1002C0000A0A0B0B0B0C0C0C0D0D0D0E0E0E0F0F66
:1002D0000F101011111112121313141415151616F4
:1002E0001717181819191A1A1B1B1C1D1D1E1E1F63
:1002F0002020212222232424252626272829292AB2
:100300002B2C2D2D2E2F30313232333435363738D9
:10031000393A3B3C3D3E3F404142434445464748D5
:10032000494A4C4D4E4F50515354555658595A5BAB
:100330005D5E5F616264656668696B6C6D6F70724B
:10034000737577787A7B7D7E8082838587888A8CB7
:100350008E8F91939596989A9C9EA0A2A3A5A7A9EB
:10036000ABADAFB1B3B5B7BABCBEC0C2C4C6C9CBE2
:10037000CDCFD1D4D6D8DBDDDFE2E4E7E9EBEEF098
:10038000F3F5F8FAFDFFFFAA7F5540222325262822
:10039000292A2C2D2F3032333536383A3B3D3E401A
:1003A00042434547494A4C4E5051535557595A5C60
:1003B0005E6062646668696B6D6F71737577797B77
:1003C0007D7F81838587898A8C8E90929496989A76
:1003D0009C9E9FA1A3A5A7A8AAACAEAFB1B3B4B68B
:1003E000B8B9BBBCBEBFC1C2C3C5C6C7C9CACBCCE6
:1003F000CDCED0D1D2D2D3D4D5D6D7D7D8D9D9DAB9
:10040000DADBDBDBDCDCDCDCDCDDDDDDDDDCDCDC2D
:10041000DCDCDBDBDBDADAD9D9D8D7D7D6D5D4D355
:10042000D2D2D1D0CECDCCCBCAC9C7C6C5C3C2C12A
:10043000BFBEBCBBB9B8B6B4B3B1AFAEACAAA8A787
:10044000A5A3A19F9E9C9A98969492908E8C8A893F
:10045000878583817F7D7B79777573716F6D6B691C
:1004600068666462605E5C5A5957555351504E4CF1
:100470004A4947454342403E3D3B3A3836353332A0
:10048000302F2D2C2A292826252322A900AA00C78F
:100490005CC85CCB5CCC5C50004F0029001A001596
:1004A000001C000C001300140008001700180012B4
:1004B000002A000251160009000B000E003400044F
:1004C0000007000A000D000F0028001D00060005AF
:1004D0000011003600E500E1001B001900050010C6
:1004E000003700E000A80001510000E600E400E34E
:1004F00000010000002C000000E70001001F0021A7
:10050000002300250027001E0020002200240026D2
:10051000004C000100010001000100010001000188
:1005200000010001000100010001000100010001C3
:1005300000010001000100010001000100010001B3
:10054000003800010001000100000001000100016D
:100550000001000000010000000100010052000144
:100560000001000100010001000100010001000183
:1005700000010001005100010001000100010050D4
:10058000004F000100010001000100010001000115
:100590000001000100010001000100010001000153
:1005A0000001000100010001000000010001000144
:1005B0000001000000010000000100010001000135
:1005C0000001000100010001000100010001000123
:1005D0000001000100010001000100010001000113
:1005E0000001000100010001000100010001000103
:1005F00000010001000100010001000100010001F3
:1006000000010001000100010000000100010001E3
:10061000000100000001000000010009025B00036E
:100620000100A0FA090400000103010100092111E1
:1006300001000122400007058103080001090401AF
:10064000000203000000092111010001222200071D
:1006500005820320000107050303200001090402AD
:1006600000010300000009211101000122B600076A
:1006700005840320000112010002000000086B72D3
:1006800001003001010200010C0341006C0069000F
:1006900073006800000018035200650065006400E4
:1006A000730020004B0065006500620073000000CD
:1006B0000403090411241FBECFEFDAE0DEBFCDBF73
:1006C00011E0A0E0B1E0EAE9FFE402C005900D927C
:1006D000AE39B107D9F722E0AEE9B1E001C01D9211
:1006E000A33DB207E1F70E9483200C94A2270C944B
:1006F0000000E8EDF0E080818E7F80831092E200C0
:100700001092DA001092E100A0EEB0E08C918160CE
:100710008C9380818F77808319BCA7EDB0E08C919A
:100720008E7F8C9380818F7E80831092A0020895AB
:100730002091E4003091E50095E6A9012091EC00BC
:10074000822F817020FF06C08091E80080FF06C0E4
:1007500080E008952091E80022FD1AC08091C50232
:10076000882389F0853089F08091EB0085FD0FC0EA
:100770002091E4003091E50042175307F9F29150BF
:10078000E1F684E0089582E0089583E0089581E031
:100790000895EF92FF920F931F93CF937C018B01EB
:1007A0000E949803C82F811117C08091E80085FD31
:1007B0000BC08091E8008E778093E8000E94980338
:1007C000882399F3C82F08C0F70181917F01809396
:1007D000F1000150110949F78C2FCF911F910F9112
:1007E000FF90EF9008958091C70287FF13C080911A
:1007F000E80082FF06C08091E8008B778093E800D4
:1008000004C08091C5028111F2CF08958091C50284
:100810008823D9F38091E80080FFF8CF8091E80029
:100820008E77ECCF982F9093E900242F762F50E00D
:10083000891731F07091EC002091ED005091F0009B
:1008400021FD07C09F5F973071F78093E90081E039
:1008500008953091EB003E7F3093EB003091ED0036
:100860003D7F3093ED003091EB0031603093EB0031
:100870007093EC002093ED005093F0002091EE0077
:1008800027FDE0CF80E00895B0E0A0E0EAE4F4E0E6
:100890000C940727C8EDD0E088818F7E8883E7ED30
:1008A000F0E080818160808384E082BF81E080937A
:1008B000A00288818E7F888302EE10E0F80110820A
:1008C0001092DA0081EEC82ED12CF60110828881B8
:1008D0008F77888388818068888388818F7D8883EB
:1008E00019BC1092C5021092C6021092C402109256
:1008F000C30290EEE92EF12CF70180818B7F80837B
:1009000088818160888342E060E080E00E94120478
:10091000F60180818E7F8083F801808181608083F1
:10092000808188608083F70180818E7F80838881C9
:1009300080618883CDB7DEB7E8E00C942327FC0103
:100940008091CD029091CE0286179707A0F0611595
:10095000710529F49091E8009E779093E80090E06B
:100960006115710551F4911108C08091E80082FF72
:1009700034C080E00895BC01F2CF8091C502882385
:10098000C1F18530C1F18091E80083FD30C08091D4
:10099000E80082FDEACF8091E80080FFE1CF8091FE
:1009A000F3002091F200382F6115710519F02830FD
:1009B000310558F091E02830310509F090E02091A0
:1009C000E8002E772093E800CBCF81918093F1004F
:1009D000615071092F5F3F4FE7CF8091C502882397
:1009E00041F0853041F08091E80083FFBECF81E087
:1009F000089582E0089583E0089508958091A20209
:100A0000089587E797E7909301088093000888E1AD
:100A10009AE00FB6F894A895809360000FBE90936B
:100A20006000FFCF9C014FB7F8948091970290919E
:100A30009802A0919902B0919A024FBF821B930B2A
:100A400008952FB7F8948091970290919802A09101
:100A50009902B0919A022FBF089520911A01222382
:100A6000C9F020919B0227FF15C0E62FE695E69579
:100A7000E695EE31D8F4E80FF92FF11D677021E00B
:100A800030E001C0220F6A95EAF720958281282381
:100A900022830895FC01329608962191621303C0C7
:100AA000DF0111971C92E817F907B9F70895209113
:100AB0001A012223C1F020919B0227FF14C0E62FC8
:100AC000E695E695E695EE31F8F4E80FF92FF11D7D
:100AD000677021E030E001C0220F6A95EAF7828159
:100AE000822B82830895FC0132962FEF30E04191F2
:100AF000641751F02F3F19F4411101C0232F3F5FBC
:100B00003630A9F72F3F09F40895820F911D27FD74
:100B10009A95FC0162830895209194023091950288
:100B20002817390771F09093950280939402E09111
:100B30009202F0919302309721F00084F185E02D2C
:100B40000995089520919002309191022817390754
:100B500071F09093910280939002E0919202F09153
:100B60009302309721F00680F781E02D09950895D2
:100B7000E0919202F0919302309729F00190F08178
:100B8000E02D0995089580E00895FA01811101C0D2
:100B9000FB0109950895089580918B02982F9E7FFF
:100BA00029F48170826080938B0208958A34E8F37F
:100BB00081708864F8CFAF92BF92DF92EF92FF927C
:100BC0000F931F93CF93DF93082F162FE901E42F84
:100BD000F0E0EA57FD4F611110C0E4915E2F4E2FF7
:100BE0004983E8835A83DF91CF911F910F91FF9042
:100BF000EF90DF90BF90AF900895E62EF12C4491D6
:100C0000D42EE42FF0E026E0829FC00111242FEFC4
:100C100030E0B9010E947526802F90E0880F991F5F
:100C200055E5569FD001579FB00D11248A1B9B0B91
:100C3000982F990F890F5901AE18BF08AE9ED001A9
:100C4000AF9EB00DBE9EB00D11245B2F189F80018A
:100C50001124012F11275901A01AB10AAE9E80015B
:100C6000AF9E100DBE9E100D11245901A81AB10897
:100C7000AE9CC001AF9C900DBE9C900D1124892F9D
:100C80009927281B390B2E9FC0012F9F900D3E9F47
:100C9000900D1124E92F62307105A1F050F4611517
:100CA000710509F49DCF6130710581F0EB2F512F53
:100CB00097CF6430710569F080F06630710509F4F2
:100CC0008FCFF4CFE42F4B2F592F8ACFE42F412F12
:100CD00087CFEB2F542F492F83CF4B2F5D2DE12F43
:100CE0007FCF0E9421059C0190915E0280915F025E
:100CF000982B21F030935B0220935A02909160026E
:100D000080916102982B21F0309359022093580270
:100D1000E0919202F0919302309749F082E0809343
:100D20005C020480F581E02D8CE592E00995089540
:100D300040915E02803F59F480915F0287FF0DC0B1
:100D400010925F0241110BC01092560208C0813F01
:100D500081F480915F0218169CF3442381F0809106
:100D6000600290916102892B09F05AC010925502DD
:100D70000895823F49F447FFF0CF10925E028091C0
:100D80005F028111ECCFE0CF833F19F41416ACF36E
:100D9000E4CF90916002893F29F41916F4F610927D
:100DA0006002DBCF8A3F19F497FFD7CFF8CF90913D
:100DB00061028B3F29F497FFD0CF10926102CDCF13
:100DC0008C3F19F41916CCF3C8CF9CE0980F9530DE
:100DD00090F4845F990B21E030E0B90102C0660F06
:100DE000771F8A95E2F7CB01809590915D02892368
:100DF00080935D02B2CF8D3F31F4809157028E7F98
:100E000080935702AACF8E3F21F4809157028D7FA5
:100E1000F7CF8F3F09F0A1CF809157028B7FF0CFA2
:100E200008958091570280FD16C081FD16C082FD95
:100E300016C0809155028823A1F0883280F428E002
:100E4000829FC001112468E270E00E948926862FEB
:100E5000672B39F0089582E0089584E0089588E0D2
:100E6000089581E008958091570280FD14C081FDAE
:100E700014C082FD16C080915602882381F08E3105
:100E800080F420E5829FC00111246EE170E00E9491
:100E90008926862F089584E1089588E2089588E0E0
:100EA000089580E50895803F31F40E9433078195CD
:100EB00080935F020895813F19F40E943307F8CFB1
:100EC000823F31F40E943307819580935E0208953A
:100ED000833F19F40E943307F8CF893F29F40E9419
:100EE00011078093600208958A3F21F40E94110740
:100EF0008195F7CF8B3F31F40E9411078195809344
:100F0000610208958C3F19F40E941107F8CF9CE00C
:100F1000980F953070F4845F990B21E030E001C0A8
:100F2000220F8A95EAF780915D02822B80935D0201
:100F300008958D3F31F4809157028160809357026C
:100F400008958E3F21F4809157028260F7CF8F3F42
:100F5000B9F7809157028460F1CF80E00895F8944A
:100F6000E82FE295EF70F0E031A1282F2F7081E09B
:100F700090E001C0880F2A95EAF7982F9095932367
:100F800091A392A1892B82A37894089590919B02BA
:100F900092FF06C0282F28712830F9F4877F8460DB
:100FA00093FF06C0282F28712831F1F4877E8461D1
:100FB00020919C0220FF06C0382F38713830D9F4B8
:100FC000877F816021FF06C0282F28712831D1F446
:100FD000877E816194FD877E0895282F24712430B7
:100FE000F9F68B7F8860DCCF282F2471243101F73C
:100FF0008B7E8861DDCF382F3171313019F78E7FCC
:101000008860E0CF282F2171213121F78E7E886101
:10101000E1CFCF93DF93EC0182389105A9F1D8F5A8
:101020008133910509F496C048F58932910509F498
:101030008AC08A9709F495C0C11521E5D20708F046
:10104000BCC0C11530E5D30708F014C1C83ED105B6
:1010500008F09CC0C03ED10560F5C83AD10508F043
:1010600087C0C53AD10508F0FDC0C130D10509F1EE
:101070002097F9F0C430D105E0F440C085339105E4
:1010800009F45AC0C997C1F680919B02837089F018
:10109000C0EED0E00EC0833E910599F170F4803E21
:1010A000910501F1823E910539F680919B0282FD06
:1010B00021C0CE01DF91CF910895863E910561F167
:1010C000873E910571F1843E910509F0B5CF80917D
:1010D0009C0281FFEECF80919B02C7EED0E084FDA1
:1010E0000DC0E7CF80919B0280FD12C190919C02C0
:1010F00090FFDFCFC3EED0E084FFDBCFD0E0C0E0D5
:10110000D8CF80919B0282FD06C190919C0290FDF8
:10111000BFCF84FFCECFF2CF80919B0283FDDDCF86
:10112000C8CF80919B0283FDF9C090919C0291FFF2
:10113000F0CFC4EED0E0BDCF80919B0285FFB9CF48
:10114000C9E2D0E0B6CF80919B0285FFB2CFC5E364
:10115000D0E0AFCF80919B0286FFABCFCAE2D0E058
:10116000A8CF80919B0286FFA4CFC1E3D0E0A1CF9E
:10117000CF3BD10518F6C85AD0E0CC0FDD1FC25EB8
:10118000DE4F0990D881C02DD46493CFC11540E2C1
:10119000D40758F4C11581E0D80708F08ACFC03FC2
:1011A000D10508F4ABCFD06584CFC11590E4D90741
:1011B00008F4A4CFDF70D06A7CCFC11525E5D20733
:1011C00000F5C11534E5D30708F08AC0C11543E521
:1011D000D40708F071C0C11582E5D80708F467C0CC
:1011E000CE018370992721E030E002C0220F331F27
:1011F0008A95E2F7C695C69580E2C89FE001112462
:1012000052C0C11599E5D907A8F4C11528E5D20740
:1012100008F06BC0C11536E5D30708F06FCF8C2FEF
:101220000E94C607C82FD0E0DC2FCC27CC27DF7167
:10123000D0623FCFC1154AE5D40708F45BC0CE01A8
:1012400090568115904208F059CF8D2F8F710E94D2
:10125000C60790E0982F882788279F719C012C2B28
:10126000E901E6CFC55AD0E0C55EDE4FC881D0E0C7
:10127000D0641FCFCE01E4E096958795EA95E1F71B
:1012800083702C2F26952695237040E2249F900191
:101290001124382B8C2F8370C1E0D0E002C0CC0F1A
:1012A000DD1F8A95E2F7C22BD32BDC6802CFDC2F3F
:1012B000CC27C16FD06AFDCECE018370992721E083
:1012C00030E002C0220F331F8A95E2F7C695C6951B
:1012D00090E2C99FE0011124C22BD32BDA68E9CE3A
:1012E000DC2FCC27C46FD06AE4CEDC2FCC27C06FB4
:1012F000D06ADFCE8C2F8F700E94C60734E0D6955F
:10130000C7953A95E1F7CF709C2FEC01D069D1CE0B
:10131000C9E3D0E0CECEC2EED0E0CBCEC6EED0E078
:10132000C8CE8091310281111092310208958095CA
:1013300090913002982390933002089580910D028D
:101340009091DC01981301C008958F5F8770FACFE8
:10135000A82FA77023E0969587952A95E1F7FC01C1
:10136000EE0FFF1FE80FF91FE60FF71F50E040E0F8
:1013700080E0219130E00A2E02C0369527950A942C
:10138000E2F721703327042E01C0220F0A94EAF7F6
:10139000822B4F5F5F4F4330510559F70895292F36
:1013A000983068F4863090F490E064EC71E036E0B8
:1013B000239F800D911D11240E94A80908952C5F80
:1013C000223020F461EC71E090E0F6CF80E00895E7
:1013D000262F277091E001C0990F2A95EAF723E0A4
:1013E000769567952A95E1F7FB01EE0FFF1FE60F53
:1013F000F71FE40FF51F50E040E0682F70E0819187
:10140000DF0111979B01042E02C0369527950A949F
:10141000E2F7217021952827292328272C934F5F55
:101420005F4F4330510559F70895282F862F983084
:1014300070F4263058F4622F70E026E0929F600D21
:10144000711D112444EC51E00E94E80908959C5F4D
:101450009230E0F7622F70E041EC51E0F5CF8093DD
:101460009D0270939F0260939E028091C50284301A
:10147000F9F48093E9008FEF9091E800815095FD99
:1014800006C095ED9A95F1F700008111F5CF809196
:10149000E80085FF0DC050E040E063E070E08DE9BA
:1014A00092E00E94C9038091E8008E778093E80063
:1014B0000895BC0184E00E942F0A0895BC0183E0D6
:1014C0000E942F0A08959C0184E08093E9009FEF19
:1014D0008091E800915085FD06C085ED8A95F1F771
:1014E00000009111F5CF8091E80085FF0CC050E01D
:1014F00040E066E070E0C9010E94C9038091E80005
:101500008E778093E8000895CF93DF93EC0180916C
:101510001A018823B1F180919B0287FF32C060E2FB
:1015200084E08093E9008FEF9091E800815095FD71
:1015300006C095ED9A95F1F700008111F5CF8091E5
:10154000E80085FF1BC080911A0170E050E040E088
:10155000811104C050E040E068E070E0CE010E94DC
:10156000C9038091E8008E778093E80080E2FE0155
:10157000A3EAB2E001900D928A95E1F7DF91CF9155
:10158000089568E081E0CDCF80918B0280FD0AC094
:10159000EDE6F2E0118210821282339652E0EB38CF
:1015A000F507C1F7859A31B33F7D21B320624FB76C
:1015B000F8948DE692E0FC015191CF0168E021BBE7
:1015C000000000C057FF31BB550F000000C000C035
:1015D00000C031BB00C06A9591F7F2E08B389F07DD
:1015E00051F74FBF8FE594E00197F1F700C000007D
:1015F0000895EF92FF920F931F93CF93DF938C0187
:10160000CDE6D2E0F12CE12CF801948160918D02BD
:1016100080918C02F5E0EF16F104ECF49923E9F0E7
:101620009E0140918E020E94DB052FEFE21AF20A22
:1016300023968AE0E816F10439F70E94C40AF801FB
:10164000848190E00196817099278483CDB7DEB7BD
:10165000E6E00C942527992319F39E0140E0E3CF9F
:10166000B0E0A0E0E6E3FBE00C940327EC014C8142
:10167000042F10E09801D8010E94D4269B01AC01F0
:101680000E94EA264B015C01E0E2F0E0E01BF10B76
:10169000A5E5B0E0AC019B010E94EA266B017C014C
:1016A0009F01DF010E94CC269B01AC010E94F52620
:1016B0009B01AC01280D391D4A1D5B1DC701B601F8
:1016C0000E949D26F22E822F90E039E23F1598F17C
:1016D00043E0249F9001112435952795122F1095F2
:1016E0009DE6C92E92E0D92E00E085E5E82EEF18A0
:1016F0008E2D01FD8F2D9601412F60918D020E944C
:10170000DB050F5F53E0C50ED11C0A3089F70E943C
:10171000C40A9C8181E0992319F0903219F48FEF6B
:101720008093190180911901890F8C83CDB7DEB7A1
:10173000ECE00C941F2725E530E0A901481B590B6C
:10174000CA019A01220F331F280F391F37FFC4CF58
:101750002F5F3F4FC1CF0F931F93CF93DF93CDE602
:10176000D2E0FE01118210821282339682E0EB38C1
:10177000F807C1F710E000E080916B02082E000C22
:10178000990B081719078CF180911801082E000C8D
:10179000990B801791074CF19E0140918E02609148
:1017A0008D0280918C020E94DB050F5F1F4F2396F4
:1017B0000A30110509F70E94C40A8091170190911F
:1017C0006B02980F90936B0220911801280F2093C1
:1017D0001801121614F499301CF0819580931701AA
:1017E000DF91CF911F910F910895198218821A826B
:1017F000DCCFB0E0A0E0EFEFFBE00C940627FC01AB
:101800008281DD24DA9480FD02C0DD24D3940DE6CC
:1018100012E0D0E0C0E02AE0B22EF801118210827E
:10182000128294E0E92EF12CC12C80916A028C0D79
:101830008B30C4F16B2D0E946726892F082E000C77
:10184000990B8C179D0791F480918E028E9DA001BB
:101850008F9D500D112455954795559547959801A5
:1018600060918D0280918C020E94DB05CD0CF1E02D
:10187000EF1AF108D1F621960D5F1F4FCA30D1053E
:1018800061F60E94C40A80916A0291E0D91210C0E8
:1018900081110CC089E080936A02CDB7DEB7E9E020
:1018A0000C94222787FFCACF865FC8CF8150F3CF21
:1018B00090E00196BE010E948926EDCFEF92FF9243
:1018C0001F93CF93DF93EC018DE6E82E82E0F82E94
:1018D00010E08C81970140918E0260918D02810F02
:1018E0000E94DB05175E83E0E80EF11C1A3F89F7C2
:1018F0000E94C40A9A818C8190FF08C08F5F8C83FC
:10190000DF91CF911F91FF90EF9008958150F7CF15
:1019100090918B0290FF0CC0EDE6F2E08183608332
:101920004283339692E0EB38F907C1F70E94C40A6C
:101930000895A3E0B0E0EFE9FCE00C940B278C01E4
:1019400080916C0281110AC09E012F5F3F4F4FEFC3
:101950006FEF0E94DB058A8180936C02F80164813D
:10196000613069F080916C0240E0662361F040E0F4
:10197000623011F440916C0280E060E004C060913C
:101980006C0240E080E00E94880CF801848190E0C5
:10199000019663E070E00E94892684832396E4E048
:1019A0000C942727A3E0B0E0E8EDFCE00C940D27B1
:1019B00090918B0290FF0AC09E012F5F3F4F0E94C3
:1019C000DB054B8169818A810E94880C2396E2E0C5
:1019D0000C942927CF93DF93EC01EBE8F2E04381ED
:1019E00062818C810E94D20C8C818F5F8C83DF910D
:1019F000CF910895CF93DF93EC01EC81F0E0E557B0
:101A0000FC4F4491EBE8F2E0628181810E94D20CAC
:101A10008C818F5F8C83DF91CF910895CF93DF937B
:101A2000C7EBD1E060E0CE010E9454272196C1159A
:101A300084E0D807B9F7DF91CF9108951F93CF9332
:101A4000DF93122F8430E0F46830D0F44630C0F4D5
:101A5000C42FD0E0CC0FDD1F9CE0699FC00DD11DCD
:101A6000112490E6899FC00DD11D1124632FCE0152
:101A700087960E945427612FCE0188960E94542792
:101A8000DF91CF911F910895B0E0A0E0EAE4FDE07E
:101A90000C9402278BE8E82E84E0F82E9BE9C92EEF
:101AA00094E0D92E10E0C7EAD1E0560100E015C05D
:101AB000F40125913491472D602F812F0E941E0D36
:101AC00082E0880E911C739486E07812F1CF8CE04E
:101AD000A80EB11C0F5F083019F04501712CE8CF3A
:101AE000F701A590B4906B2DCE010E9454276A2D6A
:101AF000CE0101960E945427F7013296A590B4902A
:101B00006B2DCE0102960E9454276A2DCE010396BA
:101B10000E94542784E0E80EF11C24961F5F80E6A3
:101B2000C80ED11C143009F0C0CFCDB7DEB7EDE040
:101B30000C941E27CF93DF93D82FCFEF8111C2E2F1
:101B40006C2F83E290E00E9454276FEFD11161E186
:101B500084E290E00E9454276C2F85E290E00E947E
:101B60005427DF91CF91089580E00E949A0D60E0A4
:101B700086E290E00E9454270E94440D0E940E0DC0
:101B800081E00E949A0D08950F931F93CF93DF93E6
:101B9000843030F5683020F5463010F5C42FD0E0A1
:101BA000CC0FDD1F2CE0629FC00DD11D112430E64B
:101BB000839FC00DD11D1124CE0187960E9440271E
:101BC000082F10E0102F0027CE0188960E94402792
:101BD0009801282BC901DF91CF911F910F91089592
:101BE00090E080E0F8CF0F931F93CF93DF93462FC1
:101BF000672F8430C8F5783048F44630A8F50E9445
:101C0000C40DDF91CF911F910F9108957D3FB9F4DD
:101C100041112AC024E0829F8001112409551E4FE2
:101C2000C8010E944027C82FD0E0DC2FCC27C80174
:101C300001960E9440279E01282BC901E2CF7C3FDC
:101C400099F4411111C034E0839F8001112409559A
:101C50001E4FC80102960E944027C82FD0E0DC2FFB
:101C6000CC27C8010396E5CF90E080E0CACFCF92A1
:101C7000DF92FF920F931F93CF93DF936C0100913C
:101C8000D20280913202082BC7E0D0E010E0FC2E97
:101C9000C8010C2E02C0959587950A94E2F780FD45
:101CA0000CC02197A0F7F12C8F2DDF91CF911F91C0
:101CB0000F91FF90DF90CF900895B6018C2F0E9476
:101CC000F30D0E940908019761F3EECFCF93DF93E4
:101CD000EC010E94370EBE010E94F30D0E9409081C
:101CE000DF91CF910895FC01808191810E94660E61
:101CF00092959F70963091F058F4925F9F70923059
:101D000058F4803F19F030F4883E30F481E00895B3
:101D10009A5FF4CF843FD1F380E00895883EB0F31A
:101D2000813FD1F7F3CF83E290E00E9440278232D7
:101D300089F484E290E00E944027813159F485E2E1
:101D400090E00E94402791E0823209F090E0892FD4
:101D50008170089580E0FCCFCF9384E090E00E94F2
:101D60004027C82F82E290E00E944027982F8C2FB6
:101D7000CF910895CF92DF92EF92FF926B017C0199
:101D80000E94CC05B701A60188E090E00E9466277A
:101D9000FF90EF90DF90CF900895A3E0B0E0E3EDE7
:101DA000FEE00C940027F82E762EE42E622E909101
:101DB0008B0290FF29C0E92FE695AE2FB0E0A6591F
:101DC000BE4F8C91809368029E7F923009F59E01F0
:101DD0002F5F3F4F8F2D0E94DB054B8169818A81E8
:101DE0000E94880CF0928C0270928D02E0928E021A
:101DF000662051F060918B0270918C0280918D026F
:101E000090918E020E94BA0E2396EFE00C941C274C
:101E1000823019F4E0908E02E5CF863019F4F0900C
:101E20008C02E0CF8930D9F38931E1F6E9518E2F68
:101E30008170582EE695F0E0EA57FC4FE4910E2FA2
:101E400010E08DE6C82E82E0D82EB12CA12C9AE0AD
:101E5000892E912CC501B4010E9475268F2D511039
:101E600013C0860F96014E2D672D0E94DB05A00E34
:101E7000B11E83E0C80ED11C8BE8C81682E0D806DC
:101E800049F70E94C40AAECF861BECCFEBE8F2E024
:101E9000438121E1421B08F440E021E0628181811D
:101EA0000E94CD0E0895EBE8F2E0438121E1420F5C
:101EB00008F44FEF21E0628181810E94CD0E0895E8
:101EC000EBE8F2E0628121E1621B08F460E021E0CE
:101ED000438181810E94CD0E0895EBE8F2E062819A
:101EE00021E1620F08F46FEF21E0438181810E94BC
:101EF000CD0E0895EBE8F2E0818121E0438162811B
:101F00008A500E94CD0E0895EBE8F2E0818121E035
:101F100043816281865F0E94CD0E089580918F0279
:101F2000882319F0815080938F0260918B02709109
:101F30008C0280918D0290918E020E94BA0E0895BB
:101F400080918F02833018F48F5F80938F026091AD
:101F50008B0270918C0280918D0290918E020E9472
:101F6000BA0E089590918B0290FF2CC09170811150
:101F70002AC0926090938B02662351F060918B028D
:101F800070918C0280918D0290918E020E94BA0E07
:101F900060918B02669570E04BE050E08CE091E040
:101FA0000E948827892BB1F01092690281E080930A
:101FB000650220E040918E0260918D0280918C023A
:101FC0000E94CD0E0895853210F09864D3CF880F0B
:101FD000982BD0CF81E0809369020E9421059093D5
:101FE000630280936202E2CF80918B0286958150DA
:101FF00009F484E261E00E94B20F089580918B029F
:1020000086958F5F853208F081E061E00E94B20F13
:10201000089590918B0290FF08C09695981728F02C
:10202000961718F40E94FE0F089561E00E94B20F07
:102030000895EBE8F2E083E0808311828FEF8283E2
:102040008383148260817181828193810E94BA0EA0
:102050000895A8E0B0E0EFE2F0E10C9402278E01D1
:102060000F5F1F4F88E0F80111928A95E9F78CE421
:10207000C82E81E0D82EF12CE12CAA24A394B12CF7
:102080002AE5822E21E0922EF60181916F018F3F89
:1020900009F442C0F894E82FE295EF70F0E021A136
:1020A0008F70A50102C0440F551F8A95E2F7CA013F
:1020B000922F982B91A392A18095892382A3789443
:1020C00000C0E4E5F1E0712C31E021912F3F09F4EB
:1020D0005FC0A22FA295AF70B0E090968C9190E077
:1020E0002F7002C0959587952A95E2F780FD50C024
:1020F000832F782A330F8E169F0639F7F601319712
:1021000080818F3F11F00E94AF0750EA5A95F1F796
:10211000F801EE0DFF1D70828FEFE81AF80AE8E073
:10212000EE16F10409F0B0CF48E050E0B80186E3C4
:1021300092E00E949527FF24F394009709F4F12C74
:10214000892B41F188E0F801A6E3B2E001900D92FD
:102150008A95E1F781E0809335020E9421059093F2
:1021600034028093330280913302909134020E94B2
:102170001205059798F0E6E3F2E0ADE4B2E0819154
:102180008D9342E0EE33F407D1F71092350206C08A
:1021900080E0AFCF809135028111E5CF8F2D289659
:1021A000EDE00C941E278091300290912F02892B34
:1021B0008093A001909131029923A1F0892B809303
:1021C000A00180911A018823E1F180919B0287FF91
:1021D00038C08EE1E2EAF1E090E08150A0F5911183
:1021E0000E94910940E250E06FE072E080EA91E0E5
:1021F0000E949527892B21F180E2E0EAF1E0AFE02F
:10220000B2E001900D928A95E1F7E0919202F0918F
:1022100093023097A9F080911A01882359F0809198
:102220009B0287FF07C08091A0018093A10186E0F7
:102230008093A0010280F381E02D80EA91E009956E
:10224000089586E0C7CF2191222339F29F5FC5CF41
:1022500090E080E00E94A20590E080E00E948C0562
:1022600010922F020E94D31086E0ECE5F2E0DF012D
:102270001D928A95E9F7109256021092550210921B
:1022800057020E94710608958093D2020E9428117D
:1022900008958091D202982F9670963021F488602C
:1022A0000E9444110895877FFBCF21E030E001C0F8
:1022B000220F8A95EAF720958091D20282230E940C
:1022C0004411089590910E028095892380930E0207
:1022D000282F277091F4282F082E000C330B92170B
:1022E000130659F090919C0292FF07C08595859541
:1022F00085950E94551110920E020895CF93C091BA
:102300009C02C2FB992790F9981791F080FBC2F9C3
:10231000C0939C0260919B0284E090E00E9454274D
:102320006C2F82E290E00E94542782E00E946211AA
:10233000CF91089521E030E001C0220F8A95EAF79D
:102340008091D202822B0E94441108958093320220
:102350000E9428110895882321F00E9497090E9465
:10236000D3100895882339F090913002982B9093E0
:1023700030020E94D3100895882391F19CEF980FAA
:10238000913A40F4682F80EA91E00E942D050E9466
:10239000D310089590E2980F983050F4877091E030
:1023A00001C0990F8A95EAF7892F0E949709EFCF0C
:1023B0009BE5980F933028F490E080E00E94A205FE
:1023C000089598E5980F973128F490E080E00E94F6
:1023D0008C050895803F20F00E9498060E947106A7
:1023E0000895CF93C82F8823D9F18CEF8C0F813AB1
:1023F000C8F580911A01882311F180919B0287FF13
:102400001EC0EC2FE695E695E695F0E0E056FE4F0F
:10241000828190E04C2F477021E030E002C0220F13
:10242000331F4A95E2F782239323892B91F06C2F77
:1024300080EA91E00E942D050E94D3100AC0E2EAD2
:10244000F1E088EA91E02191C21789F38E179F0786
:10245000D1F76C2F80EA91E00E9457050E94D310BB
:10246000CF91089580E28C0F883068F4C77021E026
:1024700030E001C0220FCA95EAF780913002822B2A
:1024800080933002EBCFEBE5EC0FE33040F4F0E06B
:10249000E55EFE4F808190E00E94A205E1CFE8E575
:1024A000EC0FE73150F4F0E0EE0FFF1FE25EFE4F5D
:1024B000808191810E948C05D3CFC03F88F28C2F00
:1024C0000E9453070E947106CBCF1F93CF93DF93D7
:1024D000182FD0E0C0E0893311F4C0E5D0E0812F9F
:1024E0000E94F111209739F4812F0E94BC11DF91D5
:1024F000CF911F9108958FE99FE00197F1F700C0F8
:1025000000002197EFCF0F931F93CF93DF93C62F38
:10251000D42F022FFC0182818823A9F06093D1027D
:102520000E9421059093D0028093CF02C77081E072
:1025300001C0880FCA95EAF70E94B211DF91CF91CE
:102540001F910F9108958091D102681332C080913C
:10255000CF029091D0020E941205883C910548F567
:1025600010E21D0FCD17B9F080E28C0F883040F4D7
:10257000C77081E001C0880FCA95EAF70E94AB11CD
:10258000183048F481E09D2F977001C0880F9A950C
:10259000EAF70E94B211802F0E946512183070F67F
:1025A000D77081E001C0880FDA95EAF70E94AB117D
:1025B000C5CFC77081E001C0880FCA95EAF7F6CF92
:1025C00068EE7EEF90E080E00E94722760E082E09B
:1025D00090E00E94542760E083E090E00E9454273E
:1025E0001092320260E084E090E00E94542764E0A0
:1025F00082E290E00E94542760E085E090E00E9433
:10260000542760E086E090E00E9454276FEF87E057
:1026100090E00E94542740E050E0BA0188E090E04A
:102620000E94662760E08DE090E00E94542740E021
:1026300050E0BA0188E190E00E94662760E087E1FF
:1026400090E00E94542740E050E0BA018CE190E015
:102650000E94662770E060E080E290E00E947227AE
:1026600040E050E0BA0188E190E00E94662780E0F7
:102670000E949A0D0E94B40D40E050E0BA018FE034
:1026800090E00E94662740E050E0BA0183E190E0CC
:102690000E94662708951092300280911A01E2EAA2
:1026A000F1E0882361F080919B0287FF08C08EE1F2
:1026B000DF011D928A95E9F70E942811089586E0AE
:1026C000F7CFAAE2B0E0E7E6F3E10C940C2787EC41
:1026D00092E02091F100DC012D93CD01B2E08F3C1E
:1026E0009B07B9F78091C802833009F472C0B8F42F
:1026F000813009F449C0823009F4B3C08091E80008
:1027000083FF8BC28091C7029091C8029A3008F073
:1027100084C2E92FF0E0EC55F84D0C94BF268A30C6
:1027200009F48EC08B3009F471C0893039F780917B
:10273000C702813219F78091CB029091CC020097A9
:1027400011F00297D9F68091E800877F8093E80026
:102750008091E80082FF38C09091F3008091F200F0
:10276000029731F48091F100813011F0863021F42C
:102770008091F1008093A2028091E8008B77809392
:10278000E8000E94F303BACF8091C702813A09F0B2
:10279000B5CF8091E800877F8093E8008091CB02DD
:1027A0009091CC02892B61F460E283EA92E070E0C0
:1027B0000E949F048091E8008B778093E8009ECF71
:1027C00060E090E080E0F3CF8091C5028111C0CF3E
:1027D00095CF8091C702813A09F090CF8091CB02CA
:1027E0009091CC02892B09F089CF8091E800877FF6
:1027F0008093E8008091E80080FFFCCF80911A016F
:102800008093F1008091E8008E77B9CF8091C70264
:10281000813209F073CF8091CB029091CC02892B49
:1028200009F06CCF8091E800877F8093E8000E94D8
:10283000F3038091C90280931A010E944B135ECF6B
:102840008091C702813209F059CF8091E800877FDB
:102850008093E8000E94F3038091CA028093A10252
:102860004DCF8091C702813A09F048CF8091E800AE
:10287000877F8093E8008091E80080FFFCCF809103
:10288000A102BECF803899F0823809F0C6C180918C
:10289000CB028F70873008F0C0C18093E90080912F
:1028A000EB0085FB882780F91092E90006C0809133
:1028B000C3029091C402911182609091E800977FC9
:1028C0009093E8008093F1001092F1008091E8006D
:1028D0008E779FC1882309F48DC1823009F09DC194
:1028E0008091C902811190C18091CB028F702FEF2E
:1028F000280F263008F091C18093E9002091EB0069
:1029000020FF82C1933031F48091EB00806280938C
:10291000EB007AC19091EB0090619093EB0021E085
:1029200030E001C0220F8A95EAF72093EA00109266
:10293000EA008091EB008860EACF81116EC11091AE
:10294000C9021F778091E3008078812B8093E30098
:102950008091E800877F8093E8000E94F3038091D4
:10296000E80080FFFCCF8091E30080688093E30063
:1029700082E0111183E08093C5024FC180588230FC
:1029800008F04BC12091C9023091CA022C3DE3E00E
:102990003E07A1F583E08A838AE289834FB7F894E2
:1029A000DE01139620E03EE051E2E32FF0E0509389
:1029B0005700E49120FF03C0E295EF703F5FEF7096
:1029C0008E2F90E0EA30C0F0C7968D939D932F5FD5
:1029D000243159F74FBF8091E800877F8093E8004A
:1029E0006AE270E0CE0101960E949F048091E800A7
:1029F0008B778093E80011C1C096E7CF8091CB021E
:102A00009091CC02432F55274330510509F44AC019
:102A100078F54130510509F47AC08BE590E0EBE19F
:102A2000F6E04230510509F0F8C02091E800277F18
:102A30002093E8002091CD023091CE0282179307B7
:102A400008F49C0140E02115310509F065C04111F1
:102A500063C08091E80082FDC9CF8091C5028823C0
:102A600029F2853019F28091E80083FFF2CFBECFC2
:102A70004132510509F43CC04232510509F0CDC044
:102A80008330910508F0C9C0FC01EE0FFF1FEE5620
:102A9000FE4F0190F081E02D81579E4FDC018C911B
:102AA00090E01AC0332721303105D1F021153105CE
:102AB00061F02230310509F0B0C0E8E8F6E0E491B9
:102AC0008E2F90E0E8E8F6E007C0E0EBF6E0E49156
:102AD0008E2F90E0E0EBF6E0009709F49EC0A5CFC2
:102AE000E6E9F6E0E4918E2F90E0E6E9F6E0F4CF37
:102AF0008330910508F091C0880F991FFC01E856BA
:102B0000FE4F0190F081E02D89E090E08ECF82E1D0
:102B100090E0E6E7F6E089CF8091C502882309F4CA
:102B200065CF853009F462CF8091E80083FD5ECFE8
:102B30008091E80082FD8DCF8091E80080FF83CFF7
:102B40009091F3008091F2002115310519F0883041
:102B5000910550F041E0089709F040E08091E800CD
:102B60008E778093E8006FCF44914093F1003196C7
:102B7000215031090196E8CF803809F04EC080918C
:102B8000E800877F8093E8008091C6028093F1007F
:102B90009DCE811142C01091C9021230F0F5809192
:102BA000E800877F8093E8001093C6020E94F30339
:102BB000112311F084E005C08091E30087FDFACF76
:102BC00081E08093C50242E061EC81E00E94120442
:102BD00042E261EC84E00E94120442E261EC82E095
:102BE0000E94120442E260EC83E00E941204809191
:102BF000C50213C08091C902813079F481E093301D
:102C000009F080E08093C4021092E9008091E8000E
:102C1000877F8093E8000E94F3038091E80083FFA0
:102C20000AC08091E800877F8093E8008091EB00E4
:102C300080628093EB00AA96E3E00C9428270E9420
:102C40004B132FEF84E39CE0215080409040E1F74C
:102C500000C0000088E19AE00FB6F894A895809330
:102C600060000FBE90936000FFCFA5E0B0E0EBE303
:102C7000F6E10C94FE268C01FC0183819481892B62
:102C800031F08081918189238F3F09F09AC5259683
:102C9000E1E10C941A270E94370EF82E682F8981E3
:102CA0009A810E94150A69817A818F2D0E94F30D05
:102CB0007C01F8018281882309F476C597012251AD
:102CC0003F452031310508F042C58FEF93E00E9467
:102CD0004027811128C0FEEEEF0E57EB852E992478
:102CE0009394E11032C01C821B82442443944AE036
:102CF000342E74018FEFE81AF80AC4010E944027AD
:102D000089831A82882379F09FEF980F933058F5C2
:102D10008A83498292E0890E911CC7010E94402754
:102D20008B83811121C080910E02877009F4AFCF8F
:102D3000F8018281882309F4AACF80919C0282FF46
:102D4000A6CF82E00E946211A2CF811424E09206F5
:102D500051F3C4010E944027811101C0EA943FEF62
:102D6000831A930ABECF4701FE0131967F01F70116
:102D70002081222309F4BDCF213009F047C0918181
:102D80008281913031F4F2E0EF0EF11C0E94651265
:102D900007C0923049F422E0E20EF11C0E94F111CA
:102DA0003FEFE31AF30AE3CF933031F432E0E30E5E
:102DB000F11C0E94BC11F4CF943021F08FEFE81A7F
:102DC000F80AEECF92E0E90EF11C30E020E0B70106
:102DD0006F5F7F4FF70141818053990B8A309105D6
:102DE00050F021503109E0F28FE99FE00197F1F7AF
:102DF00000C00000F6CF329EF001339EF00D11248A
:102E00009C012E0F3F1F842F7B01E1CFE22FF0E0CA
:102E1000EC50FE4F5490822F86958695869590E0D3
:102E2000FC01EC51FE4F64902770712C022E02C001
:102E3000759467940A94E2F7E1E06E227724FC012E
:102E4000EC52FE4FA490B12C022E02C0B594A79470
:102E50000A94E2F7F1E0AF22BB24FC01EC53FE4FF1
:102E6000C490D12C02C0D594C7942A95E2F721E0F2
:102E7000C222DD246114710419F081EE0E94F11167
:102E8000A114B10419F086EE0E94F111852D0E9463
:102E90006512A114B10419F086EE0E94BC116114F0
:102EA000710419F081EE0E94BC11C114D10409F41F
:102EB00077CF8CE26BCF81E00E949A110E9449117A
:102EC00032CF81E00E945511F9CF82E0F5CF95EF26
:102ED000E9169CE5F90609F46CC008F466C027E21F
:102EE00045EE66EEF6EFEF16FCE5FF0609F458C472
:102EF000882309F477C41092D10223E0E2162DE56D
:102F0000F20608F05DC03AEFE3163CE5F30630F454
:102F1000C70182509C45449708F05EC00E94AC0EE9
:102F200090939C0280939B02E1E1EE16ECE5FE0695
:102F300009F438C108F0A6C029E0E2162CE5F20633
:102F400009F41EC108F06FC085E0E8168CE5F806AC
:102F500009F40AC108F058C0E3E0EE16ECE5FE06FD
:102F600009F4F8C008F0FCC080919B02816022E067
:102F7000E2162CE5F20609F4F0C060919B02F09095
:102F80009C0284E090E00E9454276F2D82E290E042
:102F90000E9454270E944B13C6CE27E245EE65EEF1
:102FA000FFC326E241EE60EEFBC327E245EE64EE8E
:102FB000F7C326E241EE62EEF3C328E241E0EFCF31
:102FC00081E6E8168DE5F80609F4A8CF95EAE9163A
:102FD0009DE5F90609F4A2CF36E1E3163CE5F306D8
:102FE00009F0BEC4809130028A7A91E009F490E041
:102FF0009093C00169E2811165E380EA91E00E944B
:1030000057050E94D3108FCE80919B02806237E0DB
:10301000E3163CE5F30609F4A0C008F4ADC08091C6
:103020009B0280649AC080919B028B7F9DE0E91691
:103030009CE5F90609F491C0B0F480919B028E7F63
:10304000FBE0EF16FCE5FF0609F487C080919B02C8
:103050008C602CE0E2162CE5F20608F47EC080912C
:103060009B028D7F7AC080919B028F7E3FE0E316AA
:103070003CE5F30609F471C008F488C080919B0216
:103080008F7D6BC09DEFE9169CE5F90609F486C0BB
:1030900078F5F5E1EF16FCE5FF0609F491C0A0F420
:1030A00080919B02837F33E1E3163CE5F30609F44C
:1030B00054C008F47BC00E944B1390919B02892F4F
:1030C00097FB87F9805849C09BEFE9169CE5F90604
:1030D00009F44EC008F05EC080919C028160FAEF56
:1030E000EF16FCE5FF0609F048CF80939C0245CF20
:1030F00021E0E2162DE5F20609F46EC0B8F48FEF78
:10310000E8168CE5F80609F457C080919C028360AC
:10311000E1149DE5F90648F380919C02982F909563
:1031200091708E7F892B90FB81F9DFCFE1E6EE165F
:10313000EDE5FE0609F456C0F5EAEF16FDE5FF06DB
:1031400009F457C022E0E2162DE5F20609F015CF8A
:1031500060E043C080919B02826080939B020DCF10
:1031600080919B028460F9CF80919B028860F5CFAB
:1031700080919C028260B9CF80919B028061EDCFEB
:103180000E944B1380919B028068E7CF80919B0245
:10319000877FE3CF80919C028E7FA7CF80919C0296
:1031A0008D7FA3CF80919B028F7BD7CF0E944B1343
:1031B00080919B028F77D1CF80919C028C7F95CF9D
:1031C00080919B0282FB992790F921E0922790FB46
:1031D00082F990FB83F9C1CF61E08EE090E00E941C
:1031E0005427CBCE90919B02892F8F7E94FF8061D4
:1031F000B4CF90919B02892F8E7F90FF8160ADCFDD
:103200008091C00169E2811165E380EA91E00E944A
:103210002D05F7CE816080938B0261E086950E9438
:10322000B20F81CD44EF5FE06EEF7FE00E94C505F5
:103230007ACD4EEF5FE064EF7FE0F8CF44E85FE0E7
:103240006AE77FE0F3CF40E65FE06DE67FE0EECF38
:1032500046E45FE063E57FE0E9CF43E55FE066E4F5
:103260007FE0E4CF40EA5FE06EE87FE0DFCF61E03F
:1032700081E0D5CF65E082E00E94091054CD68E07E
:1032800086E0FACF64E18FE0F7CF67E185E1F4CF24
:1032900062E289E1F1CF61E083E2C1CF0E944B138A
:1032A000FFEF24E33CE0F15020403040E1F700C064
:1032B00000000E94010580919C0282FB882780F912
:1032C00091E089270E947E11F8018281E080F180DF
:1032D000882309F445C0C7010E94370ED82E682FF5
:1032E000C7010E94150AB7018D2D0E94F30D0E949F
:1032F00009087C01882EF801D280B580B2943FE0A5
:10330000B32280910E028770C1F0AD2CDD20B1F0A8
:103310008F2D807F803421F080E28E0D883068F020
:1033200080919C0282FF09C082E00E94621180911C
:103330000E028770AA24A3948111A12C9F2C929431
:103340002FE09222FBE0F91508F479C0E92DF0E0B6
:10335000E255F84D0C94BF2681E0B4CF80E0B2CFA7
:10336000C7010E94CF09D82EBECF2F2D2F70C22E9D
:103370008F2D807F19F0C29490EFC922DD20B9F023
:10338000CC2069F080E28E0D883010F0811009C0E9
:1033900080913002C82AC09230020E94D3108E2D34
:1033A0004CC080912F02C82AC0922F02F6CF8E2DDA
:1033B0000E94BC11CC2009F442C080E28E0D8830FE
:1033C00010F0811004C08C2D0E94970906C0C09493
:1033D00080912F02C822C0922F020E94D3102FC0CA
:1033E0003F2D3F70C32E8F2D807F803219F0C29405
:1033F00080EFC822882089F081E0881609F468C02F
:10340000DD2009F472C0BB2009F468C0F801858191
:1034100080FFC5CF8F70858361C020919C0222FD03
:1034200035C0DD2069F1CC2039F080913002C82A06
:10343000C09230020E94D31080E00E94F111292D29
:103440002850330B2430310510F40E94B805AA200F
:1034500009F41DCC80910E0280FD19CCF801128276
:103460008595859585950E949A11C8010E9435160B
:1034700080910E028595859585950E94551107CC02
:1034800080E00E94BC11CC20D1F29DCFDD2099F0CC
:10349000909131028C2D892BB11003C00E94B21182
:1034A000CECFE1E0BE12FACF22FFC9CF981739F292
:1034B00080933102C4CFB11006C00E9491098C2DB7
:1034C0000E94AB11BCCFF1E0BF1609F4B8CFF5CF25
:1034D000DD2031F025E02B1508F4B1CF8C2DDECFA7
:1034E00034E03B1508F4ABCFEACFBB2041F3F9E35E
:1034F0008F1209C02FEF37EE83E02150304080401B
:10350000E1F700C000008E2D0E94BC1198CF8F2DD6
:1035100086958695837061F0813009F090CFC70160
:103520009370D11002C090E080E00E948C0587CF9C
:10353000C7019370D11002C090E080E00E94A20504
:103540007ECF8E2DDD2029F00E9453070E94710648
:1035500076CF0E949806FACF8F2D837091F5D11007
:103560006ECF4E2D429546954770440F440F8E2DD9
:103570008F70042E01C0880F0A94EAF72E2D207157
:10358000E4FE07C02FE030E001C0220F4A95EAF7C1
:1035900020953F2D369536953370323069F050F4D2
:1035A00040913202313029F0822B84230E94A611EF
:1035B00046CF842B822BFACF282B80913202822790
:1035C000F5CF8695DD2011F08F2D8170882309F4C9
:1035D00036CF4E2D429546954770440F440F8E2DA1
:1035E0008F70042E01C0880F0A94EAF72E2D2071E7
:1035F000E4FE07C02FE030E001C0220F4A95EAF751
:1036000020953F2D369536953370323069F050F461
:103610004091D202313029F0822B84230E94441140
:103620000ECF842B822BFACF282B8091D2028227B7
:10363000F5CF9F2D9F70F92EDD2029F0892F0E9454
:103640009A118E2D2BCF8E2D0E94AB118F2D0E94A3
:103650005511F5CE8E2DE2EF8E16B1F1E81570F012
:10366000F0EF8F16D1F021EF821691F0DD2009F4F2
:103670005EC0B11094CE8F2D8F712AC033EF8316A8
:1036800051F194EF8912F2CF80919C0282FD2FC0FC
:103690008F2D8F71DD20D9F21BC0DD2081F0E4E099
:1036A000EB1508F4CCCE2F2D2F7181E090E001C0F6
:1036B000880F2A95EAF79091D2028927AFCFF5E0DB
:1036C000FB1508F4BCCEEFCF8F2D8F71D110BFCF7B
:1036D0000E949A11B4CE80E0DD2009F49FCF9F2D87
:1036E0009F7181E001C0880F9A95EAF797CFDD209E
:1036F00099F02F2D2F71F22E822F0E949A11809116
:103700009C0282FF07C038E0F39EC0011124836051
:1037100080930E028F2DDCCF81E00E94621181E048
:103720008B1508F08CCE82E00E94621188CEBB20FF
:1037300059F0893309F0E7CE9FEFE7EEF3E09150BF
:10374000E040F040E1F7DDCE8F2D8F7180CFF0E1CA
:10375000EF16FFE5FF0609F4AECB21E1E2162FE5F7
:10376000F20609F4B2CB93EFE9169CE5F90609F4E9
:1037700018CC08F0ACCBF8EDEF16FCE5FF0609F429
:103780000CCC29EDE2162CE5F20609F416CC37ED47
:10379000E3163CE5F30609F0ABCB26E241EE61EE21
:1037A000C8010E948312BFCA30E1E3163FE5F30669
:1037B00009F487CB91E1E9169FE5F906A1F682E0CD
:1037C00081CB85E0DE01119601900D928A95E1F79B
:1037D000F801228189819A8121115DCA0E94CF0955
:1037E000F82E61CAF6E1EF16FCE5FF0609F408CDF4
:1037F0008091300282722CECE2162CE5F20609F47C
:1038000031CD08F06DC096ECE9169CE5F90609F497
:1038100015CDE8F5F3ECEF16FCE5FF0609F402CD53
:1038200028F532ECE3163CE5F30609F04DCD809126
:103830008B0280FFEFCC8E7F80938B0260918B0296
:1038400070918C0280918D0290918E020E94BA0E2E
:10385000109269028FEF90E7E2E081509040E040E3
:10386000E1F700C000000E94C40A5DCA94ECE916AA
:103870009CE5F90609F4DDCC4AE75FE064E87FE007
:10388000E5ECEE16ECE5FE0609F4D0CC1DCDF9EC26
:10389000EF16FCE5FF0609F4DBCC88F437ECE31601
:1038A0003CE5F30609F4CFCC4DE65FE060E67FE04F
:1038B00098ECE9169CE5F90609F4B8CC05CDEAECDC
:1038C000EE16ECE5FE0609F4C8CC4EE85FE060EACF
:1038D0007FE0FBECEF16FCE5FF0609F4A7CCF4CC87
:1038E00021EDE2162CE5F20609F4CCCCB8F48EEC0E
:1038F000E8168CE5F80609F4BDCC08F4B8CCEFEC7A
:10390000EE16ECE5FE0609F4BACC6EE089E0F0EDC7
:10391000EF16FCE5FF0609F4AFCCD6CC24EDE21699
:103920002CE5F20609F4B4CC78F482EDE8168CE5C7
:10393000F80609F4AACC61E088E193EDE9169CE56C
:10394000F90609F46CCCC0CCE5EDEE16ECE5FE060C
:1039500009F4A1CCFDE5EF16FF0609F4E4C9B4CCE7
:103960002AE5E2162DE5F20609F4F6CC78F4E11426
:103970008CE5F80609F492CC9EEDE9169CE5F90673
:1039800009F0A2CC0E94E0120E941F16ECE5EE1690
:10399000EDE5FE0609F48FCC08F4E0CC27EAE21648
:1039A0002DE5F20689F390CC1F93CF93DF9380919E
:1039B000DB01807F09F049C08091D801882309F498
:1039C00044C080910D02D091DC016091D6017091CC
:1039D000D701A091D901B091DA01C62FC72316E013
:1039E000D81799F190E0109711F0CF3F19F4019694
:1039F0008770F6CF189F9001199F300D1124F9019F
:103A0000E352FE4F41814713F2CF40814613EFCF7F
:103A100042814111ECCF438154814A1B5B0B483CEE
:103A2000510528F78091DB018F7080618093DB0165
:103A3000F901EE51FE4F80818F708061808386EDA9
:103A400091E00E9435160E949E09DF91CF911F914F
:103A50000895A1E1B0E0EFE2FDE10C9405278C01AF
:103A600085E0F801DE011D9601900D928A95E1F73F
:103A7000F801E28086EDA82E81E0B82E6091D90190
:103A80007091DA016115710509F426C19091D60192
:103A90004091D701892F84238F3F09F41DC12081D4
:103AA0003181C380D480F090D801F601E61BF70B7A
:103AB000FF2009F4DCC08091DB01582F507FE83CE7
:103AC000F10508F09FC051116BC0FE2C431314C0C8
:103AD000921312C0E11010C08F7080618093DB01DF
:103AE000C5010E9435168091DB01F80185838F2D79
:103AF0006196EAE00C942127C114D10429F0822FA9
:103B000083238F3F09F003C180E0F82FF170DF2E8F
:103B100080FF3CC080910D024091DC0156E084138F
:103B200015C02D873E878D859E850E94660E292FA4
:103B300022952F702230F0F0243018F59F70F1F0AC
:103B4000F8019581907FD1F4D12C1EC090E0589F50
:103B5000F001599FF00D1124E352FE4F618136139D
:103B600006C06081261303C06281E6120FC0019671
:103B70008770D5CF9F7011F0882331F3805E883035
:103B800018F3C8010E943516FD2CB1CFEE2009F4C0
:103B9000AECF8091DB0181608093DB01F12CA7CF58
:103BA000431306C0921304C0F801EE2009F479C053
:103BB000C8010E94730E882309F1EE20F9F080916C
:103BC000DB01803270F02091D6013091D701388727
:103BD0002F831986DB86CA868C87CE0107960E94C2
:103BE000351686E0F801A6EDB1E001900D928A95B8
:103BF000E1F70E94D41CFF24F39479CFC8010E94FE
:103C00003516F9CF51110AC086ED91E00E943516A4
:103C100086E0F50111928A95E9F7C0CF43130FC0F2
:103C200092130DC0E1100BC0F8018583C8010E94FA
:103C3000351686E0F50111928A95E9F758CFC8014B
:103C40000E94730E8823D1F2EE20C1F28091DB0135
:103C5000803238F22091D6013091D7013A832983FE
:103C60001B82DD82CC828E83CE010196B8CFE83CE8
:103C7000F105F8F6FE2CEE2009F243131FC0921353
:103C80001DC08091DB0180FD10C0982F907F69F0EE
:103C9000F8018583903F31F0982F907F905F8F706F
:103CA000892B8583C8010E94351686E0F801A6EDB0
:103CB000B1E001900D928A95E1F719CFC8010E94F9
:103CC000730E81118ECF8091DB0181608093DB01C7
:103CD000C8010E9435160BCFEE2009F48FCFC80122
:103CE0000E94730EF82E882309F488CF86E0F8012D
:103CF000A6EDB1E001900D928A95E1F78091D60191
:103D00009091D7010E94660E0E94D41CF0CE81E0F3
:103D10008E25FBCEA7E1B0E0E0E9FEE10C940C2794
:103D20004B8B5C8B6D8B7E8B8F8B611110922F0276
:103D30001A8A198A85E0FE017396DE011D960190AC
:103D40000D928A95E1F786E0FE013D96DE01179619
:103D500001900D928A95E1F7CE0107960E94291DE8
:103D6000882359F016E080910D029091DC018913AF
:103D700043C06796E3E00C94282786E0FE0137965F
:103D8000DE01119601900D928A95E1F78A859B8557
:103D9000892B41F38F81988589238F3F19F32091D7
:103DA000DC0130E0C90101968770992740910D022E
:103DB0004817190671F40E944B131092DC011092FF
:103DC0000D0286E0E6EDF1E0DF011D928A95E9F74C
:103DD000C9CF96E0929FD001939FB00D1124A352BA
:103DE000BE4FFE01319601900D929A95E1F78093B6
:103DF000DC010E949E09B6CF819FC001112483522D
:103E00009E4F0E94291D882309F4B3CF80910D0293
:103E100090E001968770992780930D02A4CF90E0DF
:103E200080E00E944E27883E9E4F19F40E94930E18
:103E3000089580E008951F920F920FB60F921124FB
:103E40002F933F934F935F936F937F938F939F93A2
:103E5000AF93BF93CF93DF93EF93FF93D091E9009C
:103E6000DF708091EC00C82FC17080FDC0E8109217
:103E7000E9008091F000877F8093F00078940E94A1
:103E800061131092E9008091F00088608093F00047
:103E9000CD2BCF70C093E900FF91EF91DF91CF91CF
:103EA000BF91AF919F918F917F916F915F914F9152
:103EB0003F912F910F900FBE0F901F9018951F925A
:103EC0000F920FB60F9211242F933F934F935F934E
:103ED0006F937F938F939F93AF93BF93EF93FF93D2
:103EE0008091E10082FF09C08091E20082FF05C05D
:103EF0008091E1008B7F8093E1008091DA0080FF68
:103F000024C08091D80080FF20C08091DA008E7F8D
:103F10008093DA008091D90080FF9DC080E189BD47
:103F200082E189BD09B400FEFDCF81E08093C50226
:103F30008091A002811109C00E9479030E9444046B
:103F40008091E20084608093E2008091E10080FF34
:103F500017C08091E20080FF13C08091E2008E7F45
:103F60008093E2008091E20080618093E200809182
:103F7000D80080628093D80019BC85E08093C50288
:103F80008091E10084FF2BC08091E20084FF27C074
:103F900080E189BD82E189BD89B5982F917080FF4C
:103FA000FBCF8091D8008F7D8093D8008091E10075
:103FB0008F7E8093E1008091E2008F7E8093E2000B
:103FC0008091E20081608093E2008091C6028823A4
:103FD00009F447C084E08093C5028091C5028091B6
:103FE000E10083FF27C08091E20083FF23C080911E
:103FF000E100877F8093E10082E08093C502109208
:10400000C6028091E1008E7F8093E1008091E20002
:104010008E7F8093E2008091E20080618093E200D5
:1040200042E060E080E00E9412048091F00088602D
:104030008093F000FF91EF91BF91AF919F918F918D
:104040007F916F915F914F913F912F910F900FBE94
:104050000F901F90189519BC1092C5021092A002E3
:1040600074CF8091E30087FD93E09093C502B5CFB4
:1040700078941F921FB61F9211248F939F93AF9332
:10408000BF938091970290919802A0919902B0916C
:104090009A020196A11DB11D8093970290939802F8
:1040A000A0939902B0939A02BF91AF919F918F9183
:1040B0001F901FBE1F9018951F921FB61F921124AC
:1040C0008F939F93AF93BF9380919602811113C0FA
:1040D0008091970290919802A0919902B0919A02D2
:1040E0004196A11DB11D8093970290939802A093D1
:1040F0009902B0939A02BF91AF919F918F911F90B7
:104100001FBE1F901895CDB7DEB7EE970FB6F89487
:10411000DEBF0FBECDBF85B7806885BF85B780681D
:1041200085BF84B7877F84BF0FB6F894A895809128
:104130006000886180936000109260000FBE80E88C
:1041400090E00FB6F89480936100909361000FBEE9
:104150008DEA97E090939F0180939E010E947903DE
:104160000E9444048091E20084608093E20078948D
:104170008091C5028823A1F01091E9001F709091F1
:10418000EC00892F817090FD80E8182B1092E900D7
:104190008091E80083FD0E9461131F701093E90075
:1041A00082E084BD93E095BD9AEF97BD80936E0049
:1041B0000E94930E811102C00E94B40D0CE411E024
:1041C000D8018D918D018F3F11F00E94AF07B1E0B2
:1041D00004351B07A9F704E511E08AE5E82E81E024
:1041E000F82EF80181918F018F3F11F00E94AF07E7
:1041F000E016F106B1F788E0EDE4F2E0DF01282FE8
:104200001D922A95E9F7E6E3F2E0DF011D928A9517
:10421000E9F70E940F1F811102C00E94E01282E0A4
:1042200090E00E94402780933F020E94AC0E909342
:104230009C0280939B020E942910BFEFE6E7F1E009
:10424000B150E040F040E1F700C000000E942910AA
:1042500080914D0280FF08C06FEF7FEF90E080E01B
:104260000E9472270E94010583E090E00E9440278F
:104270000E94A61180913E02811133C00E940F1F3F
:10428000811104C00E94E0120E94191088E090E0A1
:104290000E94482760938B0270938C0280938D025A
:1042A00090938E026E7F71F40E94191088E090E066
:1042B0000E94482760938B0270938C0280938D023A
:1042C00090938E020E94CC051092690280918B021D
:1042D00080FF04C060E086950E94B20F81E0809369
:1042E0003E0281E080934A0224982C9A25982D9AC8
:1042F0008FE891E00197F1F700C0000020914A0299
:104300004BE452E0FA018E2F841B821708F4AEC1F1
:1043100080E091E09093930280939202B8E16B2E3B
:10432000712C15E5C12E12E0D12E04E0A02EB12C87
:104330008091C50200E112E1853009F4D6C10E94E6
:104340002910882359F08FB7F89440919702509123
:1043500098026091990270919A028FBFADE48A2E03
:10436000A2E09A2EE0E4F2E0D40110E000E0302F69
:104370008D919191981709F4C7C1292F282790E0B2
:10438000FF24F394422F4F2109F4B9C19DAB3EABFA
:104390008F2191E009F490E09FAB0E94210581609C
:1043A000782F99AF88AF4DA95EA96FA989AD0E94FA
:1043B0008A1EF801E05CFD4F8081F826F082809132
:1043C00069028823D1F180916802E0918B02E69521
:1043D000E81BE0936402823009F0ADC1F0E0EE57D3
:1043E000FD4FE4910E2F10E0FAEFEF2EFCE0FF2ED0
:1043F00080916502882361F0109265020E94210578
:104400009093630280936202109267021092660298
:104410000E942105E0916202F09163028E1B9F0BC6
:104420008F3F9F4750F4E00FF11FF0936302E0933A
:10443000620282E692E0F7010995512C412C332467
:1044400033948CEF282E80914A02581608F4CDC17F
:10445000442059F08FB7F8944091970250919802F8
:104460006091990270919A028FBF86E0ECE5F2E0CC
:10447000DE01119601900D928A95E1F710925E028D
:1044800010925F0210926002109261028B819C81F7
:10449000892B09F44AC080915A0290915B020E94D4
:1044A00012059C0190915602992309F40BC4253101
:1044B0003105D8F19F3F19F09F5F909356021B8101
:1044C000112359F00E9433079FEF11160CF491E06D
:1044D000899F802D112480935E021C81112359F045
:1044E0000E9433079FEF11160CF491E0899F802DF5
:1044F000112480935F0230915E023323B1F020914A
:104500005F02222391F045EB3403C001112499236B
:1045100009F408C290935E0245EB24039001112434
:10452000332309F403C230935F028D819E81892B6E
:1045300009F44AC080915802909159020E941205D4
:104540009C0190915502992309F4B7C32135310597
:10455000D8F19F3F19F09F5F909355021D81112361
:1045600059F00E9411079FEF11160CF491E0899FFA
:10457000802D1124809360021E81112359F00E9426
:1045800011079FEF11160CF491E0899F802D1124E3
:1045900080936102309160023323B1F02091610277
:1045A000222391F045EB3403C0011124992309F42F
:1045B000C1C19093600245EB240390011124332381
:1045C00009F4BCC13093610246E050E0BE016F5F68
:1045D0007F4F8CE592E00E949527892B61F48091B2
:1045E0005E0290915F02892B90916002892B9091DD
:1045F0006102892B11F00E94710686E0FE0131965E
:10460000ACE5B2E001900D928A95E1F70E94B80501
:1046100090914C02891380934C028091C5028430A2
:1046200009F086CE83E08093E9008091E80082FF64
:104630007FCE8091E80090E085FF06C00E9498033D
:10464000882309F47FC191E08091E8008B77809303
:10465000E800992309F46CCEE981E150E33108F0D8
:10466000EAC1F0E0E654F84D0C94BF2683B1829580
:1046700081701D9904C090E0892B819344CE92E013
:10468000FBCF8091C502843011F11092960290E424
:104690000FB6F894A895609260000FBE90936000EA
:1046A00083B7817F846083BF83B7816083BF789441
:1046B000889583B78E7F83BF0FB6F894A8958091B5
:1046C0006000886180936000109260000FBE80914E
:1046D000C402882351F00E942910EDE4F2E0819198
:1046E0008111CCC2CE16DF06D1F78091C50285308C
:1046F00009F4C7CF0E944B130E94B80520CE9F5FDC
:10470000FF0C963009F03ECE0F5F1F4F08301105A9
:1047100009F02DCE8FEF8AAF8BAF1CAE0E94210522
:104720008160782F9EAF8DAF4AAD5BAD6CAD8EAD25
:104730000E948A1E44CE863059F4F0E0E158FD4FC5
:10474000E4910E2F10E0EAEEEE2EECE0FE2E50CEBD
:10475000893061F4E695F0E0E458FD4FE4910E2FC6
:1047600010E07EE5E72E7CE0F72E42CE8F3061F43C
:10477000E695F0E0E758FD4FE4910E2F10E069EF69
:10478000E62E6BE0F62E34CE853159F4F0E0EA588F
:10479000FD4FE4910E2F10E05BEAE52E5BE0F52E75
:1047A00027CE08E210E020E3E22E2BE0F22E883143
:1047B00009F41ECE833249F4E4E7F2E00591149146
:1047C00049E9E42E4CE0F42E13CE04EF11E039EF6A
:1047D000E32E3AE0F32E843209F40ACE00ED17E01E
:1047E0009BECE92E95E0F92E03CE052D10E0E3B108
:1047F000E295E1701D9994C080E08E2BD801A55BF5
:10480000BD4FEC919E2F9370891709F487C0EE0F6E
:10481000EE0FE82BEC93EF70F0E0E65AFE4FC80184
:10482000875B9D4F7C018081D7019C91890F8C9380
:1048300020E084308CF1F801E85BFD4F80818F5FD0
:1048400080830E9421055BA62CA63DA68160782F5F
:104850009FA78EA7452D5CEF61E08FA50E948A1E61
:10486000EFE3FFE13197F1F700C000000E9421055E
:1048700058AA29AA1AAA8160782F9CAB8BAB452D28
:104880005CEF60E08CA90E948A1E8FE39FE1019794
:10489000F1F700C0000021E0D7018C918D3F9CF51D
:1048A000F801E85BFD4F8081815080830E942105E3
:1048B00059A2BDEFBAA33BA28160782F9DA38CA320
:1048C000452D5DEF61E08DA10E948A1EEFE3FFE1BF
:1048D0003197F1F700C000000E9421055EA2FDEFB4
:1048E000FFA318A68160782F9AA789A7452D5DEFB1
:1048F00060E08AA50E948A1E8FE39FE10197F1F78D
:1049000000C0000021E0D7018C91082E000C990B0B
:10491000B5010E948926F7018083422A539493CDE2
:1049200082E06BCF81E080935E02F6CD81E08093E0
:104930005F02FBCD81E0809360023DCE81E08093F9
:10494000610242CE00E210E0CE0101967C0180912E
:10495000E80085FD0AC08091E8008B778093E8002D
:104960000E949803882399F36ECE8091F100D701BD
:104970008D937D010150110951F765CE1A8289E0AE
:104980008B831AC08A81823009F48EC18330D9F1B9
:10499000813009F050C02FB7F89460919702709160
:1049A00098028091990290919A022FBF0E94C52689
:1049B0006B837C838D839E838091C502843009F054
:1049C000B7CC1091E9001F709091EC00892F817095
:1049D00090FD80E8182B82E08093E9008091E80048
:1049E00080FF0DC050E040E060E270E0CE01019633
:1049F0000E94C9038091E8008E778093E8001F70C1
:104A00001093E90095CCFE013396D4018D914D01B0
:104A10008193CA16DB06C9F7CFCF8A81823059F459
:104A20006B817C818D819E810E94C52686E290E00B
:104A30000E945427C1CF8FEF8983BECF4C816B81F9
:104A40008A810E94C40D9827892798279E838D8389
:104A5000B3CF2D813E813227232732274C816B81B2
:104A60008A810E941E0DA8CF0E94440DA5CF8A8185
:104A70008138C1F060F4803809F09ECF20E04B818E
:104A800060918D0280918C020E94CD0E95CF82386C
:104A900059F1833809F090CF20E040918E026C816B
:104AA0008B81F2CF60E08B810E94B20F9B8180915D
:104AB0008B02911111C08E7F80938B02109269023C
:104AC000BFEFE0E7F2E0B150E040F040E1F700C0B6
:104AD00000000E94C40A70CF816080938B0260E066
:104AE00086950E94B20F68CF8B8180938F0264CF2E
:104AF0008A81813899F030F4803809F05DCF809157
:104B00008E023ECF823891F0833809F055CF8091E4
:104B10008C028B8380918D028C834ECF80918B028F
:104B200080FF02C086952CCF80E02ACF80918F0233
:104B300027CF60918B0270918C0280918D029091B1
:104B40008E020E94BA0E38CF80E18A8335CF82E090
:104B50008A8389E415CF0A811B811027012710273A
:104B6000CE0101967C018C80DC01A80DB11D4D01A8
:104B7000C80189549E4FE814F90409F41DCF093483
:104B8000B2E01B0750F40E944027F70184830F5FB7
:104B90001F4FBFEFEB1AFB0AEBCFD70114961C9205
:104BA000F6CF0A811B81102701271027FE013196BD
:104BB0004F01EC80E00EF12EF11CC80189549E4F8C
:104BC0000E151F0509F4F8CE0934F2E01F0728F48A
:104BD000D40114966C910E945427BFEF8B1A9B0A44
:104BE0000F5F1F4FEACF0E940E0DE6CE84E0ADCFDF
:104BF0000A811B81102701271027FE0131967F01B2
:104C00008C80CF01880D911D4C01C80187968E14B0
:104C10009F0409F4D1CE0038A1E01A0750F40E9495
:104C20004027F70184830F5F1F4FBFEFEB1AFB0A8A
:104C3000ECCFD70114961C92F6CF0A811B81102766
:104C400001271027FE0131964F01EC80E00EF12E76
:104C5000F11CC8018796E016F10609F4ADCE0038C4
:104C6000F1E01F0728F4D40114966C910E94542798
:104C7000BFEF8B1A9B0A0F5F1F4FEBCF09BD19BD0A
:104C800009B400FEFDCF8091D8008F7D8093D800BD
:104C90008091E00082608093E0008091E00081FDDF
:104CA000FCCF0E944B1321CD86E290E00E9440276A
:104CB0001B821C821D828E837FCE2B30310508F033
:104CC0004ACC82CC2B30310508F0F6CB2ECC87FBBA
:104CD000082E062687FD819567FD61950E94342781
:104CE0000EF4919507FC81950895AA1BBB1B51E119
:104CF00007C0AA1FBB1FA617B70710F0A61BB70B4C
:104D0000881F991F5A95A9F780959095BC01CD01F0
:104D1000089597FB072E16F4009407D077FD09D06D
:104D20000E94752607FC05D03EF4909581959F4F13
:104D30000895709561957F4F0895A1E21A2EAA1BE0
:104D4000BB1BFD010DC0AA1FBB1FEE1FFF1FA2173B
:104D5000B307E407F50720F0A21BB30BE40BF50B38
:104D6000661F771F881F991F1A9469F760957095C1
:104D7000809590959B01AC01BD01CF010895EE0F88
:104D8000FF1F0590F491E02D099469279627692764
:104D900078278727782708950E94D426332312F492
:104DA0008A1B9B0B0C94E526A29FB001B39FC00108
:104DB000A39F700D811D1124911DB29F700D811D47
:104DC0001124911D08950E94D426B7FF0895821BD7
:104DD000930B08950E94D426A59F900DB49F900D2B
:104DE000A49F800D911D11240895B7FF0C94EA260D
:104DF0000E94EA26821B930B08952F923F924F92B6
:104E00005F926F927F928F929F92AF92BF92CF925A
:104E1000DF92EF92FF920F931F93CF93DF93CDB763
:104E2000DEB7CA1BDB0B0FB6F894DEBF0FBECDBFDB
:104E300009942A88398848885F846E847D848C84AC
:104E40009B84AA84B984C884DF80EE80FD800C81B5
:104E50001B81AA81B981CE0FD11D0FB6F894DEBF98
:104E60000FBECDBFED010895991B79E004C0991FD5
:104E7000961708F0961B881F7A95C9F780950895B4
:104E8000F999FECF92BD81BDF89A992780B5089512
:104E9000A6E1B0E044E050E00C947A27A8E1B0E04D
:104EA00042E050E00C947A27262FF999FECF92BD6C
:104EB00081BDF89A019700B4021639F01FBA20BDDF
:104EC0000FB6F894FA9AF99A0FBE08950396272F11
:104ED0000E9455270E945427252F0E945527242FD2
:104EE0000C9455270196272F0E9455270C94542780
:104EF000DC01CB01FC01F999FECF06C0F2BDE1BD9A
:104F0000F89A319600B40D9241505040B8F7089588
:104F1000FC014150504030F001900616D1F7319716
:104F2000CF010895882799270895FB01DC0104C06B
:104F30008D910190801921F441505040C8F7881B91
:104F4000990B0895F894FFCF42146A140D166A1451
:104F50000D169D14BE140D16BC15C915B519B5193D
:104F6000F019F019871AA11A1F1A1F1AAC1A191B67
:104F70002A1B2A1BBE24C2240D251E2529253425C3
:104F80003725782599251B251B25A425A725AB2585
:0A4F9000D125F325F625F8251D268E
:104F9A00FE04840A630A5E0A590AFD0401191A1BEF
:104FAA001C1D1E1F20212201020101818283E200B1
:104FBA00E900EA00B500B600B700CD008301CC00D5
:104FCA008A01920194012102230224022502260267
:104FDA0027022A02B300B4006F007000F4939466AB
:104FEA0097C6F6F792919032333100FF0100010023
:104FFA0000FFFF0000010001FF000001020202029F
:10500A000606060909090909090F0F0F0F0F0F15DF
:10501A0015151819191919191919191919232440C3
:0E502A0022B684016201AC002D064606660621
:00000001FF
