:100000000C9474040C94BB040C94BB040C94BB04BB
:100010000C94BB040C94BB040C94BB040C94BB0464
:100020000C94BB040C94BB040C94BA2C0C94762C4A
:100030000C94B72D0C94BB040C94BB040C94BB041F
:100040000C94BB040C94BB040C94BB040C94BB0434
:100050000C94BB040C94932D0C94BB040C94BB0423
:100060000C94BB040C94BB040C94BB040C94BB0414
:100070000C94BB040C94BB040C94BB040C94BB0404
:100080000C94BB040C94BB040C94BB040C94BB04F4
:100090000C94BB040C94BB040C94BB040C94BB04E4
:1000A0000C94BB040C94BB040C94BB040501090222
:1000B000A10185020901A100050919012905150001
:1000C00025019505750181029501750381010501E1
:1000D000093009311581257F950275088106093897
:1000E0001581257F950175088106050C0A380215D2
:1000F00081257F950175088106C0C005010980A191
:1001000001850319012AB700150126B7009501756D
:10011000108100C0050C0901A101850419012AA064
:1001200002150126A002950175108100C00660FF2E
:100130000961A1010962150026FF0095207508815B
:10014000020963150026FF00952075089102C0057D
:10015000010906A101050719E029E7150025019508
:1001600008750181029501750881010507190029AB
:10017000FF150026FF009506750881000508190186
:100180002905950575019102950175039101C0003E
:10019000000000000000000000000000000000005F
:1001A000000000000000000000000000000000004F
:1001B0000000007E0F00D4FFFFFFC70000007800A2
:1001C000000000000000002A2B28000000000000B2
:1001D0000000000000000000000029000000002CCA
:1001E0001E3420212224342627252E362D37382769
:1001F0001E1F202122232425263333362E37381F75
:100200000405060708090A0B0C0D0E0F1011121336
:100210001415161718191A1B1C1D2F3130232D35D4
:100220000405060708090A0B0C0D0E0F1011121316
:100230001415161718191A1B1C1D2F3130354C6454
:100240003214783C1E1E140A05FD377A585A0000F5
:1002500004E6D6B4460200210116000000742FE522
:10026000A3E0051601655D003D8889C65436C317B5
:100270004FE4E87F6185F4BAF2013FE198ED09208F
:100280001181CBA4029BF2701369883063ED0A8F51
:1002900069FB247801D9829CC94B6F23D515538AF9
:1002A0005210B76D3463D2F55CD3569750DB54A12E
:1002B00025E1AD487715F843D6C147B621DAC6CA5D
:1002C000352CBE158EC08A5A0FC0DAF484E1FBB11A
:1002D0007D9A10A2D37F9FC750FD2948A775C3E31D
:1002E000BD66384E41C220272CEA035CB2646A84A2
:1002F000ED3D3C2EAED3453BFEC3465FF6E54C9E3E
:1003000024B81143F9ED417083427D546423D761D1
:100310001AF155E9A3377CCCFE5762E3897F25B9F2
:10032000AC6A28A09CCB2EB4EA9C6B7E6BDE38EBCB
:1003300070FAE1A141F348F2FB0FC00AC8B93A2FA5
:10034000F2A0B56314AA829C8DA00A8ABC018CF22B
:1003500052D3D527B74A92233573B446968A0DE413
:10036000A49D07DFE0A160398D231B05EE24D6B9DB
:10037000634533EBC0D7A85953DE9411ADCDCDC939
:10038000C7B601D25A2A08E88FF440D3E7680415AB
:100390002D753FF5253609BF51372ADC8564CA1013
:1003A0007C4802735FC5B14503D9C7D71AD58DB94B
:1003B00033B016470024D7B7BF480F69BC3B0B7A50
:1003C000985735D3B6CBBD885DDA5DF600000000E6
:1003D00000760888BF8A8FE8D000018103970A0061
:1003E00000BB35197CB1C467FB0200000000045952
:1003F0005A00010101010101010101020202020290
:1004000002020202030303030303030304040404BC
:100410000404040505050505060606060607070784
:10042000070708080808090909090A0A0A0B0B0B3B
:100430000C0C0C0D0D0D0E0E0E0F0F0F10101111D8
:10044000111212131314141515161617171818195C
:10045000191A1A1B1B1C1D1D1E1E1F2020212222C3
:10046000232424252626272829292A2B2C2D2D2E06
:100470002F30313232333435363738393A3B3C3D20
:100480003E3F404142434445464748494A4C4D4E11
:100490004F50515354555658595A5B5D5E5F6162D7
:1004A00064656668696B6C6D6F7072737577787A66
:1004B0007B7D7E8082838587888A8C8E8F919395C1
:1004C00096989A9C9EA0A2A3A5A7A9ABADAFB1B3E5
:1004D000B5B7BABCBEC0C2C4C6C9CBCDCFD1D4D6C5
:1004E000D8DBDDDFE2E4E7E9EBEEF0F3F5F8FAFD67
:1004F000FFFFAA7F55402223252628292A2C2D2FAD
:100500003032333536383A3B3D3E40424345474929
:100510004A4C4E5051535557595A5C5E606264665E
:1005200068696B6D6F71737577797B7D7F8183856A
:1005300087898A8C8E90929496989A9C9E9FA1A36C
:10054000A5A7A8AAACAEAFB1B3B4B6B8B9BBBCBE90
:10055000BFC1C2C3C5C6C7C9CACBCCCDCED0D1D20C
:10056000D2D3D4D5D6D7D7D8D9D9DADADBDBDBDC0E
:10057000DCDCDCDCDDDDDDDDDCDCDCDCDCDBDBDBBA
:10058000DADAD9D9D8D7D7D6D5D4D3D2D2D1D0CE1A
:10059000CDCCCBCAC9C7C6C5C3C2C1BFBEBCBBB91F
:1005A000B8B6B4B3B1AFAEACAAA8A7A5A3A19F9E9D
:1005B0009C9A98969492908E8C8A89878583817F65
:1005C0007D7B79777573716F6D6B69686664626046
:1005D0005E5C5A5957555351504E4C4A4947454312
:1005E00042403E3D3B3A3836353332302F2D2C2AAF
:1005F0002928262523222B0014001A0008001500A4
:10060000170000001C0018000C00120013002A0044
:10061000025104001600070009000A0005000B0043
:100620000D000E000F0034002800E1001D001B002B
:1006300006001900050001511100100036003700B6
:100640003800E1000000000000000000E000E200CF
:100650002C00E400E60000000000000000000100A3
:100660001E001F00200021002200000023002400A3
:100670002500260027000100010001000100010003
:100680000100010001002D002E002F003000340079
:100690003300010001000100010001000100010020
:1006A0000100010001000100010001000000000044
:1006B0000000000001000100010001000100000035
:1006C00000000000000001003A0052003C003D0024
:1006D0003E0000003F00400041004200AA00A90087
:1006E0000100500051004F00010001000100010015
:1006F00001000100010001000100010001000100F2
:1007000001000100010001000100010001000100E1
:1007100001000100000000000000000001000100D5
:1007200001000100010000000000000000000100C5
:1007300014001A0008001500170000001C00180023
:100740000C00120013002A0001000100010001004A
:100750000100010001000100010001000100010091
:100760000100010001000100010001000100010081
:100770000100010001000100010001000000000073
:100780000000000001000100010001000100000064
:1007900000000000000001000100AC0300000200A6
:1007A0000200A803000003000100AD0300000400E4
:1007B000020092031E0705000100AE0300000600C0
:1007C00002009403000007000200AA0300000800D2
:1007D0000100AF030000090002009603F9060A00B9
:1007E00002009803F9060B0002009A03F9060C00B8
:1007F00002009C03F9060D0002009E03F9060E009C
:100800000200A003F9060F000200A203F90610007F
:100810000200A403F90611000200A603F906120063
:100820000200B003000013000200B203000009023E
:100830005B00030100A0FA090400000103010100AC
:100840000921110100012240000705810308000A67
:100850000904010002030000000921110100012226
:100860002200070582032000010705030320000181
:100870000904020001030000000921110100012206
:1008800081000705840320000A1201000200000015
:1008900008EDFE81310100010203011C03760069AD
:1008A0000061006C003A00660036003400630032DC
:1008B00000620033006300000010035700610078FD
:1008C00000770069006E00670000001603520065A3
:1008D000006500640073004B0065006500620073F2
:1008E000000000040309040011241FBECFEFDAE06A
:1008F000DEBFCDBF04B603FE27C080919004909167
:100900009104A0919204B09193048730904BA7403A
:10091000B04BD1F410929004109291041092920472
:100920001092930414BE84B7877F84BF0FB6F894E7
:10093000A8958091600088618093600010926000AB
:100940000FBEE0E0F8E3099511E0A0E0B1E0E4EFCC
:10095000FBE602C005900D92AA39B107D9F724E051
:10096000AAE9B1E001C01D92A039B207E1F70E94E7
:10097000DE2D0C94C6350C940000E8EDF0E080818B
:100980008E7F80831092E2001092DA001092E100D4
:10099000A0EEB0E08C9181608C9380818F77808312
:1009A00019BCA7EDB0E08C918E7F8C9380818F7EF7
:1009B00080831092770408952091E4003091E5003F
:1009C00095E6A9012091EC00822F817020FF06C0DE
:1009D0008091E80080FF06C080E008952091E80043
:1009E00022FD1AC080918404882389F0853089F023
:1009F0008091EB0085FD0FC02091E4003091E5006F
:100A000042175307F9F29150E1F684E0089582E02D
:100A1000089583E0089581E00895EF92FF920F9387
:100A20001F93CF937C018B010E94DC04C82F81119E
:100A300017C08091E80085FD0BC08091E8008E779B
:100A40008093E8000E94DC04882399F3C82F08C033
:100A5000F70181917F018093F1000150110949F75D
:100A60008C2FCF911F910F91FF90EF90089580915F
:100A7000860487FF13C08091E80082FF06C0809142
:100A8000E8008B778093E80004C080918404811192
:100A9000F2CF0895809184048823D9F38091E800EF
:100AA00080FFF8CF8091E8008E77ECCF982F90935D
:100AB000E900242F762F50E0891731F07091EC0077
:100AC0002091ED005091F00021FD07C09F5F97300D
:100AD00071F78093E90081E008953091EB003E7F4B
:100AE0003093EB003091ED003D7F3093ED0030917D
:100AF000EB0031603093EB007093EC002093ED003D
:100B00005093F0002091EE0027FDE0CF80E00895A3
:100B1000CF92DF92EF92FF920F931F93CF93DF93C9
:100B2000C8EDD0E088818F7E8883E7EDF0E080819A
:100B30008160808384E082BF81E080937704888134
:100B40008E7F888302EE10E0F80110821092DA00A6
:100B500081EEC82ED12CF601108288818F77888390
:100B600088818068888388818F7D888319BC1092F2
:100B7000840410928504109283041092820490EEF3
:100B8000E92EF12CF70180818B7F80838881816041
:100B9000888342E060E080E00E945605F601808193
:100BA0008E7F8083F801808181608083808188606E
:100BB0008083F70180818E7F808388818061888334
:100BC000DF91CF911F910F91FF90EF90DF90CF9029
:100BD0000895FC0180918C0490918D0486179707ED
:100BE000A0F06115710529F49091E8009E7790932B
:100BF000E80090E06115710551F4911108C08091F1
:100C0000E80082FF34C080E00895BC01F2CF8091FB
:100C100084048823C1F18530C1F18091E80083FD0F
:100C200030C08091E80082FDEACF8091E80080FF2B
:100C3000E1CF8091F3002091F200382F611571050A
:100C400019F02830310558F091E02830310509F0CD
:100C500090E02091E8002E772093E800CBCF81919F
:100C60008093F100615071092F5F3F4FE7CF809172
:100C70008404882341F0853041F08091E80083FFAF
:100C8000BECF81E0089582E0089583E0089508953D
:100C900080917904089587E797E7909301088093FE
:100CA000000888E19AE00FB6F894A8958093600058
:100CB0000FBE90936000FFCF9C014FB7F8948091D6
:100CC000700490917104A0917204B09173044FBFAD
:100CD000821B930B08952FB7F89480917004909124
:100CE0007104A0917204B09173042FBF08952091F4
:100CF0006D0430916E042817390771F090936E04DB
:100D000080936D04E0916B04F0916C04309721F0B6
:100D10000084F185E02D09940895209169043091B3
:100D20006A042817390771F090936A048093690464
:100D3000E0916B04F0916C04309721F00680F7810C
:100D4000E02D09940895E0916B04F0916C043097C4
:100D500021F00190F081E02D099480E00895452B69
:100D600039F0682381E06F3F09F080E081700895D9
:100D700081E0FCCFDC0160918E0380918F03962F80
:100D8000891301C00895292F30E0F901EE0FFF1FEC
:100D9000EA57FC4F408151814A175B07A1F487E075
:100DA0008A9FA0018B9F500D1124425B5C4F81E014
:100DB000FA0184839613E6CF2F5F3F4F23703327CA
:100DC00020938E0308952F5F3F4F922F9370D8CFBB
:100DD0001092EB021092EA02EEE4F3E085818111B9
:100DE00002C014821682379683E0E638F807B1F71E
:100DF0000895E2E9F3E0848195812AE030E0B901C9
:100E00000E94FE34609322018681809321018285B5
:100E100080932001848580931F0186859785B90181
:100E20000E94FE3460931E01808980931D01828997
:100E300080931C01848980931B0108958091920303
:100E40009091930390932401809323010895FA01D4
:100E5000811101C0FB010994089580915A02982FD5
:100E60009E7F29F48170826080935A0208958233B4
:100E7000E8F381708063F8CFAF92BF92DF92EF9278
:100E8000FF920F931F93CF93DF93082F162FE90143
:100E9000E42FF0E0EF50FC4F611110C0E4915E2FA1
:100EA0004E2F4983E8835A83DF91CF911F910F9191
:100EB000FF90EF90DF90BF90AF900895E62EF12C59
:100EC0004491D42EE42FF0E026E0829FC00111244B
:100ED0002FEF30E0B9010E94FE34802F90E0880FA0
:100EE000991F55E5569FD001579FB00D11248A1BBD
:100EF0009B0B982F990F890F5901AE18BF08AE9E12
:100F0000D001AF9EB00DBE9EB00D11245B2F189F77
:100F100080011124012F11275901A01AB10AAE9E98
:100F20008001AF9E100DBE9E100D11245901A81A0C
:100F3000B108AE9CC001AF9C900DBE9C900D1124D9
:100F4000892F9927281B390B2E9FC0012F9F900DA9
:100F50003E9F900D1124E92F62307105A1F050F4ED
:100F60006115710509F49DCF6130710581F0EB2F9A
:100F7000512F97CF6430710569F080F066307105AC
:100F800009F48FCFF4CFE42F4B2F592F8ACFE42FC2
:100F9000412F87CFEB2F542F492F83CF4B2F5D2D20
:100FA000E12F7FCF0E946B069C01909142028091BD
:100FB0004302982B21F030933F0220933E02909100
:100FC000440280914502982B21F030933D022093FA
:100FD0003C02E0916B04F0916C04309749F082E0A0
:100FE000809340020480F581E02D80E492E0099432
:100FF000089590914202803F59F48091430287FF07
:101000000DC01092430291110BC010923A0208C019
:10101000813F81F48091430218169CF3992381F05B
:101020008091440290914502892B09F064C010928E
:1010300039020895823F49F497FFF0CF109242029F
:10104000809143028111ECCFE0CF833F19F4191650
:10105000ACF3E4CF20914402893F29F41216F4F650
:1010600010924402DBCF8A3F19F427FFD7CFF8CF85
:10107000209145028B3F29F427FFD0CF10924502E3
:10108000CDCF8C3F19F41216CCF3C8CF843F31F486
:10109000809141028E7F80934102C0CF853F21F431
:1010A000809141028D7FF7CF863F21F480914102EC
:1010B0008B7FF1CF873F21F480914102877FEBCF77
:1010C000883F21F4809141028F7EE5CF8D3F31F43E
:1010D00080913B028E7F80933B02A0CF8E3F21F414
:1010E00080913B028D7FF7CF8F3F09F097CF8091A2
:1010F0003B028B7FF0CF089580913B0280FF0CC0B4
:1011000060911C0170E075956795759567956115FF
:10111000710549F1862F089581FF06C060911C0179
:1011200070E075956795F3CF60911C0182FD0BC04F
:10113000909139029923A1F060911B0180911C01CB
:10114000961738F0682F70E06038710500F38FE76C
:101150000895899FC001112470E00E941235F4CFD8
:1011600061E070E0D7CF81E0089580913B0260910B
:101170009A0370919B0380FF16C020912001269F47
:10118000C001279F900D1124BC0176956795769537
:1011900067956038710508F043C06115710509F461
:1011A00041C0862F089581FF0BC020912001269F0A
:1011B000C001279F900D1124BC0176956795E9CF5A
:1011C00082FF09C0809120019B01829FB001839F13
:1011D000700D1124DECF20913A022223D1F290919A
:1011E0001F0180912001482F50E0291748F0CB01C2
:1011F000849FB001859F700D949F700D1124C9CFFD
:10120000289F90011124269FA001279F500D369FF3
:10121000500D1124692F70E0CA010E94FE34B9CF2D
:101220008FE7089581E00895803F31F40E94B5086A
:101230008195809343020895813F19F40E94B50877
:10124000F8CF823F31F40E94B50881958093420225
:101250000895833F19F40E94B508F8CF893F29F417
:101260000E947C088093440208958A3F21F40E94E2
:101270007C088195F7CF8B3F31F40E947C088195E3
:101280008093450208958C3F19F40E947C08F8CFA2
:10129000843F31F48091410281608093410208953E
:1012A000853F21F4809141028260F7CF863F21F48F
:1012B000809141028460F1CF873F21F48091410207
:1012C0008860EBCF883F21F4809141028061E5CFB7
:1012D0008D3F31F480913B02816080933B02089501
:1012E0008E3F21F480913B028260F7CF8F3FB9F7A8
:1012F00080913B028460F1CF80E00895F894E82F5C
:10130000E295EF70F0E031A1282F2F7081E090E09E
:1013100001C0880F2A95EAF7982F9095932391A3FF
:1013200092A1892B82A37894089590911A0292FF3A
:1013300006C0282F28712830F9F4877F846093FF36
:1013400006C0282F28712831F1F4877E846120910E
:101350001B0220FF06C0382F38713830D9F4877F40
:10136000816021FF06C0282F28712831D1F4877EA3
:10137000816194FD877E0895282F24712430F9F629
:101380008B7F8860DCCF282F2471243101F78B7E7E
:101390008861DDCF382F3171313019F78E7F886049
:1013A000E0CF282F2171213121F78E7E8861E1CF96
:1013B000CF93DF93EC0182389105A9F1D8F5813301
:1013C000910509F496C048F58932910509F48AC05F
:1013D0008A9709F495C0C11521E5D20708F0BCC071
:1013E000C11530E5D30708F014C1C83ED10508F097
:1013F0009CC0C03ED10560F5C83AD10508F087C051
:10140000C53AD10508F0FDC0C130D10509F12097DA
:10141000F9F0C430D105E0F440C08533910509F4FA
:101420005AC0C997C1F680911A02837089F0C0EE44
:10143000D0E00EC0833E910599F170F4803E910595
:1014400001F1823E910539F680911A0282FD21C098
:10145000CE01DF91CF910895863E910561F1873EDF
:10146000910571F1843E910509F0B5CF80911B0281
:1014700081FFEECF80911A02C7EED0E084FD0DC04F
:10148000E7CF80911A0280FD12C190911B0290FF5C
:10149000DFCFC3EED0E084FFDBCFD0E0C0E0D8CF19
:1014A00080911A0282FD06C190911B0290FDBFCF70
:1014B00084FFCECFF2CF80911A0283FDDDCFC8CF5B
:1014C00080911A0283FDF9C090911B0291FFF0CF29
:1014D000C4EED0E0BDCF80911A0285FFB9CFC9E23A
:1014E000D0E0B6CF80911A0285FFB2CFC5E3D0E03D
:1014F000AFCF80911A0286FFABCFCAE2D0E0A8CF6F
:1015000080911A0286FFA4CFC1E3D0E0A1CFCF3BE8
:10151000D10518F6C85AD0E0CC0FDD1FCD5CDE4FE8
:101520000990D881C02DD46493CFC11540E2D4076F
:1015300058F4C11581E0D80708F08ACFC03FD10523
:1015400008F4ABCFD06584CFC11590E4D90708F477
:10155000A4CFDF70D06A7CCFC11525E5D20700F596
:10156000C11534E5D30708F08AC0C11543E5D40797
:1015700008F071C0C11582E5D80708F467C0CE0134
:101580008370992721E030E002C0220F331F8A9533
:10159000E2F7C695C69580E2C89FE001112452C0CB
:1015A000C11599E5D907A8F4C11528E5D20708F0B7
:1015B0006BC0C11536E5D30708F06FCF8C2F0E94A2
:1015C0009509C82FD0E0DC2FCC27CC27DF71D06263
:1015D0003FCFC1154AE5D40708F45BC0CE01905651
:1015E0008115904208F059CF8D2F8F710E94950977
:1015F00090E0982F882788279F719C012C2BE90168
:10160000E6CFC55AD0E0C05DDE4FC881D0E0D064DF
:101610001FCFCE01E4E096958795EA95E1F78370B8
:101620002C2F26952695237040E2249F90011124AB
:10163000382B8C2F8370C1E0D0E002C0CC0FDD1FAF
:101640008A95E2F7C22BD32BDC6802CFDC2FCC27A4
:10165000C16FD06AFDCECE018370992721E030E0C2
:1016600002C0220F331F8A95E2F7C695C69590E215
:10167000C99FE0011124C22BD32BDA68E9CEDC2FFD
:10168000CC27C46FD06AE4CEDC2FCC27C06FD06AE1
:10169000DFCE8C2F8F700E94950934E0D695C795C8
:1016A0003A95E1F7CF709C2FEC01D069D1CEC9E318
:1016B000D0E0CECEC2EED0E0CBCEC6EED0E0C8CEEB
:1016C00080910D02882331F010920D0210920C02CD
:1016D00010920B020895CF93C82F80911B0282FDB8
:1016E0000CC080910D028C1741F00E946B06909304
:1016F0000C0280930B02C0930D02CF910895809548
:1017000090918F04982390938F04089580959091E1
:10171000C50298239093C50208959091C502892B24
:101720008093C50208951092090210920802109247
:10173000070208958091940390919503892B89F075
:101740000E946B0620910B0230910C02AC01421BEF
:10175000530B81E020919403309195034217530776
:1017600008F480E0817008958091C50290918F0403
:10177000892B90910A02892B80939C0180910D0204
:10178000882309F18091940390919503892B29F086
:101790000E949A0B81110E94600B80919C01909194
:1017A0000D02892B80939C0120E08EE991E0FC01E1
:1017B0003191CF0131112F5FF1E0843A9F07B9F7E2
:1017C00021110E94600BE0916B04F0916C04309742
:1017D00031F00280F381E02D8CE991E009940895C5
:1017E000EF92FF920F931F93CF93DF93EC018A85C3
:1017F000811134C0EB80FC8087E5F81A26E12E9D2C
:10180000C0012F9D900D1124DC01A754BC4F1496EC
:10181000ED91FC911597309731F054966D917C9134
:1018200081549C4F099586E18E9D80018F9D100DFE
:10183000112407541C4FF80187810E94860BF80180
:1018400080850E947F0B0E94B40B188219861B862C
:101850001E821D821092B8031092B703DF91CF91C0
:101860001F910F91FF90EF900895CF93DF93EC01BC
:101870008989811118C081E0898B8F810E948D0B2D
:1018800080918F049885892B80938F040E94B40BDC
:10189000EA81FB81309739F06C897D89CE0106960B
:1018A000DF91CF910994DF91CF9108958091250127
:1018B000877F8093250182E00E947F0B8091250124
:1018C00084FF06C08F7E8093250182E00E948D0BED
:1018D0008091250185FF06C08F7D8093250180E2E0
:1018E0000E948D0B0C94B40B809106028111109212
:1018F00006020895EEE9F1E09191891303C0DF013A
:1019000011971C9291E0E43AF907B1F70895AEE916
:10191000B1E0EFEF90E02D91821751F0EF3F19F415
:10192000211101C0E92F9F5F9630A9F7EF3F09F41D
:1019300008950E2E000CFF0BE456FE4F828308958F
:10194000209105029091C401291302C080E00895FE
:1019500030E0F90153E0EE0FFF1F5A95E1F7EB532A
:10196000FE4F5181561306C05081581303C0528157
:10197000541304C02F5F3F4F2770E6CF81E00895D6
:10198000809105029091C401981301C008958F5F62
:101990008770FACF9E3F49F1E82F2DE0929FE00D2E
:1019A00011249E2F9770E695E695E69583E0E89FD3
:1019B000F0011124E955FE4F50E040E080E0219114
:1019C00030E0092E02C0369527950A94E2F721707F
:1019D0003327042E01C0220F0A94EAF7822B4F5FAF
:1019E0005F4F4330510559F7089580E008959E3FB9
:1019F00069F1E82F2DE0929FE00D11248E2F877062
:101A000041E001C0440F8A95EAF7E695E695E69530
:101A100083E0E89FF0011124E955FE4F30E020E01B
:101A200070E05191DF011197CB01022E02C0969513
:101A300087950A94E2F7817081958527842385270D
:101A40008C932F5F3F4F2330310559F70895E92FCD
:101A5000E295EF70E250EE3070F4F0E0E853FA4CAB
:101A60000C942635803F19F020F4883E20F481E064
:101A70000895843FE1F380E00895883EC0F3813FFC
:101A8000D1F7F5CF93FB882780F9089590E080E0A7
:101A90000E948D0690E080E00E94770610928F04ED
:101AA00010920A020E94B40B86E0E0E4F2E0DF014B
:101AB0001D928A95E9F710923A021092390210921B
:101AC0003B020C94D20780938E040C94460D8091B7
:101AD0008E04982F9670963019F488600C94630DDC
:101AE000877FFCCF21E030E001C0220F8A95EAF722
:101AF000209580918E0482230C94630D90910902AD
:101B00008095892380930902282F277091F4282F2C
:101B1000082E000C330B9217130659F090911B02FC
:101B200092FD07C08595859585950E94720D0C9450
:101B3000930B089521E030E001C0220F8A95EAF767
:101B400080918E04822B0C94630D90911B0292FD68
:101B500010C098E0899F90011124622B60930902C4
:101B60000E949A0D0E946B069093080280930702D0
:101B700008950C949A0D80930E020C94460D8823C0
:101B800021F00E947F0B0C94B40B0895882339F048
:101B900090918F04982B90938F040C94B40B08951C
:101BA000882321F00E94860B0C94B40B089588239F
:101BB00021F00E948D0B0C94B40B0895882309F436
:101BC00052C0823871F40E94A30681FF4CC089E3A1
:101BD0000E94870C0E94B40B89E30E947A0C0C943B
:101BE000B40B833859F40E94A30680FF3CC083E500
:101BF0000E94870C0E94B40B83E5EFCF843859F420
:101C00000E94A30682FF2FC087E40E94870C0E94D7
:101C1000B40B87E4E2CF9CEF980F913AF0F290E298
:101C2000980F983050F4877091E001C0990F8A9511
:101C3000EAF7892F0E94860BD2CF9BE5980F93304D
:101C400020F490E080E00C948D0698E5980F973191
:101C500020F490E080E00C947706803F20F00E9412
:101C6000F9070C94D20708959C013A9521153F413C
:101C700050F5FC01EE27F170BC0166277270AC01D3
:101C8000442754709C012227387094FF0EC080E1D5
:101C9000EF2B09F480E0672B09F08062452B09F0F7
:101CA0008064232B89F08068089581E0EF2B09F48C
:101CB00080E0672B09F08260452B09F08460232BBC
:101CC00019F08860089580E00895CF93DF93EC01C8
:101CD0000E94DE0DCE010E94340E9E01205E31096D
:101CE0002830310510F0CD2B21F4DF91CF910C94E9
:101CF000D00DDF91CF910C94BF0D8093740470933D
:101D0000760460937504809184048430F9F48093A0
:101D1000E9008FEF9091E800815095FD06C095EDA8
:101D20009A95F1F700008111F5CF8091E80085FFC9
:101D30000DC050E040E063E070E084E794E00E9472
:101D40000D058091E8008E778093E8000895BC012E
:101D500084E00C947D0EBC0183E00C947D0E9C010C
:101D600084E08093E9009FEF8091E800915085FD29
:101D700006C085ED8A95F1F700009111F5CF8091AD
:101D8000E80085FF0CC050E040E066E070E0C9016B
:101D90000E940D058091E8008E778093E8000895F9
:101DA000CF93DF93EC0181E08093E9008FEF909176
:101DB000E800815095FD06C095ED9A95F1F7000079
:101DC0008111F5CF8091E80085FF14C050E040E01C
:101DD00068E070E0CE010E940D058091E8008E77EA
:101DE0008093E80088E0FE01AAE7B4E001900D923C
:101DF0008A95E1F7DF91CF910895019708F408954E
:101E0000EFE9FFE03197F1F700C00000F6CF8091D5
:101E10005A0280FD0AC0EEE4F2E0118210821282C2
:101E2000339652E0EA35F507C1F7849A31B33F7E25
:101E300021B320614FB7F8948EE492E0FC015191F8
:101E4000CF0168E021BB000000C057FF31BB550F38
:101E5000000000C000C000C031BB00C06A9591F70F
:101E6000F2E08A359F0751F74FBF8FE594E0019765
:101E7000F1F700C000000895EF92FF921F93CF93F7
:101E8000DF93EC018EE4E82E82E0F82E10E08C81E6
:101E9000970140915D0260915C02810F0E943C07B6
:101EA000115C83E0E80EF11C1C3F89F70E94070FCC
:101EB0009A818C8190FF08C08F5F8C83DF91CF91D6
:101EC0001F91FF90EF9008958150F7CF90915A02A3
:101ED00090FF0CC0EEE4F2E081836083428333968E
:101EE00092E0EA35F907C1F70C94070F0895CF93F4
:101EF000DF9300D00F92CDB7DEB790915A0290FFDA
:101F00000AC09E012F5F3F4F0E943C074B816981B1
:101F10008A810E94660F0F900F900F90DF91CF91F2
:101F20000895CF93DF93EC01EAE5F2E0438162810B
:101F30008C810E94770F8C818F5F8C83DF91CF9192
:101F40000895CF93DF93EC01EC81F0E0EA50FB4F72
:101F50004491EAE5F2E0628181810E94770F8C81F1
:101F60008F5F8C83DF91CF910895CF93C82F882303
:101F700009F48CC08238C1F40E94A30681FD86C09A
:101F800089E30E94870C0E94B40B2FEF81EE94E04E
:101F9000215080409040E1F700C0000089E30E949A
:101FA0007A0CCF910C94B40B8338A1F40E94A30651
:101FB00080FD6CC083E50E94870C0E94B40B2FEF5C
:101FC00081EE94E0215080409040E1F700C0000095
:101FD00083E5E5CF8438A1F40E94A30682FD56C0B4
:101FE00087E40E94870C0E94B40B2FEF81EE94E0EF
:101FF000215080409040E1F700C0000087E4CFCF3F
:102000008CEF8C0F813A68F4EEE9F1E08191C8170A
:10201000B9F121E0E43AF207C9F78C2F0E94870C4E
:10202000C0CF80E28C0F883048F4C77081E001C0D7
:10203000880FCA95EAF70E948D0BB3CFEBE5EC0F42
:10204000E33040F4F0E0E05DFE4F808190E0CF911E
:102050000C948D06E8E5EC0FE73150F4F0E0EE0F5C
:10206000FF1FED5CFE4F80819181CF910C9477062C
:10207000C03F60F08C2F0E941409CF910C94D207BE
:102080008C2F0E947A0C0E94B40BC7CFCF91089579
:102090001F93CF93DF93182FC091B203D091B30356
:1020A000893321F0C091B003D091B103812F0E94F8
:1020B000B50F209731F4812FDF91CF911F910C94B0
:1020C000DE0D8FE99FE00197F1F700C00000219736
:1020D000F0CF0F931F93CF93DF93C42FD22FFC0128
:1020E00082818823A1F04093B6030E946B069093EF
:1020F000B5038093B403C77081E001C0880FCA950F
:10210000EAF7DF91CF911F910F910C94D70D1091A9
:10211000B603141339C08091B4039091B5030E94A3
:102120005C062091AA033091AB038217930760F5F8
:10213000C0E2CD0F1D17B9F080E2810F883040F466
:10214000177081E001C0880F1A95EAF70E94D00D40
:10215000C83048F481E09D2F977001C0880F9A9590
:10216000EAF70E94D70D802F0E944810C83098F4DB
:10217000D77081E001C0880FDA95EAF7DF91CF913F
:102180001F910F910C94D00DC77081E001C0880F92
:10219000CA95EAF7F3CFDF91CF911F910F91089580
:1021A000CF93DF93EC010E94340E9E01205E310933
:1021B0002830310510F0209739F40E94D70D8C2F6C
:1021C000DF91CF910C94B50F0E94C60DF8CF662316
:1021D00029F020918F04226020938F049C013056B7
:1021E000211540E2340720F0305E2115304108F41B
:1021F00099270C94D010DF92EF92FF920F931F93C8
:10220000CF93DF937C018B01D42E8091250182FF37
:102210008CC0C091E802D091E902CE15DF0521F013
:10222000E114F10409F081C0809125018B7F809336
:10223000250181FD73C08091E6029091E702A8011B
:10224000481B590B81E02091230130912401421752
:10225000530708F480E08170F82E80912501F0FA90
:1022600081F980932501FE0183E0F695E7958A9533
:10227000E1F7EE71FF27EA53FD4F20813181AE0176
:102280004F70552781E090E002C0880F991F4A9552
:10229000E2F7FF2009F444C0822B932B91838083C3
:1022A0008091C50281FF08C08091250180618093E3
:1022B000250182E00E94860B8091C50285FF08C03F
:1022C0008091250180628093250180E20E94860B27
:1022D0006F2DCE010E94E710DD2031F08091AD031B
:1022E00085FF02C086FF3BC08091B0039091B1038F
:1022F0000E94FD0E8091E8029091E9029C01305607
:10230000211540E2340720F0305E2115304108F4F9
:1023100099270E94650E0E94560C1DC081E09BCF3C
:102320008095909582239323B9CFC7019927970170
:102330003056211540E2340728F0305E2115304137
:1023400008F0C7010E94650E8091E8029091E902B1
:102350008E159F0501F31093E7020093E602DF91CB
:10236000CF911F910F91FF90EF90DF900895AF9262
:10237000BF92CF92DF92EF92FF920F931F93CF9372
:10238000DF93EC018AE0A82E2881222309F48CC077
:102390002130C9F599818A81913021F422960E94D9
:1023A000481005C0923029F422960E94B50F21965C
:1023B000EBCF933021F422960E94DE0DF8CF9430BB
:1023C00011F02196F4CF229630E020E0AE014F5F6D
:1023D0005F4F8053990B8A30910550F0215031099D
:1023E00030F38FE99FE00197F1F700C00000F6CFCE
:1023F000A29EB001A39E700D11249C01260F371FD1
:102400008981EA01E3CFE22FF0E0E154FE4FB4907E
:10241000822F86958695869590E0FC01E155FE4FCA
:10242000E4902770F12C022E02C0F594E7940A94F0
:10243000E2F731E0E322FF24FC01E156FE4FC490B5
:10244000D12C022E02C0D594C7940A94E2F731E051
:10245000C322DD24FC01E157FE4F049110E002C0CD
:10246000159507952A95E2F701701127E114F104FB
:1024700019F081EE0E94B50FC114D10419F086EE57
:102480000E94B50F8B2D0E944810CD2819F086EEC2
:102490000E94DE0DEF2819F081EE0E94DE0D012B67
:1024A00009F485CF8CE27BCFDF91CF911F910F9103
:1024B000FF90EF90DF90CF90BF90AF9008950F9373
:1024C0001F93CF93DF9302E913E0C7ECD1E0CE0175
:1024D0000E947635F80181938F012196C93EF1E083
:1024E000DF07A9F7CCE9D7E0FE0185919491009729
:1024F00011F0FC0109952896F8E0C433DF07A1F735
:10250000DF91CF911F910F9108950F931F93CF9358
:10251000DF93843030F5643020F54D3010F5C42F52
:10252000D0E0CC0FDD1F2AE1629FC00DD11D112428
:1025300038E6839FC00DD11D1124CE0187960E94DD
:102540007635082F10E0102F0027CE0188960E94C4
:1025500076359801282BC901DF91CF911F910F91FA
:10256000089590E080E0F8CF462F2091C30230918B
:10257000C402232B91F47E3F39F46E3F71F48091B5
:10258000C1029091C2020895843038F4743028F466
:102590006D3018F4672F0C94851290E080E0089558
:1025A000CF92DF92FF920F931F93CF93DF936C0133
:1025B00000918E0480910E02082BC7E0D0E010E05D
:1025C000FC2EC8010C2E02C0959587950A94E2F75F
:1025D00080FD0CC02197A0F7F12C8F2DDF91CF91BA
:1025E0001F910F91FF90DF90CF900895B6018C2F2F
:1025F0000E94B4120E94D809019761F3EECFCF93E5
:10260000DF93EC010E94D012BE010E94B412DF9150
:10261000CF910C94D809FC0186819781009721F015
:102620000E94D8090C94270D808191810E94FF128D
:10263000F9CF1F93CF93DF9300D000D00F92CDB787
:10264000DEB749835A8389819A816623B9F02223B0
:10265000A9F00E94D012182F682F89819A810E94B8
:10266000F70C69817A81812F0F900F900F900F9056
:102670000F90DF91CF911F910C94B4120E94CA0C5D
:10268000182FEFCFFC01262F86819781009739F410
:10269000408151816281738184810C941913089562
:1026A00083E290E00E947635873D89F484E290E0F1
:1026B0000E947635893159F485E290E00E947635A2
:1026C00091E0843109F090E0892F8170089580E0D5
:1026D000FCCFCF9384E090E00E947635C82F82E251
:1026E00090E00E947635982F8C2FCF9108950F930C
:1026F0001F93CF93DF9302E913E0C7ECD1E0CE0143
:102700000E947635F80161918F01681719F0CE01AA
:102710000E948A352196C93EF1E0DF0781F7DF91FB
:10272000CF911F910F910895E2E9F3E0128E138E7D
:102730008FEA90E09183808385E0848F88E893E13D
:10274000938382834CE251E05583448322E330E05B
:102750003783268385E090E0918780878AE090E048
:102760009387828764E170E075876487578746871F
:1027700044E650E0518B408B48E050E0538B428B55
:1027800048E250E0558B448B378B268B28EC30E0A9
:10279000318F208F158E978F868F80E590E091A3E3
:1027A00080A30E9477130C945F12CF93DF93C9E844
:1027B000D2E060E0CE010E948A352196C11584E006
:1027C000D807B9F7DF91CF9108950F931F93CF9357
:1027D000DF938901843048F5643038F54D3028F5B1
:1027E00021153C4531F42091190130911A01232B18
:1027F000E1F0C42FD0E0CC0FDD1F9AE1699FC00D3E
:10280000D11D112498E6899FC00DD11D1124612F7F
:10281000CE0187960E948A35602FCE018896DF917F
:10282000CF911F910F910C948A35DF91CF911F9119
:102830000F910895CF93C82F6FEF811167ED83E259
:1028400090E00E948A356FEFC11169E184E290E067
:102850000E948A356FEFC11164E185E290E0CF916B
:102860000C948A35CF93C0911B02C2FB992790F933
:10287000981799F080FBC2F9C0931B0260911A026D
:1028800084E090E00E948A356C2F82E290E00E9402
:102890008A3582E0CF910C947E0DCF9108957F927E
:1028A0008F929F92AF92BF92CF92DF92EF92FF9260
:1028B0000F931F93CF93DF93CDB7DEB764970FB617
:1028C000F894DEBF0FBECDBFA0901901B0901A01E1
:1028D00081E090E090931A018093190186EFC82E51
:1028E00085E0D82E00E0760110E015C0F4012591B6
:1028F0003491472D612F802F0E94E51382E0880ECE
:10290000911C7394EDE07E12F1CFFAE1EF0EF11C11
:102910001F5F143019F04701712CE8CF0F5F88E674
:10292000C80ED11C0430F9F60E9494131A82198241
:102930001C821B821E821D8218861F8288EC90E0FA
:102940009A87898709EE11E04AE050E0B801CE018C
:1029500001960E94AE35065F1F4F0933E2E01E0765
:1029600099F77E01FBE0EF0EF11C8AE0F70111926E
:102970008A95E9F74AE050E0B801C7010E94AE35F8
:10298000065F1F4F0938F2E01F07A1F7B0921A0146
:10299000A092190164960FB6F894DEBF0FBECDBFAA
:1029A000DF91CF911F910F91FF90EF90DF90CF902B
:1029B000BF90AF909F908F907F90089580E00E948D
:1029C0001A1460E086E290E00E948A350E944F145B
:1029D0000E94D51381E00C941A149B01883070F486
:1029E0009AE0899FB001112467517E4F4AE050E080
:1029F000C9010E94663590E080E008958FEF9FEF57
:102A000008958F929F92AF92BF92CF92DF92EF92F2
:102A1000FF920F931F93CF93DF93CDB7DEB72A9723
:102A20000FB6F894DEBF0FBECDBF09EB13E0F12C5B
:102A3000E12C86E4C82E8AE2D82E90E7A92E9AE2ED
:102A4000B92E2FEA822E29E2922EF801D182C0827D
:102A5000B382A28295828482F58AE48ABE016F5F86
:102A60007F4F8E2D0E94ED14892B29F489859A853C
:102A7000F801938B828BFFEFEF1AFF0A0A5E1F4F5C
:102A800088E0E816F10409F72A960FB6F894DEBF3D
:102A90000FBECDBFDF91CF911F910F91FF90EF90AF
:102AA000DF90CF90BF90AF909F908F900895CF927E
:102AB000DF92EF92FF920F931F93CF93DF93CDB7E7
:102AC000DEB72A970FB6F894DEBF0FBECDBFE1E7A1
:102AD000F2E080E5DF011D928A95E9F7EEE4F3E08C
:102AE00088E3DF011D928A95E9F781E7C82E82E02D
:102AF000D82E7F0109E312E0F701D182C0824AE0BB
:102B000050E0B801CE0101960E94663588E0FE01D2
:102B10003196D60101900D928A95E1F789859A85C3
:102B2000D70113969C938E931297BAE0CB0ED11CCB
:102B3000E7E0EE0EF11C065F1F4F0938F2E01F07B9
:102B4000D9F62A960FB6F894DEBF0FBECDBFDF913F
:102B5000CF911F910F91FF90EF90DF90CF9008954C
:102B60001092C502EEE9F1E086E0DF011D928A9540
:102B7000E9F70C94460D1F93CF93DF93CDB7DEB7E3
:102B8000AA970FB6F894DEBF0FBECDBF86E894E0DB
:102B90002091F100DC012D93CD01B4E08E389B072C
:102BA000B9F780918704833009F472C0B8F481309A
:102BB00009F449C0823009F4B3C08091E80083FF72
:102BC00096C280918604909187049A3008F08FC253
:102BD000E92FF0E0EA52FA4C0C9426358A3009F4D9
:102BE0008EC08B3009F471C0893039F7809186042A
:102BF000813219F780918A0490918B04009711F02B
:102C00000297D9F68091E800877F8093E800809151
:102C1000E80082FF38C09091F3008091F2000297A3
:102C200031F48091F100813011F0863021F48091EF
:102C3000F100809379048091E8008B778093E8001D
:102C40000E943705BACF80918604813A09F0B5CF4A
:102C50008091E800877F8093E80080918A049091BA
:102C60008B04892B61F468E08AE794E070E00E94AD
:102C7000E9058091E8008B778093E8009ECF60E0C3
:102C800090E080E0F3CF809184048111C0CF95CF94
:102C900080918604813A09F090CF80918A049091C6
:102CA0008B04892B09F089CF8091E800877F80937E
:102CB000E8008091E80080FFFCCF8091270180939D
:102CC000F1008091E8008E77B9CF8091860481323F
:102CD00009F073CF80918A0490918B04892B09F0BD
:102CE0006CCF8091E800877F8093E8000E943705D1
:102CF00080918804809327010E94B0155ECF809157
:102D00008604813209F059CF8091E800877F809353
:102D1000E8000E94370580918904809378044DCFA4
:102D200080918604813A09F048CF8091E800877F3E
:102D30008093E8008091E80080FFFCCF80917804C8
:102D4000BECF803899F0823809F0D1C180918A04D1
:102D50008F70873008F0CBC18093E9008091EB0041
:102D600085FB882780F91092E90006C080918204D3
:102D700090918304911182609091E800977F9093E5
:102D8000E8008093F1001092F1008091E8008E77C6
:102D9000AAC1882309F498C1823009F0A8C18091A2
:102DA000880481119BC180918A048F702FEF280FB6
:102DB000263008F09CC18093E9002091EB0020FFB1
:102DC0008DC1933031F48091EB0080628093EB00F1
:102DD00085C19091EB0090619093EB0021E030E091
:102DE00001C0220F8A95EAF72093EA001092EA00C8
:102DF0008091EB008860EACF811179C1109188043D
:102E00001F778091E3008078812B8093E30080918D
:102E1000E800877F8093E8000E9437058091E800F2
:102E200080FFFCCF8091E30080688093E30082E024
:102E3000111183E0809384045AC18058823008F0D5
:102E400056C120918804309189042C3DE3E03E076F
:102E5000A1F583E08A838AE289834FB7F894DE0183
:102E6000139620E03EE051E2E32FF0E0509357004C
:102E7000E49120FF03C0E295EF703F5FEF708E2F6B
:102E800090E0EA30C0F0C7968D939D932F5F243178
:102E900059F74FBF8091E800877F8093E8006AE28E
:102EA00070E0CE0101960E94E9058091E8008B77E1
:102EB0008093E8001CC1C096E7CF80918A0490916E
:102EC0008B04432F55274330510509F44AC078F548
:102ED0004130510509F485C08BE590E0EEE2F8E061
:102EE0004230510509F003C12091E800277F20936B
:102EF000E80020918C0430918D048217930708F428
:102F00009C0140E02115310509F070C041116EC0EF
:102F10008091E80082FDC9CF80918404882329F242
:102F2000853019F28091E80083FFF2CFBECF4132A5
:102F3000510509F447C04232510509F0D8C0833029
:102F4000910508F0D4C0FC01EE0FFF1FE257FE4FC1
:102F50000190F081E02D85579E4FDC018C9190E02F
:102F60001DC0332721303105E9F02115310579F0F5
:102F700022303105F9F02330310509F0B8C0EBE912
:102F8000F8E0E4918E2F90E0EBE9F8E007C0E3EE83
:102F9000F8E0E4918E2F90E0E3EEF8E0009709F47A
:102FA000A6C0A2CFEBECF8E0E4918E2F90E0EBEC22
:102FB000F8E0F4CFE9EBF8E0E4918E2F90E0E9EB54
:102FC000F8E0ECCF8330910508F091C0880F991F8D
:102FD000FC01EC56FE4F0190F081E02D89E090E07D
:102FE00083CF82E190E0E9E8F8E07ECF809184042D
:102FF000882309F45ACF853009F457CF8091E8002F
:1030000083FD53CF8091E80082FD82CF8091E8005C
:1030100080FF78CF9091F3008091F2002115310567
:1030200019F08830910550F041E0089709F040E030
:103030008091E8008E778093E80064CF44914093BC
:10304000F1003196215031090196E8CF803809F01E
:103050004EC08091E800877F8093E80080918504CE
:103060008093F10092CE811142C0109188041230F9
:10307000F0F58091E800877F8093E8001093850445
:103080000E943705112311F084E005C08091E30010
:1030900087FDFACF81E08093840442E061EC81E017
:1030A0000E94560542E261EC84E00E94560542E22D
:1030B00061EC82E00E94560542E260EC83E00E94EF
:1030C00056058091840413C080918804813079F47E
:1030D00081E0933009F080E0809383041092E9004E
:1030E0008091E800877F8093E8000E9437058091F7
:1030F000E80083FF0AC08091E800877F8093E800A2
:103100008091EB0080628093EB00AA960FB6F89452
:10311000DEBF0FBECDBFDF91CF911F910895CF923B
:10312000DF92EF92FF926B017C010E942D07B701A5
:10313000A60188E090E0FF90EF90DF90CF900C9494
:103140009C357F928F929F92AF92BF92CF92DF92E7
:10315000EF92FF920F931F93CF93DF9300D00F92C4
:10316000CDB7DEB7182FD62E042FC22E90915A025B
:1031700090FF29C0E92FE695AE2FB0E0AE58BE4FC4
:103180008C9180934C029E7F923071F59E012F5F4F
:103190003F4F812F0E943C074B8169818A810E94A9
:1031A000660F10935B02D0925C0200935D02CC200C
:1031B00051F060915A0270915B0280915C02909193
:1031C0005D020E948F180F900F900F90DF91CF91AA
:1031D0001F910F91FF90EF90DF90CF90BF90AF9035
:1031E0009F908F907F900895823019F400915D0236
:1031F000D8CF863019F410915B02D3CF8930D9F340
:103200008F3079F6EF502E2F2170722EE695F0E078
:10321000EF50FB4F8590949099243EE4E32E32E0EA
:10322000F32EB12CA12CC50196958795969587957F
:10323000711013C0810F9701402F6D2D0E943C0724
:10324000A80CB91C83E0E80EF11C2AE5E21622E086
:10325000F20649F70E94070FA4CF212F281B822FC7
:10326000EACFEAE5F2E0438128E0421B08F440E0BF
:1032700021E0628181810C94A118EAE5F2E04381AA
:1032800028E0420F08F44FEF21E0628181810C9425
:10329000A118EAE5F2E0628128E0621B08F460E030
:1032A00021E0438181810C94A118EAE5F2E062817A
:1032B00028E0620F08F46FEF21E0438181810C94D4
:1032C000A118EAE5F2E0818121E043816281885022
:1032D0000C94A118EAE5F2E0818121E0438162814A
:1032E000885F0C94A11880915E02882319F08150A8
:1032F00080935E0260915A0270915B0280915C0241
:1033000090915D020C948F1880915E02833018F4C6
:103310008F5F80935E0260915A0270915B02809190
:103320005C0290915D020C948F1890915A0290FF6C
:103330003DC09170811129C0926090935A0266231A
:1033400051F060915A0270915B0280915C02909101
:103350005D020E948F1860915A02669570E04BE002
:1033600050E08EE091E00E943C35892BA9F010924C
:103370004D0281E08093490220E040915D0260911E
:103380005C0280915B020C94A118893110F090636B
:10339000D4CF880F982BD1CF81E080934D020E942B
:1033A0006B069093470280934602E3CF0895809185
:1033B0005A028695815009F488E161E00C949519D0
:1033C00080915A0286958F5F893108F081E061E033
:1033D0000C94951990915A0290FF07C096959817F2
:1033E00020F0961710F40C94E01961E00C949519F4
:1033F000EAE5F2E083E0808311828FEF82838383AA
:10340000148260817181828193810C948F186AEE9D
:103410007EEF90E080E00E94A83560E082E090E0DE
:103420000E948A3560E083E090E00E948A35109225
:103430000E0260E084E090E00E948A3560E082E263
:1034400090E00E948A3560E085E090E00E948A3535
:1034500060E086E090E00E948A356FEF87E090E0C0
:103460000E948A3540E050E0BA0188E090E00E9476
:103470009C3560E08DE090E00E948A3540E050E0AD
:10348000BA0188E190E00E949C3560E087E190E01D
:103490000E948A3540E050E0BA018CE190E00E9441
:1034A0009C3570E060E080E290E00E94A83540E04A
:1034B00050E0BA0188E190E00E949C3580E00E94D3
:1034C0001A140E94DE1440E050E0BA018FE090E050
:1034D0000E949C3540E050E0BA0183E190E00C94FA
:1034E0009C358F929F92AF92BF92CF92DF92EF92D4
:1034F000FF920F931F93CF93DF9300D000D0CDB7EF
:10350000DEB77C01DC0113964D915C911497119606
:103510006C9111978C910E94AF06811179C061E086
:10352000C7010E9442138C01F7018281811111C0F1
:10353000D70112968C91811149C00031FFE51F0718
:1035400009F4EEC001312FE5120709F0D2C782E07D
:10355000E8C08091000190910101019649F369EB67
:10356000C62E63E0D62EB12CA12C99249394809181
:103570000001909101018A159B05D4F2F601868124
:103580008823E9F0818592850817190739F480911D
:10359000B7039091B8030817190789F0D6011F9651
:1035A0009C921F971C961C930E931B97C6010E941A
:1035B000350CC60106960E94F00B10928F04BFEFE7
:1035C000AB1ABB0AE6E1CE0ED11CD1CF9801225135
:1035D0003F452031310508F082C78FEF93E00E940C
:1035E00076355EEED52ED00E09E812E0882369F11B
:1035F00080910902877061F0D70112968C9188231F
:1036000039F080911B0282FD03C082E00E947E0D92
:103610000F900F900F900F90DF91CF911F910F910E
:10362000FF90EF90DF90CF90BF90AF909F908F90E2
:1036300008950115F4E01F07D9F2C8010E947635FC
:10364000811101C0DA940F5F1F4FD110F2CF1982A0
:103650001A821B821C82CC24CA9448012FEF821A42
:10366000920AC8010E94763589831A82882309F458
:10367000BFCF813009F048C0580132E0A30EB11C21
:10368000C4010E947635982E8A83882309F4B0CF2E
:10369000C5010E947635D82E8FEF890D833068F4EE
:1036A000580143E0A40EB11CDB82DD2021F0CE01E5
:1036B00001960E94B7118501D0CF54E09512FBCF3F
:1036C000580184E0A80EB11CC80103960E9476350B
:1036D000DD2009F48DCF882309F48ACF8150990B1E
:1036E000C89E9001C99E300D1124AD2DA150BB0B79
:1036F000CD01820F931F0197F0F2EFE9FFE03197C0
:10370000F1F700C00000F7CFCE0101960E94B7117B
:103710005401D1CF81E00E949A0D0E94670D68CFBD
:1037200081E00E94720DF9CF82E0F5CF4FEFC41611
:10373000D10411F008F0E9C667E672E08C2D0E9412
:10374000ED14892B29F586E18C9DF0018D9DF00DFE
:103750001124E754FC4F8681813009F062C08091CA
:10376000670290916802892B99F08091690290918B
:103770006A02892B69F080916B0290916C02209112
:103780006D0230916E02822B932B892B09F453C06A
:1037900080910001909101018C159D0524F4D09237
:1037A0000101C0920001F701828196E19C9D5001C8
:1037B0009D9DB00C1124950127543C4F6901D901FE
:1037C00050968C935097928116968C9116979923C8
:1037D00009F43FC01A961C930E9319978F5F1696A3
:1037E0008C930E946B06F6019687858780910D0267
:1037F000878380918F049091C502892B80870190E7
:10380000F081E02D309741F0D60154966D917C9176
:10381000C50181549C4F09951093B8030093B703D9
:1038200074C6823009F0B4CF80916B0290916C0223
:10383000892B09F4ADCF26E12C9DC0012D9D900D63
:10384000112487549C4FDC0150961C920E94350C29
:103850009FCF882309F459C6F9018189882309F487
:1038600054C6C50181549C4F0E94F00B4EC68091F6
:10387000250181608093250176C6809125018E7F88
:10388000809325010E94560C6EC6809125018F7E83
:10389000013E110531F0053E1105C9F48091250165
:1038A0008F7D809325018091250180FF6BC6D70114
:1038B00012968C910832110528F50E31110508F089
:1038C00074C00430110580F5811158C65BC6C8016B
:1038D0009056811540E2940720F0905E811590414A
:1038E00010F78091250182FF4DC68091AF0381FDC5
:1038F00049C622E132E040E0B60190E080E00E945B
:10390000FB1040C60933110558F40D32110518F4A7
:103910000B321105C9F69091AD0392FDD5CF08C0C9
:1039200004361105C1F3D0CF9091AD0394FDCCCFF7
:10393000882309F4A1C09091C50280910D02282F1F
:10394000292B322F3D7FB1F11092E9021092E8024B
:103950003091AD0331FD2EC0F80143E0F695E795B7
:103960004A95E1F7EE71FF27EA53FD4F98012F705A
:10397000332781E090E002C0880F991F2A95E2F773
:103980008095909520813181822393239183808338
:1039900060E0C8010E94E71080910D028D7F0E94B7
:1039A0006B0B82E00E947E0D23CE9091AD0393FDC0
:1039B0008BCFBECF38E0F701A2E1B2E001900D92CB
:1039C0003A95E1F710921402109216021092150225
:1039D000A090E802B090E9020A151B05B1F53091FC
:1039E000AD0335FF32C04091250141FB992490F889
:1039F00041FF02C036FF29C04091E6025091E70224
:103A0000B601641B750B4091AA035091AB03641778
:103A10007507D8F491FF08C08091250180618093DB
:103A2000250182E00E94860B8091C50285FF08C0B7
:103A30008091250180628093250180E20E94860B9F
:103A4000692DC5010E94E710D3CD9091250121FB7E
:103A500091F9909325018D7F0E946B0B1093E902E1
:103A60000093E802D092E702C092E602809125011D
:103A700084608093250195CF970140E0B601C8018D
:103A80000E94FB10B5CD053F4CE5140709F467C053
:103A900008F45FC0063F8CE5180709F466C0D7013B
:103AA00012963C91332309F48CC51092B60303306F
:103AB000BDE51B0708F065C00A3FECE51E0730F4C2
:103AC000C80182509C45449708F060C00E94691369
:103AD00090931B0280931A0200312CE5120709F41F
:103AE0007EC108F0FAC008304CE5140709F465C13E
:103AF00008F0CCC004308CE5180709F450C108F078
:103B0000B2C00230ACE51A0709F443C180911A0231
:103B1000826003301C4509F43FC160911A02109184
:103B20001B0284E090E00E948A35612F82E290E0DF
:103B30000E948A350E94B0155BCD07E225EE45EE66
:103B400068ED7CE53AC506E221EE40EE63EF7CE5E8
:103B500034C507E225EE44EE64EF7CE52EC506E2AF
:103B600021EE42EE65EF7CE528C507E225EE46EE44
:103B700066EF7CE522C508E221E045EE69ED7CE5D3
:103B80001CC50136FDE51F0709F4A0CF06315CE531
:103B9000150709F41AC58091C50282720B3C4CE5E9
:103BA000140709F4E3C108F06FC1063C9CE519074E
:103BB00009F4C8C108F053C1033CBCE51B0709F474
:103BC000B7C108F03BC1023CFCE51F0709F489C1FD
:103BD0000A352DE5120709F401C208F0DDC101150F
:103BE0004CE5140709F4EAC10E3D1C4509F4F3C184
:103BF000F70186819781009709F4F4C10E94D809E2
:103C0000182F092FF701D280C580C2943FE0C3224C
:103C1000809109028770C1F0AD2CDD20B1F0892FB1
:103C2000807F803421F080E2810F883068F08091BD
:103C30001B0282FD09C082E00E947E0D8091090274
:103C40008770AA24A3948111A12C902E92942FE026
:103C50009222FBE0F91508F452C2E92DF0E0E0529F
:103C6000FA4C0C94263580911A0280610630ECE5FE
:103C70001E0709F491C080911A02886007301C4524
:103C800008F48AC080911A02806286C080911A026C
:103C90008D7F0C302CE5120709F47EC070F4809102
:103CA0001A028C600A304CE5140709F475C008F458
:103CB00088C080911A028E7F6FC00E308CE5180785
:103CC00009F485C080911A028B7F0F301C4508F4DF
:103CD00063C080911A028F7E5FC00C3FACE51A076B
:103CE00009F479C068F50431ECE51E0709F48BC0CE
:103CF00080F402312CE5120709F475C080911A0294
:103D00008F7B03311C4508F447C080911A02837FE2
:103D100043C00A3F4CE5140709F445C008F049C008
:103D200005311C4509F0F9CE80911A0282FB9927D2
:103D300090F921E0922790FB82F990FB83F92CC047
:103D400001159DE5190709F454C088F480911B0200
:103D500083600E3FBCE51B0749F180911B028D7FFC
:103D60000F3F1C4518F180911B028C7F1FC0023051
:103D7000FDE51F0709F456C008F44EC001361D4585
:103D800009F0CBCE90911A02892F8F7E94FF80612B
:103D900003C080911A02816080931A02BECE809186
:103DA0001A028460F9CF80911B02816080931B020C
:103DB000B4CE80911B028260F9CF80911A02806498
:103DC000EBCF0E94B01580911A028068E5CF8091F8
:103DD0001A02877FE1CF80911B028E7FE7CF80910F
:103DE0001A028F7DD9CF0E94B01580911A028F7769
:103DF000D3CF80911B02982F909591708E7F892B45
:103E000090FB81F9D3CF0E94B01590911A02892FAF
:103E100097FB87F98058C0CF61E08EE090E00E9468
:103E20008A357BCE60E0F9CF8091A401811104C076
:103E300089E20E947A0CF4C385E3FBCF043C2CE5B5
:103E4000120709F47AC041E659E16AE679E1053CD6
:103E50003CE5130709F0BCCE0E942707C9CB083CFC
:103E60004CE5140709F478C008F471C0093C9CE5DE
:103E7000190709F476C04DE359E161E379E10A3CA1
:103E8000ACE51A0749F3A4CE003DBCE51B0709F4D5
:103E90007DC0B0F40D3CFCE51F0709F471C008F4C7
:103EA0006AC00E3C3CE5130709F46DC068E086E08B
:103EB0000F3C4CE5140709F08BCE0E94EA1998CB11
:103EC000043D5CE5150709F464C008F491CB053D99
:103ED0009CE5190709F48CCB0D35100709F488CB44
:103EE00077CE80915A0280FF1BC08E7F80935A024A
:103EF00060915A0270915B0280915C0290915D0228
:103F00000E948F1810924D02BFEFE0E7F2E0B1502F
:103F1000E040F040E1F700C000000E94070F68CBCE
:103F2000816080935A0261E086950E94951960CB6A
:103F300047ED59E160EE79E18FCF40EE59E167ED51
:103F400079E18ACF4AE659E161E679E185CF49E432
:103F500059E165E579E180CF45E559E169E479E129
:103F60007BCF41E359E16DE379E176CF43E759E156
:103F700064E879E171CF44E859E163E779E16CCF16
:103F800061E081E0D2CF65E082E097CF6EE089E02A
:103F900094CF68E18FE091CF0B358DE5180701F1E3
:103FA0000C351D4509F024CE80911B0282FB882729
:103FB00080F991E089270E9432141ACE0E94B01530
:103FC000AFEFB4E3ECE0A150B040E040E1F700C057
:103FD00000000E944B060E94071A0ACB81E0EBCF3B
:103FE00080E0E9CF828100811181882369F0C801D6
:103FF0000E94D012D82E682FC8010E94F70CB80179
:104000008D2D0E94B412FACDC8010E94CA0CD82E80
:10401000F6CF202F2F70B22E802F807F19F0B29410
:1040200090EFB922DD20A9F0BB2059F080E2810F8A
:10403000883010F0111107C08B2D0E948D0B0E944B
:10404000B40B812F5AC080918F04B82AB0928F048C
:10405000F6CF812F0E94DE0DBB2009F450C080E214
:10406000810F883010F0111104C08B2D0E94860B37
:1040700003C08B2D0E947F0B0E94B40B40C0302FD9
:104080003F70B32E802F807F803219F0B29480EF82
:10409000B822112321F1113009F4A4C0DD2009F464
:1040A000ADC0CC2009F47DC020E0D7014C91119621
:1040B0005C91119712966C91129713967C911397BD
:1040C00014968C910E9419138091AF0381FDB9CF92
:1040D000F701858180FFB5CF8F70858362C08091A5
:1040E0001B0282FF40C0DD20C1F1BB2029F08B2DD7
:1040F0000E948D0B0E94B40B80E00E94B50FA92D89
:10410000A850BB0B149710F40E94A306812F902F88
:104110000E94270D8111C4C11092A6011092A50121
:10412000AA20B1F08091090280FD12C0D701129639
:104130001C928595859585950E949A0DC7010E94D0
:10414000711A809109028595859585950E94720D59
:1041500060E0C7010E9442135BCA80E00E94DE0D4E
:10416000BB2069F282CFDD2001F1C11004C0809133
:104170000D028B2917C041E0C41206C080910D02C8
:104180008B290E946B0BBBCF8091AE03823078F3FA
:10419000C812EDCF0E94600B80910602B812B09257
:1041A00006028B2D0E94D70DAACFC11006C00E9417
:1041B000600B8B2D0E94D00DA2CF8091AE0351E0F9
:1041C000C5120BC0823008F49ACF8091C5028B21B2
:1041D00009F495CF0E94740CEACF823040F38C1121
:1041E000E6CF8DCFDD2029F085E08C1508F487CF50
:1041F000D8CF94E09C1508F482CFDBCFCC20C9F255
:104200008091B2039091B303193321F08091B003F0
:104210009091B1030E94FD0E812F0E94DE0D6FCFA1
:10422000802F86958695837069F0813009F067CF7D
:10423000812F902F9370D11002C090E080E00E94F7
:1042400077065DCF812F902F9370D11002C090E040
:1042500080E00E948D0653CF812FDD2029F00E943F
:1042600014090E94D2074BCF0E94F907FACF802F82
:10427000837091F5D11043CF412F429546954770F9
:10428000440F440F812F8F70042E01C0880F0A94B1
:10429000EAF7212F207114FF07C02FE030E001C0A2
:1042A000220F4A95EAF72095302F369536953370D0
:1042B000323069F050F440910E02313029F0822BF7
:1042C00084230E94BB0D1BCF842B822BFACF282B7B
:1042D00080910E028227F5CF8695DD2011F0802F88
:1042E0008170882309F40BCF412F42954695477082
:1042F000440F440F812F8F70042E01C0880F0A9441
:10430000EAF7212F207114FF07C02FE030E001C031
:10431000220F4A95EAF72095302F3695369533705F
:10432000323069F050F440918E04313029F0822B04
:1043300084230E94630DE3CE842B822BFACF282B9B
:1043400080918E048227F5CFF02FFF70BF2EDD20E5
:1043500029F08F2F0E949A0D812F24CF812F0E9448
:10436000D00D8B2D0E94720DCACE123F89F160F4E0
:10437000103FB9F0113F81F0DD2009F48CC0C1106D
:1043800060CE802F8F7128C0133F49F1143FA1F7F1
:1043900080911B0282FF2FC0802F8F71DD2011F3CF
:1043A0001BC0DD2081F024E02C1508F4A8CE202FBE
:1043B0002F7181E090E001C0880F2A95EAF7909173
:1043C0008E048927B6CF35E03C1508F498CEEFCFA0
:1043D000802F8F71D110C6CF0E949A0D90CE80E0B1
:1043E000DD2009F4A6CF81E0902F9F7101C0880FD6
:1043F0009A95EAF79ECF8091AE038230A0F180912A
:104400000602DD20F1F00E94860B80910902877080
:10441000843041F40E94930B802F8F710E94720DA3
:10442000A12C6DCE8091AE03C816D0F7402F4F71EE
:10443000B42E842F0E949A0D63E08B2D0E94A50D4F
:10444000EFCF0E948D0B8091AE03C81640F00E9402
:10445000930B0E94740C64E0802F8F71EFCF81E08A
:104460000E947E0DDDCFDD2059F0502F5F71B52EFB
:10447000852F0E949A0D63E08B2D0E94A50D3FCEE3
:1044800081E00E947E0D81E08C1508F038CE82E03C
:104490000E947E0D34CEC110B3CE802F8F7162CFBB
:1044A000DD2019F0C11038CE3BCEC11035CE20E052
:1044B000F701408151816281738184810E941913C7
:1044C0008091AF0383FF28CE8091A5019091A60132
:1044D000029709F021CE812F0E9448101DCE003195
:1044E000BFE51B0709F416C90131EFE51E0709F402
:1044F0001BC9680127E5D21A882309F417C93FEFC1
:10450000C316D10409F008F443C98091AD0380FFBC
:1045100039C00E946B066C01D70112968C918823DA
:1045200009F4B3C98091250182FF08C022E132E07D
:1045300040E0B60190E080E00E94FB100B31BCE54A
:104540001B0709F494C90C31ECE51E0709F495C961
:1045500090912501892F8E7F90FF81600A31FCE5C3
:104560001F0709F48DC9C8019056811520E29207F2
:1045700028F0905E8115904108F095C91092E902EB
:104580001092E802033FBCE51B0709F4DCCA08F0FF
:104590007ACA083DFCE51F0709F4CFCA093D2CE59E
:1045A000120709F4E8CA073D3CE5130709F077CA8A
:1045B00006E221EE41EE67ED7CE5C7010E9469103D
:1045C00017C806311C4509F013CB8091C502982FFE
:1045D0009A7A2091AC0320FF04C0482F447409F05C
:1045E00090E021FF04C0482F417109F090E022FFC4
:1045F00004C0482F487809F090E023FF03C082727E
:1046000009F090E0332309F40FCC81E0911101C04F
:1046100080E08093A40189E2911185E30E94870CD8
:104620000E94B40B0C94F81ACF92DF92EF92FF9293
:104630000F931F93CF93DF938091C101807F31F45B
:104640008091BE01C091050281110BC0DF91CF9115
:104650001F910F91FF90EF90DF90CF9008952196DA
:10466000C7708091C4018C1789F3F090BC01E09071
:10467000BD01C090BF01D090C001A6016E2D8F2D4D
:104680000E94AF06D0E08111EACF8E0183E0000FD7
:10469000111F8A95E1F7F801EB53FE4F81818E11CE
:1046A000DECF80818F11DBCF82818111D8CFE38073
:1046B000F480EC18FD0860E08CEB91E00E9442135E
:1046C0008091AA039091AB03E816F90640F6809119
:1046D000C1018F7080618093C101F801E653FE4FE4
:1046E00080818F70806180838CEB91E00E94711AD1
:1046F000DF91CF911F910F91FF90EF90DF90CF90BE
:104700000C94C00C3F924F925F926F927F928F9267
:104710009F92AF92BF92CF92DF92EF92FF920F9350
:104720001F93CF93DF93CDB7DEB765970FB6F8949D
:10473000DEBF0FBECDBF8C0185E0F801DE015196D2
:1047400001900D928A95E1F7D8014C9011965C90FA
:1047500011971296EC9012971396CD90DC9060E032
:104760008CEB91E00E9442138CEBA82E81E0B82ED6
:104770008090BF019090C001A4016091BD01809123
:10478000BC010E94AF068111CAC1F090BE01F601C2
:10479000E819F9094F0160E0FF2009F46DC1C50176
:1047A0000E9442136090AA037090AB033090C10145
:1047B0008614970408F013C14091BF015091C001C5
:1047C000B090BC01A090BD01832D807F6A2D09F0BF
:1047D000ADC08B2D0E94AF06FE2C81113BC0D801CD
:1047E00011968C9111978A1135C08C918B1132C022
:1047F0002091C2013091C30116968D919C9128178A
:10480000390741F5E11026C0832D8F7080618093B8
:10481000C1018CEB91E00E94711A8091C101F801F5
:1048200085838F2D65960FB6F894DEBF0FBECDBF82
:10483000DF91CF911F910F91FF90EF90DF90CF907C
:10484000BF90AF909F908F907F906F905F904F90B0
:104850003F900895F4EF6F16F1E07F0620F4809109
:10486000AF0380FF21C0A601652D842D0E94AF06F5
:10487000811118C081E08E2580FF16C04E2D652D58
:10488000842D0E94A00C882379F08CEB91E00E948B
:10489000711A88E0ECEBF1E0DF011D928A95E9F7EF
:1048A000F12CBFCF80E0E8CFA601652D842D0E94BA
:1048B000AF06811124C081E08E25B82FB170CB2EB8
:1048C00080FF2BC04E2D652D842D0E94A00CD82E6C
:1048D000811123C0498A5A8A89899A890E94FF12C4
:1048E000292F22952F70223060F0243088F49F7099
:1048F00061F0F8019581907F41F4FD2C92CF80E02A
:10490000DCCF9F7011F08823C1F3805E8830A8F35C
:10491000C8010E94711ADC2CF0CFEE2009F481CF7F
:104920008091C10181608093C101BACF8B2D0E941B
:10493000AF06811124C0D80111968C9111978A116C
:104940001EC08C918B111BC02091C2013091C301FC
:1049500016968D919C9117972817390781F4E110CD
:104960000EC015963C92C8010E94711A88E0F801A9
:10497000ACEBB1E001900D928A95E1F752CFC801FE
:104980000E940B13882339F1EE2029F18091C10197
:104990008032A0F02091BC013091BD013A87298777
:1049A0001B86DD86CC868E878091C2019091C301E3
:1049B000988B8F87CE0109960E94711A88E0F801C2
:1049C000ACEBB1E001900D928A95E1F70E941423BF
:1049D000FF24F39426CFC8010E94711AF9CF832DCA
:1049E000807F09F452CF9090BC018090BD0140912E
:1049F000BF015091C001682D892D0E94AF06811121
:104A00001CC0F8018181881118C08081891115C0EE
:104A10002091C2013091C3018681978128173907FF
:104A200061F4E1100AC03582C8010E94711A88E061
:104A3000D5011D928A95E9F7F4CEC8010E940B13A7
:104A4000882349F2EE2039F28091C101803208F4C6
:104A5000B5CF2091BC013091BD013A8329831B82DF
:104A6000DD82CC828E838091C2019091C3019887B0
:104A70008F83CE010196A0CF8CEB91E00E94421370
:104A80008091AA039091AB038816990680F6FE2CBC
:104A9000EE2009F4A0CFE090BC01D090BD01409180
:104AA000BF015091C0016D2D8E2D0E94AF06811166
:104AB00028C0F80181818D1124C080818E1121C010
:104AC0002091C2013091C30186819781281739074F
:104AD000C1F48091AF0382FD49CF9091C10190FD57
:104AE00045CF907F09F442CF8091C1018583903FEB
:104AF00009F439CF982F907F905F8F70892B858331
:104B000032CFC8010E940B13811158CF8091C1018F
:104B100081608093C101C8010E94711A82CEEE208B
:104B200009F459CFC8010E940B13F82E882309F409
:104B300052CF88E0F801ACEBB1E001900D928A957C
:104B4000E1F78091BC019091BD010E94FF120E948B
:104B5000142367CECF93DF93CDB7DEB760970FB640
:104B6000F894DEBF0FBECDBF29873A874B875C879D
:104B70006D877E878F87988BCE0109960E9482234E
:104B800081112FC088E0FE013996DE011196019057
:104B90000D928A95E1F74C855D856A8589850E942D
:104BA000AF0681111EC0A091C401B0E0CD010196F5
:104BB00087709927209105022817190609F193E0BB
:104BC000AA0FBB1F9A95E1F7AB53BE4F98E0FE01C9
:104BD000319601900D929A95E1F78093C4010E945D
:104BE000C00C809105029091C401891317C0609692
:104BF0000FB6F894DEBF0FBECDBFDF91CF91089501
:104C00000E94B0151092C4011092050288E0ECEBEE
:104C1000F1E0DF011D928A95E9F7E3CFB8E08B9FC1
:104C2000C00111248B539E4F0E9482238823F9F2E6
:104C30008091050290E00196877099278093050284
:104C4000D0CFEF92FF920F931F93CF93DF9380917A
:104C5000ED02882361F0C091EC028CE0F82E809187
:104C6000ED02C81758F01092ED021092EC02DF919D
:104C7000CF911F910F91FF90EF900895EE24E39450
:104C8000EC0EE092EC020C2F10E0CF9DE00111241D
:104C9000C251DD4F4B815C81698188810E94AF06E2
:104CA00081111BC08E819F81892B21F48885998574
:104CB000019651F4288139814A815B816C817D8123
:104CC0008E819F810E94AA25F09EF001F19EF00D39
:104CD0001124E251FD4F14821382CE2DC0CF1092C9
:104CE0009103109290031092260180918F0380937C
:104CF0008E030E94E8060C9421263F924F925F9209
:104D00006F927F928F929F92AF92BF92CF92DF92DB
:104D1000EF92FF920F931F93CF93DF93C0918E0377
:104D200097E0892E01E010E02CE0322E3EEF932E2A
:104D30004424439480918F038C1315C00E94212634
:104D4000DF91CF911F910F91FF90EF90DF90CF9067
:104D5000BF90AF909F908F907F906F905F904F909B
:104D60003F900C94E806D0E0FE01EE0FFF1FEA57DB
:104D7000FC4F80819181889ED001899EB00D1124C5
:104D8000A25BBC4F14962C911497211157C05090E0
:104D9000ED02EEEEF2E030E020E0712C5D01251531
:104DA00008F04AC0E284F384D501CD90DC906FEF27
:104DB0007FEF612C462D50E0DA01AA0FBB1FAC0D2E
:104DC000BD1D0D90BC91A02D109731F0EA16FB0689
:104DD00009F4BA016394EECF6F3F7607A1F1D801D1
:104DE00002C0AA0FBB1F6A95E2F77A2AB80102C077
:104DF000660F771F6A94E2F7AB01415051097416B0
:104E00001506F9F4329EF001339EF00D1124E251A3
:104E1000FD4F889ED001899EB00D1124A25BBC4F2E
:104E200012962D913C91139737832683908291821D
:104E30009187808715964C920E94BA062196C3707E
:104E400079CF148213822F5F3F4F3C96A8CF2F92C9
:104E50003F924F925F926F927F928F929F92AF920A
:104E6000BF92CF92DF92EF92FF920F931F93CF9357
:104E7000DF93CDB7DEB769970FB6F894DEBF0FBEEC
:104E8000CDBF942F498B252F5A8B6B8B7C8B8D8BB1
:104E90004C895D89622F892F0E94AF06811109C05C
:104EA0008091A5019091A60101969093A60180930F
:104EB000A5018B89811110928F041D861E861F8685
:104EC000188A85E0FE017196DE01199601900D9217
:104ED0008A95E1F780911B0282FD1EC080919403A8
:104EE00090919503892BC1F00E946B0620910702D7
:104EF00030910802821B930B20919403309195030B
:104F00008217930720F08091090282FFF5C10E9469
:104F10009A0B81110E94600B4C855D856A8589859D
:104F20000E94AF06811111C061E0CE0109960E9476
:104F300042136C018B8527EFC2162CE5D20681F453
:104F4000882321F181E08093260129853A854B85CC
:104F50005C856D857E858F8598890E94AA25C5C050
:104F600038EFC3163CE5D30629F4882379F00E9474
:104F70006F26EBCF49EFC4164CE5D40639F48823ED
:104F800029F0809126018111F2CFDCCF0EE413E0ED
:104F9000512CB12CA12C22242394312C2EEF422E03
:104FA000F8014081518188248A94982C20E0822F36
:104FB00090E0FC01EE0FFF1FE40FF51F608171818F
:104FC0006115710531F0C616D70609F44C012F5F43
:104FD000EECFF12CFFEF8F169F0609F448C0F801C1
:104FE0004481F09026018F2D411180E0F82FF1705F
:104FF000FF2EF801E58086819B85992309F40CC179
:10500000FF2009F409C16090A8037090A903E11082
:1050100012C0A10101C0440F8A94EAF7842B868351
:105020008091EA029091EB028615970520F4709228
:10503000EB026092EA02C10102C0880F991F2A9513
:10504000E2F70197F80126812817190681F480916B
:10505000900390919103009709F460C00E945C0650
:105060006816790608F05AC021E0F80124835F2809
:10507000FFEFAF1ABF0A095F1F4F28E0A216B10465
:1050800009F08ECF8B85882309F421C1552009F4BE
:105090001EC10E946B0690939103809390038091B0
:1050A000ED02883010F591E0980F9093ED0298E0B2
:1050B000FE013996DE01119601900D929A95E1F765
:1050C0003CE0839FC001112482519D4F28E0FE01E6
:1050D0003196DC0101900D922A95E1F72FEF3FEF19
:1050E000FC0131872087D386C28669960FB6F89473
:1050F000DEBF0FBECDBFDF91CF911F910F91FF900B
:10510000EF90DF90CF90BF90AF909F908F907F9067
:105110006F905F904F903F902F90089580918E03F5
:1051200050918F03982FF0E0E0E0851314C0909326
:105130008E03E017F10709F49ACF90E0FC01EE0F1F
:10514000FF1FEA57FC4FB182A08201968370992716
:1051500080938F038CCF682E712CF301EE0FFF1F0D
:10516000EA57FC4F2081318147E0429FD001439FA5
:10517000B00D1124A25BBC4F6D917C911197798F7A
:10518000688F40E020E030E0E32FF0E0EE0FFF1FFB
:10519000688D798DE60FF71F8080918081149104CE
:1051A000E1F0F8010190F081E02DFF8BEE8B20E023
:1051B00005C08616970609F44F2D2F5FE22FF0E009
:1051C000EE0FFF1F6E897F89E60FF71F60817181E7
:1051D0006115710571F73F5FD7CF4423D1F0F80116
:1051E000231708F0FD0121E024830E171F0721F487
:1051F00090938E03F42E3BCF981305C0AE17BF07D4
:1052000011F49F5F937093012F5F3F4F822F837044
:105210008CCFF0E0E0E0F7CF90E0E1101FC0B101EB
:1052200002C0660F771F2A95E2F79B0121503109D2
:105230008217930731F4442309F447C0C5010E9443
:10524000BA06C10101C0880F8A94EAF7982F909599
:10525000F801868189238683FE2C09CF9C01082CC6
:1052600002C0359527950A94E2F7A90141705527A8
:10527000BC016150710986239723892B11F5452BB9
:1052800001F1F80182819381892BC1F01B821C827C
:105290001D821E8249824A820E946B068160582FBD
:1052A0009D838C83F801828193818F8398872981E4
:1052B0003A814B816D817E810E94AA25F801158279
:1052C000C0CFF22FF170EF2EBCCFEF2CBACF909160
:1052D0008E0380918F03981731F00E947D26552010
:1052E00009F433CE02CF0E9421261092910310922E
:1052F00090030E94E806F3CF82E00E947E0D07CE65
:10530000CF93DF9300D000D00F92CDB7DEB790934C
:10531000C2028093C102811520E2920748F40F90E7
:105320000F900F900F900F90DF91CF910C94650E1E
:105330008EEF89838A831B820E946B068160782F9F
:105340009D838C8349815A816B818D810F900F9051
:105350000F900F900F90DF91CF910C9427270F9310
:105360001F93CF93DF938C01EB0167E672E08C2FE4
:105370000E94ED14892BA1F48091B0039091B103A8
:105380000E94FD0EDD27C15ADD4F8881F801108291
:105390001882833009F148F4813059F0823081F06D
:1053A000DF91CF911F910F9108958430D1F0853016
:1053B000B9F78091670290916802009789F306C05F
:1053C0008091690290916A02009799F3DF91CF91E1
:1053D0001F910F910C94802980916B0290916C0227
:1053E000F3CF80916D0290916E02009779F7209132
:1053F0006702309168028091690290916A022115DA
:105400003105D9F2009711F7C901E0CFCF93DF93AF
:1054100000D000D00F92CDB7DEB79093C202809338
:10542000C102811520E2920748F40F900F900F906F
:105430000F900F90DF91CF910C94D0108EEF898355
:105440008A8381E08B830E946B068160782F9D8325
:105450008C8349815A816B818D810F900F900F90C1
:105460000F900F90DF91CF910C942727CF93DF936C
:10547000EC010E94062A8091B0039091B1030E9432
:10548000FD0ECE01DF91CF910C9480290F931F93D5
:10549000CF93DF938C01862F67E672E00E94ED14B4
:1054A000892BC9F4C0916702D0916802209799F0C6
:1054B000F8018081833069F4CE010E94362ACE0142
:1054C0000E94362ACE01DF91CF911F910F910C944B
:1054D000362A8430B8F7DF91CF911F910F9108954C
:1054E0000F931F93CF93DF938C01EB0167E672E07C
:1054F0008C2F0E94ED14892B09F064C0FE01FF2758
:10550000D8018C91E15AFD4F8130D9F419969C91C4
:105510001997992311F080830CC01A969C919923B6
:10552000D1F382E080838091690290916A020097B2
:10553000D9F48091670290916802009709F442C003
:1055400013C08230E9F519968C91199781112DC0FD
:105550001A968C9181110EC083E0808380916B023A
:1055600090916C02009719F1DF91CF911F910F91EB
:105570000C94062A84E0808380916D0290916E02E3
:10558000009791F780916702909168020097F9F077
:105590000E94362A8091690290916A02009721F751
:1055A0008091670290916802DFCF85E080838091CF
:1055B000670290916802009729F00E94362AF0CF86
:1055C00086E08083DF91CF911F910F9108958091A4
:1055D000690290916A02B1CF4F925F926F927F926F
:1055E0008F929F92AF92BF92CF92DF92EF92FF92F3
:1055F0000F931F93CF93DF93CDB7DEB728970FB6E6
:10560000F894DEBF0FBECDBF8E010F5F1F4F88E045
:10561000F80111928A95E9F791E6E92E91E0F92EC9
:10562000680125E6422E21E0522E66246394712CF7
:1056300042E7842E41E0942EF70181917F018F3F54
:1056400009F445C0F894E82FE295EF70F0E021A14D
:105650008F70A30102C0440F551F8A95E2F7CA015B
:10566000922F982B91A392A18095892382A378945D
:1056700000C0E5E6F1E021E030E0B12CA12C419141
:105680004F3F09F476C0A42FA295AF70B0E090967A
:105690008C9190E04F7002C0959587954A95E2F7FE
:1056A00080FD67C0C901A82AB92A220F331F8E16B0
:1056B0009F0629F7F701319780818F3F11F00E94F3
:1056C0007E0950EA5A95F1F7F601B182A082F2E024
:1056D000CF0ED11C4E145F0409F0AECF48E050E06D
:1056E000B8018CE192E00E944935DD24D394009703
:1056F00009F4D12C892B09F43FC088E0F801ACE112
:10570000B2E001900D928A95E1F781E08093110259
:105710000E946B069093100280930F0280910F02FB
:10572000909110020E945C06059750F180911C0236
:1057300090911D02909332028093310280911E025B
:1057400090911F0290933402809333028091200243
:10575000909121029093360280933502809122022B
:105760009091230290933802809337021092110295
:1057700007C090E080E097CF809111028111CECFD9
:10578000809100019091010110E006E1019609F07D
:105790006DC080912601811173C08091AD0380FF9F
:1057A0001EC08091250182FF1AC00E946B062091C5
:1057B000E6023091E702AC01421B530B209123011A
:1057C000309124014217530750F022E132E041E0CA
:1057D000BC018091E8029091E9020E94FB108D2D9E
:1057E00028960FB6F894DEBF0FBECDBFDF91CF91E4
:1057F0001F910F91FF90EF90DF90CF90BF90AF90EF
:105800009F908F907F906F905F904F900895089F2A
:10581000F001099FF00D1124E754FC4FE288F38852
:10582000E114F10421F4E090AA03F090AB03089F87
:10583000F001099FF00D1124E754FC4F8681882365
:10584000A1F0858596850E945C06E816F90668F445
:10585000109F70011124C70187549C4F0E94350C82
:10586000C70181549C4F0E94F00B1F5F812F90E075
:1058700020910001309101012817390744F689CFA2
:105880008091900390919103009709F486CF0E9434
:105890005C062091EA023091EB022817390708F0E4
:1058A0007CCF90918E0380918F03981759F00E94BE
:1058B0007D261092EB021092EA0210929103109250
:1058C00090036BCF0E9421261092910310929003B7
:1058D0000E94E80662CF90E080E00E9484358A3E14
:1058E0009E4F11F40C94501380E008951F920F9274
:1058F0000FB60F9211242F933F934F935F936F93A3
:105900007F938F939F93AF93BF93CF93DF93EF9347
:10591000FF93D091E900DF708091EC00C82FC17037
:1059200080FDC0E81092E9008091F000877F8093AD
:10593000F00078940E94BB151092E9008091F0006D
:1059400088608093F000CD2BCF70C093E900FF9169
:10595000EF91DF91CF91BF91AF919F918F917F9107
:105960006F915F914F913F912F910F900FBE0F90CC
:105970001F9018951F920F920FB60F9211242F931C
:105980003F934F935F936F937F938F939F93AF93C7
:10599000BF93EF93FF938091E10082FF09C0809154
:1059A000E20082FF05C08091E1008B7F8093E100DF
:1059B0008091DA0080FF24C08091D80080FF20C051
:1059C0008091DA008E7F8093DA008091D90080FF89
:1059D0009DC080E189BD82E189BD09B400FEFDCF93
:1059E00081E08093840480917704811109C00E9432
:1059F000BD040E9488058091E20084608093E200EB
:105A00008091E10080FF17C08091E20080FF13C009
:105A10008091E2008E7F8093E2008091E2008061BD
:105A20008093E2008091D80080628093D80019BCF6
:105A300085E0809384048091E10084FF2BC08091F5
:105A4000E20084FF27C080E189BD82E189BD89B57C
:105A5000982F917080FFFBCF8091D8008F7D80932D
:105A6000D8008091E1008F7E8093E1008091E20078
:105A70008F7E8093E2008091E20081608093E2005B
:105A800080918504882309F447C084E080938404CE
:105A9000809184048091E10083FF27C08091E2001F
:105AA00083FF23C08091E100877F8093E10082E043
:105AB00080938404109285048091E1008E7F80930E
:105AC000E1008091E2008E7F8093E2008091E2000D
:105AD00080618093E20042E060E080E00E94560531
