:100000000C9408030C9425030C9425030C942503ED
:100010000C9425030C9425030C9425030C942503C0
:100020000C9425030C9425030C94FD320C94D133CD
:100030000C944D2D0C9425030C9425030C9425034E
:100040000C9425030C9425030C9425030C94250390
:100050000C9425030C94D32D0C9425030C942503A8
:100060000C9425030C9425030C9425030C94250370
:100070000C9425030C9425030C9425030C94250360
:100080000C9425030C9425030C9425030C94250350
:100090000C9425030C9425030C9425030C94250340
:1000A0000C9425030C9425030C9425032B001400B9
:1000B0001A000800150017001C0018000C001200A0
:1000C00013002A00025104001600070009000A006C
:1000D0000B000D000E000F0034002800E1001D0091
:1000E0001B00060019000500050011001000360075
:1000F0003700E100E0000353E2000000015100007E
:1001000000002C000000E00050004F0001001E0025
:100110001F002000210022002300240025002600CB
:1001200027000100010001000100010001000100A1
:1001300001000100010001000100010001000100B7
:1001400001000100010001000100010001000100A7
:100150000100520001000100010000000100000048
:1001600000000100000001000100010001003A0050
:100170003B003C003D003E003F004000410042008B
:10018000AA00A90001000100010001000100010016
:100190000100010001000100010001000100010057
:1001A0000100010001000100010001000100010047
:1001B0000100010001000100010000000100000039
:1001C0000000010000000100010001000100140016
:1001D0001A000800150017001C0018000C0012007F
:1001E00013002A00010001000100010001000100CC
:1001F00001000100010001000100010001000100F7
:1002000001000100010001000100010001000100E6
:100210000100010001000100010000002C000000AD
:1002200000000100000001000100010000000000CA
:10023000000000002A2B2800000000000000000041
:100240000000000000000029000000002C1E3420E7
:10025000212224342627252E362D3738271E1F200D
:100260002122232425263333362E37381F04050652
:100270000708090A0B0C0D0E0F1011121314151696
:100280001718191A1B1C1D2F3130232D3504050694
:100290000708090A0B0C0D0E0F1011121314151676
:1002A0001718191A1B1C1D2F3130354C0000000087
:1002B000000000000000000000000000000000003E
:1002C000000000000000000000000000000000002E
:1002D0007E0F00D4FFFFFFC700000078FD377A587B
:1002E0005A000004E6D6B4460200210116000000C0
:1002F000742FE5A3E0019700BE5D003D8889C654D8
:1003000036C3174FE4EE6FBEB64C488D97388D66F6
:1003100086DFB98088C0AF5F7259F7366043FACB89
:10032000FD0F79049EC154374B0B8DBB7A20CA8BCD
:10033000B30DB761B91C878D2FD16F579098BEB898
:10034000A6BEC163653FF05577465A18F11E0C0BE7
:100350009779E364B0A16549CBB9384C0AF850D617
:100360009C2A969FE93710CBC5AAF9B0DFDF097147
:10037000554F007694DC7D03D07B044F9523D4EE5B
:10038000B12145C714147E193A3CB216159B9677D5
:10039000FE7C5C59F87E118B45412DD51B340FB482
:1003A0002999ADC54221D1BD1FABD23AE47BBDA98D
:1003B0009A773B142C5E7A0100000000659A3D8F0D
:1003C00074509F300001DA019803000036B52237DF
:1003D000B1C467FB020000000004595A010001008B
:1003E0007B0400000200020077040000030001000B
:1003F0007C040000040002006104EE2005000100FE
:100400007D040000060002006304000007000200F3
:1004100079040000080001007E04000009000200C9
:100420006504C9200A0002006704C9200B0002000D
:100430006904C9200C0002006B04C9200D000200F1
:100440006D04C9200E0002006F04C9200F000200D5
:100450007104C920100002007304C92011000200B9
:100460007504C920120002007F040000130002007E
:10047000810400001C037600690061006C003A00F2
:10048000660036003400630032006200330063000F
:100490000000100341006C00690073006800340024
:1004A0003000000016035200650065006400730010
:1004B0004B0065006500620073000000040309043E
:1004C00009025B00030100A0FA0904000001030116
:1004D00001000921110100012240000705810308E4
:1004E00000010904010002030000000921110100BC
:1004F00001222200070582032000010705030320D3
:10050000000109040200010300000009211101009B
:10051000012281000705840320000112010002006E
:10052000000008EDFE80310100010203010660FFBA
:100530000961A1010962150026FF00952075088157
:10054000020963150026FF00952075089102C00579
:10055000010902A10185020901A10005091901296A
:100560000515002501950575018102950175038129
:10057000010501093009311581257F950275088132
:100580000609381581257F950175088106050C0A35
:1005900038021581257F950175088106C0C00501C7
:1005A0000980A101850319012AB700150126B700AA
:1005B000950175108100C0050C0901A10185041980
:1005C000012AA002150126A002950175108100C024
:1005D00005010906A101050719E029E71500250114
:1005E00095087501810295017508810105071900BB
:1005F00029FF150026FF00950675088100050819DA
:10060000012905950575019102950175039101C0B8
:1006100011241FBECFEFDAE0DEBFCDBF11E0A0E0B6
:10062000B1E0ECEBFCE602C005900D92AA3AB107EE
:10063000D9F724E0AAEAB1E001C01D92A439B207BB
:10064000E1F70E94F3150C9438360C9400009C01DD
:100650003A9521153F4150F5FC01EE27F170BC01A0
:1006600066277270AC01442754709C0122273870B1
:1006700094FF0EC080E1EF2B09F480E0672B09F0B6
:100680008062452B09F08064232B89F080680895EF
:1006900081E0EF2B09F480E0672B09F08260452BA5
:1006A00009F08460232B19F08860089580E0089594
:1006B000CF93DF93EB010E942703FE01DF91CF91DF
:1006C0000994CF93DF93EC01805E9109089720F0A5
:1006D0006CE277E0209711F46EE177E0CE010E94A2
:1006E00058038C2FDF91CF910C941306CF93DF9397
:1006F000EC010E94A506CE01805E9109089720F0CA
:1007000063E377E0209711F465E277E0CE01DF91B3
:10071000CF910C94580381E0089581E008950C94E2
:100720008D0308950C9491031F93CF93DF9300D012
:1007300000D00F92CDB7DEB749835A836B833091D7
:10074000AD0189819A8131111DC06623B9F0222340
:10075000A9F00E94360B182F682F89819A810E9478
:10076000D90A69817A81812F0F900F900F900F9095
:100770000F90DF91CF911F910C94B01F0E94090B35
:10078000182FEFCF0E94360B69817A81EDCFFC01E3
:10079000262F86819781009739F4408151816281AB
:1007A000738184810C9494030895CF93DF93EC01BB
:1007B00061E00E94C703BE01DF91CF910C94F9273D
:1007C000CF93DF93EC0160E00E94C703BE01DF918D
:1007D000CF910C949203E1E0F0E0DF0102C0AA0F98
:1007E000BB1F6A95E2F7BD01DF0102C0AA0FBB1F64
:1007F0004A95E2F76A2B01C0EE0F2A95EAF7962F89
:100800009823961302C08E2B0895E0958E230895A9
:10081000242F462F682F8091C2010E94EB030C9475
:10082000960A0C9493140C94961408950E944E0703
:100830000E9415042FEF84E39CE0215080409040FB
:10084000E1F700C000000C94F72D0F931F93CF9396
:10085000DF93EC018B010E94522BB801CE010E9464
:100860001819882309F44FC0B801CE010E94C51D94
:10087000882309F448C0B801CE010E948F03882361
:1008800009F441C0B801CE010E94982B8823D9F108
:10089000B801CE010E94F2248823A9F1B801CE014B
:1008A0000E949D2A882379F1B801CE010E9452222C
:1008B000882349F1B801CE010E94CE29882319F17D
:1008C000F8018281882361F0CA35FDE5DF0721F157
:1008D00070F4C115ECE5DE07A1F0CE3DDC45C9F0B2
:1008E000C801DF91CF911F910F910C948B03CB35F1
:1008F0008DE5D807A1F0CC35DD4591F70E94D810E1
:10090000EFCF0E94160480E0DF91CF911F910F91ED
:1009100008950E949111F7CF0E94E110E1CF0E944B
:10092000E410DECFCF93DF93EC0161E00E94C703B8
:10093000BE01DF91CF910C9425040E94312D0C94BF
:1009400086050E9489050C94352DDF92EF92FF9267
:100950000F931F93CF93DF93E82FF0E0E45DFD4FFB
:10096000D490282F26952695269530E0F901E4535A
:10097000FD4F0491877010E0082E02C01595079571
:100980000A94E2F701701127F901E454FD4FE49055
:10099000F12C082E02C0F594E7940A94E2F791E056
:1009A000E922FF24F901E455FD4FC491D0E002C0D3
:1009B000D595C7958A95E2F7C170DD270115110518
:1009C00019F081EE0E941306E114F10419F086EE8D
:1009D0000E9413068D2D0E941207EF2819F086EE53
:1009E0000E94A506012B19F081EE0E94A506CD2BD1
:1009F00051F08CE2DF91CF911F910F91FF90EF901A
:100A0000DF900C941207DF91CF911F910F91FF900F
:100A1000EF90DF900895EF92FF920F931F93CF9383
:100A2000DF93EC01162F0AE08881882309F454C073
:100A3000813009F04EC08981813099F47E0122E035
:100A4000E20EF11C8A810E941207E7012196812F94
:100A5000815050F3EFE9FFE03197F1F700C000005B
:100A6000F7CF823041F47E0182E0E80EF11C8A81EA
:100A70000E941306EACF833041F47E01E2E0EE0EDD
:100A8000F11C8A810E94A506E0CF843011F02196E6
:100A9000DDCF2A81229690E080E0AE014F5F5F4F6C
:100AA0002053330B2A30310548F0019778F2EFE9F3
:100AB000FFE03197F1F700C00000F7CF089FB001C9
:100AC000099F700D1124C901860F971F2981EA0122
:100AD000E4CF0E94A504BACFDF91CF911F910F916F
:100AE000FF90EF90089560E00C940B0508950C942E
:100AF000760581E008950C9479050895CF93C82F69
:100B00000E9477058C2FCF910C947B0580E00C948C
:100B10007E050E94712C0C947E050E94712C909190
:100B2000AC01981721F08093AC010C947E050895D8
:100B3000019708F40895EFE9FFE03197F1F700C05D
:100B40000000F6CFCF93DF93CDB7DEB72D970FB66A
:100B5000F894DEBF0FBECDBF49875A876B877C876D
:100B60008D878C859D85892B29F0CA0189238F3F2C
:100B700009F04AC08B8581110E94EA0F1D821E82F6
:100B80001F82188685E0FE013996DE0111960190DC
:100B90000D928A95E1F78091FE0382FD12C080914B
:100BA000630490916404892B61F00E94A60F88234E
:100BB00019F082E00E94A7100E94820F81110E940A
:100BC00021108C819D81892B99F429813A814B8157
:100BD0005C816D817E818F8198850E94CB0E2D96E0
:100BE0000FB6F894DEBF0FBECDBFDF91CF91089551
:100BF00089819A8189238F3F41F3CE0101960E941A
:100C0000D5038111E2CFEBCF8091AE019091AF017E
:100C100001969093AF018093AE01ACCFFC0180812F
:100C200091810C94630BCF93C82F882309F48BC058
:100C30008238C1F40E94712C81FD85C089E30E9435
:100C40006B0F0E942F102FEF81EE94E02150804017
:100C50009040E1F700C0000089E30E94720FCF913D
:100C60000C942F108338A1F40E94712C80FD6BC06E
:100C700083E50E946B0F0E942F102FEF81EE94E00E
:100C8000215080409040E1F700C0000083E5E5CFAF
:100C90008438A1F40E94712C82FD55C087E40E9423
:100CA0006B0F0E942F102FEF81EE94E021508040B7
:100CB0009040E1F700C0000087E4CFCF8CEF8C0FAD
:100CC000813A90F46C2F80910001909101010E9473
:100CD000D42C882329F08C2F0E94720F0E942F1091
:100CE0008C2F0E946B0FBBCF80E28C0F883048F4B2
:100CF000C77081E001C0880FCA95EAF70E94CA0F49
:100D0000AECFEBE5EC0FE33040F4F0E0E95AFE4FF4
:100D1000808190E0CF910C94962CE8E5EC0FE731C0
:100D200050F4F0E0EE0FFF1FE75DFE4F80819181F0
:100D3000CF910C94AC2CC03F30F08C2F0E949816B1
:100D4000CF910C948317CF910895882309F452C052
:100D5000823871F40E94712C81FF4CC089E30E949B
:100D60006B0F0E942F1089E30E94720F0C942F10BA
:100D7000833859F40E94712C80FF3CC083E50E94A7
:100D80006B0F0E942F1083E5EFCF843859F40E9437
:100D9000712C82FF2FC087E40E946B0F0E942F10DE
:100DA00087E4E2CF9CEF980F913AF0F290E2980F2F
:100DB000983050F4877091E001C0990F8A95EAF756
:100DC000892F0E94D00FD2CF9BE5980F933020F44B
:100DD00090E080E00C94962C98E5980F973120F4E1
:100DE00090E080E00C94AC2C803F20F00E94001733
:100DF0000C94831708951F93CF93DF93182FEB0163
:100E00000E941306209731F4812FDF91CF911F911B
:100E10000C94A5068FE99FE00197F1F700C0000050
:100E20002197F0CF6091810470918204893321F081
:100E300060917F04709180040C94FB06882321F05C
:100E40000E94CA0F0C942F100895882321F00E944D
:100E5000D00F0C942F100895882321F00E94DD0FED
:100E60000C942F100895882321F00E94E30F0C9416
:100E70002F10089590E080E00E94962C90E080E092
:100E80000E94AC2C0E94EA0F0E942F100E94AA1808
:100E90000C9483170E94790F0C943A070E94D70F85
:100EA0000C944A0792959F70963091F058F4925F97
:100EB0009F70923058F4803F19F030F4883E30F43F
:100EC00081E008959A5FF4CF843FD1F380E00895E4
:100ED000883EB0F3813FD1F7F3CFFC018681978143
:100EE000009721F00E9485120C9452078081918115
:100EF0000E94630BF9CFBF92CF92DF92EF92FF92E5
:100F00000F931F93CF93DF936C01EB01FC011281D0
:100F1000058102950F700E94C00FE82E8823B9F05A
:100F2000E12E1123A1F08D2F807F803421F080E20B
:100F30008C0F8830D0F08091FE0382FD16C082E0D5
:100F40000E94A7100E94C00F91E0E82EE926BD2E56
:100F5000B2942FE0B222FBE0FB1508F47CC0EB2D2D
:100F6000F0E0E65CF94C0C94AB35E12CF0CF2D2F82
:100F70002F70F22E8D2F807F19F0F29490EFF922CE
:100F8000112399F0FF2059F080E28C0F883010F087
:100F9000C11107C08F2D0E94CA0F0E942F108C2FE5
:100FA00052C08F2D0E94DD0FF8CF8C2F0E94A50616
:100FB000FF2009F450C080E28C0F883010F0C1117E
:100FC00004C08F2D0E94D00F03C08F2D0E94E30F0D
:100FD0000E942F1040C03D2F3F70F32E8D2F807F39
:100FE000803219F0F29480EFF822CC23F1F0C13076
:100FF00009F49BC0112309F4A2C0002309F477C0AF
:1010000020E0F601408151816281738184810E94D8
:101010009403B6010E9407228111C1CFF601858198
:1010200080FFBDCF8F70858362C08091FE0382FFF9
:1010300041C0112359F0FF2029F08F2D0E94CA0FC3
:101040000E942F1080E00E94130605C080E00E94DD
:10105000A506F110B6CFEB2DE850FF0B349720F426
:101060000E94712C0E947E05CE010E9452078111C0
:10107000A7C11092AF011092AE01EE2009F4C1C1D8
:101080000E94A20F80FDBDC1F60112820E949C0F3A
:101090000E94A70AC6010E94290A0E949C0FDF91A4
:1010A000CF911F910F91FF90EF90DF90CF90BF9065
:1010B0000C94B20A1123E9F0011106C00E94ED0F51
:1010C0008F290E941E07C7CF013031F40E94ED0F17
:1010D0008F290E940910BFCF80917D04823070F368
:1010E0008013ECCF0E9421108F2D0E94F30F8F2DC3
:1010F000E8CF011106C00E9421108F2D0E94250704
:10110000AACF80917D04013059F4823008F4A3CF36
:101110000E94C70F8F2109F49ECF0E94FC0FEBCFD6
:10112000823048F30813E7CF96CF112321F0063021
:1011300008F091CFDCCF053008F08DCFDECF002353
:10114000E1F28091810490918204C93321F0809171
:101150007F04909180040E9498058C2F0E94A50620
:101160007ACF8D2F86958695837061F0813009F056
:1011700072CFCE019370111102C090E080E00E9406
:10118000AC2C69CFCE019370111102C090E080E0C9
:101190000E94962C60CF8C2F112329F00E94981664
:1011A0000E94831758CF0E940017FACF8D2F8370AB
:1011B00081F5111150CF4C2F429546954770440F41
:1011C000440F8C2F8F70042E01C0880F0A94EAF709
:1011D0002C2F2071C4FF07C02FE030E001C0220F88
:1011E0004A95EAF720959D2F969596959370822BB8
:1011F000923049F058F4913019F00E94880A2BCFB0
:101200000E94830A28CF0E948D0A25CF0E94810A5E
:1012100022CF8695112311F08D2F8170882309F438
:101220001ACF4C2F429546954770440F440F8C2F90
:101230008F70042E01C0880F0A94EAF72C2F2071BA
:10124000C4FF07C02FE030E001C0220F4A95EAF743
:1012500020959D2F969596959370822B923049F00C
:1012600058F4913019F00E94CE0AF5CE0E94C90AB6
:10127000F2CE0E94D30AEFCE0E94960AECCEFD2F4A
:10128000FF70FF2E112329F08F2F0E94A70A8C2FA9
:1012900018CF8C2F0E9425078F2D0E94B20ADBCE1B
:1012A000C23F41F160F4C03FB9F0C13F81F011236A
:1012B00009F481C0011173CE8D2F8F711FC0C33F00
:1012C00001F1C43FA1F78091FE0382FF24C08D2F5E
:1012D0008F71112311F312C0112341F0053008F072
:1012E000BACE8D2F8F710E94BE0AB5CE063008F09F
:1012F000B2CEF7CF8D2F8F711111CFCF0E94A70AD9
:10130000AACE112329F08D2F8F710E949F0AA3CEA0
:101310000E949C0AA0CE80917D048230A8F1112306
:10132000F9F00E947F0F0E94D00F0E94A20F84301C
:1013300041F40E949E108D2F8F710E94B20AE12C01
:101340008ACE80917D040817D0F72D2F2F71F22EB1
:10135000822F0E94A70A63E08F2D0E948210EFCF98
:101360000E947F0F0E94CA0F80917D04081740F0F1
:101370000E949E100E94FC0F64E08D2F8F71EDCFB4
:1013800081E00E94A710DBCF112359F03D2F3F7160
:10139000F32E832F0E94A70A63E08F2D0E948210F4
:1013A0005ACE81E00E94A710023008F454CE82E0A9
:1013B0000E94A71050CE0111C4CE8D2F8F716DCF1A
:1013C000112319F0011155CE58CE011152CE20E053
:1013D000F601408151816281738184810E9494036E
:1013E000B6010E941222882309F443CE8091AE01F7
:1013F0009091AF01029709F03CCE8C2F0E9412070A
:1014000038CEDF91CF911F910F91FF90EF90DF9039
:10141000CF90BF9008950F931F93CF93DF93EC016C
:101420008E819F81009779F00E9485128C010E9425
:10143000D80A0E94800AB801CE01DF91CF911F9196
:101440000F910C947B07688179818A810E946D0BD2
:10145000EDCFCF93DF93EC018B819C81892B29F019
:101460008881998189238F3F59F4DF91CF91089525
:10147000CE010E940B0ACE01DF91CF910C94E003C4
:10148000CE010E9492048111F3CF0E94C00F8823E5
:1014900061F38A81882349F38091FE0382FDE5CFC1
:1014A00082E0DF91CF910C94A710CF93DF9300D00F
:1014B00000D00F92CDB7DEB70F900F900F900F9026
:1014C0000F90DF91CF910895CF93DF93CDB7DEB723
:1014D00028970FB6F894DEBF0FBECDBF28960FB683
:1014E000F894DEBF0FBECDBFDF91CF910895089570
:1014F0000C94770A0E94780A8093C3010C943A07EF
:1015000008950C947A0A9091C301892B0C947A0A5D
:101510009091C30189230C947A0A9091C301892781
:101520000C947A0A0C94770A0C94920A0E94940AFA
:101530008093C2010C943A0780E00C94960A91E0E3
:1015400001C0990F8A95EAF7892F0C94960A21E039
:1015500030E001C0220F8A95EAF78091C201822B08
:101560000C94960A21E030E001C0220F8A95EAF738
:1015700020958091C20182230C94960A21E030E0EC
:1015800001C0220F8A95EAF78091C20182270C944C
:10159000960A9091C201892B0C94960A9091C201EF
:1015A00089230C94960A9091C20189270C94960A7B
:1015B00008959E3F69F1E82F2CE0929FE00D1124E1
:1015C0008E2F877041E001C0440F8A95EAF7E695B7
:1015D000E695E69583E0E89FF0011124E055FE4F83
:1015E00030E020E070E05191DF011197CB01022E35
:1015F00002C0969587950A94E2F7817081958527B8
:10160000842385278C932F5F3F4F2330310559F773
:1016100008959E3F49F1E82F2CE0929FE00D1124A0
:101620009E2F9770E695E695E69583E0E89FF0019A
:101630001124E055FE4F50E040E080E0219130E081
:10164000092E02C0369527950A94E2F721703327B8
:10165000042E01C0220F0A94EAF7822B4F5F5F4FDE
:101660004330510559F7089580E00895CF92DF92F5
:10167000FF920F931F93CF93DF936C010091C201F0
:101680008091C301082BC7E0D0E010E0FC2EC80118
:101690000C2E02C0959587950A94E2F780FD0CC048
:1016A0002197A0F7F12C8F2DDF91CF911F910F91F2
:1016B000FF90DF90CF900895B6018C2F0E947D138C
:1016C000019771F3F0CFCF93DF93EC010E94360BBB
:1016D000BE01DF91CF910C947D131F93CF93DF93C5
:1016E000EB019091AD01992331F0CB01DF91CF91C6
:1016F0001F910C94630B882379F0CB010E94360B69
:10170000182F682FCE010E94D90ABE01812FDF91C8
:10171000CF911F910C947D13CB010E94090B182FC0
:10172000F4CFCF93DF93C091C4018091C5018C1396
:1017300003C0DF91CF910895D0E0FE0183E0EE0F6A
:10174000FF1F8A95E1F7EA53FE4F208131814281E4
:10175000538164817581868197810E94640A2196F4
:10176000C770E3CF20910602309107024091080232
:101770005091090260910A0270910B0280910C0253
:1017800090910D020C94640A2091C4019091C501BE
:10179000291302C080E0089530E0F90153E0EE0F14
:1017A000FF1F5A95E1F7EA53FE4F5181561306C0C9
:1017B0005081581303C05281541304C02F5F3F4F10
:1017C0002770E6CF81E00895EF92FF920F931F9369
:1017D000CF93DF9380910B02807F31F480910802D8
:1017E000C091C401811119C0DF91CF911F910F9158
:1017F000FF90EF9008952091090230910A02D0E005
:101800002115310541F08091060290910702482F81
:1018100049234F3F39F42196C7708091C5018C133D
:10182000EACFE2CF8E0143E0000F111F4A95E1F7A6
:10183000F801EA53FE4F41814913EDCF908198138F
:10184000EACF82818111E7CFE380F480E21AF30AC4
:1018500060E086E092E00E94C70366E072E00E94CA
:10186000FE21E816F906B8F680910B028F708061B0
:1018700080930B02F801E553FE4F80818F708061E9
:10188000808386E092E00E94290ADF91CF911F9128
:101890000F91FF90EF900C94910B4F925F926F928B
:1018A0007F928F929F92AF92BF92CF92DF92EF92F0
:1018B000FF920F931F93CF93DF93CDB7DEB765975A
:1018C0000FB6F894DEBF0FBECDBF8C0185E0F801E6
:1018D000DE01519601900D928A95E1F7D8014C9066
:1018E00011965C90119712967C9012971396ED903A
:1018F000FC9060E086E092E00E94C7036C0186E005
:10190000882E82E0982E2091090230910A0221153A
:10191000310541F0809106029091070289238F3FA3
:1019200009F0E5C171100DC1C8010E94290A7FC0EC
:1019300066E072E0C6010E94032281110BC2EF280B
:1019400029F0852D84218F3F09F011C180E0B82F47
:10195000B170EB2E80FF29C0472D652D842D0E948C
:10196000C40BF82E811121C0498A5A8A89899A8923
:101970000E94630B292F22952F70223050F02430C3
:1019800078F49F7051F0F8019581907F31F46F2CBD
:101990001AC19F7011F08823D1F3805E8830B8F3AC
:1019A000C8010E94290AFE2CF2CF772009F40BC14E
:1019B00080910B02816080930B02612C04C1892B02
:1019C00049F08091060290910702282F29232F3F8A
:1019D00009F011C1C8010E946D07882309F4A4CF42
:1019E000772009F4A1CF80910B028032A0F02091E2
:1019F0000602309107023A8729871B86FD86EC860E
:101A00008E8780910C0290910D02988B8F87CE016A
:101A100009960E94290A88E0F801A6E0B2E0019048
:101A20000D928A95E1F70E94E40B0E94B20B6624A6
:101A30006394C9C0211112C07E2DFD8AEC8AA201D7
:101A4000672D8D890E94550A86E092E00E94290A3E
:101A500088E0F40111928A95E9F79AC18091090210
:101A600090910A02892B49F0809106029091070219
:101A7000282F29232F3F09F0E6C0C8010E946D07D7
:101A8000882309F451CF772009F44ECF80910B02BF
:101A9000803208F220910602309107023A832983AE
:101AA0001B82FD82EC828E8380910C0290910D024C
:101AB00098878F83CE010196ACCF60E086E092E0FC
:101AC0000E94C70366E072E00E94FE21A816B906D4
:101AD00050F5672C772009F427CF80910902909167
:101AE0000A02892B49F08091060290910702282F63
:101AF00029232F3F09F0CDC0C8010E946D07811135
:101B00008ACF80910B02816080930B02C8010E94F2
:101B1000290A59C088E0F801A6E0B2E001900D92D0
:101B20008A95E1F750C07E2DFD8AEC8AA201672DCF
:101B30008D890E94550A88E0F40111928A95E9F78F
:101B40007FC0C8010E946D07682E882309F4ECCE7F
:101B500088E0F801A6E0B2E001900D928A95E1F7E5
:101B600086E092E00E940E060E94E40B69C081E0CC
:101B70008725EDCE81E08725F6C0D80111962C91FE
:101B80002913DFC0F80190819813DBC020910C026B
:101B900030910D02868197812817390709F0D1C04D
:101BA0007110CFC080910B028F70806180930B0207
:101BB0000E94B20B86E092E00E94290A80910B02FB
:101BC000D80115968C93862D65960FB6F894DEBFD6
:101BD0000FBECDBFDF91CF911F910F91FF90EF907E
:101BE000DF90CF90BF90AF909F908F907F906F903D
:101BF0005F904F900895F80121812913EBCED80111
:101C00009C919813E7CE20910C0230910D0216960C
:101C10008D919C9117972817390709F0DBCE809199
:101C20000B027110D7CE15968C93C8010E94290A19
:101C300088E0F801A6E0B2E001900D928A95E1F704
:101C40000E94B20BC0CFD80111962C91291315CF49
:101C5000D8019C91981311CF20910C0230910D0264
:101C600016968D919C9117972817390709F005CF83
:101C7000711003CF80910B0215968C93C8010E94BE
:101C8000290AE6E0F2E088E0DF011D928A95E9F793
:101C90009ACFF801218129132FCFF8019081981351
:101CA0002BCF20910C0230910D028681978128174D
:101CB000390709F021CF66E072E0C6010E940C22CC
:101CC000811128CF80910B0280FD24CF982F907F27
:101CD00009F420CFD80115968C931597903F09F4FD
:101CE000A4CF982F907F905F8F70892B9CCF6090AE
:101CF00008025701A21AB30A662009F4DECE60E09A
:101D000086E092E00E94C70366E072E00E94FE2136
:101D100020910B02207FA816B90608F08BCE809187
:101D2000090290910A0221114ACE672C892B49F0B1
:101D30008091060290910702282F29232F3F09F056
:101D40001CCF66E072E0C6010E94FE21843F9140F4
:101D500008F4EECDE114F10429F0852D84218F3FA4
:101D600009F008CF80E080FFEACD472D652D842D56
:101D70000E94C40B882309F4E2CD86E092E00E9421
:101D8000290A88E0E6E0F2E0DF011D928A95E9F792
:101D90000E94B20B12CECF93DF93CDB7DEB7609720
:101DA0000FB6F894DEBF0FBECDBF29873A874B87A9
:101DB0005C876D877E878F87988BCE0109960E94FE
:101DC0004D0C8823D1F08C859D85892B39F0298590
:101DD0003A85822F83238F3F09F074C08091C4011C
:101DE0009091C501891348C060960FB6F894DEBF84
:101DF0000FBECDBFDF91CF91089588E0FE013996E7
:101E0000DE01119601900D928A95E1F78C859D85F2
:101E1000892B21F389859A8589238F3FF9F2A09137
:101E2000C501B0E0CD010196877099272091C401CA
:101E30002817190671F40E944E071092C5011092DE
:101E4000C40188E0E6E0F2E0DF011D928A95E9F73F
:101E5000C5CF93E0AA0FBB1F9A95E1F7AA53BE4FD7
:101E600098E0FE01319601900D929A95E1F78093EA
:101E7000C5010E94910BB2CFB8E08B9FC001112425
:101E80008A539E4F0E944D0C882309F4ADCFE091F8
:101E9000C40128E0E29FF0011124EA53FE4F2081A3
:101EA00031814281538164817581868197810E944D
:101EB000640A8091C40190E001968770992780930D
:101EC000C4018CCF4B855C856D857E858F85988917
:101ED0000E94640A83CF682F8091000190910101D4
:101EE0000C940A2D682F80910001909101010C94AF
:101EF0000C2D80910001909101010C940E2D809188
:101F00001B0208958091630490916404892B89F0E9
:101F10000E94AC2D2091190230911A02AC01421B93
:101F2000530B81E0209163043091640442175307FE
:101F300008F480E081700895809118028595859558
:101F40008595089580911802877008950E94AC2DA0
:101F50002091160230911702821B930B209163048B
:101F6000309164048217930748F08091180282FB35
:101F7000882780F991E089278170089580E0FCCF5F
:101F800090911802977081E009F480E008958091A3
:101F90002602089590912602892B809326020895A7
:101FA000809590912602982390932602089510928E
:101FB0002602089580912502089590912502892B8B
:101FC00080932502089580959091250298239093FF
:101FD0002502089510922502089580911C0208950B
:101FE00008950C94F00F90911B02981721F08093A4
:101FF0001B020C94F10F089580911B02882329F095
:1020000010921B0280E00C94F10F089508950C9437
:102010000610CF93C82F8091FE0382FD10C08091DF
:102020001C028C1761F00E94AC2D90931A028093D1
:102030001902C0931C028C2FCF910C940710CF91E2
:10204000089580911C02882349F010921C0210927E
:102050001A021092190280E00C9407100895CF9391
:10206000DF93E0910001F0910101809126028083CD
:10207000E0910001F0910101808190912502892B6E
:10208000808380911C028823E9F080916304909101
:102090006404892B29F00E94820F81110E94211073
:1020A000E0910001F0910101808190911C02892B47
:1020B000808380910001909101010E94C22C8111C6
:1020C0000E942110C0910001D091010148E050E030
:1020D0006EE072E0CE010E94C135892B69F088E084
:1020E000FE01AEE0B2E001900D928A95E1F7CE01DB
:1020F000DF91CF910C947D2CDF91CF9108950895BD
:102100000C947F109091FE0392FD16C098E0899F79
:1021100090011124622B609318020E94A70A0E946A
:10212000AC2D90931702809316028091180285952A
:10213000859585950C9480100C94A70A109218022E
:10214000109217021092160280E00C948010909169
:1021500018028095892380931802282F277091F404
:10216000282F082E000C330B9217130659F090916C
:10217000FE0392FD07C08595859585950E94B20A5C
:102180000C949E1008959091FE0392FB222720F953
:10219000281769F080FB92F99093FE038091FD036C
:1021A0009091FE030E940E1182E00C94A7100895F6
:1021B0008091FE0382FB882780F991E089270C94A7
:1021C000C31081E00C94C31080E00C94C3106FEF37
:1021D0007FEF90E080E00C941A3690E080E00E945F
:1021E000F635893E9E4F11F40C94B81880E008959E
:1021F00082E090E00C94EE3583E090E00C94EE35B4
:10220000CF9384E090E00E94EE35C82F82E290E008
:102210000E94EE35982F8C2FCF910895CF93C92F20
:10222000682F84E090E00E94FC356C2F82E290E001
:10223000CF910C94FC35AB01BC018FE090E00C9485
:102240000E36AB01BC0183E190E00C940E3660E0E9
:1022500070E0CB010C94211160E070E0CB010E9492
:102260001B110C94271169EE7EEF90E080E00E9434
:102270001A3660E082E090E00E94FC3560E083E086
:1022800090E00E94FC351092C30160E084E090E091
:102290000E94FC3560E082E290E00E94FC3560E044
:1022A00085E090E00E94FC3560E086E090E00E94CE
:1022B000FC356FEF87E090E00E94FC3540E050E095
:1022C000BA0188E090E00E940E3660E08DE090E078
:1022D0000E94FC3540E050E0BA0188E190E00E94A5
:1022E0000E3660E087E190E00E94FC3540E050E06F
:1022F000BA018CE190E00E940E3670E060E080E26E
:1023000090E00E941A3640E050E0BA0188E190E087
:102310000E940E3680E00E94D1180E94FC180C9496
:102320002C110C943311682F8EE090E00C94FC3546
:102330000E94B82D6093330270933402809335026B
:102340009093360260932F02709330028093310293
:1023500090933202089585B7806885BF85B78068FD
:1023600085BF0895089508950C94B31108950C94B1
:10237000B6110E94AB118BE594E10E94672C0E947C
:102380007F1C0E9410210E94B2110C94B41181E0B4
:1023900008950C94C711089508950E94CB110C94D0
:1023A000CC110E9478140C947D050E94A32D0E94EC
:1023B0000B190E944D150E94D1110C94B7117F92F8
:1023C0008F929F92AF92BF92CF92DF92EF92FF9245
:1023D0000F931F93CF93DF93CDB7DEB72A970FB636
:1023E000F894DEBF0FBECDBF0E946215A82E8111EA
:1023F0000E94981157E2852E52E0952E10E000E0E1
:10240000702E802F0E9498146C01F401E190F190DD
:102410004F01E816F90609F453C08091370281FD97
:102420000E94A114C7018C259D25B12CEE24E394B4
:10243000F12C9C012E213F21232BE1F10E94C91197
:102440008823A9F0BE827F82CE20DF2081E0CD28C4
:1024500009F480E088870E94AC2D8160782F9A87EC
:1024600089874E815F8168858A850E94A205000F59
:10247000111FF801E95DFD4F80819181E826F92661
:10248000F182E08281E0A11001C080E02A960FB6BF
:10249000F894DEBF0FBECDBFDF91CF911F910F919A
:1024A000FF90EF90DF90CF90BF90AF909F908F9074
:1024B0007F900895B394EE0CFF1CFCE0BF12B9CFDF
:1024C0000F5F1F4F0430110509F09ACF8FEF8983FA
:1024D0008A831B820E94AC2D8160782F9D838C8320
:1024E00049815A816B818D810E94A205CBCF0E94C8
:1024F000F32B0E94B5270C94B9240E94DF110E948F
:1025000077120E949E170C948D05CF93DF930E9443
:102510008113EC01811521E5920708F042C0811575
:1025200030E5930708F09DC0883E910530F5803E68
:10253000910508F092C0883A910588F4853A910592
:1025400008F084C08130910509F487C0009709F430
:1025500084C0049708F081C0D0E0C0E07EC08F3B0B
:102560009105D0F7C85AD0E0CC0FDD1FC65ADE4F18
:102570000990D881C02DD46470C08115904250F468
:10258000C11581E0D80708F068C0C03FD10520F32D
:10259000D06563C0C11590E4D907F0F2DF70D06A4E
:1025A0005CC0811525E5920700F5811534E5930798
:1025B00008F08BC0811543E5940708F073C0C1157E
:1025C00082E5D80708F469C0CE018370992721E01D
:1025D00030E002C0220F331F8A95E2F7C695C695F8
:1025E00080E2C89FE001112454C0C11599E5D907C4
:1025F000A8F4C11528E5D20708F06CC0C11536E56E
:10260000D30708F0A9CF8C2F0E941814C82FD0E050
:10261000DC2FCC27CC27DF71D0621FC0C1154AE563
:10262000D40708F45CC0CE0190568115904208F0A2
:1026300093CF8D2F8F710E94181490E0982F8827C8
:1026400088279F719C012C2BE901E6CFC55AD0E069
:10265000C857DE4FC881D0E0D064CE01DF91CF9162
:102660000895E4E096958795EA95E1F783702C2F1D
:1026700026952695237040E2249F90011124382B43
:102680008C2F8370C1E0D0E002C0CC0FDD1F8A9593
:10269000E2F7C22BD32BDC68E0CFDC2FCC27C16F55
:1026A000D06ADBCF8370992721E030E002C0220F8F
:1026B000331F8A95E2F7C695C69590E2C99FE0015F
:1026C0001124C22BD32BDA68C8CFD82FCC27C46FE4
:1026D000D06AC3CFDC2FCC27C06FD06ABECF8C2F7F
:1026E0008F700E94181434E0D695C7953A95E1F79B
:1026F000CF709C2FEC01D069B0CF0E94B01F0C941A
:10270000851282389105B1F1B0F48133910509F455
:1027100075C048F48932910509F469C08A3291057F
:1027200009F473C008958533910509F459C08933BC
:10273000910501F10895833E9105A9F138F4803E99
:102740009105F9F0823E910549F10895863E910583
:10275000A9F1873E9105C9F1843E910519F52091B3
:10276000FE0321FF1FC08091FD0384FD14C087EE8E
:1027700090E008952091FD032370A1F080EE90E099
:1027800008952091FD0320FD47C03091FE0330FFE6
:1027900009C024FF44C090E080E004C02091FD0304
:1027A00022FDF7CF08952091FD0322FD3BC030911B
:1027B000FE0330FDE3CF24FFF5CFEDCF2091FD03E5
:1027C00023FFF0CF24FDE7CFD2CF2091FD0323FDDF
:1027D0002CC03091FE0331FFEECF84EE90E00895DF
:1027E0002091FD0325FFDECF89E290E0089520913E
:1027F000FD0325FFD7CF85E390E008952091FD03E9
:1028000026FFD0CF8AE290E008952091FD0326FFB5
:10281000C9CF81E390E0089589E390E0089583EEC5
:1028200090E0089582EE90E0089586EE90E008959D
:102830009091FD0392FF06C0282F28712830F9F4EB
:10284000877F846093FF06C0282F28712831F1F418
:10285000877E84612091FE0320FF06C0382F3871E7
:102860003830D9F4877F816021FF06C0282F287176
:102870002831D1F4877E816194FD877E0895282FC9
:1028800024712430F9F68B7F8860DCCF282F2471E7
:10289000243101F78B7E8861DDCF382F31713130E3
:1028A00019F78E7F8860E0CF282F2171213121F721
:1028B0008E7E8861E1CF80E008950C94E7100E943D
:1028C00062152FEF86E791E0215080409040E1F7BC
:1028D00000C000000E94621580E00E94981480FFF2
:1028E00004C00E945D140C94F72D08950C945F149D
:1028F0000E94ED10811102C00E9491110E94F810F7
:10290000809337020E9400119093FE038093FD0391
:102910000E9476140E94FC100E94810A8091C201DC
:102920000C94940A08950C94921408950C949514A0
:10293000E82FF0E0EE0FFF1FE95FFB4F80819181F0
:102940000895089580EA8A95F1F7089500C00895E2
:102950000C94A214F894E82FE295EF70F0E031A106
:10296000282F2F7081E090E001C0880F2A95EAF7A8
:10297000982F9095932391A392A1892B82A3789469
:102980000895CF93DF9386EF0E94AA1487EF0E94E9
:10299000AA1481E30E94AA1483E30E94AA14CBE83C
:1029A000D1E089918F3F11F00E94AA1481E0C739CC
:1029B000D807B9F7DF91CF910895AF92BF92DF9218
:1029C000EF92FF920F931F93CF93DF938C01D62E3C
:1029D000C62FD0E0CE0189569E4F7C01FC0120819C
:1029E0002F3F09F44DC0F894E22FE295EF70F0E02C
:1029F00031A12F7081E090E001C0880F2A95EAF79D
:102A0000932F982B91A392A18095892382A37894E8
:102A10000E94A614EBE8F1E047E951E021E030E044
:102A2000B12CA12C61916F3FA9F1A62FA295AF7097
:102A3000B0E090968C9190E06F7002C0959587956C
:102A40006A95E2F780FD26C0C901A82AB92A220F9B
:102A5000331F4E175F0731F7F70180818F3F11F069
:102A60000E94AA1461E0A114B10409F460E08D2D64
:102A70000E94A814CC0FDD1FC00FD11FB982A882FD
:102A8000DF91CF911F910F91FF90EF90DF90BF905A
:102A9000AF90089590E080E0D8CF0E94C11488E004
:102AA000E7E0F4E0DF01982F1D929A95E9F7EFEF48
:102AB000F3E0DF011D928A95E9F784E00E94AD15ED
:102AC0000C941104FF920F931F93CF93DF93CDB714
:102AD000DEB728970FB6F894DEBF0FBECDBF8E01CC
:102AE0000F5F1F4F88E0F80111928A95E9F7F12CEA
:102AF0006F2DC8010E94DD14F394F4E0FF12F8CFAB
:102B000048E050E0B8018FEF93E00E94C135FF2408
:102B1000F394009709F4F12C892B41F088E0F80137
:102B2000AFEFB3E001900D928A95E1F72F2D44E0CD
:102B300067E074E08FEF93E00E94AE150E941304EB
:102B40008F2D28960FB6F894DEBF0FBECDBFDF9154
:102B5000CF911F910F91FF9008950895FF920F93C9
:102B60001F93CF93DF93F82E092F162FD72FC42F43
:102B7000222349F081E080933A020E94AC2D909389
:102B800039028093380280913A028823A1F0809123
:102B90003802909139020E94C42D059760F0EF2D04
:102BA000F02FA12FBD2F90E080E0D0E08C179D0783
:102BB00044F010923A02DF91CF911F910F91FF9054
:102BC0000895219131912D933D930196EFCF0E946D
:102BD000CC2F0E94D5110C94D82F0E94DC2F0E947C
:102BE0007D120C94F62F0E944C2D0E94B32F0E9450
:102BF000B9110E94E7150E94ED150E94CD11FBCF7F
:102C0000809141026091690470916A0480FF16C04E
:102C100020910701269FC001279F900D1124BC0120
:102C200076956795769567956038710508F043C08D
:102C30006115710509F441C0862F089581FF0BC00D
:102C400020910701269FC001279F900D1124BC01F0
:102C500076956795E9CF82FF09C0809107019B01B6
:102C6000829FB001839F700D1124DECF209140021E
:102C70002223D1F29091060180910701482F50E064
:102C8000291748F0CB01849FB001859F700D949F58
:102C9000700D1124C9CF289F90011124269FA001F7
:102CA000279F500D369F500D1124692F70E0CA01E7
:102CB0000E948335B9CF8FE7089581E00895809110
:102CC000410280FF0CC06091030170E0759567952B
:102CD000759567956115710549F1862F089581FFF6
:102CE00006C06091030170E075956795F3CF609120
:102CF000030182FD0BC090913F029923A1F06091E6
:102D0000020180910301961738F0682F70E0603857
:102D1000710500F38FE70895899FC001112470E0C9
:102D20000E949735F4CF61E070E0D7CF81E008953D
:102D3000803F31F40E9400168195809345020895EA
:102D4000813F19F40E940016F8CF823F31F40E94AF
:102D500000168195809344020895833F19F40E94E0
:102D60000016F8CF893F29F40E945F16809346022F
:102D700008958A3F21F40E945F168195F7CF8B3F1B
:102D800031F40E945F1681958093470208958C3F2D
:102D900019F40E945F16F8CF843F31F4809143020A
:102DA0008160809343020895853F21F4809143021E
:102DB0008260F7CF863F21F4809143028460F1CF97
:102DC000873F21F4809143028860EBCF883F21F454
:102DD000809143028061E5CF8D3F31F480914102C3
:102DE00081608093410208958E3F21F480914102D9
:102DF0008260F7CF8F3FB9F7809141028460F1CFB5
:102E000090914402803F59F48091450287FF0DC0A4
:102E10001092450291110BC01092400208C0813FF0
:102E200081F48091450218169CF3992381F08091DA
:102E3000460290914702892B09F064C010923F022C
:102E40000895823F49F497FFF0CF10924402809199
:102E500045028111ECCFE0CF833F19F41916ACF392
:102E6000E4CF20914602893F29F41216F4F610921D
:102E70004602DBCF8A3F19F427FFD7CFF8CF209146
:102E800047028B3F29F427FFD0CF10924702CDCFC6
:102E90008C3F19F41216CCF3C8CF843F31F48091E3
:102EA00043028E7F80934302C0CF853F21F48091FF
:102EB00043028D7FF7CF863F21F4809143028B7FC1
:102EC000F1CF873F21F480914302877FEBCF883F8A
:102ED00021F4809143028F7EE5CF8D3F31F48091C4
:102EE00041028E7F80934102A0CF8E3F21F48091DA
:102EF00041028D7FF7CF8F3F09F097CF809141023C
:102F00008B7FF0CF08950E94AC2D9C0190914402DC
:102F100080914502982B21F030933E0220933D0290
:102F20009091460280914702982B21F030933C0209
:102F300020933B0282E492E00C94882CEF92FF9263
:102F40000F931F93CF93DF9300D000D000D0CDB765
:102F5000DEB786E0E2E4F2E0DE01119601900D9228
:102F60008A95E1F7E0904402F09045020091460214
:102F700010914702109244021092450210924602AC
:102F8000109247028E2D8F2991F080913D029091F1
:102F90003E020E94C42DAC0190914002992309F495
:102FA0003FC0809108018417150608F447C0802FA0
:102FB000812B91F080913B0290913C020E94C42DA4
:102FC000AC0190913F02992309F477C080910401EC
:102FD0008417150608F47FC0809144029091450241
:102FE000892B90914602892B90914702892B11F0F1
:102FF0000E94831786E0FE013196A2E4B2E00190C0
:103000000D928A95E1F726960FB6F894DEBF0FBEB3
:10301000CDBFDF91CF911F910F91FF90EF90089559
:10302000209109018AE0289F900111242417350777
:1030300008F0BDCF9F5F9093400202C09F3FD1F741
:10304000EE2059F00E9400169FEF1E140CF491E040
:10305000899F802D112480934402FF2059F00E9403
:1030600000169FEF1F140CF491E0899F802D11240E
:103070008093450230914402332309F498CF209184
:103080004502222309F493CF45EB3403C0011124F8
:10309000992359F09093440245EB240390011124A5
:1030A000332339F03093450282CF81E0809344028C
:1030B000F3CF81E0809345027ACF209105018AE029
:1030C000289F900111242417350708F085CF9F5FB2
:1030D00090933F0202C09F3FD1F7002359F00E9416
:1030E0005F169FEF10160CF491E0899F802D11243C
:1030F00080934602112359F00E945F169FEF11162C
:103100000CF491E0899F802D112480934702309127
:103110004602332309F460CF20914702222309F4A9
:103120005BCF45EB3403C0011124992359F09093F0
:10313000460245EB240390011124332339F03093E8
:1031400047024ACF81E080934602F3CF81E080932B
:10315000470242CF86E0E2E4F2E0DF011D928A9569
:10316000E9F71092400210923F0210924102089536
:1031700083E290E00E94EE35813389F484E290E0AE
:103180000E94EE358F3F59F485E290E00E94EE35C3
:1031900091E0833009F090E0892F8170089580E0FC
:1031A000FCCFCF93C82F6FEF811161E383E290E0F2
:1031B0000E94FC356FEF84E290E00E94FC356FEFD7
:1031C000C11163E085E290E0CF910C94FC35089545
:1031D00086E290E00E94EE35682F70E090E080E09B
:1031E00008950895CF93C62F0E94F1186C2F86E2A0
:1031F00090E0CF910C94FC3580E00E94D11860E003
:1032000070E0CB010E94F2180E94D11E0E94232080
:1032100081E00C94D1180E94E7180E94E8180E94DF
:10322000F1180E94B818811102C00C94FC1808957E
:10323000CF93FB01C281CC2309F19C0122513F4570
:103240002031310520F582510E943320C0E08C2FBF
:10325000CF91089581E00E94A70A43E062E081E0F7
:103260000E940804F3CF81E00E94B20A43E062E0CA
:1032700081E00E940804EBCF82E0F6CF8031FFE5C9
:103280009F0789F381319F45B9F3C1E0E0CF8031D9
:10329000EFE59E07F9F281319F45C9F682E0DBCF69
:1032A0002FEFFC0120830895EF92FF920F931F935D
:1032B000CF93DF93EC01062F888120914403309156
:1032C0004503232B79F08E3F09F057C08981833065
:1032D00020F08550833008F050C0602FCE010E944E
:1032E000831C4BC08C3009F4A1C0D0F4843009F4A5
:1032F00084C060F4823009F44AC008F071C08130A3
:10330000C9F1602FCE010E94501937C0863009F4F0
:103310008AC008F47DC08A30A0F78FEF88832DC063
:10332000803109F4A0C0D8F48E3009F48BC008F4C1
:1033300081C080910A0190910B01892BF1F06B8182
:1033400070E06D317105C8F489819A81AE014C5FDE
:103350005F4F9827892798270E94F81F0EC0823157
:1033600009F487C008F482C0833109F493C08E3F0A
:1033700041F6B3CF198289E08A83602FCE01DF91B5
:10338000CF911F910F91FF90EF900C948C2E89811B
:10339000823071F0833079F0813009F0B2CF0E9431
:1033A000B82D0E94B1356A837B838C839D83E5CFE2
:1033B0000E94E818F6CF80910A0190910B01892BA9
:1033C000E1F27E0110E0812F0E949814F7019283B0
:1033D00083831F5FF2E0EF0EF11C1430A1F7CDCF15
:1033E0008981823009F08DCF6A817B818C819D81BA
:1033F0000E94B1350E94F218C0CF4B816A81898149
:103400000E94261E9827892798279D838C83B5CFF5
:103410002C813D813227232732274B816A81898184
:103420000E94481EAACF0E94D11EA7CF0E94CC1F87
:103430008983A3CF0E94CE1F9827892798279A8334
:1034400089839BCF6B8170E06D31710508F095CF5A
:1034500089819A81AE014C5F5F4F98278927982711
:103460000E94D11F8ACF0E94232087CF0E94141E62
:10347000DFCF6B8170E06D31710508F07ECF8981FF
:103480009A81AE014C5F5F4F9827892798270E9449
:10349000561F73CF6B8170E06D31710508F06DCFF1
:1034A00089819A81AE014C5F5F4F982789279827C1
:1034B0000E947C1F62CF8F929F92AF92BF92CF9259
:1034C000DF92EF92FF920F931F93CF93DF93CDB7CD
:1034D000DEB72A970FB6F894DEBF0FBECDBF00E867
:1034E00012E0F12CE12C89EDC82E8BE1D82E93E06F
:1034F000A92E9CE1B92E20EE822E2AE1922EF8010F
:10350000D182C082B382A28295828482F58AE48AC3
:10351000BE016F5F7F4F8E2D0E94811E892B29F483
:1035200089859A85F801938B828BFFEFEF1AFF0A4A
:103530000A5E1F4F88E0E816F10409F72A960FB6D5
:10354000F894DEBF0FBECDBFDF91CF911F910F91D9
:10355000FF90EF90DF90CF90BF90AF909F908F90B3
:103560000895CF93DF9300D000D00F92CDB7DEB790
:103570009093600480935F04811520E2920748F4E1
:103580000F900F900F900F900F90DF91CF910C94B0
:1035900076038EEF89838A831B820E94AC2D816023
:1035A000782F9D838C8349815A816B818D810F9007
:1035B0000F900F900F900F90DF91CF910C94A20578
:1035C0000F931F93CF93DF938C01EB0160E373E0C4
:1035D0008C2F0E94811E892BA1F480917F049091F1
:1035E0008004019798F4DD27C65CDC4F8881F801E0
:1035F00010821882833041F180F4813091F0823062
:10360000B9F0DF91CF911F910F910895EFE9FFE09D
:103610003197F1F700C00000E4CF8430D1F085305D
:1036200081F78091300390913103009751F306C0E8
:103630008091320390913303009799F3DF91CF91FA
:103640001F910F910C94B11A80913403909135031E
:10365000F3CF8091360390913703009779F720914B
:10366000300330913103809132039091330321155F
:103670003105D9F2009711F7C901E0CFCF93DF935D
:1036800000D000D00F92CDB7DEB790936004809346
:103690005F04811520E2920748F40F900F900F907D
:1036A0000F900F90DF91CF910C9461038EEF89837F
:1036B0008A8381E08B830E94AC2D8160782F9D836B
:1036C0008C8349815A816B818D810F900F900F906F
:1036D0000F900F90DF91CF910C94A205CF92DF92C3
:1036E000EF92FF921F93CF93DF93CDB7DEB72A9768
:1036F0000FB6F894DEBF0FBECDBFEFE0F4E080E57B
:10370000DF011D928A95E9F7E8E4F2E088E3DF0142
:103710001D928A95E9F78FE0C82E84E0D82E7F01AC
:1037200010E0F701D182C082BE016F5F7F4F812F11
:103730000E94A91E892B79F488E0FE013196D601FA
:1037400001900D928A95E1F789859A85D7011396A4
:103750009C938E931297BAE0CB0ED11CE7E0EE0E4D
:10376000F11C1F5F1830E9F62A960FB6F894DEBFF9
:103770000FBECDBFDF91CF911F91FF90EF90DF90F3
:10378000CF900895CF93DF93EC010E943E1B809170
:103790007F0490918004019728F4CE01DF91CF91AE
:1037A0000C94B11AEFE9FFE03197F1F700C0000087
:1037B000F2CF0F931F93CF93DF938C01862F60E39B
:1037C00073E00E94811E892BC9F4C0913003D0910F
:1037D0003103209799F0F8018081833069F4CE019C
:1037E0000E94C21BCE010E94C21BCE01DF91CF916D
:1037F0001F910F910C94C21B8430B8F7DF91CF91C9
:103800001F910F9108950F931F93CF93DF938C0116
:10381000EB0160E373E08C2F0E94811E892B09F07D
:1038200064C0FE01FF27D8018C91E65CFC4F81301B
:10383000D9F419969C911997992311F080830CC0A3
:103840001A969C919923D1F382E080838091320370
:10385000909133030097D9F4809130039091310314
:10386000009709F442C013C08230E9F519968C9193
:10387000199781112DC01A968C9181110EC083E089
:1038800080838091340390913503009719F1DF9183
:10389000CF911F910F910C943E1B84E08083809107
:1038A000360390913703009791F780913003909100
:1038B00031030097F9F00E94C21B8091320390916E
:1038C0003303009721F78091300390913103DFCFCC
:1038D00085E080838091300390913103009729F037
:1038E0000E94C21BF0CF86E08083DF91CF911F91B1
:1038F0000F9108958091320390913303B1CF0E94CC
:103900005B1A0C946E1BCF92DF92FF920F931F9362
:10391000CF93DF93CDB7DEB72A970FB6F894DEBF0B
:103920000FBECDBF8C01603269F5DC011196EC91C0
:103930001197EE3038F5F0E0EA5BF94C0C94AB35BA
:1039400088E0E1E2F1E0DE01119601900D928A95A6
:10395000E1F780E2F80111928A95E9F784E0D80155
:103960008C9311961C92119712961C921297139693
:103970001C92139788E0FE013196149601900D92E7
:103980008A95E1F72A960FB6F894DEBF0FBECDBF39
:10399000DF91CF911F910F91FF90DF90CF9008950D
:1039A000FC01108281E0818312821382EBCF139697
:1039B0008C911397682F70E0762F662712968C9162
:1039C000860F972F911D092E000CAA0BBB0B45E00B
:1039D000880F991FAA1FBB1F4A95D1F7AC01BD01E3
:1039E000405E5F4F6F4F7F4F481759076A077B074D
:1039F00048F28F3F9105A105B10509F018F6413055
:103A0000E1E05E076105710520F040E051E060E013
:103A100070E0481B590BBC0164527D4FC8010E94E5
:103A2000B835B0CF40E250E06FEF70E00E94D7357C
:103A300080910A01D8018C938091440311968C9354
:103A4000A1CF81E090E0909345038093440382E30B
:103A500090E090934303809342030E94AC2D92CF59
:103A600080910A01F80180838091440381838091D1
:103A70004203828387CF40E250E0BC0112968D91D1
:103A80009C910E9472217ECFBC016F5F7F4F4FE1FE
:103A900050E0FC01828193810E94A421D8018C9383
:103AA00071CFBC016C5F7F4F4CE150E0FC01828123
:103AB00093810E94CC21F2CF0E94352163CFFC017B
:103AC00082818230F1F1E0F4882399F1813009F0AC
:103AD00059CF13968C912AE0F22EFE0131966F0198
:103AE000DF01EF2D1D92EA95E9F7B6010E94811ED4
:103AF000D8018D93F60101900D92FA94E1F742CF2F
:103B0000833099F1843009F03DCF13968C919AE07F
:103B10003496DE01119601900D929A95E1F7BE015F
:103B20006F5F7F4F0E94BD1EF80180830E946E1B55
:103B300029CF80E21D928A95E9F788E0808381830E
:103B400021CF13968C919AE03496DE011196019064
:103B50000D929A95E1F7BE016F5F7F4F0E94951E0F
:103B6000F80180830E945B1A0DCF13968C919AE026
:103B7000F92EFE0131966F01DF01EF2D1D92EA95BE
:103B8000E9F7B6010E94A91EB3CFCF93DF93FB01E3
:103B90002281211130C0EC01D755CF3FD10509F06A
:103BA00050F560E373E08C2F0E94811E892B19F57C
:103BB00086E18C9FF0018D9FF00D1124E058FD4FA0
:103BC00086818130E1F48091300390913103892B1B
:103BD00091F08091320390913303892B61F08091B1
:103BE0003403909135032091360330913703822BB3
:103BF000932B892B61F081E0DF91CF910895823082
:103C0000D1F78091340390913503892BA1F326E1FC
:103C10002C9FC0012D9F900D112480589D4FFC01B9
:103C2000108A0E94EF2AE7CF84E0089550E0440F05
:103C3000551F98E1699F400D511D112490E6899F01
:103C4000400D511D1124CA01879608950F931F93AB
:103C5000CF93DF938430C8F46430B8F44C30A8F4C8
:103C60000E94161E8C010E94EE35C82FD0E0DC2F7A
:103C7000CC27C80101960E94EE359E01282BC90170
:103C8000DF91CF911F910F91089590E080E0F8CFE0
:103C90000F931F93CF93DF93E9018430E0F46430F6
:103CA000D0F44C30C0F421153C4531F420910A0188
:103CB00030910B01232B79F00E94161E8C016D2F81
:103CC0000E94FC356C2FC8010196DF91CF911F91A6
:103CD0000F910C94FC35DF91CF911F910F910895B6
:103CE0008232910520F489559E4F0C94EE3580E088
:103CF00008958232910520F489559E4F0C94FC352D
:103D000008959B01883070F49AE0899FB0011124D6
:103D100067537E4F4AE050E0C9010E94DE3590E0D3
:103D200080E008958FEF9FEF08959B01883070F435
:103D30009AE0899FB001112467537E4F4AE050E01A
:103D4000C9010E94203690E080E008958FEF9FEF38
:103D500008959B01883070F49AE0899FB001112486
:103D6000675E7D4F4AE050E0C9010E94DE3590E079
:103D700080E008958FEF9FEF08959B01883070F4E5
:103D80009AE0899FB0011124675E7D4F4AE050E0C0
:103D9000C9010E94203690E080E008958FEF9FEFE8
:103DA00008957F928F929F92AF92BF92CF92DF92AF
:103DB000EF92FF920F931F93CF93DF93CDB7DEB7B0
:103DC00064970FB6F894DEBF0FBECDBFA0900A0176
:103DD000B0900B0181E090E090930B0180930A0179
:103DE0008CEAC82E80E0D82E00E0760110E015C0E5
:103DF000F40125913491472D612F802F0E94481E98
:103E000082E0880E911C73949CE07912F1CFE8E176
:103E1000EE0EF11C1F5F143019F04701712CE8CF32
:103E20000F5FF0E6CF0ED11C0430F9F60E94352169
:103E30001C861B861E861D86188A1F861A8A198A6A
:103E400088EC90E09C8B8B8B10E0BE01655F7F4F10
:103E5000812F0E94951E1F5F1830B9F7CE01019681
:103E60007C018AE0F70111928A95E9F710E0B70129
:103E7000812F0E94BD1E1F5F1830C9F7B0920B0141
:103E8000A0920A0164960FB6F894DEBF0FBECDBFB4
:103E9000DF91CF911F910F91FF90EF90DF90CF9026
:103EA000BF90AF909F908F907F900895EF92FF9278
:103EB0000F931F93CF93DF93EC018A017C01E60EF1
:103EC000F71ECE018796CE15DF0539F4DF91CF912D
:103ED0001F910F91FF90EF900895C03821E0D20715
:103EE00040F40E94EE35F80180830F5F1F4F21964A
:103EF000E8CFF8011082F9CFCF92DF92EF92FF92D4
:103F00000F931F93CF93DF938C016A018038914008
:103F100080F480E891E0801B910B8617970748F0AA
:103F20007801E60EF71EE801CE018796CE15DF0573
:103F300049F4DF91CF911F910F91FF90EF90DF90A7
:103F4000CF900895C03821E0D20740F4FE01E01B75
:103F5000F10BEC0DFD1D60810E94FC352196E4CF34
:103F6000462F2091440330914503232B91F47E3F4B
:103F700039F46E3F71F480915F049091600408956C
:103F8000843038F4743028F46C3018F4672F0C94B3
:103F9000261E90E080E0089580E1089587E991E091
:103FA0000895EF92FF920F931F93CF93DF93EC014D
:103FB0008A017C01E60EF71ECE0187599D4FCE1572
:103FC000DF0539F4DF91CF911F910F91FF90EF90B2
:103FD0000895C73921E0D20740F40E94EE35F80178
:103FE00080830F5F1F4F2196E7CFF8011082F9CF32
:103FF000CF92DF92EF92FF920F931F93CF93DF93B5
:104000007C016A018C01060F171FEC01CE01875954
:104010009D4FC017D10749F4DF91CF911F910F91A8
:10402000FF90EF90DF90CF900895C73921E0D2073D
:1040300040F4FE01EE19FF09EC0DFD1D60810E94A8
:10404000FC352196E3CFCF93DF93C9E6D2E060E061
:10405000CE010E94FC352196C11584E0D807B9F73E
:10406000DF91CF910895BF92CF92DF92EF92FF92AE
:104070000F931F93CF93DF9300D000D0CDB7DEB75F
:10408000F82E2FE0281740F08FEF93E00E94EE35D6
:1040900009E612E08823D1F00F900F900F900F9057
:1040A000DF91CF911F910F91FF90EF90DF90CF9014
:1040B000BF900895011544E0140771F3C8010E94F0
:1040C000EE35811101C0FA940F5F1F4FF110F2CF4E
:1040D00019821A821B821C82BB24BA9478015FEF7A
:1040E000E51AF50AC8010E94EE3589831A828823F1
:1040F00099F2813009F047C0680182E0C80ED11CF6
:10410000C7010E94EE35E82E8A83882329F2C60172
:104110000E94EE35F82E8FEF8E0D833068F4680123
:10412000E3E0CE0ED11CFB82FF2021F0CE010196F0
:104130000E9473058601D2CFF4E0EF12FBCF680135
:1041400024E0C20ED11CC80103960E94EE35FF2068
:1041500009F4A2CF882309F49FCF8150990BB89E10
:104160009001B99E300D11244F2D4150550BCA01BD
:10417000820F931F0197F0F2EFE9FFE03197F1F71B
:1041800000C00000F7CFCE0101960E9473056701C1
:10419000D1CFE1E6F4E0848195812AE030E0B901F5
:1041A0000E9483356093090186818093080182858E
:1041B0008093070184858093060186859785B901E0
:1041C0000E94833560930501808980930401828970
:1041D0008093030184898093020108958091610492
:1041E000909162040C94ED240F931F93CF93DF936F
:1041F00001E614E0D0E0C0E0CE010E94701EF8019C
:1042000061918F01861719F0CE010E94791E2196C7
:10421000C232D10589F7DF91CF911F910F91089597
:104220000F931F93CF93DF9301E614E0D0E0C0E03B
:10423000CE010E94701EF80181938F012196C23237
:10424000D105B1F7C2EED3E0FE01859194910097BC
:1042500011F0FC0109952896F4E0CA37DF07A1F7B1
:10426000DF91CF911F910F910895E1E6F4E0128E56
:10427000138E8FEA90E09183808385E0848F88E8B5
:1042800093E1938382838AE090E09583848324E1A1
:1042900030E03783268348E050E05187408793879A
:1042A00082872EE130E0358724879787868720E54F
:1042B00030E0318B208B538B428B48E250E0558BA2
:1042C000448B42E350E0578B468B48EC50E0518FD3
:1042D000408F158E978F868F31A320A30E94F420E4
:1042E0000C941021EF92FF920F931F93CF93DF93C3
:1042F0007C01EB018A016FEF70E0CE010E94D7359F
:104300002CED33E0A4E7B4E090E080E0AC014E5F38
:104310005F4F0417150788F0F90165917491E6164F
:10432000F70630F48C0F9D1FFC0171836083CA0176
:10433000285F3F4FA217B30749F7DF91CF911F9135
:104340000F91FF90EF900895DC01CB012CED33E04D
:10435000F90165917491A617B70749F0285F3F4F9F
:1043600064E024373607A1F78FEF9FEF0895B90176
:104370006E5F7F4FFB01A591B4914A175B07A0F3D5
:10438000FB0145915491F9013496659174910E9415
:10439000CE3590E080E00895CF93DF93CCEDD3E06D
:1043A000FE01259134918217930741F0289624E06D
:1043B000C437D207A9F78FEF9FEF1DC0CE01029639
:1043C000FC012591349142175307A8F3FC01459154
:1043D0005491FE013496859194910E94CE350E94AD
:1043E000F420FE01369685919491009711F0FC011E
:1043F000099590E080E0DF91CF9108958091790454
:1044000090917A04089580917E048170089580913E
:104410007E0486958170089580917E0482FB8827B2
:1044200080F9089580917E0483FB882780F90895A0
:10443000809177049091780408958832910538F43A
:104440008E319105E8F40497A0F480E00895893353
:10445000910558F48D32910510F48B97B1F7809146
:104460007C0482FB882780F908C084369105B9F363
:10447000ECCF80917C048295817091E0892708952A
:1044800080917C0483FB882780F9F7CF80917C049E
:1044900085FB882780F9089580917C0486FB882716
:1044A00080F90895CF93DF93EC01FB01828188238B
:1044B00009F433C1C330FDE5DF07C0F5CA3F9CE511
:1044C000D90730F49E0122503C4524313105B0F526
:1044D0000E9400119093FE038093FD03C1318CE58F
:1044E000D80709F4EEC008F069C0C930ECE5DE0772
:1044F00009F4D5C0C8F5C5308CE5D80709F4C7C0A4
:1045000000F5C330ECE5DE0709F4B9C008F0BBC024
:10451000C230DC4509F4ADC08091FD039091FE03EB
:104520000E940E110E944E0780E008C0C136EDE5E2
:10453000DE0771F2C53AFDE5DF0751F2DF91CF9159
:1045400008958091FD038062C7309CE5D90709F486
:1045500093C08091FD038061C830DC4508F48CC0B5
:104560008091FD03806488C08091FD038B7FCD30F6
:10457000FCE5DF0709F480C098F48091FD038E7F8D
:10458000CB309CE5D90709F477C08091FD038C609E
:10459000CC30DC4508F470C08091FD038D7F6CC089
:1045A0008091FD038F7ECF30FCE5DF0709F464C006
:1045B00008F47BC08091FD038F7D5EC0CD3F9CE5FC
:1045C000D90709F47AC050F5C531FCE5DF0709F4D5
:1045D00086C098F48091FD03837FC3319CE5D907A1
:1045E00009F44AC008F471C00E944E079091FD037F
:1045F000892F97FB87F980583FC0CB3FFCE5DF0749
:1046000009F449C008F055C08091FE038160CA3F9B
:10461000DC4509F081CF8093FE037ECFC130EDE50C
:10462000DE0709F468C0A8F4CF3F8CE5D80709F489
:1046300052C08091FE038360C115DD4560F3809117
:10464000FE03982F909591708E7F892B90FB81F9B6
:10465000E2CFC136EDE5DE0709F451C0C53AFDE50C
:10466000DF0709F453C0C230DD4509F055CF80E0C3
:1046700043C08091FD0381608093FD034DCF809105
:10468000FD038260F9CF8091FD038460F5CF8091B6
:10469000FD038860F1CF8091FE038260BCCF0E9451
:1046A0004E078091FD038068E7CF8091FD03877FEF
:1046B000E3CF8091FE038E7FAECF8091FE038D7F8E
:1046C000AACF8091FD038F7BD7CF0E944E078091A8
:1046D000FD038F77D1CF8091FE038C7F9CCF80919B
:1046E000FD0382FB992790F921E0922790FB82F944
:1046F00090FB83F9C1CF81E00E9493110DCF90917F
:10470000FD03892F8F7E94FF8061B6CF9091FD03CA
:10471000892F8E7F90FF8160AFCF81E00FCF809196
:104720000C01877F80930C0182E00E94E30F80914F
:104730000C0184FF06C08F7E80930C0182E00E94F2
:10474000CA0F80910C0185FF06C08F7D80930C01FC
:1047500080E20E94CA0F0C942F10CF93DF93EC01DC
:10476000662319F082E00E94DD0FCE01905681157C
:1047700020E2920720F0905E8115904108F4DD2739
:10478000CE01DF91CF910C9461039C01305621152D
:1047900040E2340720F0305E2115304108F49927BB
:1047A0000C947603FC0123E0F695E7952A95E1F752
:1047B000EE71FF27EA5BFC4F20813181AC014F7025
:1047C000552781E090E002C0880F991F4A95E2F7D3
:1047D000662329F0822B932B918380830895809503
:1047E000909582239323F8CFFC0123E0F695E7957B
:1047F0002A95E1F7EE71FF27EA5BFC4F8F7099274E
:1048000021E030E002C0220F331F8A95E2F7808159
:1048100091812823392381E0232B09F480E0089536
:10482000DF92EF92FF920F931F93CF93DF93EC01F0
:104830007B01D42E890180910C0182FF86C02091DA
:104840006E0330916F032C173D0719F0209709F084
:104850007CC090910C019B7F90930C0161E091FDD5
:1048600010C08091700390917103A701481B590BF0
:1048700061E080910D0190910E014817590708F4ED
:1048800060E0617080910C0160FB81F980930C0104
:10489000C9010E94D2230E94C70F81FF08C08091E6
:1048A0000C01806180930C0182E00E94D00F0E9475
:1048B000C70F85FF08C080910C01806280930C01B6
:1048C00080E20E94D00F60910C0166956170A80192
:1048D00080916E0390916F030E94AD23D11014C09C
:1048E00080917F0490918004019740F560910C01C4
:1048F00066956170A80180916E0390916F030E948C
:10490000C5230E948F2330C0B80180916E0390911F
:104910006F030E944622882319F3B80180916E0329
:1049200090916F030E944C228111DACFDF91CF91D9
:104930001F910F91FF90EF90DF900895EFE9FFE056
:104940003197F1F700C00000CFCFCE010E94F423D1
:10495000A801682FCE010E94C52380916E0390911B
:104960006F038C179D0769F2F0927103E092700358
:10497000DDCF80917C0480FF1EC080910C0182FFFE
:104980001AC00E94AC2D2091700330917103AC01CC
:10499000421B530B20910D0130910E01421753071A
:1049A00050F026E633E041E0BC0180916E03909127
:1049B0006F030C941024089590910C01892F8E7F21
:1049C00090FF816080930C010C948F2380910C01E7
:1049D0008E7F80930C010C948F2390930E01809313
:1049E0000D010895CF92DF92EF92FF920F931F93E4
:1049F000CF93DF93EC017B0180917C0480FD0BC0A1
:104A000011E0812FDF91CF911F910F91FF90EF90D7
:104A1000DF90CF9008950E94AC2D6C01F701828148
:104A2000882391F180910C0182FF08C026E633E0D3
:104A300040E0B60190E080E00E941024CB31FCE51C
:104A4000DF07C9F0CC312CE5D207D9F0CA318CE5AB
:104A5000D80711F40E94DC24CE0190568115E0E2C3
:104A60009E0720F0905E81159041E0F410926F0354
:104A700010926E03C5CF80910C01816080930C0170
:104A8000EBCF0E94E624E8CF80910C018F7EC13EDF
:104A9000D10531F0C53ED105B9F580910C018F7D6E
:104AA00080930C0180910C0180FFAACFB701CE0149
:104AB0000E941D22F7011281882309F4C8C0112326
:104AC00009F4BEC00E94C70F182F0E94ED0F812B62
:104AD0008D7FB9F110926F0310926E0380917C0468
:104AE00081FD2FC060E0CE010E94D223A70160E0CB
:104AF000CE010E94AD230E94ED0F8D7F0E94091010
:104B000082E00E94A71072C0CE019056811520E26B
:104B1000920720F0905E8115904120F680910C0163
:104B200082FF6ECFB701CE010E940722811168CFAC
:104B300026E633E040E0B60190E080E00E941024D9
:104B40005FCF88E0F701A6E6B3E001900D928A9569
:104B5000E1F71092680310926A0310926903809142
:104B60006E0390916F03C817D90709F04AC0B701C7
:104B7000CE010E944622882309F443C080910C0193
:104B800081FD36C080917003909171038601081BEE
:104B9000190BB70180916E0390916F030E94FE2163
:104BA0000817190770F50E94C70F81FF08C0809190
:104BB0000C01806180930C0182E00E94D00F0E9462
:104BC000C70F85FF08C080910C01806280930C01A3
:104BD00080E20E94D00F60910C0166956170A70180
:104BE00080916E0390916F030E94AD2310E009CF76
:104BF000B70180916E0390916F030E944C22811146
:104C0000C1CF0E94C70F182F0E94ED0F812B9091EA
:104C10000C0181FB91F990930C010E94ED0F8D7FA7
:104C20000E940910D0936F03C0936E03D09271035A
:104C3000C092700380910C01846080930C0160CF5E
:104C4000970140E0B601CE010E941024DACE111186
:104C50000DCFD6CE08950F931F93CF93DF938091FE
:104C6000DD03E09172031CE081111AC0DF91CF9146
:104C70001F910F91089501E00E0F00937203CE2F44
:104C8000D0E0E19FF0011124E358FC4F838194812F
:104C9000892B29F08081918189238F3FF9F4E02FBE
:104CA0008091DD03E81738F31092DD031092720350
:104CB000DDCF18968D919C918F3F9807E1F061E0D0
:104CC0000E942A261C9FF0011D9FF00D1124E3581D
:104CD000FC4F148213820E94EA0FE1CF1C9FD00187
:104CE0001D9FB00D1124A358BC4F16968D919C9119
:104CF0001797892BF1F220813181428153816481A0
:104D00007581868197810E94CB0EDCCF1092DF03E4
:104D10001092DE032091100130911101E8E4F2E0DD
:104D200090E080E02817390709F408954581411182
:104D300002C01482168201963796F4CFDC0160918E
:104D40007B0380917C03962F891301C00895292F3E
:104D500030E0F901EE0FFF1FED58FC4F408151810B
:104D60004A175B07A1F487E08A9FA0018B9F500D33
:104D70001124485B5D4F81E0FA0184839613E6CFEE
:104D80002F5F3F4F2370332720937B0308952F5FBE
:104D90003F4F922F9370D8CF6F927F929F92AF9296
:104DA000BF92CF92DF92EF92FF920F931F93CF9318
:104DB000DF93DB0114962C911497211169C0A09008
:104DC000DD03EDE7F3E030E020E0B12C66246394EE
:104DD000712C2A1508F047C0C284D384ED90FC9052
:104DE00011976FEF7FEF912C492D50E08A01000F52
:104DF000111F0E0D1F1DE8010881198101151105F4
:104E000031F0C016D10609F4BA019394EDCF6F3F8B
:104E10007607D1F1E30102C0CC0FDD1F6A95E2F7FE
:104E2000BC2AB30102C0660F771F9A94E2F7AB0168
:104E300041505109B416150629F512964D915C9111
:104E400013976CE0629FF001639FF00D1124E3580B
:104E5000FC4F578346832EEF2083218391878087E1
:104E600021E015962C93DF91CF911F910F91FF9028
:104E7000EF90DF90CF90BF90AF909F907F906F901A
:104E80000C949E26148213822F5F3F4F3C96A1CF35
:104E9000DF91CF911F910F91FF90EF90DF90CF9016
:104EA000BF90AF909F907F906F9008951F93CF9386
:104EB000DF93C0917B0317E080917C038C1307C0C4
:104EC0000E942B26DF91CF911F910C948626D0E073
:104ED000FE01EE0FFF1FED58FC4F80819181189F5E
:104EE000B001199F700D1124685B7D4F0E94CC2684
:104EF0002196C370E1CF0F931F93CF93DF93DC0113
:104F00002D913C91119740E090E080E0E82FF0E097
:104F1000EE0FFF1FE20FF31FC081D1812097B9F080
:104F2000FB010081118190E005C0CE17DF0709F475
:104F300041E09F5FE92FF0E0EE0FFF1FE00FF11F50
:104F40000190F081E02D309781F78F5FDFCF442310
:104F500049F0981708F4DB01CD01DF91CF911F9143
:104F60000F910895B0E0A0E0F7CF80910F01882362
:104F700041F18091E0039091E103009711F10E94CB
:104F8000C42D2091DE033091DF0328173907C8F4C0
:104F900090917B0380917C03981759F00E945627CB
:104FA0001092DF031092DE031092E1031092E003EF
:104FB00008950E942B261092E1031092E0030C94B6
:104FC000862608951092E1031092E00310920F01DB
:104FD00080917C0380937B030E9486260C942B2671
:104FE00080910F0181110C94E22781E080930F01E1
:104FF00008952F923F924F925F926F927F928F927D
:105000009F92AF92BF92CF92DF92EF92FF920F9357
:105010001F93CF93DF93CDB7DEB72A970FB6F894DF
:10502000DEBF0FBECDBF6C012B01FB011281873F9C
:10503000FCE59F07F9F4112321F181E080930F0132
:10504000812F2A960FB6F894DEBF0FBECDBFDF9139
:10505000CF911F910F91FF90EF90DF90CF90BF9075
:10506000AF909F908F907F906F905F904F903F9008
:105070002F900895883F2CE5920709F04DC011113B
:1050800048C008E412E0F12CE12C1986AA24A3946C
:10509000B12C8091100190911101E816F90608F4E5
:1050A00045C0F2018281882309F466C1F985FF2396
:1050B00009F462C10E94AC2D9093E1038093E00358
:1050C0008091DD03883008F591E0980F9093DD031F
:1050D00098E0F201DE01119601900D929A95E1F7A8
:1050E0002CE0829FC001112483589C4F28E0FE01D0
:1050F0003196DC0101900D922A95E1F72FEF3FEFF9
:10510000FC0131872087D386C28611E0F9851F27ED
:1051100097CF0E94E22794CF893F9C4509F0B1CFF9
:10512000112309F4AECF0E94F0278ACFF801208125
:10513000318166246A94762C212C822D90E0FC012A
:10514000EE0FFF1FE20FF31F408151814115510502
:1051500031F0C416D50609F43C012394EECF312C6E
:10516000FFEF6F167F0609F448C0F80144813090C4
:105170000F01832D411180E0F82FF1703F2EF201D5
:105180008281882309F496C0332009F493C0B801C2
:10519000C7010E9418224C01F8018581811113C0BA
:1051A000950101C0220F6A94EAF78681822B8683DB
:1051B0008091DE039091DF038815990520F4909289
:1051C000DF038092DE03C50102C0880F991F2A9475
:1051D000E2F70197F80126812817190671F48091EA
:1051E000E0039091E103009789F00E94C42D881696
:1051F000990660F421E0F8012483F985F329F98701
:105200002FEFE21AF20A095F1F4F43CF20907B0372
:1052100030917C033A8790E080E0EA852E1215C039
:105220008017910751F3822C912CF401EE0FFF1F90
:10523000ED58FC4FF182E082FFEF8F1A9F0A23E0C6
:105240008222992480927C03D8CF822C912CF40165
:10525000EE0FFF1FED58FC4F2081318147E0429F48
:10526000C001439F900D1124FC01E85BFD4F3F01FD
:10527000B801CF010E947B270097A9F021E0FC0133
:1052800024838017910709F4B8CF20917B03221261
:105290000AC06816790639F494012F5F3F4F2370D6
:1052A000332720937B033FEF831A930A482D4370E3
:1052B000242EB3CFF8019580868190E091101EC016
:1052C000950102C0220F331F2A94E2F721503109C1
:1052D0002817390731F4442309F44CC0C7010E9450
:1052E0009E26C50101C0880F6A94EAF7982F909511
:1052F000F801868189238683392C7FCF9C01062C77
:1053000002C0359527950A94E2F7A9014170552707
:10531000BC016150710986239723892B39F5452BF0
:1053200029F182819381892BE1F01B821C821D82ED
:105330001E82FEEFF983FA830E94AC2D8160582F04
:105340009D838C83F801828193818F839887298143
:105350003A814B816D817E810E94CB0EF8011582CE
:10536000C0CF60E0C7010E942A26F8CFF22FF1706B
:105370009F2EB7CF932CB5CF90917B0380917C0368
:10538000981719F00E945627C0CE0E942B26109223
:10539000E1031092E0030E948626B7CECF93DF93FD
:1053A000EB0186319C4509F03BC00E94C70F982F46
:1053B0009A7A20917B0420FF04C0382F347409F0BE
:1053C00090E021FF04C0382F317109F090E022FFF6
:1053D00004C0382F387809F090E023FF03C08272B0
:1053E00009F090E08A81882389F081E0911101C061
:1053F00080E08093E20389E2911185E30E946B0FC4
:105400000E942F1080E0DF91CF9108958091E203F8
:10541000811104C089E20E94720FF2CF85E3FBCFB5
:1054200081E0F1CFAF92BF92CF92DF92EF92FF92E5
:105430000F931F93CF93DF937C015B01C42FD22F77
:10544000FC0182818823F9F04093E5030E94AC2D92
:105450009093E4038093E30380E28C0F883008F09C
:1054600061C0C77081E001C0880FCA95EAF7DF917B
:10547000CF911F910F91FF90EF90DF90CF90BF9051
:10548000AF900C941E071091E503141340C0809157
:10549000E3039091E4030E94C42D6C01B701C501A0
:1054A0000E94FE21C816D90690F5C0E2CD0F1D1747
:1054B000B9F080E2810F883040F4177081E001C0BC
:1054C000880F1A95EAF70E942507C83048F481E052
:1054D0009D2F977001C0880F9A95EAF70E941E07CA
:1054E000802F0E941207C830E8F4D77081E001C015
:1054F000880FDA95EAF7DF91CF911F910F91FF9016
:10550000EF90DF90CF90BF90AF900C94250780E292
:105510008C0F883038F4C77081E001C0880FCA95BD
:10552000EAF7E9CFDF91CF911F910F91FF90EF90B4
:10553000DF90CF90BF90AF9008950F939C01CB0167
:10554000233F4CE5340759F1A8F4283DFCE53F071B
:1055500001F1293D4CE53407D1F1273D3C4591F45B
:1055600006E221EE41EE67ED7CE50E94122A80E022
:105570000F910895253FFCE53F07E9F0B0F0263F85
:105580003C45F9F0FC018281882339F11092E50352
:10559000EFCF07E225EE45EE68ED7CE5E6CF06E2CB
:1055A00021EE40EE63EF7CE5E0CF07E225EE44EE2E
:1055B00064EF7CE5DACF06E221EE42EE65EF7CE5B2
:1055C000D4CF07E225EE46EE66EF7CE5CECF08E2CB
:1055D00021E045EE69ED7CE5C8CF81E0C9CFCF93EE
:1055E000DF93EC018989811115C081E0898B8F815E
:1055F0000E94CA0F88850E94DD0F0E942F10EA8149
:10560000FB81309739F06C897D89CE010696DF9158
:10561000CF910994DF91CF910895EF92FF920F936C
:105620001F93CF93DF93EC018A85811134C0EB8007
:10563000FC8087E5F81A26E12E9DC0012F9D900D74
:105640001124DC01A058BD4F1496ED91FC911597E3
:10565000309731F054966D917C918A579D4F099502
:1056600086E18E9D80018F9D100D112400581D4FE5
:10567000F80187810E94D00FF80180850E94E30F16
:105680000E942F10188219861B861E821D8210927E
:10569000E7031092E603DF91CF911F910F91FF90E6
:1056A000EF900895DF92EF92FF920F931F93CF93A5
:1056B000DF937C01FB018281882399F080911201A4
:1056C00090911301019669F0C0E8D2E010E000E08B
:1056D000DD24D394809112019091130180179107DA
:1056E00044F4DF91CF911F910F91FF90EF90DF90E5
:1056F00008958E818823C1F089859A858E159F052E
:1057000039F48091E6039091E7038E159F0561F0CF
:10571000DF86FC86EB86CE010E94EF2ACE0106963C
:105720000E940D2B0E94EA0F0F5F1F4F6696D2CF8B
:10573000EF92FF920F931F93CF93DF937C019755C6
:105740008F3F910509F0E0F520911201309113018E
:105750002817390724F49093130180931201FB0159
:10576000228136E1389F8001399F100D1124E80114
:10577000C058DD4F288B92818E81992349F1FA869A
:10578000E9868F5F8E830E94AC2D9E878D870E9455
:10579000ED0F8F830E94C70F88870E94DA0F9885CC
:1057A000892B8887E881F981309731F06C897D8970
:1057B000C8018A579D4F0995F092E703E092E603EE
:1057C00081E0DF91CF911F910F91FF90EF900895AD
:1057D0008823B1F38989882399F3C8018A579D4F9B
:1057E0000E940D2BEDCF9F92AF92BF92CF92DF928E
:1057F000EF92FF920F931F93CF93DF93CDB7DEB756
:1058000028970FB6F894DEBF0FBECDBF809112016E
:1058100090911301019609F052C028960FB6F894A2
:10582000DEBF0FBECDBFDF91CF911F910F91FF90D3
:10583000EF90DF90CF90BF90AF909F9008950A9D1A
:10584000F0010B9DF00D1124E058FD4FC288D38864
:10585000C114D10459F4D701292D1D922A95E9F7D5
:10586000B701818592850E94FE216C010A9DF0019D
:105870000B9DF00D1124E058FD4F86818823A1F087
:10588000858596850E94C42DC816D90668F4109F98
:1058900060011124C60180589D4F0E94EF2AC60165
:1058A0008A579D4F0E940D2B1F5FA12EB12C809116
:1058B0001201909113018A159B050CF6AECF10E0F2
:1058C00006E188E0982ECE0101967C01EECF909300
:1058D000AB018093AA0108959093ED038093EC03AC
:1058E0000895E091EC03F091ED03309721F00190E1
:1058F000F081E02D099480E00895E091EC03F091AF
:10590000ED03309721F00280F381E02D0994089592
:10591000E091EC03F091ED03309739F022E0DC01E7
:105920002C930480F581E02D099408952091EA03D9
:105930003091EB032817390771F09093EB038093B4
:10594000EA03E091EC03F091ED03309721F006803B
:10595000F781E02D099408952091E8033091E9033F
:105960002817390771F09093E9038093E803E091D9
:10597000EC03F091ED03309721F00084F185E02DE8
:10598000099408959C012E5F3F4FAC01485F5F4F23
:1059900080E02417350709F40895F90191919F01DA
:1059A0009923B9F38F5FF5CF662349F0FC01329656
:1059B00008962191261729F0E817F907D1F780E01A
:1059C000089581E008959C01FC0132969FEF80E0EC
:1059D0004191461751F09F3F19F4411101C0982F92
:1059E0008F5F8630A9F79F3F09F40895290F311D75
:1059F00097FD3A95F90162830895FC013296089665
:105A00002191261303C0DF0111971C92E817F907B3
:105A1000B9F708950C94E32C0C94FD2C029626E023
:105A2000FC0111922A95E9F7089508950C94152D1B
:105A3000811105C081E08093EE030C94162D82E065
:105A4000FACF83E08093EE030C94162D0C94182D5E
:105A500081E08093EE030C94162D0C94282D08956C
:105A600008950C94302D089508950C942F2DCF9304
:105A70000E94332D0E9462150E94342DC0E08C2FAD
:105A80000E949814892B31F4CF5FC430C1F780E0B5
:105A9000CF91089581E0FCCF08951F921FB61F9209
:105AA00011248F939F93AF93BF938091EF03811144
:105AB00013C08091830490918404A0918504B091D7
:105AC00086044196A11DB11D8093830490938404A4
:105AD000A0938504B0938604BF91AF919F918F915D
