:100000000C9480030C94C7030C94C7030C94C7038F
:100010000C94C7030C94C7030C94C7030C94C70338
:100020000C94C7030C94C7030C94E6280C94A228E4
:100030000C94E3290C94C7030C94C7030C94C703D6
:100040000C94C7030C94C7030C94C7030C94C70308
:100050000C94C7030C94BF290C94C7030C94C703DA
:100060000C94C7030C94C7030C94C7030C94C703E8
:100070000C94C7030C94C7030C94C7030C94C703D8
:100080000C94C7030C94C7030C94C7030C94C703C8
:100090000C94C7030C94C7030C94C7030C94C703B8
:1000A0000C94C7030C94C7030C94C7030501090201
:1000B000A10185020901A100050919012905150001
:1000C00025019505750181029501750381010501E1
:1000D000093009311581257F950275088106093897
:1000E0001581257F950175088106050C0A380215D2
:1000F00081257F950175088106C0C005010980A191
:1001000001850319012AB700150126B7009501756D
:10011000108100C0050C0901A101850419012AA064
:1001200002150126A002950175108100C00660FF2E
:100130000961A1010962150026FF0095207508815B
:10014000020963150026FF00952075089102C0057D
:10015000010906A101050719E029E7150025019508
:1001600008750181029501750881010507190029AB
:10017000FF150026FF009506750881000508190186
:100180002905950575019102950175039101C0003E
:10019000000000000000000000000000000000005F
:1001A000000000000000000000000000000000004F
:1001B0000000007E0F00D4FFFFFFC70000007800A2
:1001C000000000000000002A2B28000000000000B2
:1001D0000000000000000000000029000000002CCA
:1001E0001E3420212224342627252E362D37382769
:1001F0001E1F202122232425263333362E37381F75
:100200000405060708090A0B0C0D0E0F1011121336
:100210001415161718191A1B1C1D2F3130232D35D4
:100220000405060708090A0B0C0D0E0F1011121316
:100230001415161718191A1B1C1D2F3130354CFDBB
:10024000377A585A000004E6D6B446020021011657
:10025000000000742FE5A3E004D5019E5D003D88F9
:1002600089C65436C3174FE4EE6FBEB64C488D971F
:10027000388D6686DFB98088C0AF5F7259F7366007
:1002800043FACBFD0F79049EC154374B0B8DBB7ADB
:1002900020CA8BB30DB761B91C878D2FD16F5790D2
:1002A00098BEB8A6BEC163653FF05577465A18F1AF
:1002B0001E0C0B9779E364B0A16549CBB938511690
:1002C000B2571A98FA88973A9E8EEB405518867462
:1002D00044335C4B56813B7DB06E663AA893D7336E
:1002E000B1B684595E509B4C72B916C3CCB75FD877
:1002F0001BCFEE7A80F914D1244A894AB0F25D4CC2
:10030000B83D84D542CC86B4381EBE96B5914B40DC
:1003100090FBDFD2A802535DE38F4E116DCAE64514
:100320009A20F4CB6079429DDB1DE5E1A29EC18E4F
:100330004B782D0F5ACDECBBFF3AEDBB2B1B05CEF6
:1003400037BA6550CE81F6A75B2F7A23E53094DE6D
:10035000C81BDAC56F2EC3C0167A24ADCB0702BC0A
:100360002D65DE407878AA915EF408EA66A57932B8
:10037000B65E74A1364878D50F58BB9B5A9C02C113
:10038000A098654DF1D31EF2E1B00B90E62083B149
:10039000E5BFBB91A3B98BA2371037A805FE577BE9
:1003A000CFFDCEB03F7F8343DC2A1E99A8CA52A45A
:1003B0008AFA2F57D1474A9DB71F781E1A08FFA106
:1003C00062E5942BFAC1B486E8586EC49D50E21FD2
:1003D000312CD16BC51D5C029268A9C716D2EB8285
:1003E0005DEDEE867B90378099B284BDF98DB33593
:1003F0009D6E1527E2ADEBE963F7A000000000A1B8
:10040000795A29B111949E0001BA03D6090000D48B
:10041000434A33B1C467FB020000000004595AA9E3
:1004200000AA000100010001000100010001002BF1
:100430000014001A000800150017001C0018000C1A
:1004400000120013002A00025104001600070009E0
:10045000000A000B000D000E000F0034002800E120
:10046000001D001B0006001900050005001100100A
:100470000036003700E100E0000353E20000000115
:1004800051000000002C000000E00050004F00016F
:10049000001E001F00200021002200230024002550
:1004A00000260027000100010001000100010001F9
:1004B0000001000100010001000100010001000134
:1004C0000001000100010001000100010001000124
:1004D00000010001005200010001000100000001C4
:1004E0000000000000010000000100010001000107
:1004F000003A003B003C003D003E003F0040004110
:10050000004200AA00A90001000100010001000151
:1005100000010001000100010001000100010001D3
:1005200000010001000100010001000100010001C3
:1005300000010001000100010001000100000001B4
:1005400000000000000100000001000100010001A6
:100550000014001A000800150017001C0018000CF9
:1005600000120013002A0001000100010001000137
:100570000001000100010001000100010001000173
:100580000001000100010001000100010001000163
:100590000001000100010001000100010000002C29
:1005A0000000000000010000000100010001000146
:1005B0000001007D03000002000200790300000337
:1005C0000001007E0300000400020063032A060508
:1005D0000001007F03000006000200650300000721
:1005E0000002007B030000080001008003000009F6
:1005F000000200670305060A000200690305060BF6
:100600000002006B0305060C0002006D0305060DD9
:100610000002006F0305060E000200710305060FBD
:1006200000020073030506100002007503050611A1
:100630000002007703050612000200810300001388
:100640000002008303000009025B00030100A0FA1E
:100650000904000001030101000921110100012228
:1006600040000705810308000A0904010002030095
:100670000000092111010001222200070582032048
:100680000001070503032000010904020001030023
:1006900000000921110100012281000705840320C7
:1006A000000A1201000200000008EDFE8031010086
:1006B000010203011C037600690061006C003A002E
:1006C00066003600340063003200620033006300CD
:1006D0000000100341006C006900730068003400E2
:1006E00030000000160352006500650064007300CE
:1006F0004B006500650062007300000004030904FC
:1007000011241FBECFEFDAE0DEBFCDBF04B603FE7B
:1007100027C08091620490916304A0916404B09119
:1007200065048730904BA740B04BD1F4109262041F
:1007300010926304109264041092650414BE84B78E
:10074000877F84BF0FB6F894A89580916000886178
:1007500080936000109260000FBEE0E0F8E309951E
:1007600011E0A0E0B1E0E2E0F3E602C005900D92F6
:10077000A638B107D9F724E0A6E8B1E001C01D9280
:10078000A236B207E1F70E940A2A0C944D310C946C
:100790000000E8EDF0E080818E7F80831092E2001F
:1007A0001092DA001092E100A0EEB0E08C9181602E
:1007B0008C9380818F77808319BCA7EDB0E08C91FA
:1007C0008E7F8C9380818F7E808310924804089561
:1007D0002091E4003091E50095E6A9012091EC001C
:1007E000822F817020FF06C08091E80080FF06C044
:1007F00080E008952091E80022FD1AC08091550400
:10080000882389F0853089F08091EB0085FD0FC049
:100810002091E4003091E50042175307F9F291501E
:10082000E1F684E0089582E0089583E0089581E090
:100830000895EF92FF920F931F93CF937C018B014A
:100840000E94E803C82F811117C08091E80085FD40
:100850000BC08091E8008E778093E8000E94E80347
:10086000882399F3C82F08C0F70181917F018093F5
:10087000F1000150110949F78C2FCF911F910F9171
:10088000FF90EF9008958091570487FF13C08091E7
:10089000E80082FF06C08091E8008B778093E80033
:1008A00004C0809155048111F2CF089580915504C0
:1008B0008823D9F38091E80080FFF8CF8091E80089
:1008C0008E77ECCF982F9093E900242F762F50E06D
:1008D000891731F07091EC002091ED005091F000FB
:1008E00021FD07C09F5F973071F78093E90081E099
:1008F00008953091EB003E7F3093EB003091ED0096
:100900003D7F3093ED003091EB0031603093EB0090
:100910007093EC002093ED005093F0002091EE00D6
:1009200027FDE0CF80E00895CF92DF92EF92FF9213
:100930000F931F93CF93DF93C8EDD0E088818F7E14
:100940008883E7EDF0E080818160808384E082BF6E
:1009500081E08093480488818E7F888302EE10E0D6
:10096000F80110821092DA0081EEC82ED12CF60127
:10097000108288818F7788838881806888838881C6
:100980008F7D888319BC10925504109256041092E2
:1009900054041092530490EEE92EF12CF70180815B
:1009A0008B7F808388818160888342E060E080E083
:1009B0000E946204F60180818E7F8083F80180812D
:1009C00081608083808188608083F70180818E7F51
:1009D0008083888180618883DF91CF911F910F91FF
:1009E000FF90EF90DF90CF900895FC0180915D041F
:1009F00090915E0486179707A0F06115710529F4A0
:100A00009091E8009E779093E80090E06115710561
:100A100051F4911108C08091E80082FF34C080E059
:100A20000895BC01F2CF809155048823C1F185302F
:100A3000C1F18091E80083FD30C08091E80082FD23
:100A4000EACF8091E80080FFE1CF8091F300209110
:100A5000F200382F6115710519F02830310558F072
:100A600091E02830310509F090E02091E8002E77E0
:100A70002093E800CBCF81918093F1006150710900
:100A80002F5F3F4FE7CF80915504882341F0853099
:100A900041F08091E80083FFBECF81E0089582E0BD
:100AA000089583E00895089580914A04089587E7A2
:100AB00097E7909301088093000888E19AE00FB6C9
:100AC000F894A895809360000FBE90936000FFCFCC
:100AD0009C014FB7F8948091410490914204A091F9
:100AE0004304B09144044FBF821B930B08952FB76A
:100AF000F8948091410490914204A0914304B091F4
:100B000044042FBF089520913E0430913F042817DC
:100B1000390771F090933F0480933E04E0913C04C8
:100B2000F0913D04309721F00084F185E02D099487
:100B3000089520913A0430913B042817390771F049
:100B400090933B0480933A04E0913C04F0913D047F
:100B5000309721F00680F781E02D09940895E09107
:100B60003C04F0913D04309721F00190F081E02D9C
:100B7000099480E00895452B39F0682381E06F3FA8
:100B800009F080E08170089581E0FCCFDC01609184
:100B90005F0380916003962F891301C00895292F68
:100BA00030E0F901EE0FFF1FE95AFC4F40815181FF
:100BB0004A175B07A1F487E08A9FA0018B9F500D25
:100BC0001124415E5C4F81E0FA0184839613E6CFE5
:100BD0002F5F3F4F2370332720935F0308952F5FCC
:100BE0003F4F922F9370D8CF1092BC021092BB024D
:100BF000EFE1F3E08581811102C0148216823796FD
:100C000083E0E735F807B1F70895E3E6F3E0848180
:100C100095812AE030E0B9010E9498306093170175
:100C20008681809316018285809315018485809347
:100C3000140186859785B9010E949830609313014D
:100C40008089809312018289809311018489809325
:100C500010010895809163039091640390931901AA
:100C60008093180108950E9477059C0190912C02B1
:100C700080912D02982B21F0309329022093280295
:100C800090912E0280912F02982B21F03093270211
:100C900020932602E0913C04F0913D04309749F006
:100CA00082E080932A020480F581E02D8AE292E0BE
:100CB0000994089590912C02803F59F480912D025F
:100CC00087FF0DC010922D0291110BC010922402CB
:100CD00008C0813F81F480912D0218169CF399235E
:100CE00081F080912E0290912F02892B09F064C02F
:100CF000109223020895823F49F497FFF0CF10929B
:100D00002C0280912D028111ECCFE0CF833F19F4AA
:100D10001916ACF3E4CF20912E02893F29F4121664
:100D2000F4F610922E02DBCF8A3F19F427FFD7CFBB
:100D3000F8CF20912F028B3F29F427FFD0CF1092BC
:100D40002F02CDCF8C3F19F41216CCF3C8CF843FBD
:100D500031F480912B028E7F80932B02C0CF853F90
:100D600021F480912B028D7FF7CF863F21F4809173
:100D70002B028B7FF1CF873F21F480912B02877F5D
:100D8000EBCF883F21F480912B028F7EE5CF8D3F02
:100D900031F4809125028E7F80932502A0CF8E3F73
:100DA00021F4809125028D7FF7CF8F3F09F097CFF7
:100DB000809125028B7FF0CF08958091250280FFDE
:100DC0000CC06091110170E07595679575956795F8
:100DD0006115710549F1862F089581FF06C0609164
:100DE000110170E075956795F3CF6091110182FD57
:100DF0000BC0909123029923A1F060911001809182
:100E00001101961738F0682F70E06038710500F313
:100E10008FE70895899FC001112470E00E94AC30D3
:100E2000F4CF61E070E0D7CF81E008958091250292
:100E300060916B0370916C0380FF16C020911501C7
:100E4000269FC001279F900D1124BC0176956795C0
:100E5000769567956038710508F043C06115710596
:100E600009F441C0862F089581FF0BC02091150120
:100E7000269FC001279F900D1124BC017695679590
:100E8000E9CF82FF09C0809115019B01829FB001CB
:100E9000839F700D1124DECF209124022223D1F2F2
:100EA0009091140180911501482F50E0291748F0C6
:100EB000CB01849FB001859F700D949F700D11240C
:100EC000C9CF289F90011124269FA001279F500D74
:100ED000369F500D1124692F70E0CA010E9498308E
:100EE000B9CF8FE7089581E00895803F31F40E94E3
:100EF0001607819580932D020895813F19F40E9471
:100F00001607F8CF823F31F40E941607819580932F
:100F10002C020895833F19F40E941607F8CF893FE9
:100F200029F40E94DD0680932E0208958A3F21F461
:100F30000E94DD068195F7CF8B3F31F40E94DD06DC
:100F4000819580932F0208958C3F19F40E94DD064D
:100F5000F8CF843F31F480912B02816080932B0283
:100F60000895853F21F480912B028260F7CF863F60
:100F700021F480912B028460F1CF873F21F480918E
:100F80002B028860EBCF883F21F480912B02806197
:100F9000E5CF8D3F31F48091250281608093250259
:100FA00008958E3F21F4809125028260F7CF8F3F14
:100FB000B9F7809125028460F1CF80E00895F8941C
:100FC000E82FE295EF70F0E031A1282F2F7081E03B
:100FD00090E001C0880F2A95EAF7982F9095932307
:100FE00091A392A1892B82A37894089590910202F3
:100FF00092FF06C0282F28712830F9F4877F84607B
:1010000093FF06C0282F28712831F1F4877E846170
:101010002091030220FF06C0382F38713830D9F4F0
:10102000877F816021FF06C0282F28712831D1F4E5
:10103000877E816194FD877E0895282F2471243056
:10104000F9F68B7F8860DCCF282F2471243101F7DB
:101050008B7E8861DDCF382F3171313019F78E7F6B
:101060008860E0CF282F2171213121F78E7E8861A1
:10107000E1CFCF93DF93EC0182389105A9F1D8F548
:101080008133910509F496C048F58932910509F438
:101090008AC08A9709F495C0C11521E5D20708F0E6
:1010A000BCC0C11530E5D30708F014C1C83ED10556
:1010B00008F09CC0C03ED10560F5C83AD10508F0E3
:1010C00087C0C53AD10508F0FDC0C130D10509F18E
:1010D0002097F9F0C430D105E0F440C08533910584
:1010E00009F45AC0C997C1F680910202837089F051
:1010F000C0EED0E00EC0833E910599F170F4803EC1
:10110000910501F1823E910539F68091020282FD3E
:1011100021C0CE01DF91CF910895863E910561F106
:10112000873E910571F1843E910509F0B5CF80911C
:10113000030281FFEECF80910202C7EED0E084FD72
:101140000DC0E7CF8091020280FD12C19091030291
:1011500090FFDFCFC3EED0E084FFDBCFD0E0C0E074
:10116000D8CF8091020282FD06C19091030290FDCA
:10117000BFCF84FFCECFF2CF8091020283FDDDCFBF
:10118000C8CF8091020283FDF9C09091030291FFC4
:10119000F0CFC4EED0E0BDCF8091020285FFB9CF81
:1011A000C9E2D0E0B6CF8091020285FFB2CFC5E39D
:1011B000D0E0AFCF8091020286FFABCFCAE2D0E091
:1011C000A8CF8091020286FFA4CFC1E3D0E0A1CFD7
:1011D000CF3BD10518F6C85AD0E0CC0FDD1FC85D53
:1011E000DE4F0990D881C02DD46493CFC11540E261
:1011F000D40758F4C11581E0D80708F08ACFC03F62
:10120000D10508F4ABCFD06584CFC11590E4D907E0
:1012100008F4A4CFDF70D06A7CCFC11525E5D207D2
:1012200000F5C11534E5D30708F08AC0C11543E5C0
:10123000D40708F071C0C11582E5D80708F467C06B
:10124000CE018370992721E030E002C0220F331FC6
:101250008A95E2F7C695C69580E2C89FE001112401
:1012600052C0C11599E5D907A8F4C11528E5D207E0
:1012700008F06BC0C11536E5D30708F06FCF8C2F8F
:101280000E94F607C82FD0E0DC2FCC27CC27DF71D7
:10129000D0623FCFC1154AE5D40708F45BC0CE0148
:1012A00090568115904208F059CF8D2F8F710E9472
:1012B000F60790E0982F882788279F719C012C2B98
:1012C000E901E6CFC55AD0E0CB5DDE4FC881D0E062
:1012D000D0641FCFCE01E4E096958795EA95E1F7BB
:1012E00083702C2F26952695237040E2249F900131
:1012F0001124382B8C2F8370C1E0D0E002C0CC0FBA
:10130000DD1F8A95E2F7C22BD32BDC6802CFDC2FDE
:10131000CC27C16FD06AFDCECE018370992721E022
:1013200030E002C0220F331F8A95E2F7C695C695BA
:1013300090E2C99FE0011124C22BD32BDA68E9CED9
:10134000DC2FCC27C46FD06AE4CEDC2FCC27C06F53
:10135000D06ADFCE8C2F8F700E94F60734E0D695CE
:10136000C7953A95E1F7CF709C2FEC01D069D1CEAB
:10137000C9E3D0E0CECEC2EED0E0CBCEC6EED0E018
:10138000C8CE8091F601882331F01092F6011092B8
:10139000F5011092F4010895CF93C82F80910302B4
:1013A00082FD0CC08091F6018C1741F00E947705F8
:1013B0009093F5018093F401C093F601CF910895C5
:1013C000809590916104982390936104089580958D
:1013D0009091960298239093960208959091960288
:1013E000892B8093960208951092F2011092F101D8
:1013F0001092F00108958091650390916603892B06
:1014000089F00E9477052091F4013091F501AC013B
:10141000421B530B81E02091650330916603421714
:10142000530708F480E081700895809196029091AE
:101430006104892B9091F301892B8093880180911D
:10144000F601882309F18091650390916603892B49
:1014500029F00E94FB0981110E94C1098091880135
:101460009091F601892B8093880120E08AE891E031
:10147000FC013191CF0131112F5FF1E080399F07DD
:10148000B9F721110E94C109E0913C04F0913D049B
:10149000309731F00280F381E02D88E891E00994E3
:1014A0000895EF92FF920F931F93CF93DF93EC0178
:1014B0008A85811134C0EB80FC8087E5F81A26E12B
:1014C0002E9DC0012F9D900D1124DC01A657BC4F0D
:1014D0001496ED91FC911597309731F054966D91DB
:1014E0007C9180579C4F099586E18E9D80018F9D50
:1014F000100D112406571C4FF80187810E94E7093F
:10150000F80180850E94E0090E94150A1882198658
:101510001B861E821D821092890310928803DF9120
:10152000CF911F910F91FF90EF900895CF93DF938C
:10153000EC018989811118C081E0898B8F810E941B
:10154000EE09809161049885892B809361040E9443
:10155000150AEA81FB81309739F06C897D89CE01CB
:101560000696DF91CF910994DF91CF9108958091F4
:101570001A01877F80931A0182E00E94E00980911E
:101580001A0184FF06C08F7E80931A0182E00E94B8
:10159000EE0980911A0185FF06C08F7D80931A01A4
:1015A00080E20E94EE090C94150A8091EF018111EE
:1015B0001092EF010895EAE8F1E09191891303C0D8
:1015C000DF0111971C9291E0E039F907B1F7089516
:1015D000AAE8B1E0EFEF90E02D91821751F0EF3FD4
:1015E00019F4211101C0E92F9F5F9630A9F7EF3F51
:1015F00009F408950E2E000CFF0BE857FE4F82836E
:1016000008952091EE019091AD01291302C080E070
:10161000089530E0F90153E0EE0FFF1F5A95E1F70E
:10162000E255FE4F5181561306C05081581303C036
:101630005281541304C02F5F3F4F2770E6CF81E0E3
:1016400008958091EE019091AD01981301C0089525
:101650008F5F8770FACF9E3F49F1E82F2CE0929F71
:10166000E00D11249E2F9770E695E695E69583E0B0
:10167000E89FF0011124ED56FE4F50E040E080E07D
:10168000219130E0092E02C0369527950A94E2F7A1
:1016900021703327042E01C0220F0A94EAF7822B0F
:1016A0004F5F5F4F4330510559F7089580E008952B
:1016B0009E3F69F1E82F2CE0929FE00D11248E2FC0
:1016C000877041E001C0440F8A95EAF7E695E695F8
:1016D000E69583E0E89FF0011124ED56FE4F30E0DF
:1016E00020E070E05191DF011197CB01022E02C082
:1016F000969587950A94E2F78170819585278423D2
:1017000085278C932F5F3F4F2330310559F708957C
:10171000E92FE295EF70E250EE3070F4F0E0E15B1B
:10172000FE4C0C94C030803F19F020F4883E20F429
:1017300081E00895843FE1F380E00895883EC0F39E
:10174000813FD1F7F5CF93FB882780F9089590E08A
:1017500080E00E94990590E080E00E94830510924D
:1017600061041092F3010E94150A86E0EAE2F2E0B9
:10177000DF011D928A95E9F710922402109223024C
:10178000109225020C943306809360040C94A70BEE
:1017900080916004982F9670963019F488600C94AC
:1017A000C40B877FFCCF21E030E001C0220F8A9577
:1017B000EAF720958091600482230C94C40B9091E9
:1017C000F201809589238093F201282F277091F4EC
:1017D000282F082E000C330B9217130659F0909106
:1017E000030292FD07C08595859585950E94D30BD0
:1017F0000C94F409089521E030E001C0220F8A958D
:10180000EAF780916004822B0C94C40B9091030240
:1018100092FD10C098E0899F90011124622B609383
:10182000F2010E94FB0B0E9477059093F1018093D7
:10183000F00108950C94FB0B80935F040C94A70BAC
:10184000882321F00E94E0090C94150A089588234A
:1018500039F090916104982B909361040C94150ACF
:101860000895882321F00E94E7090C94150A089531
:10187000882321F00E94EE090C94150A089588230C
:1018800009F452C0823871F40E94AF0581FF4CC048
:1018900089E30E94E80A0E94150A89E30E94DB0A94
:1018A0000C94150A833859F40E94AF0580FF3CC0A0
:1018B00083E50E94E80A0E94150A83E5EFCF843889
:1018C00059F40E94AF0582FF2FC087E40E94E80A06
:1018D0000E94150A87E4E2CF9CEF980F913AF0F24C
:1018E00090E2980F983050F4877091E001C0990F02
:1018F0008A95EAF7892F0E94E709D2CF9BE5980FD6
:10190000933020F490E080E00C94990598E5980FCE
:10191000973120F490E080E00C948305803F20F024
:101920000E945A060C94330608959C013A9521159D
:101930003F4150F5FC01EE27F170BC016627727043
:10194000AC01442754709C012227387094FF0EC0CC
:1019500080E1EF2B09F480E0672B09F08062452BD2
:1019600009F08064232B89F08068089581E0EF2BD3
:1019700009F480E0672B09F08260452B09F0846050
:10198000232B19F08860089580E00895CF93DF93AA
:10199000EC010E943F0CCE010E94950C9E01205E3E
:1019A00031092830310510F0CD2B21F4DF91CF9192
:1019B0000C94310CDF91CF910C94200C8093450452
:1019C0007093470460934604809155048430F9F481
:1019D0008093E9008FEF9091E800815095FD06C05B
:1019E00095ED9A95F1F700008111F5CF8091E8000F
:1019F00085FF0DC050E040E063E070E085E494E0D6
:101A00000E9419048091E8008E778093E800089581
:101A1000BC0184E00C94DE0CBC0183E00C94DE0C71
:101A20009C0184E08093E9009FEF8091E800915051
:101A300085FD06C085ED8A95F1F700009111F5CF7F
:101A40008091E80085FF0CC050E040E066E070E067
:101A5000C9010E9419048091E8008E778093E80004
:101A60000895CF93DF93EC0181E08093E9008FEF3D
:101A70009091E800815095FD06C095ED9A95F1F79B
:101A800000008111F5CF8091E80085FF14C050E07F
:101A900040E068E070E0CE010E9419048091E80007
:101AA0008E778093E80088E0FE01ABE4B4E001901B
:101AB0000D928A95E1F7DF91CF910895019708F48F
:101AC0000895EFE9FFE03197F1F700C00000F6CF8D
:101AD000CF93C82F882309F48CC08238C1F40E94A8
:101AE000AF0581FD86C089E30E94E80A0E94150ABD
:101AF0002FEF81EE94E0215080409040E1F700C04C
:101B0000000089E30E94DB0ACF910C94150A833808
:101B1000A1F40E94AF0580FD6CC083E50E94E80A35
:101B20000E94150A2FEF81EE94E0215080409040F2
:101B3000E1F700C0000083E5E5CF8438A1F40E94FE
:101B4000AF0582FD56C087E40E94E80A0E94150A8C
:101B50002FEF81EE94E0215080409040E1F700C0EB
:101B6000000087E4CFCF8CEF8C0F813A68F4EAE86D
:101B7000F1E08191C817B9F121E0E039F207C9F726
:101B80008C2F0E94E80AC0CF80E28C0F883048F486
:101B9000C77081E001C0880FCA95EAF70E94EE097C
:101BA000B3CFEBE5EC0FE33040F4F0E0EB5DFE4F3C
:101BB000808190E0CF910C949905E8E5EC0FE73136
:101BC00050F4F0E0EE0FFF1FE85DFE4F8081918141
:101BD000CF910C948305C03F60F08C2F0E94750755
:101BE000CF910C9433068C2F0E94DB0A0E94150AB9
:101BF000C7CFCF9108951F93CF93DF93182FC09134
:101C00008303D0918403893321F0C0918103D09163
:101C10008203812F0E94680D209731F4812FDF917C
:101C2000CF911F910C943F0C8FE99FE00197F1F742
:101C300000C000002197F0CF0F931F93CF93DF9345
:101C4000C42FD22FFC0182818823A1F04093870307
:101C50000E9477059093860380938503C77081E087
:101C600001C0880FCA95EAF7DF91CF911F910F91BC
:101C70000C94380C10918703141339C0809185039C
:101C8000909186030E94680520917B0330917C032C
:101C90008217930760F5C0E2CD0F1D17B9F080E2FF
:101CA000810F883040F4177081E001C0880F1A95C9
:101CB000EAF70E94310CC83048F481E09D2F9770FC
:101CC00001C0880F9A95EAF70E94380C802F0E9475
:101CD000FB0DC83098F4D77081E001C0880FDA9509
:101CE000EAF7DF91CF911F910F910C94310CC770DF
:101CF00081E001C0880FCA95EAF7F3CFDF91CF9159
:101D00001F910F910895CF93DF93EC010E94950CE2
:101D10009E01205E31092830310510F0209739F4FA
:101D20000E94380C8C2FDF91CF910C94680D0E948B
:101D3000270CF8CF662329F02091610422602093BC
:101D400061049C013056211540E2340720F0305EDA
:101D50002115304108F499270C94830EDF92EF92FD
:101D6000FF920F931F93CF93DF937C018B01D42EAF
:101D700080911A0182FF8CC0C091B902D091BA0241
:101D8000CE15DF0521F0E114F10409F081C0809146
:101D90001A018B7F80931A0181FD73C08091B70275
:101DA0009091B802A801481B590B81E020911801BD
:101DB000309119014217530708F480E08170F82E22
:101DC00080911A01F0FA81F980931A01FE0183E0F3
:101DD000F695E7958A95E1F7EE71FF27E956FD4FF5
:101DE00020813181AE014F70552781E090E002C023
:101DF000880F991F4A95E2F7FF2009F444C0822B0F
:101E0000932B918380838091960281FF08C08091FB
:101E10001A01806180931A0182E00E94E709809193
:101E2000960285FF08C080911A01806280931A0192
:101E300080E20E94E7096F2DCE010E949A0EDD20FC
:101E400031F080917E0385FF02C086FF3BC0809108
:101E50008103909182030E945E0D8091B90290915E
:101E6000BA029C013056211540E2340720F0305E62
:101E70002115304108F499270E94C60C0E94B70A28
:101E80001DC081E09BCF8095909582239323B9CF8D
:101E9000C701992797013056211540E2340728F0F1
:101EA000305E2115304108F0C7010E94C60C8091B8
:101EB000B9029091BA028E159F0501F31093B802F2
:101EC0000093B702DF91CF911F910F91FF90EF9098
:101ED000DF900895AF92BF92CF92DF92EF92FF9280
:101EE0000F931F93CF93DF93EC018AE0A82E2881F4
:101EF000222309F48CC02130C9F599818A8191305F
:101F000021F422960E94FB0D05C0923029F42296FE
:101F10000E94680D2196EBCF933021F422960E9407
:101F20003F0CF8CF943011F02196F4CF229630E098
:101F300020E0AE014F5F5F4F8053990B8A309105CF
:101F400050F02150310930F38FE99FE00197F1F70C
:101F500000C00000F6CFA29EB001A39E700D112418
:101F60009C01260F371F8981EA01E3CFE22FF0E0C1
:101F7000E154FE4FB490822F86958695869590E029
:101F8000FC01E155FE4FE4902770F12C022E02C0B7
:101F9000F594E7940A94E2F731E0E322FF24FC0190
:101FA000E156FE4FC490D12C022E02C0D594C794A6
:101FB0000A94E2F731E0C322DD24FC01E157FE4F31
:101FC000049110E002C0159507952A95E2F701707B
:101FD0001127E114F10419F081EE0E94680DC1147B
:101FE000D10419F086EE0E94680D8B2D0E94FB0D26
:101FF000CD2819F086EE0E943F0CEF2819F081EEF3
:102000000E943F0C012B09F485CF8CE27BCFDF913E
:10201000CF911F910F91FF90EF90DF90CF90BF90E5
:10202000AF9008950F931F93CF93DF9303E613E0D0
:10203000C7EBD1E0CE010E940331F80181938F01FB
:102040002196C93DF1E0DF07A9F7C5EBD5E0FE0118
:1020500085919491009711F0FC0109952896F6E07E
:10206000CD34DF07A1F7DF91CF911F910F91089534
:102070000F931F93CF93DF93843000F561111EC03F
:1020800024E0829F8001112450E0440F551F040F6B
:10209000151F09551E4FC8010E940331C82FD0E0FB
:1020A000DC2FCC27C80101960E9403319E01282B0A
:1020B000C901DF91CF911F910F91089590E080E0C9
:1020C000F8CF0F931F93CF93DF93843030F56430B4
:1020D00020F54C3010F5C42FD0E0CC0FDD1F28E1E7
:1020E000629FC00DD11D112430E6839FC00DD11D0C
:1020F0001124CE0187960E940331082F10E0102F83
:102100000027CE0188960E9403319801282BC9012F
:10211000DF91CF911F910F91089590E080E0F8CF6B
:10212000462F2091940230919502232B91F47E3F0B
:1021300039F46E3F71F48091920290919302089568
:10214000843038F4743028F46C3018F4672F0C9411
:10215000611090E080E00895CF92DF92FF920F939C
:102160001F93CF93DF936C010091600480915F0413
:10217000082BC7E0D0E010E0FC2EC8010C2E02C0F6
:10218000959587950A94E2F780FD0CC02197A0F7FA
:10219000F12C8F2DDF91CF911F910F91FF90DF9048
:1021A000CF900895B6018C2F0E9490100E9439089C
:1021B000019761F3EECFCF93DF93EC010E94AC1057
:1021C000BE010E949010DF91CF910C943908FC0160
:1021D00086819781009721F00E9439080C94880B22
:1021E000808191810E94DB10F9CF1F93CF93DF9301
:1021F00000D000D00F92CDB7DEB749835A838981D2
:102200009A816623B9F02223A9F00E94AC10182FFE
:10221000682F89819A810E94580B69817A81812F68
:102220000F900F900F900F900F90DF91CF911F9113
:102230000C9490100E942B0B182FEFCFFC01262F2F
:1022400086819781009739F4408151816281738141
:1022500084810C94F510089583E290E00E9403318C
:102260008B3E89F484E290E00E940331803859F477
:1022700085E290E00E94033191E0893609F090E018
:10228000892F8170089580E0FCCFCF9384E090E0A7
:102290000E940331C82F82E290E00E940331982F00
:1022A0008C2FCF9108950F931F93CF93DF9303E665
:1022B00013E0C7EBD1E0CE010E940331F801619138
:1022C0008F01681719F0CE010E9411312196C93D86
:1022D000F1E0DF0781F7DF91CF911F910F91089512
:1022E000E3E6F3E0128E138E8FEA90E09183808311
:1022F00085E0848F88E893E1938382834CE251E008
:102300005583448322E330E03783268385E090E0E1
:10231000918780878AE090E09387828764E170E00C
:10232000758764875787468744E650E0518B408B1A
:1023300048E050E0538B428B48E250E0558B448B91
:10234000378B268B28EC30E0318F208F158E978FBE
:10235000868F80E590E091A380A30E9453110C9496
:102360001210CF93DF93C9E7D2E060E0CE010E9464
:1023700011312196C11584E0D807B9F7DF91CF91CB
:1023800008950F931F93CF93DF938901843028F52D
:10239000611123C0423008F521153C4531F42091EC
:1023A0000E0130910F01232BC1F094E0899FE001D1
:1023B000112450E0440F551FC40FD51FC955DE4FDF
:1023C000612FCE010E941131602FCE010196DF9165
:1023D000CF911F910F910C941131DF91CF911F91EB
:1023E0000F9108950F931F93CF93DF93890184304A
:1023F00048F5643038F54C3028F521153C4531F46A
:1024000020910E0130910F01232BE1F0C42FD0E079
:10241000CC0FDD1F98E1699FC00DD11D112490E6FE
:10242000899FC00DD11D1124612FCE0187960E9476
:102430001131602FCE018896DF91CF911F910F91BE
:102440000C941131DF91CF911F910F910895CF938B
:10245000C82F6FEF81116BEE83E290E00E94113183
:102460006FEFC11160E884E290E00E9411316FEFDC
:10247000C11169E685E290E0CF910C941131CF93C0
:10248000C0910302C2FB992790F9981799F080FB3D
:10249000C2F9C09303026091020284E090E00E94BE
:1024A00011316C2F82E290E00E94113182E0CF91D5
:1024B0000C94DF0BCF9108955F926F927F928F9271
:1024C0009F92AF92BF92CF92DF92EF92FF920F93C3
:1024D0001F93CF93DF93CDB7DEB764970FB6F89411
:1024E000DEBF0FBECDBFC0900E01D0900F0181E0C6
:1024F00090E090930F0180930E018FE1E82E84E02D
:10250000F82E9FE2A92E94E0B92E10E0450100E0DC
:1025100015C0F30125913491452D602F812F0E9424
:10252000F21182E0680E711C5394ECE05E12F1CF60
:10253000F8E18F0E911C0F5F043019F03401512C1B
:10254000E8CFF7012591349140E060E0812F0E94AF
:10255000C111F70132962591349141E060E0812F5D
:102560000E94C11184E0E80EF11C1F5FE0E6AE0E90
:10257000B11C143009F0CACF0E9470111A8219825E
:102580001C821B821E821D8218861F8288EC90E0AE
:102590009A87898709ED11E04AE050E0B801CE0141
:1025A00001960E943531065F1F4F0932F2E01F0786
:1025B00099F77E018BE0E80EF11C8AE0F701119299
:1025C0008A95E9F74AE050E0B801C7010E94353129
:1025D000065F1F4F0937F2E01F07A1F7D0920F01E6
:1025E000C0920E0164960FB6F894DEBF0FBECDBF49
:1025F000DF91CF911F910F91FF90EF90DF90CF90DF
:10260000BF90AF909F908F907F906F905F90089554
:1026100080E00E94271260E086E290E00E94113183
:102620000E945C120E94B11181E00C9427129B0160
:10263000883070F49AE0899FB001112467527E4F70
:102640004AE050E0C9010E94F33090E080E0089534
:102650008FEF9FEF08958F929F92AF92BF92CF928C
:10266000DF92EF92FF920F931F93CF93DF93CDB73B
:10267000DEB72A970FB6F894DEBF0FBECDBF0AE8CB
:1026800013E0F12CE12C8CEFC82E87E2D82E96E2D5
:10269000A92E98E2B92E24E1822E27E2922EF8018B
:1026A000D182C082B382A28295828482F58AE48A32
:1026B000BE016F5F7F4F8E2D0E941713892B29F467
:1026C00089859A85F801938B828BFFEFEF1AFF0AB9
:1026D0000A5E1F4F88E0E816F10409F72A960FB644
:1026E000F894DEBF0FBECDBFDF91CF911F910F9148
:1026F000FF90EF90DF90CF90BF90AF909F908F9022
:102700000895CF92DF92EF92FF920F931F93CF9392
:10271000DF93CDB7DEB72A970FB6F894DEBF0FBEB2
:10272000CDBFE2E4F2E080E5DF011D928A95E9F792
:10273000EFE1F3E088E3DF011D928A95E9F782E497
:10274000C82E82E0D82E7F0109E212E0F701D18283
:10275000C0824AE050E0B801CE0101960E94F330F9
:1027600088E0FE013196D60101900D928A95E1F73D
:1027700089859A85D70113969C938E931297BAE018
:10278000CB0ED11CE7E0EE0EF11C065F1F4F0937A0
:10279000F2E01F07D9F62A960FB6F894DEBF0FBEF7
:1027A000CDBFDF91CF911F910F91FF90EF90DF9000
:1027B000CF90089510929602EAE8F1E086E0DF01FA
:1027C0001D928A95E9F70C94A70B1F93CF93DF9383
:1027D000CDB7DEB7AA970FB6F894DEBF0FBECDBF58
:1027E00087E594E02091F100DC012D93CD01B4E068
:1027F0008F359B07B9F780915804833009F472C074
:10280000B8F4813009F449C0823009F4B3C0809132
:10281000E80083FF96C280915704909158049A3043
:1028200008F08FC2E92FF0E0E35AFE4C0C94C03060
:102830008A3009F48EC08B3009F471C0893039F7C1
:1028400080915704813219F780915B0490915C0468
:10285000009711F00297D9F68091E800877F809366
:10286000E8008091E80082FF38C09091F3008091E9
:10287000F200029731F48091F100813011F086303E
:1028800021F48091F10080934A048091E8008B77D5
:102890008093E8000E944304BACF80915704813AA4
:1028A00009F0B5CF8091E800877F8093E8008091A0
:1028B0005B0490915C04892B61F468E08BE494E004
:1028C00070E00E94F5048091E8008B778093E80027
:1028D0009ECF60E090E080E0F3CF809155048111BD
:1028E000C0CF95CF80915704813A09F090CF809165
:1028F0005B0490915C04892B09F089CF8091E800FA
:10290000877F8093E8008091E80080FFFCCF809172
:102910001C018093F1008091E8008E77B9CF8091FF
:102920005704813209F073CF80915B0490915C046D
:10293000892B09F06CCF8091E800877F8093E800B5
:102940000E9443048091590480931C010E94DA1371
:102950005ECF80915704813209F059CF8091E80011
:10296000877F8093E8000E94430480915A048093FB
:1029700049044DCF80915704813A09F048CF8091A6
:10298000E800877F8093E8008091E80080FFFCCF1B
:1029900080914904BECF803899F0823809F0D1C1C6
:1029A00080915B048F70873008F0CBC18093E90081
:1029B0008091EB0085FB882780F91092E90006C022
:1029C0008091530490915404911182609091E80099
:1029D000977F9093E8008093F1001092F10080912E
:1029E000E8008E77AAC1882309F498C1823009F0E3
:1029F000A8C18091590481119BC180915B048F70A3
:102A00002FEF280F263008F09CC18093E900209119
:102A1000EB0020FF8DC1933031F48091EB00806298
:102A20008093EB0085C19091EB0090619093EB0057
:102A300021E030E001C0220F8A95EAF72093EA00F6
:102A40001092EA008091EB008860EACF811179C191
:102A5000109159041F778091E3008078812B809337
:102A6000E3008091E800877F8093E8000E944304A0
:102A70008091E80080FFFCCF8091E3008068809324
:102A8000E30082E0111183E0809355045AC180581D
:102A9000823008F056C12091590430915A042C3DDF
:102AA000E3E03E07A1F583E08A838AE289834FB79A
:102AB000F894DE01139620E03EE051E2E32FF0E0CF
:102AC00050935700E49120FF03C0E295EF703F5F01
:102AD000EF708E2F90E0EA30C0F0C7968D939D93F3
:102AE0002F5F243159F74FBF8091E800877F809393
:102AF000E8006AE270E0CE0101960E94F504809140
:102B0000E8008B778093E8001CC1C096E7CF8091E6
:102B10005B0490915C04432F55274330510509F421
:102B20004AC078F54130510509F485C08BE590E045
:102B3000E7E4F6E04230510509F003C12091E800D6
:102B4000277F2093E80020915D0430915E04821776
:102B5000930708F49C0140E02115310509F070C08D
:102B600041116EC08091E80082FDC9CF809155046B
:102B7000882329F2853019F28091E80083FFF2CF93
:102B8000BECF4132510509F447C04232510509F028
:102B9000D8C08330910508F0D4C0FC01EE0FFF1FB0
:102BA000E758FE4F0190F081E02D8A589E4FDC01DE
:102BB0008C9190E01DC0332721303105E9F02115BB
:102BC000310579F022303105F9F02330310509F073
:102BD000B8C0E4EBF6E0E4918E2F90E0E4EBF6E091
:102BE00007C0ECEFF6E0E4918E2F90E0ECEFF6E01A
:102BF000009709F4A6C0A2CFE4EEF6E0E4918E2F90
:102C000090E0E4EEF6E0F4CFE2EDF6E0E4918E2F12
:102C100090E0E2EDF6E0ECCF8330910508F091C052
:102C2000880F991FFC01E158FE4F0190F081E02DC3
:102C300089E090E083CF82E190E0E2EAF6E07ECFA7
:102C400080915504882309F45ACF853009F457CF71
:102C50008091E80083FD53CF8091E80082FD82CF10
:102C60008091E80080FF78CF9091F3008091F2008E
:102C70002115310519F08830910550F041E0089791
:102C800009F040E08091E8008E778093E80064CFFF
:102C900044914093F1003196215031090196E8CFDB
:102CA000803809F04EC08091E800877F8093E8006B
:102CB000809156048093F10092CE811142C0109110
:102CC00059041230F0F58091E800877F8093E80086
:102CD000109356040E944304112311F084E005C0B0
:102CE0008091E30087FDFACF81E08093550442E0B4
:102CF00061EC81E00E94620442E261EC84E00E94A7
:102D0000620442E261EC82E00E94620442E260EC12
:102D100083E00E9462048091550413C0809159049D
:102D2000813079F481E0933009F080E0809354049D
:102D30001092E9008091E800877F8093E8000E946C
:102D400043048091E80083FF0AC08091E800877FF8
:102D50008093E8008091EB0080628093EB00AA965C
:102D60000FB6F894DEBF0FBECDBFDF91CF911F919C
:102D700008956AEE7EEF90E080E00E942F3160E0DF
:102D800082E090E00E94113160E083E090E00E94D8
:102D9000113110925F0460E084E090E00E941131F4
:102DA00060E082E290E00E94113160E085E090E016
:102DB0000E94113160E086E090E00E9411316FEFD7
:102DC00087E090E00E94113140E050E0BA0188E0D5
:102DD00090E00E94233160E08DE090E00E9411318C
:102DE00040E050E0BA0188E190E00E94233160E0C9
:102DF00087E190E00E94113140E050E0BA018CE19F
:102E000090E00E94233170E060E080E290E00E9458
:102E10002F3140E050E0BA0188E190E00E94233178
:102E200080E00E9427120E94081340E050E0BA019F
:102E30008FE090E00E94233140E050E0BA0183E14E
:102E400090E00C9423318F929F92AF92BF92CF92D9
:102E5000DF92EF92FF920F931F93CF93DF9300D0F7
:102E600000D0CDB7DEB77C01DC0113964D915C91AB
:102E7000149711966C9111978C910E94BB0581114A
:102E800079C061E0C7010E941E118C01F7018281A7
:102E9000811111C0D70112968C91811149C0003166
:102EA000FFE51F0709F4EEC001312FE5120709F015
:102EB00007C782E0E8C0809100019091010101966E
:102EC00049F36AE8C62E63E0D62EB12CA12C9924D2
:102ED000939480910001909101018A159B05D4F291
:102EE000F60186818823E9F0818592850817190704
:102EF00039F480918803909189030817190789F0A4
:102F0000D6011F969C921F971C961C930E931B979D
:102F1000C6010E94960AC60106960E94510A1092A6
:102F20006104BFEFAB1ABB0AE6E1CE0ED11CD1CFD4
:102F3000980122513F452031310508F0B7C68FEF87
:102F400093E00E9403315EEED52ED00E09E712E029
:102F5000882369F18091F201877061F0D7011296A0
:102F60008C91882339F08091030282FD03C082E0B6
:102F70000E94DF0B0F900F900F900F90DF91CF9179
:102F80001F910F91FF90EF90DF90CF90BF90AF9087
:102F90009F908F9008950115F4E01F07D9F2C801A2
:102FA0000E940331811101C0DA940F5F1F4FD110CD
:102FB000F2CF19821A821B821C82CC24CA94480147
:102FC0002FEF821A920AC8010E94033189831A8264
:102FD000882309F4BFCF813009F048C0580132E09E
:102FE000A30EB11CC4010E940331982E8A8388234A
:102FF00009F4B0CFC5010E940331D82E8FEF890D9F
:10300000833068F4580143E0A40EB11CDB82DD205C
:1030100021F0CE0101960E946A0F8501D0CF54E0C5
:103020009512FBCF580184E0A80EB11CC80103968D
:103030000E940331DD2009F48DCF882309F48ACF63
:103040008150990BC89E9001C99E300D1124AD2D61
:10305000A150BB0BCD01820F931F0197F0F2EFE956
:10306000FFE03197F1F700C00000F7CFCE010196E5
:103070000E946A0F5401D1CF81E00E94FB0B0E9495
:10308000C80B68CF81E00E94D30BF9CF82E0F5CF67
:103090004FEFC416D10411F008F01EC668E372E0C9
:1030A0008C2D0E941713892B29F586E18C9DF00148
:1030B0008D9DF00D1124E657FC4F8681813009F07B
:1030C00062C08091380290913902892B99F08091E9
:1030D0003A0290913B02892B69F080913C029091D9
:1030E0003D0220913E0230913F02822B932B892B8F
:1030F00009F453C080910001909101018C159D0548
:1031000024F4D0920101C0920001F701828196E17E
:103110009C9D50019D9DB00C1124950126573C4F5C
:103120006901D90150968C935097928116968C9193
:103130001697992309F43FC01A961C930E9319977A
:103140008F5F16968C930E947705F6019687858788
:103150008091F60187838091610490919602892B7A
:1031600080870190F081E02D309741F0D601549690
:103170006D917C91C50180579C4F099510938903EF
:1031800000938803A9C5823009F0B4CF80913C0236
:1031900090913D02892B09F4ADCF26E12C9DC00111
:1031A0002D9D900D112486579C4FDC0150961C924A
:1031B0000E94960A9FCF882309F48EC5F901818960
:1031C000882309F489C5C50180579C4F0E94510A84
:1031D00083C580911A01816080931A01ABC58091EB
:1031E0001A018E7F80931A010E94B70AA3C58091AD
:1031F0001A018F7E013E110531F0053E1105C9F41B
:1032000080911A018F7D80931A0180911A0180FFAD
:10321000A0C5D70112968C910832110528F50E3100
:10322000110508F074C00430110580F581118DC5B9
:1032300090C5C8019056811540E2940720F0905E39
:103240008115904110F780911A0182FF82C580910B
:10325000800381FD7EC52AEF31E040E0B60190E0B9
:1032600080E00E94AE0E75C50933110558F40D3289
:10327000110518F40B321105C9F690917E0392FDE9
:10328000D5CF08C004361105C1F3D0CF90917E038D
:1032900094FDCCCF882309F4A1C09091960280912F
:1032A000F601282F292B322F3D7FB1F11092BA025F
:1032B0001092B90230917E0331FD2EC0F80143E037
:1032C000F695E7954A95E1F7EE71FF27E956FD4F30
:1032D00098012F70332781E090E002C0880F991F7A
:1032E0002A95E2F78095909520813181822393235E
:1032F0009183808360E0C8010E949A0E8091F6015C
:103300008D7F0E94CC0982E00E94DF0B23CE90913A
:103310007E0393FD8BCFBECF38E0F701AAEFB1E07B
:1033200001900D923A95E1F71092FC011092FE0186
:103330001092FD01A090B902B090BA020A151B05C7
:10334000B1F530917E0335FF32C040911A0141FB47
:10335000992490F841FF02C036FF29C04091B7027E
:103360005091B802B601641B750B40917B035091DC
:103370007C0364177507D8F491FF08C080911A0187
:10338000806180931A0182E00E94E7098091960291
:1033900085FF08C080911A01806280931A0180E243
:1033A0000E94E709692DC5010E949A0ED3CD909124
:1033B0001A0121FB91F990931A018D7F0E94CC098B
:1033C0001093BA020093B902D092B802C092B70229
:1033D00080911A01846080931A0195CF970140E093
:1033E000B601C8010E94AE0EB5CD053F4CE51407ED
:1033F00009F467C008F45FC0063F8CE5180709F4BC
:1034000066C0D70112963C91332309F4C1C41092CF
:1034100087030330BDE51B0708F065C00A3FECE5F4
:103420001E0730F4C80182509C45449708F060C0E4
:103430000E944511909303028093020200312CE513
:10344000120709F461C108F0DDC008304CE514072B
:1034500009F448C108F0AFC004308CE5180709F43E
:1034600033C108F095C00230ACE51A0709F426C153
:1034700080910202826003301C4509F422C16091F0
:1034800002021091030284E090E00E941131612F4A
:1034900082E290E00E9411310E94DA135BCD07E2D4
:1034A00025EE45EE68ED7CE56FC406E221EE40EEC8
:1034B00063EF7CE569C407E225EE44EE64EF7CE54A
:1034C00063C406E221EE42EE65EF7CE55DC407E2EF
:1034D00025EE46EE66EF7CE557C408E221E045EEB6
:1034E00069ED7CE551C40136FDE51F0709F4A0CF65
:1034F00006315CE5150709F44FC40A354DE514079C
:1035000009F453C108F02FC101158CE5180709F41F
:103510003CC10E3D1C4509F445C1F70186819781E8
:10352000009709F446C10E943908182F092FF701A6
:10353000D280C580C2943FE0C3228091F20187709F
:10354000C1F0AD2CDD20B1F0892F807F803421F0D7
:1035500080E2810F883068F08091030282FD09C00B
:1035600082E00E94DF0B8091F2018770AA24A3946D
:103570008111A12C902E92942FE09222FBE0F9155C
:1035800008F4A4C1E92DF0E0E959FE4C0C94C030D8
:103590008091020280610630ECE51E0709F491C0BB
:1035A00080910202886007301C4508F48AC080912F
:1035B0000202806286C0809102028D7F0C302CE571
:1035C000120709F47EC070F4809102028C600A3008
:1035D0004CE5140709F475C008F488C08091020214
:1035E0008E7F6FC00E308CE5180709F485C080917E
:1035F00002028B7F0F301C4508F463C080910202E9
:103600008F7E5FC00C3FACE51A0709F479C068F5FE
:103610000431ECE51E0709F48BC080F402312CE57F
:10362000120709F475C0809102028F7B03311C459B
:1036300008F447C080910202837F43C00A3F4CE5F3
:10364000140709F445C008F049C005311C4509F0CC
:1036500016CF8091020282FB992790F921E09227F0
:1036600090FB82F990FB83F92CC001159DE51907A9
:1036700009F454C088F48091030283600E3FBCE5D6
:103680001B0749F1809103028D7F0F3F1C4518F104
:10369000809103028C7F1FC00230FDE51F0709F4F3
:1036A00056C008F44EC001361D4509F0E8CE909191
:1036B0000202892F8F7E94FF806103C080910202F5
:1036C000816080930202DBCE809102028460F9CF98
:1036D00080910302816080930302D1CE8091030226
:1036E0008260F9CF809102028064EBCF0E94DA13EE
:1036F000809102028068E5CF80910202877FE1CF4E
:10370000809103028E7FE7CF809102028F7DD9CF17
:103710000E94DA13809102028F77D3CF8091030247
:10372000982F909591708E7F892B90FB81F9D3CF44
:103730000E94DA1390910202892F97FB87F9805833
:10374000C0CF61E08EE090E00E94113198CE60E041
:10375000F9CF80919001811104C089E20E94DB0AB7
:1037600046C385E3FBCF0B35ADE51A0701F10C35F8
:103770001D4509F0D2CE8091030282FB882780F993
:1037800091E089270E943F12C8CE0E94DA13EFEF22
:10379000F4E32CE0E150F0402040E1F700C00000ED
:1037A0000E9457050E94B916D5CB81E0EBCF80E08F
:1037B000E9CF828100811181882369F0C8010E94CC
:1037C000AC10D82E682FC8010E94580BB8018D2D5F
:1037D0000E949010A8CEC8010E942B0BD82EF6CFC5
:1037E000202F2F70B22E802F807F19F0B29490EF8F
:1037F000B922DD20A9F0BB2059F080E2810F88308A
:1038000010F0111107C08B2D0E94EE090E94150ABD
:10381000812F5AC080916104B82AB0926104F6CF1A
:10382000812F0E943F0CBB2009F450C080E2810F21
:10383000883010F0111104C08B2D0E94E70903C0DD
:103840008B2D0E94E0090E94150A40C0302F3F7066
:10385000B32E802F807F803219F0B29480EFB8228F
:10386000112321F1113009F4A4C0DD2009F4ADC009
:10387000CC2009F47DC020E0D7014C9111965C91D9
:10388000119712966C91129713967C911397149638
:103890008C910E94F5108091800381FDB9CFF701D2
:1038A000858180FFB5CF8F70858362C080910302D0
:1038B00082FF40C0DD20C1F1BB2029F08B2D0E948A
:1038C000EE090E94150A80E00E94680DA92DA850FB
:1038D000BB0B149710F40E94AF05812F902F0E940C
:1038E000880B8111C4C11092920110929101AA20FB
:1038F000B1F08091F20180FD12C0D70112961C92A6
:103900008595859585950E94FB0BC7010E9423171D
:103910008091F2018595859585950E94D30B60E095
:10392000C7010E941E1126CB80E00E943F0CBB20E5
:1039300069F282CFDD2001F1C11004C08091F6014F
:103940008B2917C041E0C41206C08091F6018B2973
:103950000E94CC09BBCF80917F03823078F3C812DC
:10396000EDCF0E94C1098091EF01B812B092EF0132
:103970008B2D0E94380CAACFC11006C00E94C1092D
:103980008B2D0E94310CA2CF80917F0351E0C51294
:103990000BC0823008F49ACF809196028B2109F4F3
:1039A00095CF0E94D50AEACF823040F3C812E6CF05
:1039B0008DCFDD2029F085E08C1508F487CFD8CF96
:1039C00094E09C1508F482CFDBCFCC20C9F2809123
:1039D000830390918403193321F0809181039091A6
:1039E00082030E945E0D812F0E943F0C6FCF802FBB
:1039F00086958695837069F0813009F067CF812FB5
:103A0000902F9370D11002C090E080E00E94830557
:103A10005DCF812F902F9370D11002C090E080E095
:103A20000E94990553CF812FDD2029F00E94750750
:103A30000E9433064BCF0E945A06FACF802F837024
:103A400091F5D11043CF412F429546954770440FD1
:103A5000440F812F8F70042E01C0880F0A94EAF75B
:103A6000212F207114FF07C02FE030E001C0220F8A
:103A70004A95EAF72095302F3695369533703230D7
:103A800069F050F440915F04313029F0822B842397
:103A90000E941C0C1BCF842B822BFACF282B8091E9
:103AA0005F048227F5CF8695DD2011F0802F81708D
:103AB000882309F40BCF412F429546954770440F58
:103AC000440F812F8F70042E01C0880F0A94EAF7EB
:103AD000212F207114FF07C02FE030E001C0220F1A
:103AE0004A95EAF72095302F369536953370323067
:103AF00069F050F440916004313029F0822B842326
:103B00000E94C40BE3CE842B822BFACF282B80910A
:103B100060048227F5CFF02FFF70BF2EDD2029F043
:103B20008F2F0E94FB0B812F24CF812F0E94310CFD
:103B30008B2D0E94D30BCACE123F89F160F4103F47
:103B4000B9F0113F81F0DD2009F48CC0C11060CEC6
:103B5000802F8F7128C0133F49F1143FA1F7809146
:103B6000030282FF2FC0802F8F71DD2011F31BC055
:103B7000DD2081F024E02C1508F4A8CE202F2F7131
:103B800081E090E001C0880F2A95EAF790916004E7
:103B90008927B6CF35E03C1508F498CEEFCF802FBB
:103BA0008F71D110C6CF0E94FB0B90CE80E0DD203C
:103BB00009F4A6CF81E0902F9F7101C0880F9A95DC
:103BC000EAF79ECF80917F038230A0F18091EF01D0
:103BD000DD20F1F00E94E7098091F20187708430C6
:103BE00041F40E94F409802F8F710E94D30BA12C05
:103BF0006DCE80917F03C816D0F7402F4F71B42E41
:103C0000842F0E94FB0B63E08B2D0E94060CEFCFEC
:103C10000E94EE0980917F03C81640F00E94F409CB
:103C20000E94D50A64E0802F8F71EFCF81E00E945F
:103C3000DF0BDDCFDD2059F0502F5F71B52E852FC2
:103C40000E94FB0B63E08B2D0E94060C3FCE81E0AF
:103C50000E94DF0B81E08C1508F038CE82E00E94D4
:103C6000DF0B34CEC110B3CE802F8F7162CFDD2039
:103C700019F0C11038CE3BCEC11035CE20E0F7018F
:103C8000408151816281738184810E94F51080910D
:103C9000800383FF28CE8091910190919201029739
:103CA00009F021CE812F0E94FB0D1DCE0031BFE512
:103CB0001B0709F4E1C90131EFE51E0709F4E6C964
:103CC000680127E5D21A882309F4E2C93FEFC31639
:103CD000D10409F008F40ECA80917E0380FF39C038
:103CE0000E9477056C01D70112968C91882309F404
:103CF0007ECA80911A0182FF08C02AEF31E040E0BD
:103D0000B60190E080E00E94AE0E0B31BCE51B07CF
:103D100009F45FCA0C31ECE51E0709F460CA909102
:103D20001A01892F8E7F90FF81600A31FCE51F0701
:103D300009F458CAC8019056811520E2920728F06C
:103D4000905E8115904108F060CA1092BA021092FC
:103D5000B902033FBCE51B0709F4A7CB08F045CB2C
:103D6000083DFCE51F0709F49ACB093D2CE5120735
:103D700009F4B3CB073D3CE5130709F042CB06E25B
:103D800021EE41EE67ED7CE5C7010E941C0EE2C802
:103D900006311C4509F0C1CB80919602982F9A7A82
:103DA00020917D0320FF04C0482F447409F090E067
:103DB00021FF04C0482F417109F090E022FF04C0A8
:103DC000482F487809F090E023FF03C0827209F081
:103DD00090E0332309F4BDCC81E0911101C080E073
:103DE0008093900189E2911185E30E94E80A0E9484
:103DF000150AB0C8CF92DF92EF92FF920F931F93F4
:103E0000CF93DF938091AA01807F31F48091A70145
:103E1000C091EE0181110BC0DF91CF911F910F91E5
:103E2000FF90EF90DF90CF9008952196C77080911A
:103E3000AD018C1789F3F090A501E090A601C09028
:103E4000A801D090A901A6016E2D8F2D0E94BB055F
:103E5000D0E08111EACF8E0183E0000F111F8A9517
:103E6000E1F7F801E255FE4F81818E11DECF8081AE
:103E70008F11DBCF82818111D8CFE380F480EC18E1
:103E8000FD0860E085EA91E00E941E1180917B03AD
:103E900090917C03E816F90640F68091AA018F7094
:103EA00080618093AA01F801ED54FE4F80818F70EC
:103EB0008061808385EA91E00E942317DF91CF9192
:103EC0001F910F91FF90EF90DF90CF900C94210BFA
:103ED0003F924F925F926F927F928F929F92AF929A
:103EE000BF92CF92DF92EF92FF920F931F93CF93E7
:103EF000DF93CDB7DEB765970FB6F894DEBF0FBE80
:103F0000CDBF8C0185E0F801DE01519601900D9244
:103F10008A95E1F7D8014C9011965C901197129612
:103F2000EC9012971396CD90DC9060E085EA91E0DA
:103F30000E941E1185EAA82E81E0B82E8090A8016B
:103F40009090A901A4016091A6018091A5010E9411
:103F5000BB058111CAC1F090A701F601E819F90962
:103F60004F0160E0FF2009F46DC1C5010E941E11E0
:103F700060907B0370907C033090AA0186149704B4
:103F800008F013C14091A8015091A901B090A5017A
:103F9000A090A601832D807F6A2D09F0ADC08B2DE6
:103FA0000E94BB05FE2C81113BC0D80111968C915B
:103FB00011978A1135C08C918B1132C02091AB01C1
:103FC0003091AC0116968D919C912817390741F5D7
:103FD000E11026C0832D8F7080618093AA0185EA4D
:103FE00091E00E9423178091AA01F80185838F2D0B
:103FF00065960FB6F894DEBF0FBECDBFDF91CF91AF
:104000001F910F91FF90EF90DF90CF90BF90AF90F6
:104010009F908F907F906F905F904F903F9008950A
:10402000F4EF6F16F1E07F0620F48091800380FFAB
:1040300021C0A601652D842D0E94BB05811118C0E9
:1040400081E08E2580FF16C04E2D652D842D0E94A7
:10405000010B882379F085EA91E00E94231788E01C
:10406000E5EAF1E0DF011D928A95E9F7F12CBFCF77
:1040700080E0E8CFA601652D842D0E94BB0581114B
:1040800024C081E08E25B82FB170CB2E80FF2BC0CD
:104090004E2D652D842D0E94010BD82E811123C039
:1040A000498A5A8A89899A890E94DB10292F229588
:1040B0002F70223060F0243088F49F7061F0F80196
:1040C0009581907F41F4FD2C92CF80E0DCCF9F70F2
:1040D00011F08823C1F3805E8830A8F3C8010E94E4
:1040E0002317DC2CF0CFEE2009F481CF8091AA01B8
:1040F00081608093AA01BACF8B2D0E94BB058111EC
:1041000024C0D80111968C9111978A111EC08C91F0
:104110008B111BC02091AB013091AC0116968D9193
:104120009C9117972817390781F4E1100EC0159656
:104130003C92C8010E94231788E0F801A5EAB1E08B
:1041400001900D928A95E1F752CFC8010E94E710C5
:10415000882339F1EE2029F18091AA018032A0F064
:104160002091A5013091A6013A8729871B86DD861B
:10417000CC868E878091AB019091AC01988B8F8714
:10418000CE0109960E94231788E0F801A5EAB1E064
:1041900001900D928A95E1F70E94FA1EFF24F39494
:1041A00026CFC8010E942317F9CF832D807F09F401
:1041B00052CF9090A5018090A6014091A801509106
:1041C000A901682D892D0E94BB0581111CC0F80131
:1041D0008181881118C08081891115C02091AB019F
:1041E0003091AC01868197812817390761F4E1107D
:1041F0000AC03582C8010E94231788E0D5011D92AC
:104200008A95E9F7F4CEC8010E94E710882349F2A5
:10421000EE2039F28091AA01803208F4B5CF2091C6
:10422000A5013091A6013A8329831B82DD82CC82CD
:104230008E838091AB019091AC0198878F83CE01E2
:104240000196A0CF85EA91E00E941E1180917B0328
:1042500090917C038816990680F6FE2CEE2009F4D6
:10426000A0CFE090A501D090A6014091A801509167
:10427000A9016D2D8E2D0E94BB05811128C0F8016A
:1042800081818D1124C080818E1121C02091AB01CC
:104290003091AC018681978128173907C1F480914C
:1042A000800382FD49CF9091AA0190FD45CF907F78
:1042B00009F442CF8091AA018583903F09F439CF58
:1042C000982F907F905F8F70892B858332CFC801A4
:1042D0000E94E710811158CF8091AA0181608093DC
:1042E000AA01C8010E94231782CEEE2009F459CFFB
:1042F000C8010E94E710F82E882309F452CF88E005
:10430000F801A5EAB1E001900D928A95E1F780915C
:10431000A5019091A6010E94DB100E94FA1E67CEB3
:10432000CF93DF93CDB7DEB760970FB6F894DEBFBB
:104330000FBECDBF29873A874B875C876D877E8705
:104340008F87988BCE0109960E94681F81112FC01C
:1043500088E0FE013996DE01119601900D928A9552
:10436000E1F74C855D856A8589850E94BB058111D1
:104370001EC0A091AD01B0E0CD01019687709927D4
:104380002091EE012817190609F193E0AA0FBB1F2F
:104390009A95E1F7A255BE4F98E0FE013196019043
:1043A0000D929A95E1F78093AD010E94210B8091C7
:1043B000EE019091AD01891317C060960FB6F89485
:1043C000DEBF0FBECDBFDF91CF9108950E94DA13FB
:1043D0001092AD011092EE0188E0E5EAF1E0DF0114
:1043E0001D928A95E9F7E3CFB8E08B9FC0011124B5
:1043F00082559E4F0E94681F8823F9F28091EE013A
:1044000090E00196877099278093EE01D0CFEF92CC
:10441000FF920F931F93CF93DF938091BE02882367
:1044200061F0C091BD028CE0F82E8091BE02C817E9
:1044300058F01092BE021092BD02DF91CF911F91F1
:104440000F91FF90EF900895EE24E394EC0EE0922C
:10445000BD020C2F10E0CF9DE0011124C154DD4FAF
:104460004B815C81698188810E94BB0581111BC0E1
:104470008E819F81892B21F488859985019651F43D
:10448000288139814A815B816C817D818E819F8108
:104490000E949021F09EF001F19EF00D1124E15454
:1044A000FD4F14821382CE2DC0CF10926203109262
:1044B000610310921B018091600380935F030E944F
:1044C000F4050C9407223F924F925F926F927F9275
:1044D0008F929F92AF92BF92CF92DF92EF92FF9214
:1044E0000F931F93CF93DF93C0915F0397E0892EC3
:1044F00001E010E02CE0322E3EEF932E4424439452
:10450000809160038C1315C00E940722DF91CF9128
:104510001F910F91FF90EF90DF90CF90BF90AF90E1
:104520009F908F907F906F905F904F903F900C94F2
:10453000F405D0E0FE01EE0FFF1FE95AFC4F808129
:104540009181889ED001899EB00D1124A15EBC4F3F
:1045500014962C911497211157C05090BE02EFEB86
:10456000F2E030E020E0712C5D01251508F04AC032
:10457000E284F384D501CD90DC906FEF7FEF612C66
:10458000462D50E0DA01AA0FBB1FAC0DBD1D0D90EA
:10459000BC91A02D109731F0EA16FB0609F4BA0180
:1045A0006394EECF6F3F7607A1F1D80102C0AA0F46
:1045B000BB1F6A95E2F77A2AB80102C0660F771F1F
:1045C0006A94E2F7AB014150510974161506F9F4EB
:1045D000329EF001339EF00D1124E154FD4F889E70
:1045E000D001899EB00D1124A15EBC4F12962D9171
:1045F0003C9113973783268390829182918780879D
:1046000015964C920E94C6052196C37079CF1482EC
:1046100013822F5F3F4F3C96A8CF4F925F926F92CD
:104620007F928F929F92AF92BF92CF92DF92EF9242
:10463000FF920F931F93CF93DF93CDB7DEB72897E9
:104640000FB6F894DEBF0FBECDBF8E010F5F1F4FB8
:1046500088E0F80111928A95E9F796E5E92E91E054
:10466000F92E68012AE5422E21E0522E6624639439
:10467000712C46E6842E41E0942EF70181917F0152
:104680008F3F09F445C0F894E82FE295EF70F0E011
:1046900021A18F70A30102C0440F551F8A95E2F734
:1046A000CA01922F982B91A392A18095892382A36E
:1046B000789400C0EAE5F1E021E030E0B12CA12CD3
:1046C00041914F3F09F476C0A42FA295AF70B0E09E
:1046D00090968C9190E04F7002C0959587954A9581
:1046E000E2F780FD67C0C901A82AB92A220F331F4B
:1046F0008E169F0629F7F701319780818F3F11F0C1
:104700000E94DF0750EA5A95F1F7F601B182A082C4
:10471000F2E0CF0ED11C4E145F0409F0AECF48E09A
:1047200050E0B80184E092E00E94D630DD24D394BA
:10473000009709F4D12C892B09F43FC088E0F801D7
:10474000A4E0B2E001900D928A95E1F781E08093B8
:10475000F9010E9477059093F8018093F701809109
:10476000F7019091F8010E946805059750F180913A
:1047700004029091050290931C0280931B02809189
:1047800006029091070290931E0280931D02809171
:104790000802909109029093200280931F02809159
:1047A0000A0290910B0290932202809321021092B0
:1047B000F90107C090E080E097CF8091F901811165
:1047C000CECF809100019091010110E006E10196A9
:1047D00009F06DC080911B01811173C080917E032F
:1047E00080FF1EC080911A0182FF1AC00E947705C7
:1047F0002091B7023091B802AC01421B530B2091BB
:104800001801309119014217530750F02AEF31E097
:1048100041E0BC018091B9029091BA020E94AE0EB3
:104820008D2D28960FB6F894DEBF0FBECDBFDF9159
:10483000CF911F910F91FF90EF90DF90CF90BF909D
:10484000AF909F908F907F906F905F904F90089562
:10485000089FF001099FF00D1124E657FC4FE288F4
:10486000F388E114F10421F4E0907B03F0907C03E1
:10487000089FF001099FF00D1124E657FC4F868137
:104880008823A1F0858596850E946805E816F906BB
:1048900068F4109F70011124C70186579C4F0E9435
:1048A000960AC70180579C4F0E94510A1F5F812FB3
:1048B00090E020910001309101012817390744F65A
:1048C00089CF8091610390916203009709F486CFAC
:1048D0000E9468052091BB023091BC02281739075D
:1048E00008F07CCF90915F0380916003981759F096
:1048F0000E9463221092BC021092BB0210926203CB
:10490000109261036BCF0E940722109262031092F3
:1049100061030E94F40562CF2F923F924F925F9203
:104920006F927F928F929F92AF92BF92CF92DF92BF
:10493000EF92FF920F931F93CF93DF93CDB7DEB724
:1049400069970FB6F894DEBF0FBECDBF942F498B89
:10495000252F5A8B6B8B7C8B8D8B4C895D89622FBD
:10496000892F0E94BB05811109C08091910190910E
:104970009201019690939201809391018B8981110C
:10498000109261041D861E861F86188A85E0FE012E
:104990007196DE01199601900D928A95E1F780914A
:1049A000030282FD1EC08091650390916603892BEE
:1049B000C1F00E9477052091F0013091F101821B36
:1049C000930B20916503309166038217930720F0C3
:1049D0008091F20182FFF5C10E94FB0981110E94C2
:1049E000C1094C855D856A8589850E94BB05811159
:1049F00011C061E0CE0109960E941E116C018B85E9
:104A000027EFC2162CE5D20681F4882321F181E03C
:104A100080931B0129853A854B855C856D857E8554
:104A20008F8598890E949021C5C038EFC3163CE558
:104A3000D30629F4882379F00E945522EBCF49EF61
:104A4000C4164CE5D40639F4882329F080911B0163
:104A50008111F2CFDCCF0FE113E0512CB12CA12C4E
:104A600022242394312C2EEF422EF80140815181D3
:104A700088248A94982C20E0822F90E0FC01EE0F8D
:104A8000FF1FE40FF51F608171816115710531F021
:104A9000C616D70609F44C012F5FEECFF12CFFEFBD
:104AA0008F169F0609F448C0F8014481F0901B015D
:104AB0008F2D411180E0F82FF170FF2EF801E58075
:104AC00086819B85992309F40CC1FF2009F409C153
:104AD0006090790370907A03E11012C0A10101C0C7
:104AE000440F8A94EAF7842B86838091BB029091CD
:104AF000BC028615970520F47092BC026092BB023E
:104B0000C10102C0880F991F2A95E2F70197F801A9
:104B100026812817190681F4809161039091620320
:104B2000009709F460C00E9468056816790608F0CD
:104B30005AC021E0F80124835F28FFEFAF1ABF0AB3
:104B4000095F1F4F28E0A216B10409F08ECF8B85B4
:104B5000882309F421C1552009F41EC10E9477055C
:104B600090936203809361038091BE02883010F5B8
:104B700091E0980F9093BE0298E0FE013996DE0115
:104B8000119601900D929A95E1F73CE0839FC00148
:104B9000112481549D4F28E0FE013196DC010190E3
:104BA0000D922A95E1F72FEF3FEFFC013187208727
:104BB000D386C28669960FB6F894DEBF0FBECDBF0E
:104BC000DF91CF911F910F91FF90EF90DF90CF90E9
:104BD000BF90AF909F908F907F906F905F904F901D
:104BE0003F902F90089580915F0350916003982F1C
:104BF000F0E0E0E0851314C090935F03E017F10745
:104C000009F49ACF90E0FC01EE0FFF1FE95AFC4F28
:104C1000B182A082019683709927809360038CCF24
:104C2000682E712CF301EE0FFF1FE95AFC4F208113
:104C3000318147E0429FD001439FB00D1124A15E16
:104C4000BC4F6D917C911197798F688F40E020E087
:104C500030E0E32FF0E0EE0FFF1F688D798DE60F57
:104C6000F71F8080918081149104E1F0F801019098
:104C7000F081E02DFF8BEE8B20E005C086169706B5
:104C800009F44F2D2F5FE22FF0E0EE0FFF1F6E892A
:104C90007F89E60FF71F608171816115710571F7DA
:104CA0003F5FD7CF4423D1F0F801231708F0FD016F
:104CB00021E024830E171F0721F490935F03F42E45
:104CC0003BCF981305C0AE17BF0711F49F5F9370D9
:104CD00093012F5F3F4F822F83708CCFF0E0E0E095
:104CE000F7CF90E0E1101FC0B10102C0660F771F3F
:104CF0002A95E2F79B01215031098217930731F47D
:104D0000442309F447C0C5010E94C605C10101C082
:104D1000880F8A94EAF7982F9095F8018681892365
:104D20008683FE2C09CF9C01082C02C0359527955F
:104D30000A94E2F7A90141705527BC01615071093D
:104D400086239723892B11F5452B01F1F8018281E8
:104D50009381892BC1F01B821C821D821E82498295
:104D60004A820E9477058160582F9D838C83F801C9
:104D7000828193818F83988729813A814B816D81CC
:104D80007E810E949021F8011582C0CFF22FF17030
:104D9000EF2EBCCFEF2CBACF90915F0380916003D0
:104DA000981731F00E946322552009F433CE02CFC8
:104DB0000E94072210926203109261030E94F40580
:104DC000F3CF82E00E94DF0B07CECF93DF9300D0BA
:104DD00000D00F92CDB7DEB79093930280939202EA
:104DE000811520E2920748F40F900F900F900F90DA
:104DF0000F90DF91CF910C94C60C8EEF89838A833C
:104E00001B820E9477058160782F9D838C83498166
:104E10005A816B818D810F900F900F900F900F90A2
:104E2000DF91CF910C948C240F931F93CF93DF933A
:104E30008C01EB0168E372E08C2F0E941713892B21
:104E4000A1F480918103909182030E945E0DDD2781
:104E5000C05DDD4F8881F80110821882833009F12E
:104E600048F4813059F0823081F0DF91CF911F9169
:104E70000F9108958430D1F08530B9F780913802D0
:104E800090913902009789F306C080913A0290917F
:104E90003B02009799F3DF91CF911F910F910C94F2
:104EA000E52680913C0290913D02F3CF80913E0235
:104EB00090913F02009779F72091380230913902A2
:104EC00080913A0290913B0221153105D9F2009769
:104ED00011F7C901E0CFCF93DF9300D000D00F923C
:104EE000CDB7DEB79093930280939202811520E2B2
:104EF000920748F40F900F900F900F900F90DF9152
:104F0000CF910C94830E8EEF89838A8381E08B830B
:104F10000E9477058160782F9D838C8349815A8117
:104F20006B818D810F900F900F900F900F90DF91FC
:104F3000CF910C948C24BF92CF92DF92EF92FF928C
:104F40000F931F93CF93DF93B82EC090600480918E
:104F50005F04C82AC7E0D0E0D12CF12CE12CD701A6
:104F6000C6010C2E04C0B695A795979587950A940F
:104F7000D2F780FF1FC04B2D60E08C2F0E943810AD
:104F80008C0181309105B1F00E946B278FE39CE981
:104F90000197F1F700C00000C8010E94E52681E0FA
:104FA000DF91CF911F910F91FF90EF90DF90CF9005
:104FB000BF900895219798F64B2D60E080E00E9405
:104FC0003810EC010E946B278FE39CE90197F1F701
:104FD00000C00000CE01E1CFCF93DF93EC010E942F
:104FE0006B2780918103909182030E945E0DCE0118
:104FF000DF91CF910C94E5260F931F93CF93DF930E
:105000008C01862F68E372E00E941713892BC9F484
:10501000C0913802D0913902209799F0F80180812F
:10502000833069F4CE010E94EC27CE010E94EC2768
:10503000CE01DF91CF911F910F910C94EC2784301A
:10504000B8F7DF91CF911F910F9108950F931F93A0
:10505000CF93DF938C01EB0168E372E08C2F0E9409
:105060001713892B09F064C0FE01FF27D8018C912A
:10507000E05DFD4F8130D9F419969C9119979923E1
:1050800011F080830CC01A969C919923D1F382E091
:10509000808380913A0290913B020097D9F48091ED
:1050A000380290913902009709F442C013C082304F
:1050B000E9F519968C91199781112DC01A968C914A
:1050C00081110EC083E0808380913C0290913D026B
:1050D000009719F1DF91CF911F910F910C946B27DD
:1050E00084E0808380913E0290913F02009791F787
:1050F00080913802909139020097F9F00E94EC27D4
:1051000080913A0290913B02009721F780913802FA
:1051100090913902DFCF85E08083809138029091B1
:105120003902009729F00E94EC27F0CF86E08083B7
:10513000DF91CF911F910F91089580913A02909144
:105140003B02B1CF1F920F920FB60F9211242F93F3
:105150003F934F935F936F937F938F939F93AF93FF
:10516000BF93CF93DF93EF93FF93D091E900DF706C
:105170008091EC00C82FC17080FDC0E81092E9005A
:105180008091F000877F8093F00078940E94E5136F
:105190001092E9008091F00088608093F000CD2BA0
:1051A000CF70C093E900FF91EF91DF91CF91BF9154
:1051B000AF919F918F917F916F915F914F913F91AF
:1051C0002F910F900FBE0F901F9018951F920F9266
:1051D0000FB60F9211242F933F934F935F936F93CA
:1051E0007F938F939F93AF93BF93EF93FF938091A0
:1051F000E10082FF09C08091E20082FF05C080913A
:10520000E1008B7F8093E1008091DA0080FF24C071
:105210008091D80080FF20C08091DA008E7F80933B
:10522000DA008091D90080FF9DC080E189BD82E1D4
:1052300089BD09B400FEFDCF81E0809355048091C3
:105240004804811109C00E94C9030E9494048091FE
:10525000E20084608093E2008091E10080FF17C04B
:105260008091E20080FF13C08091E2008E7F8093E6
:10527000E2008091E20080618093E2008091D8009A
:1052800080628093D80019BC85E08093550480919A
:10529000E10084FF2BC08091E20084FF27C080E101
:1052A00089BD82E189BD89B5982F917080FFFBCFC0
:1052B0008091D8008F7D8093D8008091E1008F7E0F
:1052C0008093E1008091E2008F7E8093E2008091E4
:1052D000E20081608093E20080915604882309F403
:1052E00047C084E080935504809155048091E1008B
:1052F00083FF27C08091E20083FF23C08091E100FB
:10530000877F8093E10082E08093550410925604D9
:105310008091E1008E7F8093E1008091E2008E7F9A
:105320008093E2008091E20080618093E20042E09D
:1053300060E080E00E9462048091F00088608093C9
:10534000F000FF91EF91BF91AF919F918F917F916D
:105350006F915F914F913F912F910F900FBE0F90E2
:105360001F90189519BC109255041092480474CFE0
:105370008091E30087FD93E090935504B5CF789436
:105380001F921FB61F9211248F939F93AF93BF93C9
:105390008091410490914204A0914304B09144044F
:1053A0000196A11DB11D8093410490934204A093E6
:1053B0004304B0934404BF91AF919F918F911F908C
:1053C0001FBE1F9018951F921FB61F9211248F9316
:1053D0009F93AF93BF9380914004811113C080913C
:1053E000410490914204A0914304B0914404419639
:1053F000A11DB11D8093410490934204A0934304E6
:10540000B0934404BF91AF919F918F911F901FBEA5
:105410001F901895CDB7DEB7E4970FB6F894DEBFAE
:105420000FBECDBF84B7877F84BF0FB6F894A89511
:1054300080916000886180936000109260000FBED0
:1054400080E890E00FB6F89480936100909361003B
:105450000FBE85B7806885BF85B7806885BF8DED35
:1054600097E090938701809386010E942B130E94FE
:1054700081130E9412100E94C9030E94940480911B
:10548000E20084608093E200789480915504882340
:10549000A1F01091E9001F709091EC00892F8170AC
:1054A00090FD80E8182B1092E9008091E80083FDC0
:1054B0000E94E5131F701093E90082E084BD93E021
:1054C00095BD9AEF97BD80936E000E942C118111BB
:1054D00002C00E94081386EF0E94DF0787EF0E9438
:1054E000DF0781E30E94DF0783E30E94DF070AE50D
:1054F00011E0A6E6EA2EA1E0FA2ED8018D918D01E9
:105500008F3F11F00E94DF07E016F106B1F788E047
:10551000EBE1F2E0DF01282F1D922A95E9F7E4E0A4
:10552000F2E0DF011D928A95E9F790E080E00E94A9
:105530000B318A3E9E4F21F40E942C11811102C032
:105540000E94B91682E090E00E940331809310021D
:105550000E94451190930302809302020E940D2342
:10556000EFEFF6E721E0E150F0402040E1F700C026
:1055700000000E940D2380911B0280FF08C06FEF86
:105580007FEF90E080E00E942F310E94570583E07A
:1055900090E00E9403310E941C0C84988C9A85989C
:1055A0008D9A8FB1829581707D9957C190E0892B3A
:1055B00080930E0282E091E090933D0480933C043E
:1055C00078E1672E712CE0E43E2EF3E2CF2EF2E07C
:1055D000DF2E8E010F5F1F4F8091550450E1E52EA5
:1055E00062E1F62E853009F46FC10E940D238823F5
:1055F00059F08FB7F8944091410450914204609162
:105600004304709144048FBFABE1B2E0E1E1F2E00A
:10561000F12CE12C7E2D8D919D91219131912817B6
:10562000390709F461C12827392760E0AA24A39427
:10563000B12CA50142235323452B09F44FC16BA77D
:105640007CA795012823392391E0232B09F490E0CE
:105650009DA70E9477058160782F9FA78EA74BA5F5
:105660005CA56DA58FA50E948C24F701EE0FFF1F8E
:10567000EF5EFD4F80819181A826B926B182A0827C
:10568000E0910E02EE0FEE0FE0930E028FB184FB5D
:10569000442440F87D9941C180E08429E82BE093BF
:1056A0000E02EF70F0E0EA59FE4F808190910D02FA
:1056B000890F80930D0220E084304CF080910C0221
:1056C0008F5F80930C0280E00E949B2721E08091F5
:1056D0000D028D3F4CF480910C02815080930C029E
:1056E00081E00E949B2721E080910D02082E000C92
:1056F000990B64E070E00E94AC3080930D0222238D
:1057000059F08FB7F8944091410450914204609150
:105710004304709144048FBF86E0EAE2F2E0D801CE
:1057200001900D928A95E1F7A0902C02B0902D0285
:10573000E0902E02F0902F0210922C0210922D0277
:1057400010922E0210922F028A2D8B2991F08091B7
:105750002802909129020E946805AC0190912402D0
:10576000992309F4DDC0809116018417150608F409
:10577000E5C08E2D8F2991F080912602909127020D
:105780000E946805AC0190912302992309F415C188
:10579000809112018417150608F41DC180912C0216
:1057A00090912D02892B90912E02892B90912F029E
:1057B000892B11F00E94330686E0F801AAE2B2E0DC
:1057C00001900D928A95E1F70E94AF0590910F022A
:1057D000891721F00E94AF0580930F028091550434
:1057E000843009F0F9CE83E08093E9008091E800ED
:1057F00082FFF2CE8091E80090E085FF0AC00E940F
:10580000E80350E2E52EF12C5801882309F42CC15D
:1058100091E08091E8008B778093E800992309F468
:10582000DBCEE0909402F09095028981E114F104BE
:1058300009F428C18E3F09F070C18A81833020F0BD
:105840008550833008F069C1EA81EE3008F065C107
:10585000F0E0ED58FE4C0C94C03092E0A8CE809160
:105860005504843009F1109240040FB6F894A895BD
:10587000609260000FBE3092600083B7817F8460C9
:1058800083BF83B7816083BF7894889583B78E7F09
:1058900083BF0FB6F894A8958091600088618093CB
:1058A0006000109260000FBE80915404882361F064
:1058B0000E940D23EBE1F2E081919191892B09F097
:1058C000E0C3CE16DF06C1F780915504853009F498
:1058D000C6CF0E94DA130E94AF0587CE6F5FAA0C75
:1058E000BB1C6C3009F0A5CE3FEFE31AF30A44E08D
:1058F000E416F10409F08ECE8FEF88AB89AB1AAABB
:105900000E9477058160782F9CAB8BAB48A959A981
:105910006AA98CA90E948C24B3CE82E090E0BDCE0F
:10592000209117018AE0289F900111242417350740
:1059300008F01FCF9F5F9093240202C09F3FD1F7D2
:10594000AA2059F00E9416079FEF1A140CF491E058
:10595000899F802D112480932C02BB2059F00E9436
:1059600016079FEF1B140CF491E0899F802D1124E2
:1059700080932D0230912C02332309F4FACE20912A
:105980002D02222309F4F5CE45EB3403C001112486
:10599000992359F090932C0245EB24039001112494
:1059A000332339F030932D02E4CE81E080932C0232
:1059B000F3CF81E080932D02DCCE209113018AE0A9
:1059C000289F900111242417350708F0E7CE9F5F28
:1059D0009093230202C09F3FD1F7EE2059F00E941E
:1059E000DD069FEF1E140CF491E0899F802D112499
:1059F00080932E02FF2059F00E94DD069FEF1F14B6
:105A00000CF491E0899F802D112480932F02309116
:105A10002E02332309F4C2CE20912F02222309F44F
:105A2000BDCE45EB3403C0011124992359F0909366
:105A30002E0245EB240390011124332339F03093D7
:105A40002F02ACCE81E080932E02F3CF81E08093D1
:105A50002F02A4CE8091F100D5018D935D01B1E0BC
:105A6000EB1AF10809F4D4CE8091E80085FDF2CF5D
:105A70008091E8008B778093E8000E94E8038823F8
:105A800099F3C6CE8D3009F4C4C0B0F4843009F463
:105A9000A7C040F4823041F108F093C0813001F199
:105AA0008FEF1BC3863009F4B1C008F4A4C08C305A
:105AB000B9F780E18A8331C0813109F406C140F42D
:105AC0008F3009F4D4C008F4A8C00E94B11125C0D9
:105AD000833109F425C108F4FAC08E3F09F7B4CE2A
