:100000000C9480030C949D030C949D030C949D030D
:100010000C949D030C949D030C949D030C949D03E0
:100020000C949D030C949D030C94F0270C94AC2726
:100030000C94ED280C949D030C949D030C949D034B
:100040000C949D030C949D030C949D030C949D03B0
:100050000C949D030C94C9280C949D030C949D034F
:100060000C949D030C949D030C949D030C949D0390
:100070000C949D030C949D030C949D030C949D0380
:100080000C949D030C949D030C949D030C949D0370
:100090000C949D030C949D030C949D030C949D0360
:1000A0000C949D030C949D030C949D03050109027F
:1000B000A10185020901A100050919012905150001
:1000C00025019505750181029501750381010501E1
:1000D000093009311581257F950275088106093897
:1000E0001581257F950175088106050C0A380215D2
:1000F00081257F950175088106C0C005010980A191
:1001000001850319012AB700150126B7009501756D
:10011000108100C0050C0901A101850419012AA064
:1001200002150126A002950175108100C00660FF2E
:100130000961A1010962150026FF0095207508815B
:10014000020963150026FF00952075089102C0057D
:10015000010906A101050719E029E7150025019508
:1001600008750181029501750881010507190029AB
:10017000FF150026FF009506750881000508190186
:100180002905950575019102950175039101C0003E
:10019000000000000000000000000000000000005F
:1001A000000000000000000000000000000000004F
:1001B0000000007E0F00D4FFFFFFC70000007800A2
:1001C000000000000000002A2B28000000000000B2
:1001D0000000000000000000000029000000002CCA
:1001E0001E3420212224342627252E362D37382769
:1001F0001E1F202122232425263333362E37381F75
:100200000405060708090A0B0C0D0E0F1011121336
:100210001415161718191A1B1C1D2F3130232D35D4
:100220000405060708090A0B0C0D0E0F1011121316
:100230001415161718191A1B1C1D2F3130354CFDBB
:10024000377A585A000004E6D6B446020021011657
:10025000000000742FE5A3E004D5019E5D003D88F9
:1002600089C65436C3174FE4EE6FBEB64C488D971F
:10027000388D6686DFB98088C0AF5F7259F7366007
:1002800043FACBFD0F79049EC154374B0B8DBB7ADB
:1002900020CA8BB30DB761B91C878D2FD16F5790D2
:1002A00098BEB8A6BEC163653FF05577465A18F1AF
:1002B0001E0C0B9779E364B0A16549CBB938511690
:1002C000B2571A98FA88973A9E8EEB405518867462
:1002D00044335C4B56813B7DB06E663AA893D7336E
:1002E000B1B684595E509B4C72B916C3CCB75FD877
:1002F0001BCFEE7A80F914D1244A894AB0F25D4CC2
:10030000B83D84D542CC86B4381EBE96B5914B40DC
:1003100090FBDFD2A802535DE38F4E116DCAE64514
:100320009A20F4CB6079429DDB1DE5E1A29EC18E4F
:100330004B782D0F5ACDECBBFF3AEDBB2B1B05CEF6
:1003400037BA6550CE81F6A75B2F7A23E53094DE6D
:10035000C81BDAC56F2EC3C0167A24ADCB0702BC0A
:100360002D65DE407878AA915EF408EA66A57932B8
:10037000B65E74A1364878D50F58BB9B5A9C02C113
:10038000A098654DF1D31EF2E1B00B90E62083B149
:10039000E5BFBB91A3B98BA2371037A805FE577BE9
:1003A000CFFDCEB03F7F8343DC2A1E99A8CA52A45A
:1003B0008AFA2F57D1474A9DB71F781E1A08FFA106
:1003C00062E5942BFAC1B486E8586EC49D50E21FD2
:1003D000312CD16BC51D5C029268A9C716D2EB8285
:1003E0005DEDEE867B90378099B284BDF98DB33593
:1003F0009D6E1527E2ADEBE963F7A000000000A1B8
:10040000795A29B111949E0001BA03D6090000D48B
:10041000434A33B1C467FB020000000004595AA9E3
:1004200000AA000100010001000100010001002BF1
:100430000014001A000800150017001C0018000C1A
:1004400000120013002A00025104001600070009E0
:10045000000A000B000D000E000F0034002800E120
:10046000001D001B0006001900050005001100100A
:100470000036003700E100E0000353E20000000115
:1004800051000000002C000000E00050004F00016F
:10049000001E001F00200021002200230024002550
:1004A00000260027000100010001000100010001F9
:1004B0000001000100010001000100010001000134
:1004C0000001000100010001000100010001000124
:1004D00000010001005200010001000100000001C4
:1004E0000000000000010000000100010001000107
:1004F000003A003B003C003D003E003F0040004110
:10050000004200AA00A90001000100010001000151
:1005100000010001000100010001000100010001D3
:1005200000010001000100010001000100010001C3
:1005300000010001000100010001000100000001B4
:1005400000000000000100000001000100010001A6
:100550000014001A000800150017001C0018000CF9
:1005600000120013002A0001000100010001000137
:100570000001000100010001000100010001000173
:100580000001000100010001000100010001000163
:100590000001000100010001000100010000002C29
:1005A0000000000000010000000100010001000146
:1005B00000010072030000020002006E030000034D
:1005C0000001007303000004000200580300060548
:1005D00000010074030000060002005A0300000737
:1005E000000200700300000800010075030000090C
:1005F0000002005C03DB050A0002005E03DB050B62
:100600000002006003DB050C0002006203DB050D45
:100610000002006403DB050E0002006603DB050F29
:100620000002006803DB05100002006A03DB05110D
:100630000002006C03DB05120002007603000013C9
:100640000002007803000009025B00030100A0FA29
:100650000904000001030101000921110100012228
:10066000400007058103080001090401000203009E
:100670000000092111010001222200070582032048
:100680000001070503032000010904020001030023
:1006900000000921110100012281000705840320C7
:1006A00000011201000200000008EDFE803101008F
:1006B000010203011C037600690061006C003A002E
:1006C00066003600340063003200620033006300CD
:1006D0000000100341006C006900730068003400E2
:1006E00030000000160352006500650064007300CE
:1006F0004B006500650062007300000004030904FC
:1007000011241FBECFEFDAE0DEBFCDBF11E0A0E0C5
:10071000B1E0E2E6F1E602C005900D92A637B1071E
:10072000D9F724E0A6E7B1E001C01D92A635B207D3
:10073000E1F70E9414290C948B300C940000E8ED32
:10074000F0E080818E7F80831092E2001092DA00C8
:100750001092E100A0EEB0E08C9181608C938081DA
:100760008F77808319BCA7EDB0E08C918E7F8C933E
:1007700080818F7E808310923D0408952091E40053
:100780003091E50095E6A9012091EC00822F81705F
:1007900020FF06C08091E80080FF06C080E0089539
:1007A0002091E80022FD1AC080914A04882389F034
:1007B000853089F08091EB0085FD0FC02091E40029
:1007C0003091E50042175307F9F29150E1F684E0C9
:1007D000089582E0089583E0089581E00895EF92FE
:1007E000FF920F931F93CF937C018B010E94BE0356
:1007F000C82F811117C08091E80085FD0BC0809142
:10080000E8008E778093E8000E94BE03882399F366
:10081000C82F08C0F70181917F018093F10001503A
:10082000110949F78C2FCF911F910F91FF90EF90F5
:10083000089580914C0487FF13C08091E80082FFE7
:1008400006C08091E8008B778093E80004C0809117
:100850004A048111F2CF089580914A048823D9F384
:100860008091E80080FFF8CF8091E8008E77ECCF90
:10087000982F9093E900242F762F50E0891731F0BC
:100880007091EC002091ED005091F00021FD07C027
:100890009F5F973071F78093E90081E00895309170
:1008A000EB003E7F3093EB003091ED003D7F3093C5
:1008B000ED003091EB0031603093EB007093EC0071
:1008C0002093ED005093F0002091EE0027FDE0CF43
:1008D00080E00895CF92DF92EF92FF920F931F93E3
:1008E000CF93DF93C8EDD0E088818F7E8883E7EDDA
:1008F000F0E080818160808384E082BF81E080932A
:100900003D0488818E7F888302EE10E0F80110821A
:100910001092DA0081EEC82ED12CF6011082888167
:100920008F77888388818068888388818F7D88839A
:1009300019BC10924A0410924B0410924904109270
:10094000480490EEE92EF12CF70180818B7F8083A3
:1009500088818160888342E060E080E00E94380402
:10096000F60180818E7F8083F801808181608083A1
:10097000808188608083F70180818E7F8083888179
:1009800080618883DF91CF911F910F91FF90EF904D
:10099000DF90CF900895FC01809152049091530410
:1009A00086179707A0F06115710529F49091E8006A
:1009B0009E779093E80090E06115710551F49111D4
:1009C00008C08091E80082FF34C080E00895BC0137
:1009D000F2CF80914A048823C1F18530C1F1809122
:1009E000E80083FD30C08091E80082FDEACF80916D
:1009F000E80080FFE1CF8091F3002091F200382FD2
:100A00006115710519F02830310558F091E0283052
:100A1000310509F090E02091E8002E772093E8005E
:100A2000CBCF81918093F100615071092F5F3F4FCF
:100A3000E7CF80914A04882341F0853041F08091CE
:100A4000E80083FFBECF81E0089582E0089583E04F
:100A50000895089580913F04089587E797E790935C
:100A600001088093000888E19AE00FB6F894A895F1
:100A7000809360000FBE90936000FFCF9C014FB742
:100A8000F8948091360490913704A0913804B09185
:100A900039044FBF821B930B08952FB7F8948091B0
:100AA000360490913704A0913804B09139042FBFD7
:100AB000089520913304309134042817390771F0D8
:100AC0009093340480933304E0913104F091320424
:100AD000309721F00084F185E02D0994089520914C
:100AE0002F04309130042817390771F090933004A7
:100AF00080932F04E0913104F0913204309721F07B
:100B00000680F781E02D09940895E0913104F09179
:100B10003204309721F00190F081E02D099480E0BB
:100B20000895452B39F0682381E06F3F09F080E09C
:100B30008170089581E0FCCFDC01609154038091C5
:100B40005503962F891301C00895292F30E0F9012C
:100B5000EE0FFF1FE45BFC4F408151814A175B079A
:100B6000A1F487E08A9FA0018B9F500D11244C5E59
:100B70005C4F81E0FA0184839613E6CF2F5F3F4FED
:100B8000237033272093540308952F5F3F4F922FF4
:100B90009370D8CF1092B1021092B002E4E1F3E06A
:100BA0008581811102C014821682379683E0EC346D
:100BB000F807B1F70895E8E5F3E0848195812AE02C
:100BC00030E0B9010E94D62F60931701868180938F
:100BD0001601828580931501848580931401868592
:100BE0009785B9010E94D62F609313018089809365
:100BF00012018289809311018489809310010895E4
:100C00008091580390915903909319018093180192
:100C100008950E944D059C0190912102809122022D
:100C2000982B21F030931E0220931D0290912302F5
:100C300080912402982B21F030931C0220931B02F8
:100C4000E0913104F0913204309749F082E08093D2
:100C50001F020480F581E02D8FE192E00994089550
:100C600090912102803F59F48091220287FF0DC0AC
:100C70001092220291110BC01092190208C0813FFC
:100C800081F48091220218169CF3992381F08091BF
:100C9000230290912402892B09F064C0109218025B
:100CA0000895823F49F497FFF0CF1092210280917E
:100CB00022028111ECCFE0CF833F19F41916ACF377
:100CC000E4CF20912302893F29F41216F4F6109202
:100CD0002302DBCF8A3F19F427FFD7CFF8CF20912B
:100CE00024028B3F29F427FFD0CF10922402CDCFCE
:100CF0008C3F19F41216CCF3C8CF843F31F48091A5
:100D000020028E7F80932002C0CF853F21F4809106
:100D100020028D7FF7CF863F21F4809120028B7FC8
:100D2000F1CF873F21F480912002877FEBCF883F6E
:100D300021F4809120028F7EE5CF8D3F31F48091A8
:100D40001A028E7F80931A02A0CF8E3F21F48091E9
:100D50001A028D7FF7CF8F3F09F097CF80911A024B
:100D60008B7FF0CF089580911A0280FF0CC06091B4
:100D7000110170E075956795759567956115710519
:100D800049F1862F089581FF06C06091110170E03E
:100D900075956795F3CF6091110182FD0BC090911D
:100DA00018029923A1F0609110018091110196170A
:100DB00038F0682F70E06038710500F38FE7089510
:100DC000899FC001112470E00E94EA2FF4CF61E0F6
:100DD00070E0D7CF81E0089580911A02609160039E
:100DE0007091610380FF16C020911501269FC001FC
:100DF000279F900D1124BC01769567957695679590
:100E00006038710508F043C06115710509F441C0EF
:100E1000862F089581FF0BC020911501269FC001E8
:100E2000279F900D1124BC0176956795E9CF82FF2D
:100E300009C0809115019B01829FB001839F700DB5
:100E40001124DECF209119022223D1F290911401B6
:100E500080911501482F50E0291748F0CB01849F5D
:100E6000B001859F700D949F700D1124C9CF289FEC
:100E700090011124269FA001279F500D369F500DF1
:100E80001124692F70E0CA010E94D62FB9CF8FE7D5
:100E9000089581E00895803F31F40E94EC06819529
:100EA000809322020895813F19F40E94EC06F8CF46
:100EB000823F31F40E94EC068195809321020895CF
:100EC000833F19F40E94EC06F8CF893F29F40E9471
:100ED000B3068093230208958A3F21F40E94B3064B
:100EE0008195F7CF8B3F31F40E94B30681958093B3
:100EF000240208958C3F19F40E94B306F8CF843F72
:100F000031F4809120028160809320020895853F12
:100F100021F4809120028260F7CF863F21F48091F6
:100F200020028460F1CF873F21F480912002886005
:100F3000EBCF883F21F4809120028061E5CF8D3F87
:100F400031F480911A02816080931A0208958E3FD5
:100F500021F480911A028260F7CF8F3FB9F7809118
:100F60001A028460F1CF80E00895F894E82FE295AA
:100F7000EF70F0E031A1282F2F7081E090E001C0E8
:100F8000880F2A95EAF7982F9095932391A392A121
:100F9000892B82A3789408959091FA0192FF06C05C
:100FA000282F28712830F9F4877F846093FF06C0CA
:100FB000282F28712831F1F4877E84612091FB016C
:100FC00020FF06C0382F38713830D9F4877F816010
:100FD00021FF06C0282F28712831D1F4877E816136
:100FE00094FD877E0895282F24712430F9F68B7F95
:100FF0008860DCCF282F2471243101F78B7E886133
:10100000DDCF382F3171313019F78E7F8860E0CF16
:10101000282F2171213121F78E7E8861E1CFCF9376
:10102000DF93EC0182389105A9F1D8F58133910560
:1010300009F496C048F58932910509F48AC08A9767
:1010400009F495C0C11521E5D20708F0BCC0C1154F
:1010500030E5D30708F014C1C83ED10508F09CC0A4
:10106000C03ED10560F5C83AD10508F087C0C53A41
:10107000D10508F0FDC0C130D10509F12097F9F084
:10108000C430D105E0F440C08533910509F45AC05D
:10109000C997C1F68091FA01837089F0C0EED0E063
:1010A0000EC0833E910599F170F4803E910501F1E7
:1010B000823E910539F68091FA0182FD21C0CE0170
:1010C000DF91CF910895863E910561F1873E9105AC
:1010D00071F1843E910509F0B5CF8091FB0181FF4C
:1010E000EECF8091FA01C7EED0E084FD0DC0E7CFCE
:1010F0008091FA0180FD12C19091FB0190FFDFCF3A
:10110000C3EED0E084FFDBCFD0E0C0E0D8CF809149
:10111000FA0182FD06C19091FB0190FDBFCF84FFD3
:10112000CECFF2CF8091FA0183FDDDCFC8CF809181
:10113000FA0183FDF9C09091FB0191FFF0CFC4EE5D
:10114000D0E0BDCF8091FA0185FFB9CFC9E2D0E0F0
:10115000B6CF8091FA0185FFB2CFC5E3D0E0AFCF23
:101160008091FA0186FFABCFCAE2D0E0A8CF809190
:10117000FA0186FFA4CFC1E3D0E0A1CFCF3BD105D8
:1011800018F6C85AD0E0CC0FDD1FC85DDE4F0990BD
:10119000D881C02DD46493CFC11540E2D40758F450
:1011A000C11581E0D80708F08ACFC03FD10508F407
:1011B000ABCFD06584CFC11590E4D90708F4A4CF94
:1011C000DF70D06A7CCFC11525E5D20700F5C115C7
:1011D00034E5D30708F08AC0C11543E5D40708F009
:1011E00071C0C11582E5D80708F467C0CE018370CD
:1011F000992721E030E002C0220F331F8A95E2F7E1
:10120000C695C69580E2C89FE001112452C0C11561
:1012100099E5D907A8F4C11528E5D20708F06BC0F5
:10122000C11536E5D30708F06FCF8C2F0E94CC078D
:10123000C82FD0E0DC2FCC27CC27DF71D0623FCF86
:10124000C1154AE5D40708F45BC0CE01905681155C
:10125000904208F059CF8D2F8F710E94CC0790E0FB
:10126000982F882788279F719C012C2BE901E6CFB6
:10127000C55AD0E0CB5DDE4FC881D0E0D0641FCF2F
:10128000CE01E4E096958795EA95E1F783702C2FDF
:1012900026952695237040E2249F90011124382B37
:1012A0008C2F8370C1E0D0E002C0CC0FDD1F8A9587
:1012B000E2F7C22BD32BDC6802CFDC2FCC27C16F27
:1012C000D06AFDCECE018370992721E030E002C0C4
:1012D000220F331F8A95E2F7C695C69590E2C99F03
:1012E000E0011124C22BD32BDA68E9CEDC2FCC2706
:1012F000C46FD06AE4CEDC2FCC27C06FD06ADFCEBB
:101300008C2F8F700E94CC0734E0D695C7953A9504
:10131000E1F7CF709C2FEC01D069D1CEC9E3D0E0CA
:10132000CECEC2EED0E0CBCEC6EED0E0C8CE80911D
:10133000ED01882331F01092ED011092EC01109232
:10134000EB010895CF93C82F8091FB0182FD0CC063
:101350008091ED018C1741F00E944D059093EC01B6
:101360008093EB01C093ED01CF910895809590910A
:1013700055049823909355040895809590918B027D
:10138000982390938B02089590918B02892B8093E0
:101390008B0208951092E2011092E1011092E00197
:1013A000089580915A0390915B03892B89F00E94E4
:1013B0004D052091EB013091EC01AC01421B530B28
:1013C00081E020915A0330915B034217530708F4E0
:1013D00080E0817008958091DF0181111092DF011A
:1013E0000895EAE7F1E09191891303C0DF011197B5
:1013F0001C9291E0E038F907B1F70895AAE7B1E04F
:10140000EFEF90E02D91821751F0EF3F19F4211189
:1014100001C0E92F9F5F9630A9F7EF3F09F40895C7
:101420000E2E000CFF0BE858FE4F8283089520918A
:10143000DE0190919D01291302C080E0089530E003
:10144000F90153E0EE0FFF1F5A95E1F7E256FE4F08
:101450005181561306C05081581303C05281541352
:1014600004C02F5F3F4F2770E6CF81E00895809141
:10147000DE0190919D01981301C008958F5F8770E0
:10148000FACF9E3F49F1E82F2CE0929FE00D112406
:101490009E2F9770E695E695E69583E0E89FF0012C
:1014A0001124ED57FE4F50E040E080E0219130E004
:1014B000092E02C0369527950A94E2F7217033274A
:1014C000042E01C0220F0A94EAF7822B4F5F5F4F70
:1014D0004330510559F7089580E008959E3F69F122
:1014E000E82F2CE0929FE00D11248E2F877041E0B1
:1014F00001C0440F8A95EAF7E695E695E69583E004
:10150000E89FF0011124ED57FE4F30E020E070E03D
:101510005191DF011197CB01022E02C0969587955C
:101520000A94E2F7817081958527842385278C931F
:101530002F5F3F4F2330310559F7089592959F70E3
:10154000963091F058F4925F9F70923058F4803F3B
:1015500019F030F4883E30F481E008959A5FF4CFBA
:10156000843FD1F380E00895883EB0F3813FD1F706
:10157000F3CF9C013A9521153F4150F5FC01EE2730
:10158000F170BC0166277270AC01442754709C0155
:101590002227387094FF0EC080E1EF2B09F480E021
:1015A000672B09F08062452B09F08064232B89F0BA
:1015B0008068089581E0EF2B09F480E0672B09F043
:1015C0008260452B09F08460232B19F08860089510
:1015D00080E0089580933A0470933C0460933B0448
:1015E00080914A048430F9F48093E9008FEF909160
:1015F000E800815095FD06C095ED9A95F1F7000041
:101600008111F5CF8091E80085FF0DC050E040E0EA
:1016100063E070E08AE394E00E94EF038091E800C9
:101620008E778093E8000895BC0184E00C94EA0A68
:10163000BC0183E00C94EA0A9C0184E08093E900F9
:101640009FEF8091E800915085FD06C085ED8A9559
:10165000F1F700009111F5CF8091E80085FF0CC0F3
:1016600050E040E066E070E0C9010E94EF03809125
:10167000E8008E778093E8000895CF93DF93EC0124
:1016800081E08093E9008FEF9091E800815095FD13
:1016900006C095ED9A95F1F700008111F5CF809184
:1016A000E80085FF14C050E040E068E070E0CE0143
:1016B0000E94EF038091E8008E778093E80088E035
:1016C000FE01A0E4B4E001900D928A95E1F7DF916C
:1016D000CF910895019708F40895EFE9FFE031975D
:1016E000F1F700C00000F6CF0F931F93CF93DF9365
:1016F00008E513E0C7EBD1E0CE010E944130F801CC
:1017000081938F012196C93DF1E0DF07A9F7C5EB71
:10171000D5E0FE0185919491009711F0FC010995A7
:101720002896F6E0CD34DF07A1F7DF91CF911F9126
:101730000F9108950F931F93CF93DF93843000F59B
:1017400061111EC024E0829F8001112450E0440FEB
:10175000551F040F151F09551E4FC8010E94413027
:10176000C82FD0E0DC2FCC27C80101960E94413061
:101770009E01282BC901DF91CF911F910F910895F0
:1017800090E080E0F8CF0F931F93CF93DF938430E6
:1017900030F5643020F54C3010F5C42FD0E0CC0F7C
:1017A000DD1F28E1629FC00DD11D112430E6839F0B
:1017B000C00DD11D1124CE0187960E944130082F03
:1017C00010E0102F0027CE0188960E94413098012A
:1017D000282BC901DF91CF911F910F91089590E0BF
:1017E00080E0F8CF462F2091890230918A02232B86
:1017F00091F47E3F39F46E3F71F4809187029091AD
:1018000088020895843038F4743028F46C3018F469
:10181000672F0C94C30B90E080E00895CF92DF9285
:10182000FF920F931F93CF93DF936C0100915404A9
:101830008091EE01082BC7E0D0E010E0FC2EC8013B
:101840000C2E02C0959587950A94E2F780FD0CC096
:101850002197A0F7F12C8F2DDF91CF911F910F9140
:10186000FF90DF90CF900895B6018C2F0E94F20B6D
:101870000E940F08019761F3EECFCF93DF93EC0145
:101880000E940E0CBE010E94F20BDF91CF910C94CE
:101890000F08FC0186819781009721F00E940F08B4
:1018A0000C949E0A808191810E943D0CF9CF1F9378
:1018B000CF93DF9300D000D00F92CDB7DEB749832E
:1018C0005A8389819A816623B9F02223A9F00E9464
:1018D0000E0C182F682F89819A810E946E0A6981E7
:1018E0007A81812F0F900F900F900F900F90DF91C2
:1018F000CF911F910C94F20B0E94410A182FEFCF49
:10190000FC01262F86819781009739F4408151810F
:101910006281738184810C94570C089583E290E076
:101920000E9441308B3089F484E290E00E94413083
:10193000813F59F485E290E00E94413091E08C3C77
:1019400009F090E0892F8170089580E0FCCFCF935B
:1019500084E090E00E944130C82F82E290E00E9433
:101960004130982F8C2FCF9108950F931F93CF93D1
:10197000DF9308E513E0C7EBD1E0CE010E944130D0
:10198000F80161918F01681719F0CE010E944F3064
:101990002196C93DF1E0DF0781F7DF91CF911F91DB
:1019A0000F910895E8E5F3E0128E138E8FEA90E030
:1019B0009183808385E0848F88E893E19383828399
:1019C0008AE090E09583848324E130E037832683A6
:1019D00048E050E051874087938782872EE130E0CE
:1019E000358724879787868720E530E0318B208BE9
:1019F000538B428B48E250E0558B448B42E350E0DE
:101A0000578B468B48EC50E0518F408F158E978F47
:101A1000868F31A320A30E94B50C0C94740BCF9336
:101A2000DF93C9E7D2E060E0CE010E944F302196FB
:101A3000C11584E0D807B9F7DF91CF9108950F93CE
:101A40001F93CF93DF938901843028F5611123C060
:101A5000423008F521153C4531F420910E013091BA
:101A60000F01232BC1F094E0899FE001112450E085
:101A7000440F551FC40FD51FC955DE4F612FCE012E
:101A80000E944F30602FCE010196DF91CF911F91C0
:101A90000F910C944F30DF91CF911F910F910895CA
:101AA0000F931F93CF93DF938901843048F56430FF
:101AB00038F54C3028F521153C4531F420910E01C4
:101AC00030910F01232BE1F0C42FD0E0CC0FDD1FAC
:101AD00098E1699FC00DD11D112490E6899FC00D2A
:101AE000D11D1124612FCE0187960E944F30602FA7
:101AF000CE018896DF91CF911F910F910C944F30BA
:101B0000DF91CF911F910F910895CF93C82F6FEF61
:101B100081116BE083E290E00E944F306FEFC111C2
:101B200061EF84E290E00E944F306FEFC1116CECE6
:101B300085E290E0CF910C944F305F926F927F924C
:101B40008F929F92AF92BF92CF92DF92EF92FF92CD
:101B50000F931F93CF93DF93CDB7DEB764970FB684
:101B6000F894DEBF0FBECDBFC0900E01D0900F0124
:101B700081E090E090930F0180930E018FE1E82EB9
:101B800084E0F82E9FE2A92E94E0B92E10E04501E2
:101B900000E015C0F30125913491452D602F812F70
:101BA0000E94500D82E0680E711C5394ECE05E12AE
:101BB000F1CFF8E18F0E911C0F5F043019F0340162
:101BC000512CE8CFF7012591349140E060E0812F5E
:101BD0000E941F0DF70132962591349141E060E09B
:101BE000812F0E941F0D84E0E80EF11C1F5FE0E6CC
:101BF000AE0EB11C143009F0CACF0E94D20C1A826A
:101C000019821C821B821E821D8218861F8288EC0C
:101C100090E09A87898709ED11E04AE050E0B80129
:101C2000CE0101960E947330065F1F4F0932F2E029
:101C30001F0799F77E018BE0E80EF11C8AE0F7019F
:101C400011928A95E9F74AE050E0B801C7010E9475
:101C50007330065F1F4F0937F2E01F07A1F7D092DC
:101C60000F01C0920E0164960FB6F894DEBF0FBE4E
:101C7000CDBFDF91CF911F910F91FF90EF90DF903B
:101C8000CF90BF90AF909F908F907F906F905F901C
:101C9000089580E00E94850D60E086E290E00E9459
:101CA0004F300E949D0D0E940F0D81E00C94850D18
:101CB0009B01883070F49AE0899FB001112467522B
:101CC0007E4F4AE050E0C9010E94313090E080E050
:101CD00008958FEF9FEF08958F929F92AF92BF92DA
:101CE000CF92DF92EF92FF920F931F93CF93DF93E8
:101CF000CDB7DEB72A970FB6F894DEBF0FBECDBFC3
:101D00000FE713E0F12CE12C86E0C82E87E2D82EF5
:101D100090E3A92E97E2B92E2FE6822E26E2922E8C
:101D2000F801D182C082B382A28295828482F58A30
:101D3000E48ABE016F5F7F4F8E2D0E94580E892B63
:101D400029F489859A85F801938B828BFFEFEF1A2E
:101D5000FF0A0A5E1F4F88E0E816F10409F72A9689
:101D60000FB6F894DEBF0FBECDBFDF91CF911F91AC
:101D70000F91FF90EF90DF90CF90BF90AF909F902A
:101D80008F900895CF92DF92EF92FF920F931F935F
:101D9000CF93DF93CDB7DEB72A970FB6F894DEBFA7
:101DA0000FBECDBFE7E3F2E080E5DF011D928A952B
:101DB000E9F7E4E1F3E088E3DF011D928A95E9F7B2
:101DC00087E3C82E82E0D82E7F0109E212E0F701F6
:101DD000D182C0824AE050E0B801CE0101960E9453
:101DE000313088E0FE013196D60101900D928A953E
:101DF000E1F789859A85D70113969C938E93129764
:101E0000BAE0CB0ED11CE7E0EE0EF11C065F1F4FCF
:101E10000937F2E01F07D9F62A960FB6F894DEBF0D
:101E20000FBECDBFDF91CF911F910F91FF90EF902B
:101E3000DF90CF9008954F925F926F927F928F9232
:101E40009F92AF92BF92CF92DF92EF92FF920F9349
:101E50001F93CF93DF93CDB7DEB728970FB6F894D3
:101E6000DEBF0FBECDBF8E010F5F1F4F88E0F801B0
:101E700011928A95E9F796E5E92E91E0F92E68012D
:101E80002AE5422E21E0522E66246394712C46E608
:101E9000842E41E0942EF70181917F018F3F09F458
:101EA00045C0F894E82FE295EF70F0E021A18F7023
:101EB000A30102C0440F551F8A95E2F7CA01922F71
:101EC000982B91A392A18095892382A3789400C036
:101ED000EAE5F1E021E030E0B12CA12C41914F3F47
:101EE00009F476C0A42FA295AF70B0E090968C91C3
:101EF00090E04F7002C0959587954A95E2F780FD76
:101F000067C0C901A82AB92A220F331F8E169F065F
:101F100029F7F701319780818F3F11F00E94B507B3
:101F200050EA5A95F1F7F601B182A082F2E0CF0EA5
:101F3000D11C4E145F0409F0AECF48E050E0B80168
:101F400082EF91E00E941430FF24F394009709F48B
:101F5000F12C892B09F43FC088E0F801A2EFB1E031
:101F600001900D928A95E1F781E08093F1010E9442
:101F70004D059093F0018093EF018091EF019091D6
:101F8000F0010E943E05059750F18091F201909179
:101F9000F30190931102809310028091F4019091CB
:101FA000F50190931302809312028091F6019091B3
:101FB000F70190931502809314028091F80190919B
:101FC000F90190931702809316021092F10107C055
:101FD00090E080E097CF8091F1018111CECF8F2DDD
:101FE00028960FB6F894DEBF0FBECDBFDF91CF911C
:101FF0001F910F91FF90EF90DF90CF90BF90AF9027
:102000009F908F907F906F905F904F9008958091F8
:102010008B0290915504892B809378018091ED017A
:10202000882309F180915A0390915B03892B29F051
:102030000E94D10981110E949709809178019091A5
:10204000ED01892B8093780120E08AE791E0FC0183
:102050003191CF0131112F5FF1E080389F07B9F73F
:1020600021110E94970948E050E063EE71E088E793
:1020700091E00E941430892BA9F088E0E8E7F1E0B4
:10208000A3EEB1E001900D928A95E1F7E091310461
:10209000F0913204309731F00280F381E02D88E72F
:1020A00091E009940895EF92FF920F931F93CF93BD
:1020B000DF93EC018A85811134C0EB80FC8087E5D9
:1020C000F81A26E12E9DC0012F9D900D1124DC01F0
:1020D000A158BC4F1496ED91FC911597309731F0B3
:1020E00054966D917C918B579C4F099586E18E9DFE
:1020F00080018F9D100D112401581C4FF80187811C
:102100000E94BD09F80180850E94B6090E9407104F
:10211000188219861B861E821D8210927E031092E1
:102120007D03DF91CF911F910F91FF90EF90089564
:10213000CF93DF93EC018989811118C081E0898BED
:102140008F810E94C409809155049885892B8093C2
:1021500055040E940710EA81FB81309739F06C89A1
:102160007D89CE010696DF91CF910994DF91CF91C1
:10217000089580911A01877F80931A0182E00E945E
:10218000B60980911A0184FF06C08F7E80931A01E0
:1021900082E00E94C40980911A0185FF06C08F7DEC
:1021A00080931A0180E20E94C4090C94071090E009
:1021B00080E00E946F0590E080E00E945905109237
:1021C00055040E94071086E0EFE1F2E0DF011D9266
:1021D0008A95E9F7109219021092180210921A02C9
:1021E0000C940906809354040C94D71080915404E5
:1021F000982F9670963019F488600C94F210877FAF
:10220000FCCF21E030E001C0220F8A95EAF720954B
:102210008091540482230C94F2109091E2018095F5
:1022200089238093E201282F277091F4282F082E0C
:10223000000C330B9217130659F09091FB0192FD9D
:1022400007C08595859585950E9401110C94CA0952
:102250000895CF93C091FB01C2FB992790F998177D
:1022600099F080FBC2F9C093FB016091FA0184E010
:1022700090E00E944F306C2F82E290E00E944F303D
:1022800082E0CF910C940D11CF91089521E030E0C0
:1022900001C0220F8A95EAF780915404822B0C9496
:1022A000F2109091FB0192FD10C098E0899F90017F
:1022B0001124622B6093E2010E9446110E944D0599
:1022C0009093E1018093E00108950C94461180936E
:1022D000EE010C94D71010928B02EAE7F1E086E051
:1022E000DF011D928A95E9F70C94D7101F93CF93C5
:1022F000DF93CDB7DEB7AA970FB6F894DEBF0FBE57
:10230000CDBF8CE494E02091F100DC012D93CD0150
:10231000B4E084359B07B9F780914D04833009F40C
:1023200072C0B8F4813009F449C0823009F4B3C0F6
:102330008091E80083FF96C280914C0490914D04F7
:102340009A3008F08FC2E92FF0E0E357FF4C0C946D
:10235000FE2F8A3009F48EC08B3009F471C08930A9
:1023600039F780914C04813219F780915004909193
:102370005104009711F00297D9F68091E800877F09
:102380008093E8008091E80082FF38C09091F300CC
:102390008091F200029731F48091F100813011F0C8
:1023A000863021F48091F10080933F048091E80011
:1023B0008B778093E8000E941904BACF80914C0477
:1023C000813A09F0B5CF8091E800877F8093E800DB
:1023D0008091500490915104892B61F468E080E46D
:1023E00094E070E00E94CB048091E8008B778093AA
:1023F000E8009ECF60E090E080E0F3CF80914A0457
:102400008111C0CF95CF80914C04813A09F090CFD3
:102410008091500490915104892B09F089CF8091CB
:10242000E800877F8093E8008091E80080FFFCCF80
:1024300080911C018093F1008091E8008E77B9CFE4
:1024400080914C04813209F073CF809150049091B7
:102450005104892B09F06CCF8091E800877F80932D
:10246000E8000E94190480914E0480931C010E9490
:102470006B115ECF80914C04813209F059CF80916D
:10248000E800877F8093E8000E94190480914F0440
:1024900080933E044DCF80914C04813A09F048CF9F
:1024A0008091E800877F8093E8008091E80080FFBA
:1024B000FCCF80913E04BECF803899F0823809F07D
:1024C000D1C1809150048F70873008F0CBC18093C8
:1024D000E9008091EB0085FB882780F91092E900E4
:1024E00006C08091480490914904911182609091B6
:1024F000E800977F9093E8008093F1001092F1003C
:102500008091E8008E77AAC1882309F498C18230AF
:1025100009F0A8C180914E0481119BC180915004A3
:102520008F702FEF280F263008F09CC18093E900B0
:102530002091EB0020FF8DC1933031F48091EB00AE
:1025400080628093EB0085C19091EB009061909345
:10255000EB0021E030E001C0220F8A95EAF72093DA
:10256000EA001092EA008091EB008860EACF8111C6
:1025700079C110914E041F778091E3008078812B00
:102580008093E3008091E800877F8093E8000E94B9
:1025900019048091E80080FFFCCF8091E3008068FF
:1025A0008093E30082E0111183E080934A045AC1D2
:1025B0008058823008F056C120914E0430914F046B
:1025C0002C3DE3E03E07A1F583E08A838AE289831C
:1025D0004FB7F894DE01139620E03EE051E2E32F7E
:1025E000F0E050935700E49120FF03C0E295EF70B4
:1025F0003F5FEF708E2F90E0EA30C0F0C7968D936A
:102600009D932F5F243159F74FBF8091E800877F5A
:102610008093E8006AE270E0CE0101960E94CB044C
:102620008091E8008B778093E8001CC1C096E7CFCB
:102630008091500490915104432F55274330510508
:1026400009F44AC078F54130510509F485C08BE59D
:1026500090E0E7E4F6E04230510509F003C1209133
:10266000E800277F2093E800209152043091530422
:102670008217930708F49C0140E02115310509F009
:1026800070C041116EC08091E80082FDC9CF809179
:102690004A04882329F2853019F28091E80083FFEB
:1026A000F2CFBECF4132510509F447C04232510545
:1026B00009F0D8C08330910508F0D4C0FC01EE0FBA
:1026C000FF1FE759FE4F0190F081E02D8A599E4F80
:1026D000DC018C9190E01DC0332721303105E9F0F9
:1026E0002115310579F022303105F9F0233031051B
:1026F00009F0B8C0E4EBF6E0E4918E2F90E0E4EB53
:10270000F6E007C0ECEFF6E0E4918E2F90E0ECEFFE
:10271000F6E0009709F4A6C0A2CFE4EEF6E0E4915B
:102720008E2F90E0E4EEF6E0F4CFE2EDF6E0E491F7
:102730008E2F90E0E2EDF6E0ECCF8330910508F0CB
:1027400091C0880F991FFC01E159FE4F0190F08163
:10275000E02D89E090E083CF82E190E0E2EAF6E0CC
:102760007ECF80914A04882309F45ACF853009F43A
:1027700057CF8091E80083FD53CF8091E80082FD20
:1027800082CF8091E80080FF78CF9091F300809114
:10279000F2002115310519F08830910550F041E023
:1027A000089709F040E08091E8008E778093E80078
:1027B00064CF44914093F100319621503109019644
:1027C000E8CF803809F04EC08091E800877F809381
:1027D000E80080914B048093F10092CE811142C0B9
:1027E00010914E041230F0F58091E800877F8093BD
:1027F000E80010934B040E941904112311F084E0A7
:1028000005C08091E30087FDFACF81E080934A0400
:1028100042E061EC81E00E94380442E261EC84E035
:102820000E94380442E261EC82E00E94380442E2F5
:1028300060EC83E00E94380480914A0413C08091C8
:102840004E04813079F481E0933009F080E0809388
:1028500049041092E9008091E800877F8093E800A6
:102860000E9419048091E80083FF0AC08091E8006B
:10287000877F8093E8008091EB0080628093EB007B
:10288000AA960FB6F894DEBF0FBECDBFDF91CF91F1
:102890001F910895882321F00E94B6090C94071017
:1028A0000895882339F090915504982B90935504FE
:1028B0000C9407100895882321F00E94BD090C9400
:1028C00007100895882321F00E94C4090C94071072
:1028D0000895882309F452C0823871F40E94850556
:1028E00081FF4CC089E30E94FE090E94071089E322
:1028F0000E94F1090C940710833859F40E94850551
:1029000080FF3CC083E50E94FE090E94071083E51A
:10291000EFCF843859F40E94850582FF2FC087E4E9
:102920000E94FE090E94071087E4E2CF9CEF980FF7
:10293000913AF0F290E2980F983050F4877091E05D
:1029400001C0990F8A95EAF7892F0E94BD09D2CF5D
:102950009BE5980F933020F490E080E00C946F0595
:1029600098E5980F973120F490E080E00C94590599
:10297000803F20F00E9430060C9409060895CF9302
:10298000DF93EC010E946914CE010E94B90A9E01F6
:10299000205E31092830310510F0CD2B21F4DF9174
:1029A000CF910C945B14DF91CF910C944A14CF9388
:1029B000C82F882309F48CC08238C1F40E94850591
:1029C00081FD86C089E30E94FE090E9407102FEF57
:1029D00081EE94E0215080409040E1F700C000007B
:1029E00089E30E94F109CF910C9407108338A1F478
:1029F0000E94850580FD6CC083E50E94FE090E944F
:102A000007102FEF81EE94E0215080409040E1F7D5
:102A100000C0000083E5E5CF8438A1F40E9485055D
:102A200082FD56C087E40E94FE090E9407102FEF26
:102A300081EE94E0215080409040E1F700C000001A
:102A400087E4CFCF8CEF8C0F813A68F4EAE7F1E0AE
:102A50008191C817B9F121E0E038F207C9F78C2F4E
:102A60000E94FE09C0CF80E28C0F883048F4C77006
:102A700081E001C0880FCA95EAF70E94C409B3CF6C
:102A8000EBE5EC0FE33040F4F0E0EB5DFE4F8081CE
:102A900090E0CF910C946F05E8E5EC0FE73150F42E
:102AA000F0E0EE0FFF1FE85DFE4F80819181CF9136
:102AB0000C945905C03F60F08C2F0E944B07CF91BA
:102AC0000C9409068C2F0E94F1090E940710C7CFB1
:102AD000CF9108951F93CF93DF93182FC091780360
:102AE000D0917903893321F0C0917603D091770397
:102AF000812F0E94D714209731F4812FDF91CF913D
:102B00001F910C9469148FE99FE00197F1F700C0C1
:102B100000002197F0CF0F931F93CF93DF93C42F23
:102B2000D22FFC0182818823A1F040937C030E9474
:102B30004D0590937B0380937A03C77081E001C0B9
:102B4000880FCA95EAF7DF91CF911F910F910C94EE
:102B5000621410917C03141339C080917A03909110
:102B60007B030E943E052091700330917103821710
:102B7000930760F5C0E2CD0F1D17B9F080E2810F19
:102B8000883040F4177081E001C0880F1A95EAF789
:102B90000E945B14C83048F481E09D2F977001C0FB
:102BA000880F9A95EAF70E946214802F0E946A1596
:102BB000C83098F4D77081E001C0880FDA95EAF741
:102BC000DF91CF911F910F910C945B14C77081E03E
:102BD00001C0880FCA95EAF7F3CFDF91CF911F911B
:102BE0000F910895AF92BF92CF92DF92EF92FF9232
:102BF0000F931F93CF93DF93EC018AE0A82E2881D7
:102C0000222309F48CC02130C9F599818A81913041
:102C100021F422960E946A1505C0923029F422966A
:102C20000E94D7142196EBCF933021F422960E9474
:102C30006914F8CF943011F02196F4CF229630E049
:102C400020E0AE014F5F5F4F8053990B8A309105B2
:102C500050F02150310930F38FE99FE00197F1F7EF
:102C600000C00000F6CFA29EB001A39E700D1124FB
:102C70009C01260F371F8981EA01E3CFE22FF0E0A4
:102C8000E154FE4FB490822F86958695869590E00C
:102C9000FC01E155FE4FE4902770F12C022E02C09A
:102CA000F594E7940A94E2F731E0E322FF24FC0173
:102CB000E156FE4FC490D12C022E02C0D594C79489
:102CC0000A94E2F731E0C322DD24FC01E157FE4F14
:102CD000049110E002C0159507952A95E2F701705E
:102CE0001127E114F10419F081EE0E94D714C114E8
:102CF000D10419F086EE0E94D7148B2D0E946A151C
:102D0000CD2819F086EE0E946914EF2819F081EEA3
:102D10000E946914012B09F485CF8CE27BCFDF91EF
:102D2000CF911F910F91FF90EF90DF90CF90BF90C8
:102D3000AF900895CF93DF93EC010E94B90A9E01F2
:102D4000205E31092830310510F0209739F40E94B7
:102D500062148C2FDF91CF910C94D7140E945114E0
:102D6000F8CF662329F02091550422602093550462
:102D70009C013056211540E2340720F0305E2115C9
:102D8000304108F499270C949A16DF92EF92FF9243
:102D90000F931F93CF93DF937C018B01D42E8091EF
:102DA0001A0182FF8CC0C091AE02D091AF02CE1545
:102DB000DF0521F0E114F10409F081C080911A01CE
:102DC0008B7F80931A0181FD73C08091AC0290913A
:102DD000AD02A801481B590B81E0209118013091E8
:102DE00019014217530708F480E08170F82E809192
:102DF0001A01F0FA81F980931A01FE0183E0F69539
:102E0000E7958A95E1F7EE71FF27E457FD4F2081A2
:102E10003181AE014F70552781E090E002C0880FEC
:102E2000991F4A95E2F7FF2009F444C0822B932BA7
:102E30009183808380918B0281FF08C080911A0169
:102E4000806180931A0182E00E94BD0980918B020B
:102E500085FF08C080911A01806280931A0180E288
:102E60000E94BD096F2DCE010E94B116DD2031F008
:102E70008091730385FF02C086FF3BC0809176037B
:102E8000909177030E946A0B8091AE029091AF02FD
:102E90009C013056211540E2340720F0305E2115A8
:102EA000304108F499270E94BF140E94B9101DC038
:102EB00081E09BCF8095909582239323B9CFC70162
:102EC000992797013056211540E2340728F0305EEB
:102ED0002115304108F0C7010E94BF148091AE0255
:102EE0009091AF028E159F0501F31093AD020093F0
:102EF000AC02DF91CF911F910F91FF90EF90DF9087
:102F0000089569EE7EEF90E080E00E946D3060E011
:102F100082E090E00E944F3060E083E090E00E9409
:102F20004F301092EE0160E084E090E00E944F305C
:102F300060E082E290E00E944F3060E085E090E047
:102F40000E944F3060E086E090E00E944F306FEFCB
:102F500087E090E00E944F3040E050E0BA0188E006
:102F600090E00E94613060E08DE090E00E944F3080
:102F700040E050E0BA0188E190E00E94613060E0FA
:102F800087E190E00E944F3040E050E0BA018CE1D0
:102F900090E00E94613070E060E080E290E00E948A
:102FA0006D3040E050E0BA0188E190E00E9461306D
:102FB00080E00E94850D0E94490E40E050E0BA0179
:102FC0008FE090E00E94613040E050E0BA0183E180
:102FD00090E00C9461308F929F92AF92BF92CF920B
:102FE000DF92EF92FF920F931F93CF93DF9300D066
:102FF00000D0CDB7DEB77C01DC0113964D915C911A
:10300000149711966C9111978C910E9491058111E2
:1030100079C061E0C7010E94800C8C01F7018281B8
:10302000811111C0D70112968C91811149C00031D4
:10303000FFE51F0709F4EEC001312FE5120709F083
:1030400017C782E0E8C080910C0190910D010196B4
:1030500049F36FE7C62E63E0D62EB12CA12C99243C
:10306000939480910C0190910D018A159B05D4F2E7
:10307000F60186818823E9F0818592850817190772
:1030800039F480917D0390917E030817190789F028
:10309000D6011F969C921F971C961C930E931B970C
:1030A000C6010E949810C60106960E945310109205
:1030B0005504BFEFAB1ABB0AE6E1CE0ED11CD1CF4F
:1030C000980122513F452031310508F0C7C68FEFE6
:1030D00093E00E9441305EEED52ED00E09E712E05B
:1030E000882369F18091E201877061F0D70112961F
:1030F0008C91882339F08091FB0182FD03C082E02E
:103100000E940D110F900F900F900F90DF91CF91B3
:103110001F910F91FF90EF90DF90CF90BF90AF90F5
:103120009F908F9008950115F4E01F07D9F2C80110
:103130000E944130811101C0DA940F5F1F4FD110FE
:10314000F2CF19821A821B821C82CC24CA944801B5
:103150002FEF821A920AC8010E94413089831A8295
:10316000882309F4BFCF813009F048C0580132E00C
:10317000A30EB11CC4010E944130982E8A8388237B
:1031800009F4B0CFC5010E944130D82E8FEF890DD0
:10319000833068F4580143E0A40EB11CDB82DD20CB
:1031A00021F0CE0101960E94F2158501D0CF54E0A6
:1031B0009512FBCF580184E0A80EB11CC8010396FC
:1031C0000E944130DD2009F48DCF882309F48ACF95
:1031D0008150990BC89E9001C99E300D1124AD2DD0
:1031E000A150BB0BCD01820F931F0197F0F2EFE9C5
:1031F000FFE03197F1F700C00000F7CFCE01019654
:103200000E94F2155401D1CF81E00E9446110E9424
:10321000F61068CF81E00E940111F9CF82E0F5CF6E
:103220004FEFC416D10411F008F02EC66DE272E023
:103230008C2D0E94580E892B29F586E18C9DF0017A
:103240008D9DF00D1124E158FC4F8681813009F0ED
:1032500062C080912D0290912E02892B99F080916D
:103260002F0290913002892B69F080913102909168
:1032700032022091330230913402822B932B892B1E
:1032800009F453C080910C0190910D018C159D059E
:1032900024F4D0920D01C0920C01F701828196E1D5
:1032A0009C9D50019D9DB00C1124950121583C4FCF
:1032B0006901D90150968C935097928116968C9102
:1032C0001697992309F43FC01A961C930E931997E9
:1032D0008F5F16968C930E944D05F6019687858721
:1032E0008091ED0187838091550490918B02892B09
:1032F00080870190F081E02D309741F0D6015496FF
:103300006D917C91C5018B579C4F099510937E035D
:1033100000937D03B9C5823009F0B4CF80913102AA
:1033200090913202892B09F4ADCF26E12C9DC0018A
:103330002D9D900D112481589C4FDC0150961C92BC
:103340000E9498109FCF882309F49EC5F9018189B6
:10335000882309F499C5C5018B579C4F0E945310CF
:1033600093C580911A01816080931A01BBC5809139
:103370001A018E7F80931A010E94B910B3C5809103
:103380001A018F7E013E110531F0053E1105C9F489
:1033900080911A018F7D80931A0180911A0180FF1C
:1033A000B0C5D70112968C910832110528F50E315F
:1033B000110508F074C00430110580F581119DC518
:1033C000A0C5C8019056811540E2940720F0905E98
:1033D0008115904110F780911A0182FF92C580916A
:1033E000750381FD8EC525E032E040E0B60190E036
:1033F00080E00E94C51685C50933110558F40D32C9
:10340000110518F40B321105C9F69091730392FD62
:10341000D5CF08C004361105C1F3D0CF9091730306
:1034200094FDCCCF882309F4A1C090918B028091A8
:10343000ED01282F292B322F3D7FB1F11092AF02E1
:103440001092AE023091730331FD2EC0F80143E0BB
:10345000F695E7954A95E1F7EE71FF27E457FD4FA2
:1034600098012F70332781E090E002C0880F991FE8
:103470002A95E2F7809590952081318182239323CC
:103480009183808360E0C8010E94B1168091ED01B4
:103490008D7F0E94A20982E00E940D1123CE90919F
:1034A000730393FD8BCFBECF38E0F701A5E0B2E008
:1034B00001900D923A95E1F71092070210920902DD
:1034C00010920802A090AE02B090AF020A151B0540
:1034D000B1F53091730335FF32C040911A0141FBC1
:1034E000992490F841FF02C036FF29C04091AC02F8
:1034F0005091AD02B601641B750B40917003509161
:10350000710364177507D8F491FF08C080911A0100
:10351000806180931A0182E00E94BD0980918B0234
:1035200085FF08C080911A01806280931A0180E2B1
:103530000E94BD09692DC5010E94B116D3CD90919D
:103540001A0121FB91F990931A018D7F0E94A20923
:103550001093AF020093AE02D092AD02C092AC02C3
:1035600080911A01846080931A0195CF970140E001
:10357000B601C8010E94C516B5CD053F4CE514073C
:1035800009F469C008F461C0063F8CE5180709F426
:1035900068C0D70112963C91332309F4D1C410922C
:1035A0007C030330BDE51B0708F067C00A3FECE56C
:1035B0001E0730F4C80182509C45449708F067C04C
:1035C0000E94A70C9093FB018093FA0101313CE526
:1035D000130709F46CC108F0E9C009305CE5150770
:1035E00009F453C108F0B6C005309CE5190709F489
:1035F00044C108F09CC00330BCE51B0709F433C18B
:1036000008F037C18091FA01816002301C4509F44D
:103610002DC16091FA011091FB0184E090E00E94BD
:103620004F30612F82E290E00E944F300E946B1178
:1036300059CD07E225EE45EE68ED7CE57DC406E256
:1036400021EE40EE63EF7CE577C407E225EE44EE21
:1036500064EF7CE571C406E221EE42EE65EF7CE5A5
:103660006BC407E225EE46EE66EF7CE565C408E232
:1036700021E045EE69ED7CE55FC40136FDE51F07FD
:1036800009F49ECF053A2DE5120709F499CF0631CA
:103690005CE5150709F458C40A358DE5180709F4E7
:1036A0005CC108F038C10115ACE51A0709F445C141
:1036B0000E3D1C4509F44EC1F701868197810097A4
:1036C00009F44FC10E940F08182F092FF701D2806B
:1036D000C580C2943FE0C3228091E2018770C1F0AF
:1036E000AD2CDD20B1F0892F807F803421F080E285
:1036F000810F883068F08091FB0182FD09C082E073
:103700000E940D118091E2018770AA24A394811177
:10371000A12C902E92942FE09222FBE0F91508F450
:10372000ADC1E92DF0E0E956FF4C0C94FE2F8091DD
:10373000FA01806207302CE5120709F497C08091E6
:10374000FA01806108301C4508F490C08091FA01AC
:1037500080648CC08091FA018B7F0D304CE514079A
:1037600009F484C080F40B308CE5180709F493C089
:103770008091FA018C600C301C4508F477C0809170
:10378000FA018D7F73C08091FA018F7E0F30ACE516
:103790001A0709F46BC08091FA01877F00311C453C
:1037A00008F464C08091FA018F7D60C00D3FECE5A4
:1037B0001E0709F478C050F505312CE5120709F40D
:1037C00080C098F48091FA01837F03314CE514079F
:1037D00009F44CC008F46FC00E946B119091FA017B
:1037E000892F97FB87F9805841C00B3F8CE518075C
:1037F00009F447C008F053C08091FB0181600A3F83
:103800001C4509F006CF8093FB0103CF0130BDE5D5
:103810001B0709F462C0B8F48091FB018C7F0F3F55
:10382000FCE51F0781F38091FB01836001151D45B5
:1038300050F38091FB01982F909591708E7F892B8A
:1038400090FB81F9E0CF01363DE5130709F44BC049
:10385000053A4DE5140709F44DC002301D4509F045
:10386000D8CE60E03BC08091FA0182608093FA017B
:10387000D0CE8091FA018460F9CF8091FA018860FE
:10388000F5CF8091FB018260BECF0E946B118091C9
:10389000FA018068EBCF8091FA018E7FE7CF8091AB
:1038A000FB018E7FB0CF8091FB018D7FACCF8091EB
:1038B000FA018F7BDBCF0E946B118091FA018F7729
:1038C000D5CF8091FA0182FB992790F921E09227C8
:1038D00090FB82F990FB83F9C9CF61E08EE090E024
:1038E0000E944F3096CE9091FA01892F8F7E94FFDF
:1038F0008061BCCF9091FA01892F8E7F90FF81600B
:10390000B5CF80918001811104C089E20E94F10944
:1039100046C385E3FBCF0B35EDE51E0701F10C3502
:103920001D4509F0C9CE8091FB0182FB882780F9F3
:1039300091E089270E942911BFCE0E946B112FEFC1
:1039400034E34CE0215030404040E1F700C000003B
:103950000E942D050E948117C5CB81E0EBCF80E04E
:10396000E9CF828100811181882369F0C8010E941A
:103970000E0CD82E682FC8010E946E0AB8018D2D3A
:103980000E94F20B9FCEC8010E94410AD82EF6CFAA
:10399000202F2F70B22E802F807F19F0B29490EFDD
:1039A000B922DD20A9F0BB2059F080E2810F8830D8
:1039B00010F0111107C08B2D0E94C4090E9407103E
:1039C000812F5AC080915504B82AB0925504F6CF81
:1039D000812F0E946914BB2009F450C080E2810F3E
:1039E000883010F0111104C08B2D0E94BD0903C056
:1039F0008B2D0E94B6090E94071040C0302F3F70E7
:103A0000B32E802F807F803219F0B29480EFB822DD
:103A1000112321F1113009F4A4C0DD2009F4ADC057
:103A2000CC2009F47DC020E0D7014C9111965C9127
:103A3000119712966C91129713967C911397149686
:103A40008C910E94570C8091750381FDB9CFF701CD
:103A5000858180FFB5CF8F70858362C08091FB0127
:103A600082FF40C0DD20C1F1BB2029F08B2D0E94D8
:103A7000C4090E94071080E00E94D714A92DA85005
:103A8000BB0B149710F40E948505812F902F0E9484
:103A90009E0A8111C4C11092820110928101AA2054
:103AA000B1F08091E20180FD12C0D70112961C9204
:103AB0008595859585950E944611C7010E94EB1753
:103AC0008091E2018595859585950E94011160E0C0
:103AD000C7010E94800C16CB80E00E946914BB20B5
:103AE00069F282CFDD2001F1C11004C08091ED01A7
:103AF0008B2917C041E0C41206C08091ED018B29CB
:103B00000E94A209BBCF80917403823078F3C8125F
:103B1000EDCF0E9497098091DF01B812B092DF01CA
:103B20008B2D0E946214AACFC11006C00E94970973
:103B30008B2D0E945B14A2CF8091740351E0C512BB
:103B40000BC0823008F49ACF80918B028B2109F44C
:103B500095CF0E94EB09EACF823040F3C812E6CF3E
:103B60008DCFDD2029F085E08C1508F487CFD8CFE4
:103B700094E09C1508F482CFDBCFCC20C9F2809171
:103B8000780390917903193321F080917603909115
:103B900077030E946A0B812F0E9469146FCF802FD8
:103BA00086958695837069F0813009F067CF812F03
:103BB000902F9370D11002C090E080E00E945905D0
:103BC0005DCF812F902F9370D11002C090E080E0E4
:103BD0000E946F0553CF812FDD2029F00E944B07F3
:103BE0000E9409064BCF0E943006FACF802F8370C7
:103BF00091F5D11043CF412F429546954770440F20
:103C0000440F812F8F70042E01C0880F0A94EAF7A9
:103C1000212F207114FF07C02FE030E001C0220FD8
:103C20004A95EAF72095302F369536953370323025
:103C300069F050F44091EE01313029F0822B842359
:103C40000E9467111BCF842B822BFACF282B8091E7
:103C5000EE018227F5CF8695DD2011F0802F81704F
:103C6000882309F40BCF412F429546954770440FA6
:103C7000440F812F8F70042E01C0880F0A94EAF739
:103C8000212F207114FF07C02FE030E001C0220F68
:103C90004A95EAF72095302F3695369533703230B5
:103CA00069F050F440915404313029F0822B842380
:103CB0000E94F210E3CE842B822BFACF282B809126
:103CC00054048227F5CFF02FFF70BF2EDD2029F09E
:103CD0008F2F0E944611812F24CF812F0E945B14C9
:103CE0008B2D0E940111CACE123F89F160F4103F62
:103CF000B9F0113F81F0DD2009F48CC0C11060CE15
:103D0000802F8F7128C0133F49F1143FA1F7809194
:103D1000FB0182FF2FC0802F8F71DD2011F31BC0AC
:103D2000DD2081F024E02C1508F4A8CE202F2F717F
:103D300081E090E001C0880F2A95EAF79091540441
:103D40008927B6CF35E03C1508F498CEEFCF802F09
:103D50008F71D110C6CF0E94461190CE80E0DD2039
:103D600009F4A6CF81E0902F9F7101C0880F9A952A
:103D7000EAF79ECF809174038230A0F18091DF0139
:103D8000DD20F1F00E94BD098091E201877084304E
:103D900041F40E94CA09802F8F710E940111A12C49
:103DA0006DCE80917403C816D0F7402F4F71B42E9A
:103DB000842F0E94461163E08B2D0E945111EFCF9A
:103DC0000E94C40980917403C81640F00E94CA0979
:103DD0000E94EB0964E0802F8F71EFCF81E00E9499
:103DE0000D11DDCFDD2059F0502F5F71B52E852FDD
:103DF0000E94461163E08B2D0E9451113FCE81E05D
:103E00000E940D1181E08C1508F038CE82E00E94EE
:103E10000D1134CEC110B3CE802F8F7162CFDD2053
:103E200019F0C11038CE3BCEC11035CE20E0F701DD
:103E3000408151816281738184810E94570C8091FD
:103E4000750383FF28CE80918101909182010297B2
:103E500009F021CE812F0E946A151DCE0031BFE5E9
:103E60001B0709F4D1C90131EFE51E0709F4D6C9D2
:103E7000680127E5D21A882309F4D2C93FEFC31697
:103E8000D10409F008F4FEC98091730380FF39C0A2
:103E90000E944D056C01D70112968C91882309F47C
:103EA0006ECA80911A0182FF08C025E032E040E02E
:103EB000B60190E080E00E94C5160B31BCE51B07FF
:103EC00009F44FCA0C31ECE51E0709F450CA909171
:103ED0001A01892F8E7F90FF81600A31FCE51F0750
:103EE00009F448CAC8019056811520E2920728F0CB
:103EF000905E8115904108F050CA1092AF02109266
:103F0000AE02033FBCE51B0709F499CB08F035CBA3
:103F1000083DFCE51F0709F48CCB093D2CE5120791
:103F200009F4A5CB073D3CE5130709F032CB06E2C7
:103F300021EE41EE67ED7CE5C7010E948B15D2C8EA
:103F400006311C4509F0B8CB80918B02982F9A7AE4
:103F50002091720320FF04C0482F447409F090E0C0
:103F600021FF04C0482F417109F090E022FF04C0F6
:103F7000482F487809F090E023FF03C0827209F0CF
:103F800090E0332309F4BDCC81E0911101C080E0C1
:103F90008093800189E2911185E30E94FE090E94CD
:103FA0000710A0C8CF92DF92EF92FF920F931F935A
:103FB000CF93DF9380919A01807F31F480919701B4
:103FC000C091DE0181110BC0DF91CF911F910F9144
:103FD000FF90EF90DF90CF9008952196C770809169
:103FE0009D018C1789F3F0909501E0909601C090A7
:103FF0009801D0909901A6016E2D8F2D0E949105F8
:10400000D0E08111EACF8E0183E0000F111F8A9565
:10401000E1F7F801E256FE4F81818E11DECF8081FB
:104020008F11DBCF82818111D8CFE380F480EC182F
:10403000FD0860E085E991E00E94800C80917003AA
:1040400090917103E816F90640F680919A018F70FD
:10405000806180939A01F801ED55FE4F80818F7049
:104060008061808385E991E00E94EB17DF91CF9119
:104070001F910F91FF90EF90DF90CF900C94370A33
:104080003F924F925F926F927F928F929F92AF92E8
:10409000BF92CF92DF92EF92FF920F931F93CF9335
:1040A000DF93CDB7DEB765970FB6F894DEBF0FBECE
:1040B000CDBF8C0185E0F801DE01519601900D9293
:1040C0008A95E1F7D8014C9011965C901197129661
:1040D000EC9012971396CD90DC9060E085E991E02A
:1040E0000E94800C85E9A82E81E0B82E809098016E
:1040F00090909901A40160919601809195010E9490
:1041000091058111CAC1F0909701F601E819F909EA
:104110004F0160E0FF2009F46DC1C5010E94800CD1
:10412000609070037090710330909A018614970428
:1041300008F013C14091980150919901B0909501F8
:10414000A0909601832D807F6A2D09F0ADC08B2D44
:104150000E949105FE2C81113BC0D80111968C91D3
:1041600011978A1135C08C918B1132C020919B011F
:1041700030919C0116968D919C912817390741F535
:10418000E11026C0832D8F70806180939A0185E9AC
:1041900091E00E94EB1780919A01F80185838F2DA1
:1041A00065960FB6F894DEBF0FBECDBFDF91CF91FD
:1041B0001F910F91FF90EF90DF90CF90BF90AF9045
:1041C0009F908F907F906F905F904F903F90089559
:1041D000F4EF6F16F1E07F0620F48091750380FF05
:1041E00021C0A601652D842D0E949105811118C062
:1041F00081E08E2580FF16C04E2D652D842D0E94F6
:10420000170A882379F085E991E00E94EB1788E08E
:10421000E5E9F1E0DF011D928A95E9F7F12CBFCFC6
:1042200080E0E8CFA601652D842D0E9491058111C3
:1042300024C081E08E25B82FB170CB2E80FF2BC01B
:104240004E2D652D842D0E94170AD82E811123C072
:10425000498A5A8A89899A890E943D0C292F229578
:104260002F70223060F0243088F49F7061F0F801E4
:104270009581907F41F4FD2C92CF80E0DCCF9F7040
:1042800011F08823C1F3805E8830A8F3C8010E9432
:10429000EB17DC2CF0CFEE2009F481CF80919A014E
:1042A000816080939A01BACF8B2D0E949105811174
:1042B00024C0D80111968C9111978A111EC08C913F
:1042C0008B111BC020919B0130919C0116968D9102
:1042D0009C9117972817390781F4E1100EC01596A5
:1042E0003C92C8010E94EB1788E0F801A5E9B1E013
:1042F00001900D928A95E1F752CFC8010E94490CB6
:10430000882339F1EE2029F180919A018032A0F0C2
:1043100020919501309196013A8729871B86DD8689
:10432000CC868E8780919B0190919C01988B8F8782
:10433000CE0109960E94EB1788E0F801A5E9B1E0EB
:1043400001900D928A95E1F70E94D21FFF24F39409
:1043500026CFC8010E94EB17F9CF832D807F09F487
:1043600052CF909095018090960140919801509184
:104370009901682D892D0E94910581111CC0F801B9
:104380008181881118C08081891115C020919B01FD
:1043900030919C01868197812817390761F4E110DB
:1043A0000AC03582C8010E94EB1788E0D5011D9232
:1043B0008A95E9F7F4CEC8010E94490C882349F296
:1043C000EE2039F280919A01803208F4B5CF209125
:1043D0009501309196013A8329831B82DD82CC823C
:1043E0008E8380919B0190919C0198878F83CE0151
:1043F0000196A0CF85E991E00E94800C8091700326
:10440000909171038816990680F6FE2CEE2009F42F
:10441000A0CFE0909501D0909601409198015091E5
:1044200099016D2D8E2D0E949105811128C0F801F2
:1044300081818D1124C080818E1121C020919B012A
:1044400030919C018681978128173907C1F48091AA
:10445000750382FD49CF90919A0190FD45CF907FE1
:1044600009F442CF80919A018583903F09F439CFB6
:10447000982F907F905F8F70892B858332CFC801F2
:104480000E94490C811158CF80919A0181608093DC
:104490009A01C8010E94EB1782CEEE2009F459CF91
:1044A000C8010E94490CF82E882309F452CF88E0F5
:1044B000F801A5E9B1E001900D928A95E1F78091AC
:1044C0009501909196010E943D0C0E94D21F67CEEB
:1044D000CF93DF93CDB7DEB760970FB6F894DEBF0A
:1044E0000FBECDBF29873A874B875C876D877E8754
:1044F0008F87988BCE0109960E94402081112FC092
:1045000088E0FE013996DE01119601900D928A95A0
:10451000E1F74C855D856A8589850E949105811149
:104520001EC0A0919D01B0E0CD0101968770992732
:104530002091DE012817190609F193E0AA0FBB1F8D
:104540009A95E1F7A256BE4F98E0FE013196019090
:104550000D929A95E1F780939D010E94370A809110
:10456000DE0190919D01891317C060960FB6F894F3
:10457000DEBF0FBECDBFDF91CF9108950E946B11BA
:1045800010929D011092DE0188E0E5E9F1E0DF0183
:104590001D928A95E9F7E3CFB8E08B9FC001112403
:1045A00082569E4F0E9440208823F9F28091DE01BE
:1045B00090E00196877099278093DE01D0CFEF922B
:1045C000FF920F931F93CF93DF938091B3028823C1
:1045D00061F0C091B2028CE0F82E8091B302C8174E
:1045E00058F01092B3021092B202DF91CF911F9156
:1045F0000F91FF90EF900895EE24E394EC0EE0927B
:10460000B2020C2F10E0CF9DE0011124CC54DD4FFD
:104610004B815C81698188810E94910581111DC057
:104620008E819F81892B21F488859985019651F48B
:10463000288139814A815B816C817D818E819F8156
:104640000E946822F09EF001F19EF00D1124EC54BE
:10465000FD4F1482138210925504CE2DBECF1092BE
:1046600057031092560310921B01809155038093BB
:1046700054030E94CA050C94DF223F924F925F922E
:104680006F927F928F929F92AF92BF92CF92DF9262
:10469000EF92FF920F931F93CF93DF93C091540338
:1046A00097E0892E01E010E02CE0322E3EEF932EB1
:1046B00044244394809155038C1315C00E94DF223B
:1046C000DF91CF911F910F91FF90EF90DF90CF90EE
:1046D000BF90AF909F908F907F906F905F904F9022
:1046E0003F900C94CA05D0E0FE01EE0FFF1FE45B83
:1046F000FC4F80819181889ED001899EB00D11244C
:10470000AC5EBC4F14962C911497211157C0509059
:10471000B302E4EBF2E030E020E0712C5D012515FE
:1047200008F04AC0E284F384D501CD90DC906FEFAD
:104730007FEF612C462D50E0DA01AA0FBB1FAC0DB4
:10474000BD1D0D90BC91A02D109731F0EA16FB060F
:1047500009F4BA016394EECF6F3F7607A1F1D80157
:1047600002C0AA0FBB1F6A95E2F77A2AB80102C0FD
:10477000660F771F6A94E2F7AB0141505109741636
:104780001506F9F4329EF001339EF00D1124EC541D
:10479000FD4F889ED001899EB00D1124AC5EBC4FA8
:1047A00012962D913C9113973783268390829182A4
:1047B0009187808715964C920E949C052196C37024
:1047C00079CF148213822F5F3F4F3C96A8CF2F9250
:1047D0003F924F925F926F927F928F929F92AF9291
:1047E000BF92CF92DF92EF92FF920F931F93CF93DE
:1047F000DF93CDB7DEB769970FB6F894DEBF0FBE73
:10480000CDBF942F498B252F5A8B6B8B7C8B8D8B37
:104810004C895D89622F892F0E949105811109C001
:104820008091810190918201019690938201809301
:1048300081018B898111109255041D861E861F8669
:10484000188A85E0FE017196DE01199601900D929D
:104850008A95E1F78091FB0182FD1EC080915A0389
:1048600090915B03892BC1F00E944D052091E001DE
:104870003091E101821B930B20915A0330915B032D
:104880008217930720F08091E20182FFF5C10E9418
:10489000D10981110E9497094C855D856A858985BA
:1048A0000E949105811111C061E0CE0109960E941C
:1048B000800C6C018B8527EFC2162CE5D20681F4A3
:1048C000882321F181E080931B0129853A854B855E
:1048D0005C856D857E858F8598890E946822C5C01C
:1048E00038EFC3163CE5D30629F4882379F00E94FB
:1048F0002F23EBCF49EFC4164CE5D40639F48823B7
:1049000029F080911B018111F2CFDCCF04E113E08B
:10491000512CB12CA12C22242394312C2EEF422E89
:10492000F8014081518188248A94982C20E0822FBC
:1049300090E0FC01EE0FFF1FE40FF51F6081718115
:104940006115710531F0C616D70609F44C012F5FC9
:10495000EECFF12CFFEF8F169F0609F448C0F80147
:104960004481F0901B018F2D411180E0F82FF170F0
:10497000FF2EF801E58086819B85992309F40CC1FF
:10498000FF2009F409C160906E0370906F03E1107D
:1049900012C0A10101C0440F8A94EAF7842B8683D8
:1049A0008091B0029091B1028615970520F4709223
:1049B000B1026092B002C10102C0880F991F2A950E
:1049C000E2F70197F80126812817190681F48091F2
:1049D000560390915703009709F460C00E943E056A
:1049E0006816790608F05AC021E0F80124835F2890
:1049F000FFEFAF1ABF0A095F1F4F28E0A216B104EC
:104A000009F08ECF8B85882309F421C1552009F444
:104A10001EC10E944D0590935703809356038091C9
:104A2000B302883010F591E0980F9093B30298E0AC
:104A3000FE013996DE01119601900D929A95E1F7EB
:104A40003CE0839FC00111248C549D4F28E0FE015F
:104A50003196DC0101900D922A95E1F72FEF3FEF9F
:104A6000FC0131872087D386C28669960FB6F894F9
:104A7000DEBF0FBECDBFDF91CF911F910F91FF9091
:104A8000EF90DF90CF90BF90AF909F908F907F90EE
:104A90006F905F904F903F902F90089580915403B6
:104AA00050915503982FF0E0E0E0851314C09093E7
:104AB0005403E017F10709F49ACF90E0FC01EE0FE0
:104AC000FF1FE45BFC4FB182A0820196837099279F
:104AD000809355038CCF682E712CF301EE0FFF1FCE
:104AE000E45BFC4F2081318147E0429FD001439F2E
:104AF000B00D1124AC5EBC4F6D917C911197798FF4
:104B0000688F40E020E030E0E32FF0E0EE0FFF1F81
:104B1000688D798DE60FF71F808091808114910454
:104B2000E1F0F8010190F081E02DFF8BEE8B20E0A9
:104B300005C08616970609F44F2D2F5FE22FF0E08F
:104B4000EE0FFF1F6E897F89E60FF71F608171816D
:104B50006115710571F73F5FD7CF4423D1F0F8019C
:104B6000231708F0FD0121E024830E171F0721F40D
:104B700090935403F42E3BCF981305C0AE17BF0794
:104B800011F49F5F937093012F5F3F4F822F8370CB
:104B90008CCFF0E0E0E0F7CF90E0E1101FC0B10172
:104BA00002C0660F771F2A95E2F79B012150310959
:104BB0008217930731F4442309F447C0C5010E94CA
:104BC0009C05C10101C0880F8A94EAF7982F90953F
:104BD000F801868189238683FE2C09CF9C01082C4D
:104BE00002C0359527950A94E2F7A901417055272F
:104BF000BC016150710986239723892B11F5452B40
:104C000001F1F80182819381892BC1F01B821C8202
:104C10001D821E8249824A820E944D058160582F62
:104C20009D838C83F801828193818F83988729816A
:104C30003A814B816D817E810E946822F801158244
:104C4000C0CFF22FF170EF2EBCCFEF2CBACF9091E6
:104C5000540380915503981731F00E943D2355204D
:104C600009F433CE02CF0E94DF2210925703109234
:104C700056030E94CA05F3CF82E00E940D1107CEB1
:104C8000CF93DF9300D000D00F92CDB7DEB79093D3
:104C9000880280938702811520E2920748F40F90E2
:104CA0000F900F900F900F90DF91CF910C94BF1445
:104CB0008EEF89838A831B820E944D058160782F45
:104CC0009D838C8349815A816B818D810F900F90D8
:104CD0000F900F900F90DF91CF910C94E7230F93DB
:104CE0001F93CF93DF938C01EB016DE272E08C2F69
:104CF0000E94580E892BA1F480917603909177033E
:104D00000E946A0BDD27CB5DDD4F8881F8011082A0
:104D10001882833009F148F4813059F0823081F0F3
:104D2000DF91CF911F910F9108958430D1F085309C
:104D3000B9F780912D0290912E02009789F306C059
:104D400080912F0290913002009799F3DF91CF91DB
:104D50001F910F910C944026809131029091320264
:104D6000F3CF8091330290913402009779F720912C
:104D70002D0230912E0280912F0290913002211548
:104D80003105D9F2009711F7C901E0CFCF93DF9336
:104D900000D000D00F92CDB7DEB7909388028093F9
:104DA0008702811520E2920748F40F900F900F9030
:104DB0000F900F90DF91CF910C949A168EEF89830C
:104DC0008A8381E08B830E944D058160782F9D83CB
:104DD0008C8349815A816B818D810F900F900F9048
:104DE0000F900F90DF91CF910C94E723CF93DF9337
:104DF000EC010E94C62680917603909177030E9471
:104E00006A0BCE01DF91CF910C9440260F931F9334
:104E1000CF93DF938C01862F6DE272E00E94580ED3
:104E2000892BC9F4C0912D02D0912E02209799F0C0
:104E3000F8018081833069F4CE010E94F626CE010C
:104E40000E94F626CE01DF91CF911F910F910C9415
:104E5000F6268430B8F7DF91CF911F910F91089516
:104E60000F931F93CF93DF938C01EB016DE272E000
:104E70008C2F0E94580E892B09F064C0FE01FF2779
:104E8000D8018C91EB5DFD4F8130D9F419969C913E
:104E90001997992311F080830CC01A969C9199233D
:104EA000D1F382E0808380912F02909130020097AD
:104EB000D9F480912D0290912E02009709F442C0FE
:104EC00013C08230E9F519968C91199781112DC084
:104ED0001A968C9181110EC083E0808380913102FB
:104EE00090913202009719F1DF91CF911F910F91AC
:104EF0000C94C62684E08083809133029091340222
:104F0000009791F780912D0290912E020097F9F071
:104F10000E94F62680912F0290913002009721F78F
:104F200080912D0290912E02DFCF85E080838091C9
:104F30002D0290912E02009729F00E94F626F0CFC4
:104F400086E08083DF91CF911F910F91089580912A
:104F50002F0290913002B1CF1F920F920FB60F9295
:104F600011242F933F934F935F936F937F938F936E
:104F70009F93AF93BF93CF93DF93EF93FF93D09122
:104F8000E900DF708091EC00C82FC17080FDC0E89F
:104F90001092E9008091F000877F8093F000789470
:104FA0000E9476111092E9008091F0008860809351
:104FB000F000CD2BCF70C093E900FF91EF91DF910E
:104FC000CF91BF91AF919F918F917F916F915F91A1
:104FD0004F913F912F910F900FBE0F901F901895FA
:104FE0001F920F920FB60F9211242F933F934F935E
:104FF0005F936F937F938F939F93AF93BF93EF9341
:10500000FF938091E10082FF09C08091E20082FF5E
:1050100005C08091E1008B7F8093E1008091DA00F0
:1050200080FF24C08091D80080FF20C08091DA00EA
:105030008E7F8093DA008091D90080FF9DC080E14F
:1050400089BD82E189BD09B400FEFDCF81E0809376
:105050004A0480913D04811109C00E949F030E946F
:105060006A048091E20084608093E2008091E10014
:1050700080FF17C08091E20080FF13C08091E200A2
:105080008E7F8093E2008091E20080618093E20055
:105090008091D80080628093D80019BC85E080930D
:1050A0004A048091E10084FF2BC08091E20084FFDC
:1050B00027C080E189BD82E189BD89B5982F9170B3
:1050C00080FFFBCF8091D8008F7D8093D8008091A6
:1050D000E1008F7E8093E1008091E2008F7E8093DB
:1050E000E2008091E20081608093E20080914B04B5
:1050F000882309F447C084E080934A0480914A04DD
:105100008091E10083FF27C08091E20083FF23C0EC
:105110008091E100877F8093E10082E080934A04E0
:1051200010924B048091E1008E7F8093E10080918A
:10513000E2008E7F8093E2008091E20080618093A4
:10514000E20042E060E080E00E9438048091F000DC
:1051500088608093F000FF91EF91BF91AF919F9194
:105160008F917F916F915F914F913F912F910F9010
:105170000FBE0F901F90189519BC10924A04109200
:105180003D0474CF8091E30087FD93E090934A043F
:10519000B5CF78941F921FB61F9211248F939F93BF
:1051A000AF93BF938091360490913704A091380457
:1051B000B09139040196A11DB11D809336049093DE
:1051C0003704A0933804B0933904BF91AF919F91F5
:1051D0008F911F901FBE1F9018951F921FB61F9290
:1051E00011248F939F93AF93BF93809135048111C6
:1051F00013C08091360490913704A0913804B09187
:1052000039044196A11DB11D809336049093370453
:10521000A0933804B0933904BF91AF919F918F91BF
:105220001F901FBE1F901895CDB7DEB7E4970FB63D
:10523000F894DEBF0FBECDBF84B7877F84BF0FB6A3
:10524000F894A89580916000886180936000109226
:1052500060000FBE80E890E00FB6F8948093610084
:10526000909361000FBE85B7806885BF85B7806861
:1052700085BF83EB97E090937701809376010E943E
:105280006C0E0E94C20E0E94740B0E949F030E942B
:105290006A048091E20084608093E20078948091B7
:1052A0004A048823A1F01091E9001F709091EC004E
:1052B000892F817090FD80E8182B1092E900809171
:1052C000E80083FD0E9476111F701093E90082E0D0
:1052D00084BD93E095BD9AEF97BD80936E000E94C8
:1052E0008E0C811102C00E94490E86EF0E94B50704
:1052F00087EF0E94B50781E30E94B50783E30E9410
:10530000B5070AE511E0A6E6EA2EA1E0FA2ED801DB
:105310008D918D018F3F11F00E94B507E016F106C7
:10532000B1F788E0E0E1F2E0DF01282F1D922A9535
:10533000E9F7E2EFF1E0DF011D928A95E9F790E0ED
:1053400080E00E944930893E9E4F21F40E948E0CDD
:10535000811102C00E94811782E090E00E944130DA
:105360008093FC010E94A70C9093FB018093FA01AB
:105370000E941B0FEFEFF6E721E0E150F0402040E4
:10538000E1F700C000000E941B0F8091100280FF17
:1053900008C06FEF7FEF90E080E00E946D300E94C8
:1053A0002D0583E090E00E9441300E94671180E06B
:1053B00091E0909332048093310478E1672E712C50
:1053C000E0E45E2EF8E1CF2EF2E0DF2E8E010F5FDB
:1053D0001F4F80914A0450E1E52E62E1F62E8530A0
:1053E00009F44EC10E941B0F882359F08FB7F8941F
:1053F000409136045091370460913804709139041B
:105400008FBFA0E1B2E0EDEFF1E0F12CE12C7E2DB9
:105410008D919D91219131912817390709F440C14F
:105420002827392760E0AA24A394B12CA9014A2196
:105430005B21452B09F42EC16BA77CA79C012A2177
:105440003B2191E0232B09F490E09DA70E944D059C
:105450008160782F9FA78EA74BA55CA56DA58FA512
:105460000E94E723F701EE0FFF1FE350FE4F8081FC
:105470009181A826B926B182A08280910C019091D9
:105480000D01F12C66E1E62E019609F051C18091E3
:105490001B01811157C18091730380FF1EC0809151
:1054A0001A0182FF1AC00E944D052091AC02309172
:1054B000AD02AC01421B530B209118013091190130
:1054C0004217530750F025E032E041E0BC018091E3
:1054D000AE029091AF020E94C51686E0EFE1F2E0C5
:1054E000D80101900D928A95E1F7A0902102B09029
:1054F0002202E0902302F0902402109221021092E6
:10550000220210922302109224028A2D8B2991F0FC
:1055100080911D0290911E020E943E05AC01909167
:105520001902992309F439C18091160184171506CF
:1055300008F441C18E2D8F2991F080911B0290912A
:105540001C020E943E05AC0190911802992309F4B7
:1055500071C1809112018417150608F479C18091F8
:10556000210290912202892B90912302892B909104
:105570002402892B11F00E94090686E0F801AFE1B0
:10558000B2E001900D928A95E1F70E948505909115
:105590000D02891380930D0280914A04843009F032
:1055A00018CF83E08093E9008091E80082FF11CF5B
:1055B0008091E80090E085FF0AC00E94BE0350E29F
:1055C000A52EB12C7801882309F48BC191E080913C
:1055D000E8008B778093E800992309F4FACEE090F5
:1055E0008902F0908A028981E114F10409F487C1EB
:1055F0008E3F09F0CFC18A81833020F085508330FF
:1056000008F0C8C1EA81EE3008F0C4C1F0E0ED5501
:10561000FF4C0C94FE2F80914A04843009F11092C3
:1056200035040FB6F894A895609260000FBE5092B2
:10563000600083B7817F846083BF83B7816083BF4D
:105640007894889583B78E7F83BF0FB6F894A8951A
:1056500080916000886180936000109260000FBEAE
:1056600080914904882361F00E941B0FE0E1F2E081
:1056700081919191892B09F042C4CE16DF06C1F7C2
:1056800080914A04853009F4C6CF0E946B110E94B4
:105690008505A8CE6F5FAA0CBB1C6C3009F0C6CE86
:1056A0003FEFE31AF30A44E0E416F10409F0AFCE49
:1056B0008FEF88AB89AB1AAA0E944D058160782FC5
:1056C0009CAB8BAB48A959A96AA98CA90E94E72376
:1056D000D4CEE89EF001E99EF00D1124E158FC4F74
:1056E000A288B388A114B10421F4A0907003B090F3
:1056F0007103E89EF001E99EF00D1124E158FC4F82
:1057000086818823A1F0858596850E943E05A8168E
:10571000B90668F4FE9C50011124C50181589C4FC4
:105720000E949810C5018B579C4F0E945310F39410
:105730008F2D90E020910C0130910D012817390731
:1057400044F6A5CE8091560390915703009709F433
:10575000A2CE0E943E052091B0023091B1022817DE
:10576000390708F098CE909154038091550398170B
:1057700059F00E943D231092B1021092B002109293
:1057800057031092560387CE0E94DF2210925703D0
:10579000109256030E94CA057ECE20911701BAE0EE
:1057A0002B9F900111242417350708F0C3CE9F5F6B
:1057B0009093190202C09F3FD1F7AA2059F00E948E
:1057C000EC069FEF1A140CF491E0899F802D1124B0
:1057D00080932102BB2059F00E94EC069FEF1B141E
:1057E0000CF491E0899F802D112480932202309146
:1057F0002102332309F49ECE20912202222309F4B0
:1058000099CE45EB3403C0011124992359F09093AC
:10581000210245EB240390011124332339F0309306
:10582000220288CE81E080932102F3CF81E0809331
:10583000220280CE209113018AE0289F900111243A
:105840002417350708F08BCE9F5F9093180202C093
:105850009F3FD1F7EE2059F00E94B3069FEF1E1430
:105860000CF491E0899F802D112480932302FF2066
:1058700059F00E94B3069FEF1F140CF491E0899F2A
:10588000802D11248093240230912302332309F4C4
:1058900066CE20912402222309F461CE45EB340325
:1058A000C0011124992359F09093230245EB24035E
:1058B00090011124332339F03093240250CE81E03B
:1058C00080932302F3CF81E08093240248CE80911D
:1058D000F100D7018D937D01B1E0AB1AB10809F455
:1058E00075CE8091E80085FDF2CF8091E8008B773E
:1058F0008093E8000E94BE03882399F367CE8D3021
:1059000009F4C4C0B0F4843009F4A7C040F4823074
:1059100041F108F093C0813001F18FEF1CC3863054
:1059200009F4B1C008F4A4C08C30B9F780E18A83CF
:1059300031C0813109F406C140F48F3009F4D4C07C
:1059400008F4A8C00E940F0D25C0833109F425C1B9
:1059500008F4FAC08E3F09F755CE1A8289E08B838E
:1059600019C08A81823009F418C38330E1F1813093
:10597000A1F62FB7F89460913604709137048091A6
:105980003804909139042FBF0E9404306B837C83CC
:105990008D839E8380914A04843009F01ACDF09063
:1059A000E9002F2D2F70F22E9091EC00892F81703D
:1059B00090FD80E8F82A82E08093E9008091E80079
:1059C00080FF0CC050E040E060E270E0C8010E943F
:1059D000EF038091E8008E778093E8008F2D8F7021
:1059E0008093E900F6CC80910E0190910F01892BF4
:1059F00089F28091100290911102982789279827A7
:105A00009C838B838091120290911302982789279F
:105A100098279E838D838091140290911502982778
:105A20008927982798878F83809116029091170273
:105A30009827892798279A878987ACCF8A818230CF
:105A400009F06BCF6B817C818D819E810E94043037
:105A500086E290E00E944F309DCF4C816B818A811D
:105A60000E94C30B9827892798279E838D8392CF06
:105A70002D813E813227232732274C816B818A81F9
:105A80000E94500D87CF0E949D0D84CF81E08A83B4
:105A900087E865CFEC80F12CEDE1EE16F10408F01B
:105AA00079CFAA80BB80BA24AB24BA244801E00E87
:105AB000F11EC50187589D4FE814F90409F46ACF17
:105AC000F7E8AF16F1E0BF0660F40E944130D40160
:105AD00014968C93FFEFAF1ABF0A2FEF821A920A27
