:100000000C945A030C9477030C9477030C947703A5
:100010000C9477030C9477030C9477030C94770378
:100020000C9477030C9477030C9452330C9426347D
:100030000C94A22D0C9477030C9477030C94770303
:100040000C9477030C9477030C9477030C94770348
:100050000C9477030C94282E0C9477030C9477035C
:100060000C9477030C9477030C9477030C94770328
:100070000C9477030C9477030C9477030C94770318
:100080000C9477030C9477030C9477030C94770308
:100090000C9477030C9477030C9477030C947703F8
:1000A0000C9477030C9477030C9477032B001400C3
:1000B0001A000800150017001C0018000C001200A0
:1000C00013002A00025104001600070009000A006C
:1000D0000B000D000E000F0034002800E1001D0091
:1000E0001B00060019000500050011001000360075
:1000F0003700E100E0000353E2000000015100007E
:1001000000002C000000E00050004F0001001E0025
:100110001F002000210022002300240025002600CB
:1001200027000100010001000100010001000100A1
:1001300001000100010001000100010001000100B7
:1001400001000100010001000100010001000100A7
:100150000100520001000100010000000100000048
:1001600000000100000001000100010001003A0050
:100170003B003C003D003E003F004000410042008B
:10018000AA00A90001000100010001000100010016
:100190000100010001000100010001000100010057
:1001A0000100010001000100010001000100010047
:1001B0000100010001000100010000000100000039
:1001C0000000010000000100010001000100140016
:1001D0001A000800150017001C0018000C0012007F
:1001E00013002A00010001000100010001000100CC
:1001F00001000100010001000100010001000100F7
:1002000001000100010001000100010001000100E6
:100210000100010001000100010000002C000000AD
:1002200000000100000001000100010000000000CA
:10023000000000002A2B2800000000000000000041
:100240000000000000000029000000002C1E3420E7
:10025000212224342627252E362D3738271E1F200D
:100260002122232425263333362E37381F04050652
:100270000708090A0B0C0D0E0F1011121314151696
:100280001718191A1B1C1D2F3130232D3504050694
:100290000708090A0B0C0D0E0F1011121314151676
:1002A0001718191A1B1C1D2F3130354C0000000087
:1002B000000000000000000000000000000000003E
:1002C000000000000000000000000000000000002E
:1002D0007E0F00D4FFFFFFC700000078FD377A587B
:1002E0005A000004E6D6B4460200210116000000C0
:1002F000742FE5A3E003EA01615D003D8889C654DF
:1003000036C3174FE4EE6FBEB64C488D97388D66F6
:1003100086DFB98088C0AF5F7259F7366043FACB89
:10032000FD0F79049EC154374B0B8DBB7A20CA8BCD
:10033000B30DB761B91C878D2FD16F579098BEB898
:10034000A6BEC163653FF05577465A18F11E0C0BE7
:100350009779E364B0A16549CBB9384C0AF850D617
:100360009C2A969FEE749E71F447A2059DAEC9F635
:10037000B8DDE519DFAE94D19B64CE0EA8693EBA14
:100380006C259AA80AC0DE6A9A0C4A3FF5BEAC07F3
:10039000F4066261A369251616B98409F796804FA1
:1003A000ABD06CB08AABB8ABAD42AF209409426819
:1003B000D10CDFA19BE34A317BF592D39C45DF1D35
:1003C000CDABB5DBE55C830D0FAAE1ED18C9F1B546
:1003D0002F2BEF32260A57BEA7ABB25F842360F6FD
:1003E0006B3B92B034D95B1C94743AFDB53E903CA3
:1003F0007385AE582063362ECC1000BECDD623EBCD
:10040000E7ADA65E3C1D9E1157034E035A8492032E
:100410002B311FA3EC6F74D269D770FB53BF4D39DA
:1004200058BFDA178ED10023774E52B62E8BF3D2F7
:10043000116FF4AF9D9D105857D655C923B49C1821
:100440005D5233D622ADF41780FE43E834B5A8CE12
:10045000BCA44D7FA2B0B3FAFFC08BFE0000000029
:10046000296B6B42097FDC830001FD02EB07000072
:10047000C65DA814B1C467FB020000000004595A0D
:10048000010001007B04000002000200770400006C
:10049000030001007C040000040002006104432109
:1004A000050001007D040000060002006304000056
:1004B0000700020079040000080001007E0400002B
:1004C0000900020065041E210A00020067041E21C3
:1004D0000B00020069041E210C0002006B041E21A7
:1004E0000D0002006D041E210E0002006F041E218B
:1004F0000F00020071041E211000020073041E216F
:100500001100020075041E21120002007F04000089
:1005100013000200810400001C03760069006100E2
:100520006C003A006600360034006300320062005E
:10053000330063000000100341006C006900730089
:1005400068003400300000001603520065006500AA
:10055000640073004B0065006500620073000000DA
:100560000403090409025B00030100A0FA09040066
:1005700000010301010009211101000122400007CF
:1005800005810308000109040100020300000009BD
:10059000211101000122220007058203200001072A
:1005A0000503032000010904020001030000000903
:1005B000211101000122810007058403200001129E
:1005C00001000200000008EDFE803101000102037D
:1005D000010660FF0961A1010962150026FF00956F
:1005E00020750881020963150026FF009520750813
:1005F0009102C005010902A10185020901A10005BE
:100600000919012905150025019505750181029536
:1006100001750381010501093009311581257F9597
:10062000027508810609381581257F9501750881B5
:1006300006050C0A38021581257F9501750881068B
:10064000C0C005010980A101850319012AB7001561
:100650000126B700950175108100C0050C0901A1A4
:1006600001850419012AA002150126A00295017531
:10067000108100C005010906A101050719E029E75D
:100680001500250195087501810295017508810104
:100690000507190029FF150026FF0095067508813A
:1006A0000005081901290595057501910295017547
:1006B000039101C011241FBECFEFDAE0DEBFCDBF32
:1006C00011E0A0E0B1E0E6E6FDE602C005900D9283
:1006D000AA3AB107D9F724E0AAEAB1E001C01D9215
:1006E000A439B207E1F70E9445160C948D360C949C
:1006F00000009C013A9521153F4150F5FC01EE2781
:10070000F170BC0166277270AC01442754709C01E3
:100710002227387094FF0EC080E1EF2B09F480E0AF
:10072000672B09F08062452B09F08064232B89F048
:100730008068089581E0EF2B09F480E0672B09F0D1
:100740008260452B09F08460232B19F0886008959E
:1007500080E00895CF93DF93EB010E947903FE01BF
:10076000DF91CF910994CF93DF93EC01805E9109E3
:10077000089720F06EE777E0209711F460E777E0C4
:10078000CE010E94AA038C2FDF91CF910C946506B5
:10079000CF93DF93EC010E94F706CE01805E9109B2
:1007A000089720F065E877E0209711F467E777E095
:1007B000CE01DF91CF910C94AA0381E0089581E0EE
:1007C00008950C94DF0308950C94E3031F93CF93D3
:1007D000DF9300D000D00F92CDB7DEB749835A83A4
:1007E0006B833091AD0189819A8131111DC06623DF
:1007F000B9F02223A9F00E94880B182F682F898155
:100800009A810E942B0B69817A81812F0F900F9022
:100810000F900F900F90DF91CF911F910C940520B6
:100820000E945B0B182FEFCF0E94880B69817A81A1
:10083000EDCFFC01262F86819781009739F4408106
:1008400051816281738184810C94E6030895CF9372
:10085000DF93EC0161E00E941904BE01DF91CF91AA
:100860000C944E28CF93DF93EC0160E00E941904B2
:10087000BE01DF91CF910C94E403E1E0F0E0DF01F1
:1008800002C0AA0FBB1F6A95E2F7BD01DF0102C0DB
:10089000AA0FBB1F4A95E2F76A2B01C0EE0F2A95FB
:1008A000EAF7962F9823961302C08E2B0895E095B1
:1008B0008E230895242F462F682F8091C2010E9415
:1008C0003D040C94E80A0C94E5140C94E814089583
:1008D0000E94A0070E9467042FEF84E39CE0215050
:1008E00080409040E1F700C000000C944C2E0F9324
:1008F0001F93CF93DF93EC018B010E94A72BB801CC
:10090000CE010E946C19882309F44FC0B801CE01B2
:100910000E941A1E882309F448C0B801CE010E9423
:10092000E103882309F441C0B801CE010E94ED2BF8
:100930008823D9F1B801CE010E9447258823A9F167
:10094000B801CE010E94F22A882379F1B801CE01C4
:100950000E94A722882349F1B801CE010E94232AD0
:10096000882319F1F8018281882361F0CA35FDE5F9
:10097000DF0721F170F4C115ECE5DE07A1F0CE3DF3
:10098000DC45C9F0C801DF91CF911F910F910C9404
:10099000DD03CB358DE5D807A1F0CC35DD4591F7EA
:1009A0000E942A11EFCF0E94680480E0DF91CF916E
:1009B0001F910F9108950E94E311F7CF0E94331108
:1009C000E1CF0E943611DECFCF93DF93EC0161E0DF
:1009D0000E941904BE01DF91CF910C9477040E940C
:1009E000862D0C94D8050E94DB050C948A2DDF928D
:1009F000EF92FF920F931F93CF93DF93E82FF0E0D6
:100A0000E45DFD4FD490282F26952695269530E05D
:100A1000F901E453FD4F0491877010E0082E02C0E5
:100A2000159507950A94E2F701701127F901E4542E
:100A3000FD4FE490F12C082E02C0F594E7940A943F
:100A4000E2F791E0E922FF24F901E455FD4FC4915A
:100A5000D0E002C0D595C7958A95E2F7C170DD2731
:100A60000115110519F081EE0E946506E114F104EB
:100A700019F086EE0E9465068D2D0E946407EF280E
:100A800019F086EE0E94F706012B19F081EE0E9404
:100A9000F706CD2B51F08CE2DF91CF911F910F9192
:100AA000FF90EF90DF900C946407DF91CF911F913E
:100AB0000F91FF90EF90DF900895EF92FF920F93C8
:100AC0001F93CF93DF93EC01162F0AE088818823D0
:100AD00009F454C0813009F04EC08981813099F405
:100AE0007E0122E0E20EF11C8A810E946407E70188
:100AF0002196812F815050F3EFE9FFE03197F1F714
:100B000000C00000F7CF823041F47E0182E0E80EA1
:100B1000F11C8A810E946506EACF833041F47E0190
:100B2000E2E0EE0EF11C8A810E94F706E0CF8430ED
:100B300011F02196DDCF2A81229690E080E0AE016F
:100B40004F5F5F4F2053330B2A30310548F0019738
:100B500078F2EFE9FFE03197F1F700C00000F7CF3E
:100B6000089FB001099F700D1124C901860F971FBE
:100B70002981EA01E4CF0E94F704BACFDF91CF9137
:100B80001F910F91FF90EF90089560E00C945D0528
:100B900008950C94C80581E008950C94CB05089540
:100BA000CF93C82F0E94C9058C2FCF910C94CD05EF
:100BB00080E00C94D0050E94C62C0C94D0050E94B5
:100BC000C62C9091AC01981721F08093AC010C9445
:100BD000D0050895019708F40895EFE9FFE03197F3
:100BE000F1F700C00000F6CFCF93DF93CDB7DEB7AB
:100BF0002D970FB6F894DEBF0FBECDBF49875A8739
:100C00006B877C878D878C859D85892B29F0CA0110
:100C100089238F3F09F04AC08B8581110E943C10C7
:100C20001D821E821F82188685E0FE013996DE0134
:100C3000119601900D928A95E1F78091FE0382FD55
:100C400012C08091630490916404892B61F00E942A
:100C5000F80F882319F082E00E94F9100E94D40F47
:100C600081110E9473108C819D81892B99F42981B7
:100C70003A814B815C816D817E818F8198850E9454
:100C80001D0F2D960FB6F894DEBF0FBECDBFDF91BE
:100C9000CF91089589819A8189238F3F41F3CE01B5
:100CA00001960E9427048111E2CFEBCF8091AE0123
:100CB0009091AF0101969093AF018093AE01ACCFBC
:100CC000FC01808191810C94B50BCF93C82F8823B0
:100CD00009F48BC08238C1F40E94C62C81FD85C006
:100CE00089E30E94BD0F0E9481102FEF81EE94E0F6
:100CF000215080409040E1F700C0000089E30E944D
:100D0000C40FCF910C9481108338A1F40E94C62C9B
:100D100080FD6BC083E50E94BD0F0E9481102FEF04
:100D200081EE94E0215080409040E1F700C0000047
:100D300083E5E5CF8438A1F40E94C62C82FD55C01E
:100D400087E40E94BD0F0E9481102FEF81EE94E096
:100D5000215080409040E1F700C0000087E4CFCFF1
:100D60008CEF8C0F813A90F46C2F80910001909160
:100D700001010E94292D882329F08C2F0E94C40F85
:100D80000E9481108C2F0E94BD0FBBCF80E28C0F80
:100D9000883048F4C77081E001C0880FCA95EAF72F
:100DA0000E941C10AECFEBE5EC0FE33040F4F0E016
:100DB000E95AFE4F808190E0CF910C94EB2CE8E54E
:100DC000EC0FE73150F4F0E0EE0FFF1FE75DFE4F50
:100DD00080819181CF910C94012DC03F30F08C2FF8
:100DE0000E94EA16CF910C94D517CF9108958823CD
:100DF00009F452C0823871F40E94C62C81FF4CC0A5
:100E000089E30E94BD0F0E94811089E30E94C40FF4
:100E10000C948110833859F40E94C62C80FF3CC08A
:100E200083E50E94BD0F0E94811083E5EFCF8438D7
:100E300059F40E94C62C82FF2FC087E40E94BD0F88
:100E40000E94811087E4E2CF9CEF980F913AF0F274
:100E500090E2980F983050F4877091E001C0990F9C
:100E60008A95EAF7892F0E942210D2CF9BE5980F2E
:100E7000933020F490E080E00C94EB2C98E5980FF0
:100E8000973120F490E080E00C94012D803F20F019
:100E90000E9452170C94D51708951F93CF93DF9398
:100EA000182FEB010E946506209731F4812FDF9106
:100EB000CF911F910C94F7068FE99FE00197F1F70E
:100EC00000C000002197F0CF6091810470918204EE
:100ED000893321F060917F04709180040C944D0758
:100EE000882321F00E941C100C94811008958823FF
:100EF00021F00E9422100C9481100895882321F083
:100F00000E942F100C9481100895882321F00E94D4
:100F100035100C948110089590E080E00E94EB2C35
:100F200090E080E00E94012D0E943C100E94811000
:100F30000E94FC180C94D5170E94CB0F0C948C07C0
:100F40000E9429100C949C0792959F70963091F006
:100F500058F4925F9F70923058F4803F19F030F44B
:100F6000883E30F481E008959A5FF4CF843FD1F356
:100F700080E00895883EB0F3813FD1F7F3CFFC01C4
:100F800086819781009721F00E94D7120C94A407C4
:100F9000808191810E94B50BF9CFBF92CF92DF92F1
:100FA000EF92FF920F931F93CF93DF936C01EB01AE
:100FB000FC011281058102950F700E941210E82E2B
:100FC0008823B9F0E12E1123A1F08D2F807F80348A
:100FD00021F080E28C0F8830D0F08091FE0382FDFA
:100FE00016C082E00E94F9100E94121091E0E82ED3
:100FF000E926BD2EB2942FE0B222FBE0FB1508F4E7
:101000007CC0EB2DF0E0E157F94C0C940036E12C5C
:10101000F0CF2D2F2F70F22E8D2F807F19F0F294AC
:1010200090EFF922112399F0FF2059F080E28C0F04
:10103000883010F0C11107C08F2D0E941C100E9433
:1010400081108C2F52C08F2D0E942F10F8CF8C2F23
:101050000E94F706FF2009F450C080E28C0F883010
:1010600010F0C11104C08F2D0E94221003C08F2DDB
:101070000E9435100E94811040C03D2F3F70F32E1A
:101080008D2F807F803219F0F29480EFF822CC23EC
:10109000F1F0C13009F49BC0112309F4A2C0002370
:1010A00009F477C020E0F6014081518162817381AB
:1010B00084810E94E603B6010E945C228111C1CFA7
:1010C000F601858180FFBDCF8F70858362C08091DE
:1010D000FE0382FF41C0112359F0FF2029F08F2D1C
:1010E0000E941C100E94811080E00E94650605C0CD
:1010F00080E00E94F706F110B6CFEB2DE850FF0B11
:10110000349720F40E94C62C0E94D005CE010E9484
:10111000A4078111A7C11092AF011092AE01EE2079
:1011200009F4C1C10E94F40F80FDBDC1F601128215
:101130000E94EE0F0E94F90AC6010E947B0A0E94DB
:10114000EE0FDF91CF911F910F91FF90EF90DF9005
:10115000CF90BF900C94040B1123E9F0011106C04D
:101160000E943F108F290E947007C7CF013031F4D1
:101170000E943F108F290E945B10BFCF80917D0499
:10118000823070F38013ECCF0E9473108F2D0E9479
:1011900045108F2DE8CF011106C00E9473108F2DCE
:1011A0000E947707AACF80917D04013059F48230E4
:1011B00008F4A3CF0E9419108F2109F49ECF0E943A
:1011C0004E10EBCF823048F30813E7CF96CF1123B0
:1011D00021F0063008F091CFDCCF053008F08DCF3C
:1011E000DECF0023E1F28091810490918204C93323
:1011F00021F080917F04909180040E94EA058C2F59
:101200000E94F7067ACF8D2F86958695837061F0C0
:10121000813009F072CFCE019370111102C090E0BD
:1012200080E00E94012D69CFCE019370111102C0A0
:1012300090E080E00E94EB2C60CF8C2F112329F0EE
:101240000E94EA160E94D51758CF0E945217FACF73
:101250008D2F837081F5111150CF4C2F42954695FB
:101260004770440F440F8C2F8F70042E01C0880FDD
:101270000A94EAF72C2F2071C4FF07C02FE030E05A
:1012800001C0220F4A95EAF720959D2F96959695D5
:101290009370822B923049F058F4913019F00E94EB
:1012A000DA0A2BCF0E94D50A28CF0E94DF0A25CF69
:1012B0000E94D30A22CF8695112311F08D2F8170C1
:1012C000882309F41ACF4C2F429546954770440F56
:1012D000440F8C2F8F70042E01C0880F0A94EAF7F8
:1012E0002C2F2071C4FF07C02FE030E001C0220F77
:1012F0004A95EAF720959D2F969596959370822BA7
:10130000923049F058F4913019F00E94200BF5CE3C
:101310000E941B0BF2CE0E94250BEFCE0E94E80A22
:10132000ECCEFD2FFF70FF2E112329F08F2F0E948E
:10133000F90A8C2F18CF8C2F0E9477078F2D0E94CF
:10134000040BDBCEC23F41F160F4C03FB9F0C13FB6
:1013500081F0112309F481C0011173CE8D2F8F719B
:101360001FC0C33F01F1C43FA1F78091FE0382FF7C
:1013700024C08D2F8F71112311F312C0112341F05E
:10138000053008F0BACE8D2F8F710E94100BB5CEAC
:10139000063008F0B2CEF7CF8D2F8F711111CFCF5D
:1013A0000E94F90AAACE112329F08D2F8F710E9475
:1013B000F10AA3CE0E94EE0AA0CE80917D04823075
:1013C000A8F11123F9F00E94D10F0E9422100E946F
:1013D000F40F843041F40E94F0108D2F8F710E9421
:1013E000040BE12C8ACE80917D040817D0F72D2FB5
:1013F0002F71F22E822F0E94F90A63E08F2D0E9436
:10140000D410EFCF0E94D10F0E941C1080917D0458
:10141000081740F00E94F0100E944E1064E08D2FDB
:101420008F71EDCF81E00E94F910DBCF112359F0CD
:101430003D2F3F71F32E832F0E94F90A63E08F2D19
:101440000E94D4105ACE81E00E94F910023008F4B4
:1014500054CE82E00E94F91050CE0111C4CE8D2FDF
:101460008F716DCF112319F0011155CE58CE011196
:1014700052CE20E0F60140815181628173818481E6
:101480000E94E603B6010E946722882309F443CE36
:101490008091AE019091AF01029709F03CCE8C2F64
:1014A0000E94640738CEDF91CF911F910F91FF907A
:1014B000EF90DF90CF90BF9008950F931F93CF933D
:1014C000DF93EC018E819F81009779F00E94D71203
:1014D0008C010E942A0B0E94D20AB801CE01DF9132
:1014E000CF911F910F910C94CD07688179818A81EA
:1014F0000E94BF0BEDCFCF93DF93EC018B819C81DA
:10150000892B29F08881998189238F3F59F4DF91B4
:10151000CF910895CE010E945D0ACE01DF91CF9157
:101520000C943204CE010E94E4048111F3CF0E9496
:101530001210882361F38A81882349F38091FE0386
:1015400082FDE5CF82E0DF91CF910C94F910CF932B
:10155000DF9300D000D00F92CDB7DEB70F900F9081
:101560000F900F900F90DF91CF910895CF93DF935D
:10157000CDB7DEB728970FB6F894DEBF0FBECDBF4C
:1015800028960FB6F894DEBF0FBECDBFDF91CF9186
:10159000089508950C94C90A0E94CA0A8093C30151
:1015A0000C948C0708950C94CC0A9091C301892B5C
:1015B0000C94CC0A9091C30189230C94CC0A90918D
:1015C000C30189270C94CC0A0C94C90A0C94E40A30
:1015D0000E94E60A8093C2010C948C0780E00C9470
:1015E000E80A91E001C0990F8A95EAF7892F0C94D7
:1015F000E80A21E030E001C0220F8A95EAF78091E5
:10160000C201822B0C94E80A21E030E001C0220FD5
:101610008A95EAF720958091C20182230C94E80A0A
:1016200021E030E001C0220F8A95EAF78091C201E3
:1016300082270C94E80A9091C201892B0C94E80A45
:101640009091C20189230C94E80A9091C2018927E4
:101650000C94E80A08959E3F69F1E82F2CE0929FD0
:10166000E00D11248E2F877041E001C0440F8A9550
:10167000EAF7E695E695E69583E0E89FF001112408
:10168000E055FE4F30E020E070E05191DF0111970E
:10169000CB01022E02C0969587950A94E2F78170DD
:1016A00081958527842385278C932F5F3F4F233097
:1016B000310559F708959E3F49F1E82F2CE0929F9C
:1016C000E00D11249E2F9770E695E695E69583E050
:1016D000E89FF0011124E055FE4F50E040E080E02B
:1016E000219130E0092E02C0369527950A94E2F741
:1016F00021703327042E01C0220F0A94EAF7822BAF
:101700004F5F5F4F4330510559F7089580E00895CA
:10171000CF92DF92FF920F931F93CF93DF936C01D1
:101720000091C2018091C301082BC7E0D0E010E016
:10173000FC2EC8010C2E02C0959587950A94E2F7FD
:1017400080FD0CC02197A0F7F12C8F2DDF91CF9158
:101750001F910F91FF90DF90CF900895B6018C2FCD
:101760000E94CF13019771F3F0CFCF93DF93EC0179
:101770000E94880BBE01DF91CF910C94CF131F9371
:10178000CF93DF93EB019091AD01992331F0CB0121
:10179000DF91CF911F910C94B50B882379F0CB0189
:1017A0000E94880B182F682FCE010E942B0BBE01C0
:1017B000812FDF91CF911F910C94CF13CB010E9409
:1017C0005B0B182FF4CFCF93DF93C091C4018091AE
:1017D000C5018C1303C0DF91CF910895D0E0FE01C5
:1017E00083E0EE0FFF1F8A95E1F7EA53FE4F208159
:1017F00031814281538164817581868197810E9404
:10180000B60A2196C770E3CF2091060230910702F5
:10181000409108025091090260910A0270910B02F6
:1018200080910C0290910D020C94B60A2091C40193
:101830009091C501291302C080E0089530E0F901BC
:1018400053E0EE0FFF1F5A95E1F7EA53FE4F518127
:10185000561306C05081581303C05281541304C05C
:101860002F5F3F4F2770E6CF81E00895EF92FF9200
:101870000F931F93CF93DF9380910B02807F31F4FE
:1018800080910802C091C401811119C0DF91CF91EC
:101890001F910F91FF90EF900895209109023091D0
:1018A0000A02D0E02115310541F0809106029091A5
:1018B0000702482F49234F3F39F42196C770809182
:1018C000C5018C13EACFE2CF8E0143E0000F111F58
:1018D0004A95E1F7F801EA53FE4F41814913EDCFF4
:1018E00090819813EACF82818111E7CFE380F48061
:1018F000E21AF30A60E086E092E00E94190466E0D2
:1019000072E00E945322E816F906B8F680910B02A5
:101910008F70806180930B02F801E553FE4F808148
:101920008F708061808386E092E00E947B0ADF9165
:10193000CF911F910F91FF90EF900C94E30B4F927A
:101940005F926F927F928F929F92AF92BF92CF924F
:10195000DF92EF92FF920F931F93CF93DF93CDB758
:10196000DEB765970FB6F894DEBF0FBECDBF8C0112
:1019700085E0F801DE01519601900D928A95E1F71C
:10198000D8014C9011965C90119712967C9012970A
:101990001396ED90FC9060E086E092E00E941904BE
:1019A0006C0186E0882E82E0982E20910902309109
:1019B0000A022115310541F080910602909107023B
:1019C00089238F3F09F0E5C171100DC1C8010E9444
:1019D0007B0A7FC066E072E0C6010E945822811136
:1019E0000BC2EF2829F0852D84218F3F09F011C10A
:1019F00080E0B82FB170EB2E80FF29C0472D652DF8
:101A0000842D0E94160CF82E811121C0498A5A8A11
:101A100089899A890E94B50B292F22952F7022302F
:101A200050F0243078F49F7051F0F8019581907F48
:101A300031F46F2C1AC19F7011F08823D1F3805EAE
:101A40008830B8F3C8010E947B0AFE2CF2CF7720C1
:101A500009F40BC180910B02816080930B02612C11
:101A600004C1892B49F08091060290910702282F2A
:101A700029232F3F09F011C1C8010E94BF07882305
:101A800009F4A4CF772009F4A1CF80910B02803212
:101A9000A0F020910602309107023A8729871B8621
:101AA000FD86EC868E8780910C0290910D02988BBA
:101AB0008F87CE0109960E947B0A88E0F801A6E094
:101AC000B2E001900D928A95E1F70E94360C0E94D7
:101AD000040C66246394C9C0211112C07E2DFD8AB6
:101AE000EC8AA201672D8D890E94A70A86E092E008
:101AF0000E947B0A88E0F40111928A95E9F79AC165
:101B00008091090290910A02892B49F08091060286
:101B100090910702282F29232F3F09F0E6C0C80122
:101B20000E94BF07882309F451CF772009F44ECFD4
:101B300080910B02803208F2209106023091070258
:101B40003A8329831B82FD82EC828E8380910C0272
:101B500090910D0298878F83CE010196ACCF60E003
:101B600086E092E00E94190466E072E00E9453222F
:101B7000A816B90650F5672C772009F427CF809175
:101B8000090290910A02892B49F0809106029091F6
:101B90000702282F29232F3F09F0CDC0C8010E943A
:101BA000BF0781118ACF80910B02816080930B0265
:101BB000C8010E947B0A59C088E0F801A6E0B2E0A3
:101BC00001900D928A95E1F750C07E2DFD8AEC8A36
:101BD000A201672D8D890E94A70A88E0F401119265
:101BE0008A95E9F77FC0C8010E94BF07682E882345
:101BF00009F4ECCE88E0F801A6E0B2E001900D9285
:101C00008A95E1F786E092E00E9460060E94360C19
:101C100069C081E08725EDCE81E08725F6C0D80137
:101C200011962C912913DFC0F80190819813DBC025
:101C300020910C0230910D02868197812817390777
:101C400009F0D1C07110CFC080910B028F708061FC
:101C500080930B020E94040C86E092E00E947B0AB3
:101C600080910B02D80115968C93862D65960FB640
:101C7000F894DEBF0FBECDBFDF91CF911F910F91C2
:101C8000FF90EF90DF90CF90BF90AF909F908F909C
:101C90007F906F905F904F900895F80121812913F4
:101CA000EBCED8019C919813E7CE20910C02309195
:101CB0000D0216968D919C9117972817390709F0F8
:101CC000DBCE80910B027110D7CE15968C93C80194
:101CD0000E947B0A88E0F801A6E0B2E001900D9234
:101CE0008A95E1F70E94040CC0CFD80111962C917F
:101CF000291315CFD8019C91981311CF20910C0274
:101D000030910D0216968D919C91179728173907DF
:101D100009F005CF711003CF80910B0215968C93BB
:101D2000C8010E947B0AE6E0F2E088E0DF011D9234
:101D30008A95E9F79ACFF801218129132FCFF8016D
:101D4000908198132BCF20910C0230910D02868147
:101D500097812817390709F021CF66E072E0C601A4
:101D60000E946122811128CF80910B0280FD24CF37
:101D7000982F907F09F420CFD80115968C93159752
:101D8000903F09F4A4CF982F907F905F8F70892B9C
:101D90009CCF609008025701A21AB30A662009F48A
:101DA000DECE60E086E092E00E94190466E072E018
:101DB0000E94532220910B02207FA816B90608F03A
:101DC0008BCE8091090290910A0221114ACE672C94
:101DD000892B49F08091060290910702282F292330
:101DE0002F3F09F01CCF66E072E0C6010E9453222B
:101DF000843F914008F4EECDE114F10429F0852DE3
:101E000084218F3F09F008CF80E080FFEACD472D85
:101E1000652D842D0E94160C882309F4E2CD86E0FE
:101E200092E00E947B0A88E0E6E0F2E0DF011D928A
:101E30008A95E9F70E94040C12CECF93DF93CDB7B9
:101E4000DEB760970FB6F894DEBF0FBECDBF29870F
:101E50003A874B875C876D877E878F87988BCE010B
:101E600009960E949F0C8823D1F08C859D85892B33
:101E700039F029853A85822F83238F3F09F074C07A
:101E80008091C4019091C501891348C060960FB636
:101E9000F894DEBF0FBECDBFDF91CF91089588E0EB
:101EA000FE013996DE01119601900D928A95E1F7B7
:101EB0008C859D85892B21F389859A8589238F3F80
:101EC000F9F2A091C501B0E0CD0101968770992784
:101ED0002091C4012817190671F40E94A0071092DE
:101EE000C5011092C40188E0E6E0F2E0DF011D9236
:101EF0008A95E9F7C5CF93E0AA0FBB1F9A95E1F742
:101F0000AA53BE4F98E0FE01319601900D929A952A
:101F1000E1F78093C5010E94E30BB2CFB8E08B9F3D
:101F2000C00111248A539E4F0E949F0C882309F4FC
:101F3000ADCFE091C40128E0E29FF0011124EA5303
:101F4000FE4F208131814281538164817581868178
:101F500097810E94B60A8091C40190E00196877033
:101F600099278093C4018CCF4B855C856D857E85D8
:101F70008F8598890E94B60A83CF682F80910001CF
:101F8000909101010C945F2D682F80910001909138
:101F900001010C94612D80910001909101010C943C
:101FA000632D80911B0208958091630490916404D5
:101FB000892B89F00E94012E2091190230911A027A
:101FC000AC01421B530B81E0209163043091640407
:101FD0004217530708F480E0817008958091180239
:101FE0008595859585950895809118028770089547
:101FF0000E94012E2091160230911702821B930B32
:1020000020916304309164048217930748F0809113
:10201000180282FB882780F991E089278170089552
:1020200080E0FCCF90911802977081E009F480E085
:10203000089580912602089590912602892B80931D
:102040002602089580959091260298239093260267
:102050000895109226020895809125020895909186
:102060002502892B80932502089580959091250261
:102070009823909325020895109225020895809147
:102080001C02089508950C94421090911B02981719
:1020900021F080931B020C944310089580911B0241
:1020A000882329F010921B0280E00C9443100895BD
:1020B00008950C945810CF93C82F8091FE0382FD91
:1020C00010C080911C028C1761F00E94012E909329
:1020D0001A0280931902C0931C028C2FCF910C948A
:1020E0005910CF91089580911C02882349F01092D5
:1020F0001C0210921A021092190280E00C945910DE
:102100000895CF93DF93E0910001F0910101809158
:1021100026028083E0910001F0910101808190917D
:102120002502892B808380911C028823E9F080910D
:10213000630490916404892B29F00E94D40F8111CB
:102140000E947310E0910001F09101018081909153
:102150001C02892B808380910001909101010E94D3
:10216000172D81110E947310C0910001D0910101BF
:1021700048E050E06EE072E0CE010E941636892BF6
:1021800069F088E0FE01AEE0B2E001900D928A9520
:10219000E1F7CE01DF91CF910C94D22CDF91CF915A
:1021A000089508950C94D1109091FE0392FD16C0ED
:1021B00098E0899F90011124622B609318020E947D
:1021C000F90A0E94012E90931702809316028091C3
:1021D00018028595859585950C94D2100C94F90A72
:1021E00010921802109217021092160280E00C94BE
:1021F000D210909118028095892380931802282F7D
:10220000277091F4282F082E000C330B9217130619
:1022100059F09091FE0392FD07C0859585958595AF
:102220000E94040B0C94F01008959091FE0392FB11
:10223000222720F9281769F080FB92F99093FE037A
:102240008091FD039091FE030E94601182E00C9446
:10225000F91008958091FE0382FB882780F991E0B0
:1022600089270C94151181E00C94151180E00C94D1
:1022700015116FEF7FEF90E080E00C946F3690E0E7
:1022800080E00E944B36893E9E4F11F40C940A194F
:1022900080E0089582E090E00C94433683E090E083
:1022A0000C944336CF9384E090E00E944336C82FCD
:1022B00082E290E00E944336982F8C2FCF910895B0
:1022C000CF93C92F682F84E090E00E9451366C2F85
:1022D00082E290E0CF910C945136AB01BC018FE0CB
:1022E00090E00C946336AB01BC0183E190E00C9468
:1022F000633660E070E0CB010C94731160E070E035
:10230000CB010E946D110C94791169EE7EEF90E083
:1023100080E00E946F3660E082E090E00E945136DB
:1023200060E083E090E00E9451361092C30160E0CB
:1023300084E090E00E94513660E082E290E00E94EA
:10234000513660E085E090E00E94513660E086E022
:1023500090E00E9451366FEF87E090E00E94513686
:1023600040E050E0BA0188E090E00E94633660E00F
:102370008DE090E00E94513640E050E0BA0188E1E3
:1023800090E00E94633660E087E190E00E94513661
:1023900040E050E0BA018CE190E00E94633670E0CA
:1023A00060E080E290E00E946F3640E050E0BA01C9
:1023B00088E190E00E94633680E00E9423190E9429
:1023C00050190C947E110C948511682F8EE090E0CA
:1023D0000C9451360E940D2E609333027093340298
:1023E000809335029093360260932F0270933002EF
:1023F0008093310290933202089585B7806885BF3B
:1024000085B7806885BF0895089508950C940512D6
:1024100008950C9408120E94FD118DEA94E10E9427
:10242000BC2C0E94D31C0E9465210E9404120C94B3
:10243000061281E008950C941912089508950E94DF
:102440001D120C941E120E94CA140C94CF050E94F7
:10245000F82D0E945F190E949F150E9423120C9470
:1024600009127F928F929F92AF92BF92CF92DF928A
:10247000EF92FF920F931F93CF93DF93CDB7DEB709
:102480002A970FB6F894DEBF0FBECDBF0E94B415D9
:10249000A82E81110E94EA1157E2852E52E0952E56
:1024A00010E000E0702E802F0E94EA146C01F4010D
:1024B000E190F1904F01E816F90609F453C08091BC
:1024C000370281FD0E94F314C7018C259D25B12C94
:1024D000EE24E394F12C9C012E213F21232BE1F1EA
:1024E0000E941B128823A9F0BE827F82CE20DF20AB
:1024F00081E0CD2809F480E088870E94012E816068
:10250000782F9A8789874E815F8168858A850E94A6
:10251000F405000F111FF801E95DFD4F80819181E5
:10252000E826F926F182E08281E0A11001C080E076
:102530002A960FB6F894DEBF0FBECDBFDF91CF91C4
:102540001F910F91FF90EF90DF90CF90BF90AF90D1
:102550009F908F907F900895B394EE0CFF1CFCE049
:10256000BF12B9CF0F5F1F4F0430110509F09ACF8A
:102570008FEF89838A831B820E94012E8160782FCE
:102580009D838C8349815A816B818D810E94F405E2
:10259000CBCF0E94482C0E940A280C940E250E9442
:1025A00031120E94C9120E94F0170C94DF05CF93DC
:1025B000DF930E94D313EC01811521E5920708F007
:1025C00042C0811530E5930708F09DC0883E910513
:1025D00030F5803E910508F092C0883A910588F464
:1025E000853A910508F084C08130910509F487C0CF
:1025F000009709F484C0049708F081C0D0E0C0E0DF
:102600007EC08F3B9105D0F7C85AD0E0CC0FDD1FBC
:10261000C65ADE4F0990D881C02DD46470C0811590
:10262000904250F4C11581E0D80708F068C0C03F5F
:10263000D10520F3D06563C0C11590E4D907F0F24D
:10264000DF70D06A5CC0811525E5920700F5811521
:1026500034E5930708F08BC0811543E5940708F033
:1026600073C0C11582E5D80708F469C0CE01837034
:10267000992721E030E002C0220F331F8A95E2F74C
:10268000C695C69580E2C89FE001112454C0C115CB
:1026900099E5D907A8F4C11528E5D20708F06CC060
:1026A000C11536E5D30708F0A9CF8C2F0E946A1414
:1026B000C82FD0E0DC2FCC27CC27DF71D0621FC021
:1026C000C1154AE5D40708F45CC0CE0190568115C7
:1026D000904208F093CF8D2F8F710E946A1490E082
:1026E000982F882788279F719C012C2BE901E6CF22
:1026F000C55AD0E0C857DE4FC881D0E0D064CE01C3
:10270000DF91CF910895E4E096958795EA95E1F7FA
:1027100083702C2F26952695237040E2249F9001EC
:102720001124382B8C2F8370C1E0D0E002C0CC0F75
:10273000DD1F8A95E2F7C22BD32BDC68E0CFDC2FBC
:10274000CC27C16FD06ADBCF8370992721E030E0BE
:1027500002C0220F331F8A95E2F7C695C69590E214
:10276000C99FE0011124C22BD32BDA68C8CFD82F20
:10277000CC27C46FD06AC3CFDC2FCC27C06FD06A00
:10278000BECF8C2F8F700E946A1434E0D695C79507
:102790003A95E1F7CF709C2FEC01D069B0CF0E9441
:1027A00005200C94D71282389105B1F1B0F4813331
:1027B000910509F475C048F48932910509F469C09E
:1027C0008A32910509F473C008958533910509F49F
:1027D00059C08933910501F10895833E9105A9F10E
:1027E00038F4803E9105F9F0823E910549F1089553
:1027F000863E9105A9F1873E9105C9F1843E910578
:1028000019F52091FE0321FF1FC08091FD0384FD77
:1028100014C087EE90E008952091FD032370A1F08D
:1028200080EE90E008952091FD0320FD47C0309197
:10283000FE0330FF09C024FF44C090E080E004C0E4
:102840002091FD0322FDF7CF08952091FD0322FD85
:102850003BC03091FE0330FDE3CF24FFF5CFEDCF39
:102860002091FD0323FFF0CF24FDE7CFD2CF2091AD
:10287000FD0323FD2CC03091FE0331FFEECF84EE2B
:1028800090E008952091FD0325FFDECF89E290E0DE
:1028900008952091FD0325FFD7CF85E390E00895AB
:1028A0002091FD0326FFD0CF8AE290E00895209189
:1028B000FD0326FFC9CF81E390E0089589E390E00E
:1028C000089583EE90E0089582EE90E0089586EEFC
:1028D00090E008959091FD0392FF06C0282F287183
:1028E0002830F9F4877F846093FF06C0282F287171
:1028F0002831F1F4877E84612091FE0320FF06C019
:10290000382F38713830D9F4877F816021FF06C0B5
:10291000282F28712831D1F4877E816194FD877E2C
:102920000895282F24712430F9F68B7F8860DCCF3E
:10293000282F2471243101F78B7E8861DDCF382F59
:102940003171313019F78E7F8860E0CF282F2171E7
:10295000213121F78E7E8861E1CF80E008950C94CB
:1029600039110E94B4152FEF86E791E02150804085
:102970009040E1F700C000000E94B41580E00E9482
:10298000EA1480FF04C00E94AF140C944C2E0895EA
:102990000C94B1140E943F11811102C00E94E311F6
:1029A0000E944A11809337020E9452119093FE03B5
:1029B0008093FD030E94C8140E944E110E94D30A06
:1029C0008091C2010C94E60A08950C94E4140895D1
:1029D0000C94E714E82FF0E0EE0FFF1FE95FFB4FC8
:1029E000808191810895089580EA8A95F1F708958C
:1029F00000C008950C94F414F894E82FE295EF7059
:102A0000F0E031A1282F2F7081E090E001C0880F05
:102A10002A95EAF7982F9095932391A392A1892B59
:102A200082A378940895CF93DF9386EF0E94FC14DD
:102A300087EF0E94FC1481E30E94FC1483E30E9450
:102A4000FC14CBE8D1E089918F3F11F00E94FC1477
:102A500081E0C739D807B9F7DF91CF910895AF92D8
:102A6000BF92DF92EF92FF920F931F93CF93DF936A
:102A70008C01D62EC62FD0E0CE0189569E4F7C0108
:102A8000FC0120812F3F09F44DC0F894E22FE2951C
:102A9000EF70F0E031A12F7081E090E001C0880F6D
:102AA0002A95EAF7932F982B91A392A180958923D9
:102AB00082A378940E94F814EBE8F1E047E951E032
:102AC00021E030E0B12CA12C61916F3FA9F1A62F3C
:102AD000A295AF70B0E090968C9190E06F7002C0BC
:102AE000959587956A95E2F780FD26C0C901A82AC9
:102AF000B92A220F331F4E175F0731F7F701808184
:102B00008F3F11F00E94FC1461E0A114B10409F49C
:102B100060E08D2D0E94FA14CC0FDD1FC00FD11F75
:102B2000B982A882DF91CF911F910F91FF90EF9012
:102B3000DF90BF90AF90089590E080E0D8CF0E94E2
:102B4000131588E0E7E0F4E0DF01982F1D929A95D5
:102B5000E9F7EFEFF3E0DF011D928A95E9F784E0F2
:102B60000E94FF150C946304FF920F931F93CF9361
:102B7000DF93CDB7DEB728970FB6F894DEBF0FBE50
:102B8000CDBF8E010F5F1F4F88E0F80111928A952B
:102B9000E9F7F12C6F2DC8010E942F15F394F4E092
:102BA000FF12F8CF48E050E0B8018FEF93E00E94A9
:102BB0001636FF24F394009709F4F12C892B41F089
:102BC00088E0F801AFEFB3E001900D928A95E1F74C
:102BD0002F2D44E067E074E08FEF93E00E94001631
:102BE0000E9465048F2D28960FB6F894DEBF0FBEA5
:102BF000CDBFDF91CF911F910F91FF900895089560
:102C0000FF920F931F93CF93DF93F82E092F162F68
:102C1000D72FC42F222349F081E080933A020E94EB
:102C2000012E909339028093380280913A028823D2
:102C3000A1F080913802909139020E94192E0597D7
:102C400060F0EF2DF02FA12FBD2F90E080E0D0E0BD
:102C50008C179D0744F010923A02DF91CF911F919B
:102C60000F91FF900895219131912D933D930196FD
:102C7000EFCF0E9421300E9427120C942D300E9429
:102C800031300E94CF120C944B300E94A12D0E9433
:102C900008300E940B120E9439160E943F160E94B3
:102CA0001F12FBCF809141026091690470916A0408
:102CB00080FF16C020910701269FC001279F900D1D
:102CC0001124BC01769567957695679560387105F6
:102CD00008F043C06115710509F441C0862F0895BD
:102CE00081FF0BC020910701269FC001279F900DF7
:102CF0001124BC0176956795E9CF82FF09C08091C8
:102D000007019B01829FB001839F700D1124DECFCC
:102D1000209140022223D1F2909106018091070177
:102D2000482F50E0291748F0CB01849FB001859FC0
:102D3000700D949F700D1124C9CF289F900111240C
:102D4000269FA001279F500D369F500D1124692FFB
:102D500070E0CA010E94D835B9CF8FE7089581E0AD
:102D600008958091410280FF0CC06091030170E0E2
:102D700075956795759567956115710549F1862F6C
:102D8000089581FF06C06091030170E07595679515
:102D9000F3CF6091030182FD0BC090913F02992314
:102DA000A1F06091020180910301961738F0682F1D
:102DB00070E06038710500F38FE70895899FC001C6
:102DC000112470E00E94EC35F4CF61E070E0D7CFC1
:102DD00081E00895803F31F40E94521681958093DE
:102DE00045020895813F19F40E945216F8CF823FA0
:102DF00031F40E9452168195809344020895833FD6
:102E000019F40E945216F8CF893F29F40E94B11696
:102E10008093460208958A3F21F40E94B11681955D
:102E2000F7CF8B3F31F40E94B11681958093470212
:102E300008958C3F19F40E94B116F8CF843F31F405
:102E4000809143028160809343020895853F21F47D
:102E5000809143028260F7CF863F21F48091430244
:102E60008460F1CF873F21F4809143028860EBCFEB
:102E7000883F21F4809143028061E5CF8D3F31F49A
:102E80008091410281608093410208958E3F21F438
:102E9000809141028260F7CF8F3FB9F78091410264
:102EA0008460F1CF90914402803F59F480914502B3
:102EB00087FF0DC01092450291110BC01092400285
:102EC00008C0813F81F48091450218169CF3992334
:102ED00081F08091460290914702892B09F064C0ED
:102EE00010923F020895823F49F497FFF0CF10926D
:102EF0004402809145028111ECCFE0CF833F19F469
:102F00001916ACF3E4CF20914602893F29F412163A
:102F1000F4F610924602DBCF8A3F19F427FFD7CF91
:102F2000F8CF209147028B3F29F427FFD0CF109292
:102F30004702CDCF8C3F19F41216CCF3C8CF843F93
:102F400031F4809143028E7F80934302C0CF853F4E
:102F500021F4809143028D7FF7CF863F21F4809149
:102F600043028B7FF1CF873F21F480914302877F1B
:102F7000EBCF883F21F4809143028F7EE5CF8D3FD8
:102F800031F4809141028E7F80934102A0CF8E3F29
:102F900021F4809141028D7FF7CF8F3F09F097CFC9
:102FA000809141028B7FF0CF08950E94012E9C01F9
:102FB0009091440280914502982B21F030933E027B
:102FC00020933D029091460280914702982B21F078
:102FD00030933C0220933B0282E492E00C94DD2C7F
:102FE000EF92FF920F931F93CF93DF9300D000D007
:102FF00000D0CDB7DEB786E0E2E4F2E0DE01119664
:1030000001900D928A95E1F7E0904402F09045021C
:10301000009146021091470210924402109245021C
:1030200010924602109247028E2D8F2991F08091C6
:103030003D0290913E020E94192EAC0190914002F7
:10304000992309F43FC0809108018417150608F4FC
:1030500047C0802F812B91F080913B0290913C02E0
:103060000E94192EAC0190913F02992309F477C078
:10307000809104018417150608F47FC080914402F2
:1030800090914502892B90914602892B909147029D
:10309000892B11F00E94D51786E0FE013196A2E43B
:1030A000B2E001900D928A95E1F726960FB6F8945A
:1030B000DEBF0FBECDBFDF91CF911F910F91FF906B
:1030C000EF900895209109018AE0289F9001112432
:1030D0002417350708F0BDCF9F5F9093400202C0D0
:1030E0009F3FD1F7EE2059F00E9452169FEF1E1419
:1030F0000CF491E0899F802D112480934402FF20DD
:1031000059F00E9452169FEF1F140CF491E0899F12
:10311000802D11248093450230914402332309F419
:1031200098CF20914502222309F493CF45EB340335
:10313000C0011124992359F09093440245EB2403D4
:1031400090011124332339F03093450282CF81E07E
:1031500080934402F3CF81E0809345027ACF20919F
:1031600005018AE0289F900111242417350708F0F3
:1031700085CF9F5F90933F0202C09F3FD1F700230E
:1031800059F00E94B1169FEF10160CF491E0899F40
:10319000802D112480934602112359F00E94B1160C
:1031A0009FEF11160CF491E0899F802D11248093DC
:1031B000470230914602332309F460CF2091470241
:1031C000222309F45BCF45EB3403C001112499237A
:1031D00059F09093460245EB2403900111243323C8
:1031E00039F0309347024ACF81E080934602F3CF13
:1031F00081E08093470242CF86E0E2E4F2E0DF0123
:103200001D928A95E9F71092400210923F021092A7
:103210004102089583E290E00E944336823D89F4A2
:1032200084E290E00E9443368F3159F485E290E0C9
:103230000E94433691E0873509F090E0892F817034
:10324000089580E0FCCFCF93C82F6FEF811162ED1E
:1032500083E290E00E9451366FEFC1116FE184E28A
:1032600090E00E9451366FEFC11167E585E290E072
:10327000CF910C945136089586E290E00E94433637
:10328000682F70E090E080E008950895CF93C62FF6
:103290000E9445196C2F86E290E0CF910C94513634
:1032A00080E00E94231960E070E0CB010E94461983
:1032B0000E94261F0E94782081E00C9423190E940E
:1032C0003B190E943C190E9445190E940A1981115C
:1032D00002C00C9450190895CF93FB01C281CC23F6
:1032E00009F19C0122513F452031310520F58251E1
:1032F0000E948820C0E08C2FCF91089581E00E9429
:10330000F90A43E062E081E00E945A04F3CF81E0D1
:103310000E94040B43E062E081E00E945A04EBCF7C
:1033200082E0F6CF8031FFE59F0789F381319F4529
:10333000B9F3C1E0E0CF8031EFE59E07F9F28131CA
:103340009F45C9F682E0DBCF2FEFFC012083089573
:10335000EF92FF920F931F93CF93DF93EC01062F11
:1033600088812091440330914503232B79F08E3FCF
:1033700009F057C08981833020F08550833008F0F0
:1033800050C0602FCE010E94D71C4BC08C3009F476
:10339000A1C0D0F4843009F484C060F4823009F410
:1033A0004AC008F071C08130C9F1602FCE010E947F
:1033B000A41937C0863009F48AC008F47DC08A3069
:1033C000A0F78FEF88832DC0803109F4A0C0D8F416
:1033D0008E3009F48BC008F481C080910A0190916D
:1033E0000B01892BF1F06B8170E06D317105C8F430
:1033F00089819A81AE014C5F5F4F98278927982772
:103400000E944D200EC0823109F487C008F482C0AA
:10341000833109F493C08E3F41F6B3CF198289E01E
:103420008A83602FCE01DF91CF911F910F91FF9082
:10343000EF900C94E12E8981823071F0833079F025
:10344000813009F0B2CF0E940D2E0E9406366A83A9
:103450007B838C839D83E5CF0E943C19F6CF8091BE
:103460000A0190910B01892BE1F27E0110E0812F7E
:103470000E94EA14F701928383831F5FF2E0EF0E4C
:10348000F11C1430A1F7CDCF8981823009F08DCFA6
:103490006A817B818C819D810E9406360E9446193B
:1034A000C0CF4B816A8189810E947B1E9827892722
:1034B00098279D838C83B5CF2C813D81322723278C
:1034C00032274B816A8189810E949D1EAACF0E946A
:1034D000261FA7CF0E9421208983A3CF0E942320EB
:1034E0009827892798279A8389839BCF6B8170E0DF
:1034F0006D31710508F095CF89819A81AE014C5FDD
:103500005F4F9827892798270E9426208ACF0E94FC
:10351000782087CF0E94691EDFCF6B8170E06D310C
:10352000710508F07ECF89819A81AE014C5F5F4FB3
:103530009827892798270E94AB1F73CF6B8170E073
:103540006D31710508F06DCF89819A81AE014C5FB4
:103550005F4F9827892798270E94D11F62CF8F92AB
:103560009F92AF92BF92CF92DF92EF92FF920F9312
:103570001F93CF93DF93CDB7DEB72A970FB6F8949A
:10358000DEBF0FBECDBF00E812E0F12CE12C8DE2D2
:10359000C82E8CE1D82E97E5A92E9CE1B92E24E304
:1035A000822E2BE1922EF801D182C082B382A282B8
:1035B00095828482F58AE48ABE016F5F7F4F8E2DEB
:1035C0000E94D61E892B29F489859A85F801938B50
:1035D000828BFFEFEF1AFF0A0A5E1F4F88E0E816A2
:1035E000F10409F72A960FB6F894DEBF0FBECDBFDF
:1035F000DF91CF911F910F91FF90EF90DF90CF90CF
:10360000BF90AF909F908F900895CF93DF9300D09D
:1036100000D00F92CDB7DEB79093600480935F0423
:10362000811520E2920748F40F900F900F900F90B1
:103630000F90DF91CF910C94C8038EEF89838A831A
:103640001B820E94012E8160782F9D838C8349818B
:103650005A816B818D810F900F900F900F900F907A
:10366000DF91CF910C94F4050F931F93CF93DF93C9
:103670008C01EB0160E373E08C2F0E94D61E892B36
:10368000A1F480917F0490918004019798F4DD2744
:10369000C65CDC4F8881F80110821882833041F1CA
:1036A00080F4813091F08230B9F0DF91CF911F9199
:1036B0000F910895EFE9FFE03197F1F700C00000A6
:1036C000E4CF8430D1F0853081F780913003909140
:1036D0003103009751F306C0809132039091330378
:1036E000009799F3DF91CF911F910F910C94051BD7
:1036F0008091340390913503F3CF809136039091FC
:103700003703009779F7209130033091310380918E
:1037100032039091330321153105D9F2009711F747
:10372000C901E0CFCF93DF9300D000D00F92CDB787
:10373000DEB79093600480935F04811520E29207C6
:1037400048F40F900F900F900F900F90DF91CF9152
:103750000C94B3038EEF89838A8381E08B830E946C
:10376000012E8160782F9D838C8349815A816B81E2
:103770008D810F900F900F900F900F90DF91CF9150
:103780000C94F405CF92DF92EF92FF921F93CF93A8
:10379000DF93CDB7DEB72A970FB6F894DEBF0FBE22
:1037A000CDBFEFE0F4E080E5DF011D928A95E9F7F7
:1037B000E8E4F2E088E3DF011D928A95E9F78FE003
:1037C000C82E84E0D82E7F0110E0F701D182C0829C
:1037D000BE016F5F7F4F812F0E94FE1E892B79F4FF
:1037E00088E0FE013196D60101900D928A95E1F7AD
:1037F00089859A85D70113969C938E931297BAE088
:10380000CB0ED11CE7E0EE0EF11C1F5F1830E9F67D
:103810002A960FB6F894DEBF0FBECDBFDF91CF91D1
:103820001F91FF90EF90DF90CF900895CF93DF939B
:10383000EC010E94921B80917F049091800401977B
:1038400028F4CE01DF91CF910C94051BEFE9FFE046
:103850003197F1F700C00000F2CF0F931F93CF9381
:10386000DF938C01862F60E373E00E94D61E892BC4
:10387000C9F4C0913003D0913103209799F0F80139
:103880008081833069F4CE010E94161CCE010E9413
:10389000161CCE01DF91CF911F910F910C94161C35
:1038A0008430B8F7DF91CF911F910F9108950F9356
:1038B0001F93CF93DF938C01EB0160E373E08C2FB8
:1038C0000E94D61E892B09F064C0FE01FF27D80193
:1038D0008C91E65CFC4F8130D9F419969C91199734
:1038E000992311F080830CC01A969C919923D1F3EF
:1038F00082E0808380913203909133030097D9F462
:103900008091300390913103009709F442C013C0B5
:103910008230E9F519968C91199781112DC01A966C
:103920008C9181110EC083E080838091340390914B
:103930003503009719F1DF91CF911F910F910C94EE
:10394000921B84E080838091360390913703009727
:1039500091F780913003909131030097F9F00E9424
:10396000161C8091320390913303009721F78091C8
:10397000300390913103DFCF85E080838091300365
:1039800090913103009729F00E94161CF0CF86E039
:103990008083DF91CF911F910F9108958091320321
:1039A00090913303B1CF0E94AF1A0C94C21BCF92F7
:1039B000DF92FF920F931F93CF93DF93CDB7DEB7C4
:1039C0002A970FB6F894DEBF0FBECDBF8C016032D0
:1039D00069F5DC011196EC911197EE3038F5F0E0C5
:1039E000E556F94C0C94003688E0E1E2F1E0DE01A6
:1039F000119601900D928A95E1F780E2F8011192FB
:103A00008A95E9F784E0D8018C9311961C9211975E
:103A100012961C92129713961C92139788E0FE013F
:103A20003196149601900D928A95E1F72A960FB679
:103A3000F894DEBF0FBECDBFDF91CF911F910F91E4
:103A4000FF90DF90CF90089584EAF801808381E0B1
:103A5000818312821382EACF13968C911397682F79
:103A600070E0762F662712968C91860F972F911D06
:103A7000092E000CAA0BBB0B45E0880F991FAA1F4B
:103A8000BB1F4A95D1F7AC01BD01405E5F4F6F4F40
:103A90007F4F481759076A077B0740F2843AE1E0F5
:103AA0009E07A105B10510F6453AF1E05F076105F3
:103AB000710520F044EA51E060E070E0481B590BCA
:103AC000BC0164527D4FC8010E940D36AFCF40E269
:103AD00050E06FEF70E00E942C3680910A01D8010F
:103AE0008C938091440311968C93A0CF81E090E059
:103AF000909345038093440382E390E090934303C3
:103B0000809342030E94012E91CF80910A01F80117
:103B1000808380914403818380914203828386CF96
:103B200040E250E0BC0112968D919C910E94C72109
:103B30007DCFBC016F5F7F4F4FE150E0FC01828180
:103B400093810E94F921D8018C9370CFBC016C5FE6
:103B50007F4F4CE150E0FC01828193810E94212241
:103B6000F2CF0E948A2162CFFC0182818230F1F182
:103B7000E0F4882399F1813009F058CF13968C91A5
:103B80002AE0F22EFE0131966F01DF01EF2D1D922A
:103B9000EA95E9F7B6010E94D61ED8018D93F60189
:103BA00001900D92FA94E1F741CF833099F184307E
:103BB00009F03CCF13968C919AE03496DE01119671
:103BC00001900D929A95E1F7BE016F5F7F4F0E94C1
:103BD000121FF80180830E94C21B28CF80E21D9231
:103BE0008A95E9F788E08083818320CF13968C91B2
:103BF0009AE03496DE01119601900D929A95E1F7C4
:103C0000BE016F5F7F4F0E94EA1EF80180830E9411
:103C1000AF1A0CCF13968C919AE0F92EFE013196D3
:103C20006F01DF01EF2D1D92EA95E9F7B6010E94C1
:103C3000FE1EB3CFCF93DF93FB012281211130C051
:103C4000EC01D755CF3FD10509F050F560E373E0A3
:103C50008C2F0E94D61E892B19F586E18C9FF001CE
:103C60008D9FF00D1124E058FD4F86818130E1F4E5
:103C70008091300390913103892B91F08091320330
:103C800090913303892B61F0809134039091350337
:103C90002091360330913703822B932B892B61F0CF
:103CA00081E0DF91CF9108958230D1F78091340384
:103CB00090913503892BA1F326E12C9FC0012D9F04
:103CC000900D112480589D4FFC01108A0E94442BB6
:103CD000E7CF84E0089550E0440F551F98E1699FB5
:103CE000400D511D112490E6899F400D511D112456
:103CF000CA01879608950F931F93CF93DF93843063
:103D0000C8F46430B8F44C30A8F40E946B1E8C01E7
:103D10000E944336C82FD0E0DC2FCC27C801019683
:103D20000E9443369E01282BC901DF91CF911F913C
:103D30000F91089590E080E0F8CF0F931F93CF93F9
:103D4000DF93E9018430E0F46430D0F44C30C0F407
:103D500021153C4531F420910A0130910B01232BB0
:103D600079F00E946B1E8C016D2F0E9451366C2FD2
:103D7000C8010196DF91CF911F910F910C9451369C
:103D8000DF91CF911F910F9108958232910520F418
:103D900089559E4F0C94433680E0089582329105F8
:103DA00020F489559E4F0C94513608959B0188301C
:103DB00070F49AE0899FB001112467537E4F4AE066
:103DC00050E0C9010E94333690E080E008958FEF03
:103DD0009FEF08959B01883070F49AE0899FB001AD
:103DE000112467537E4F4AE050E0C9010E947536A6
:103DF00090E080E008958FEF9FEF08959B01883059
:103E000070F49AE0899FB0011124675E7D4F4AE00B
:103E100050E0C9010E94333690E080E008958FEFB2
:103E20009FEF08959B01883070F49AE0899FB0015C
:103E30001124675E7D4F4AE050E0C9010E9475364B
:103E400090E080E008958FEF9FEF08957F928F922A
:103E50009F92AF92BF92CF92DF92EF92FF920F9319
:103E60001F93CF93DF93CDB7DEB764970FB6F89467
:103E7000DEBF0FBECDBFA0900A01B0900B0181E064
:103E800090E090930B0180930A018CEAC82E80E0A9
:103E9000D82E00E0760110E015C0F4012591349190
:103EA000472D612F802F0E949D1E82E0880E911C5D
:103EB00073949CE07912F1CFE8E1EE0EF11C1F5FE4
:103EC000143019F04701712CE8CF0F5FF0E6CF0EE8
:103ED000D11C0430F9F60E948A211C861B861E869E
:103EE0001D86188A1F861A8A198A88EC90E09C8B96
:103EF0008B8B10E0BE01655F7F4F812F0E94EA1E11
:103F00001F5F1830B9F7CE0101967C018AE0F701F6
:103F100011928A95E9F710E0B701812F0E94121FD4
:103F20001F5F1830C9F7B0920B01A0920A01649686
:103F30000FB6F894DEBF0FBECDBFDF91CF911F91BA
:103F40000F91FF90EF90DF90CF90BF90AF909F9038
:103F50008F907F900895EF92FF920F931F93CF93CE
:103F6000DF93EC018A017C01E60EF71ECE018796F5
:103F7000CE15DF0539F4DF91CF911F910F91FF909E
:103F8000EF900895C03821E0D20740F40E944336F4
:103F9000F80180830F5F1F4F2196E8CFF801108250
:103FA000F9CFCF92DF92EF92FF920F931F93CF93AF
:103FB000DF938C016A018038914080F480E891E0C1
:103FC000801B910B8617970748F07801E60EF71EC5
:103FD000E801CE018796CE15DF0549F4DF91CF9138
:103FE0001F910F91FF90EF90DF90CF900895C03810
:103FF00021E0D20740F4FE01E01BF10BEC0DFD1DAA
:1040000060810E9451362196E4CF462F20914403CF
:1040100030914503232B91F47E3F39F46E3F71F4C8
:1040200080915F04909160040895843038F4743076
:1040300028F46C3018F4672F0C947B1E90E080E01D
:10404000089580E1089587E991E00895EF92FF9245
:104050000F931F93CF93DF93EC018A017C01E60E4F
:10406000F71ECE0187599D4FCE15DF0539F4DF913C
:10407000CF911F910F91FF90EF900895C73921E0E4
:10408000D20740F40E944336F80180830F5F1F4F30
:104090002196E7CFF8011082F9CFCF92DF92EF920D
:1040A000FF920F931F93CF93DF937C016A018C01E2
:1040B000060F171FEC01CE0187599D4FC017D1077E
:1040C00049F4DF91CF911F910F91FF90EF90DF9016
:1040D000CF900895C73921E0D20740F4FE01EE19D0
:1040E000FF09EC0DFD1D60810E9451362196E3CF42
:1040F000CF93DF93C9E6D2E060E0CE010E94513653
:104100002196C11584E0D807B9F7DF91CF910895C2
:10411000BF92CF92DF92EF92FF920F931F93CF93B4
:10412000DF9300D000D0CDB7DEB7F82E2FE02817F0
:1041300040F08FEF93E00E94433609E612E08823B7
:10414000D1F00F900F900F900F90DF91CF911F91B2
:104150000F91FF90EF90DF90CF90BF9008950115E1
:1041600044E0140771F3C8010E944336811101C075
:10417000FA940F5F1F4FF110F2CF19821A821B823F
:104180001C82BB24BA9478015FEFE51AF50AC801D6
:104190000E94433689831A82882399F2813009F07C
:1041A00047C0680182E0C80ED11CC7010E94433697
:1041B000E82E8A83882329F2C6010E944336F82E0E
:1041C0008FEF8E0D833068F46801E3E0CE0ED11CD2
:1041D000FB82FF2021F0CE0101960E94C5058601D9
:1041E000D2CFF4E0EF12FBCF680124E0C20ED11C65
:1041F000C80103960E944336FF2009F4A2CF88230A
:1042000009F49FCF8150990BB89E9001B99E300D53
:1042100011244F2D4150550BCA01820F931F019756
:10422000F0F2EFE9FFE03197F1F700C00000F7CFBF
:10423000CE0101960E94C5056701D1CFE1E6F4E009
:10424000848195812AE030E0B9010E94D8356093DD
:104250000901868180930801828580930701848506
:104260008093060186859785B9010E94D8356093B1
:1042700005018089809304018289809303018489E8
:1042800080930201089580916104909162040C94DE
:1042900042250F931F93CF93DF9301E614E0D0E004
:1042A000C0E0CE010E94C51EF80161918F01861702
:1042B00019F0CE010E94CE1E2196C232D10589F797
:1042C000DF91CF911F910F9108950F931F93CF937B
:1042D000DF9301E614E0D0E0C0E0CE010E94C51EED
:1042E000F80181938F012196C232D105B1F7C6E85A
:1042F000D4E0FE0185919491009711F0FC0109959D
:104300002896F5E0CE31DF07A1F7DF91CF911F911D
:104310000F910895E1E6F4E0128E138E8FEA90E09B
:104320009183808385E0848F88E893E193838283FF
:104330008AE090E09583848324E130E0378326830C
:1043400048E050E051874087938782872EE130E034
:10435000358724879787868720E530E0318B208B4F
:10436000538B428B48E250E0558B448B42E350E044
:10437000578B468B48EC50E0518F408F158E978FAE
:10438000868F31A320A30E9449210C946521EF92CE
:10439000FF920F931F93CF93DF937C01EB018A0170
:1043A0006FEF70E0CE010E942C3620E834E0A8E1E7
:1043B000B5E090E080E0AC014E5F5F4F0417150759
:1043C00088F0F90165917491E616F70630F48C0FC8
:1043D0009D1FFC0171836083CA01285F3F4FA217B4
:1043E000B30749F7DF91CF911F910F91FF90EF90A5
:1043F0000895DC01CB0120E834E0F9016591749166
:10440000A617B70749F0285F3F4F65E02831360708
:10441000A1F78FEF9FEF0895B9016E5F7F4FFB010A
:10442000A591B4914A175B07A0F3FB014591549104
:10443000F9013496659174910E94233690E080E0F2
:104440000895CF93DF93C0E8D4E0FE012591349125
:104450008217930741F0289625E0C831D207A9F7C3
:104460008FEF9FEF1DC0CE010296FC012591349184
:1044700042175307A8F3FC0145915491FE0134966D
:10448000859194910E9423360E944921FE0136961F
:1044900085919491009711F0FC01099590E080E0DE
:1044A000DF91CF9108958091790490917A040895D5
:1044B00080917E048170089580917E04869581703C
:1044C000089580917E0482FB882780F90895809169
:1044D0007E0483FB882780F908958091770490916A
:1044E000780408958832910538F48E319105E8F406
:1044F0000497A0F480E008958933910558F48D3233
:10450000910510F48B97B1F780917C0482FB88278A
:1045100080F908C084369105B9F3ECCF80917C0412
:104520008295817091E08927089580917C0483FBB6
:10453000882780F9F7CF80917C0485FB882780F954
:10454000089580917C0486FB882780F90895CF9395
:10455000DF93EC01FB018281882309F433C1C3306E
:10456000FDE5DF07C0F5CA3F9CE5D90730F49E01A1
:1045700022503C4524313105B0F50E9452119093F0
:10458000FE038093FD03C1318CE5D80709F4EEC02A
:1045900008F069C0C930ECE5DE0709F4D5C0C8F5FC
:1045A000C5308CE5D80709F4C7C000F5C330ECE589
:1045B000DE0709F4B9C008F0BBC0C230DC4509F41D
:1045C000ADC08091FD039091FE030E9460110E9496
:1045D000A00780E008C0C136EDE5DE0771F2C53AFC
:1045E000FDE5DF0751F2DF91CF9108958091FD0342
:1045F0008062C7309CE5D90709F493C08091FD0320
:104600008061C830DC4508F48CC08091FD03806473
:1046100088C08091FD038B7FCD30FCE5DF0709F476
:1046200080C098F48091FD038E7FCB309CE5D90744
:1046300009F477C08091FD038C60CC30DC4508F430
:1046400070C08091FD038D7F6CC08091FD038F7ED3
:10465000CF30FCE5DF0709F464C008F47BC080912B
:10466000FD038F7D5EC0CD3F9CE5D90709F47AC07C
:1046700050F5C531FCE5DF0709F486C098F4809158
:10468000FD03837FC3319CE5D90709F44AC008F4D0
:1046900071C00E94A0079091FD03892F97FB87F9B5
:1046A00080583FC0CB3FFCE5DF0709F449C008F064
:1046B00055C08091FE038160CA3FDC4509F081CF7F
:1046C0008093FE037ECFC130EDE5DE0709F468C0BC
:1046D000A8F4CF3F8CE5D80709F452C08091FE03BF
:1046E0008360C115DD4560F38091FE03982F90959E
:1046F00091708E7F892B90FB81F9E2CFC136EDE579
:10470000DE0709F451C0C53AFDE5DF0709F453C0DF
:10471000C230DD4509F055CF80E043C08091FD03F4
:1047200081608093FD034DCF8091FD038260F9CFBE
:104730008091FD038460F5CF8091FD038860F1CF07
:104740008091FE038260BCCF0E94A0078091FD0390
:104750008068E7CF8091FD03877FE3CF8091FE03E0
:104760008E7FAECF8091FE038D7FAACF8091FD0317
:104770008F7BD7CF0E94A0078091FD038F77D1CF89
:104780008091FE038C7F9CCF8091FD0382FB992753
:1047900090F921E0922790FB82F990FB83F9C1CF39
:1047A00081E00E94E5110DCF9091FD03892F8F7E4E
:1047B00094FF8061B6CF9091FD03892F8E7F90FF8B
:1047C0008160AFCF81E00FCF80910C01877F809314
:1047D0000C0182E00E94351080910C0184FF06C01C
:1047E0008F7E80930C0182E00E941C1080910C014E
:1047F00085FF06C08F7D80930C0180E20E941C1013
:104800000C948110CF93DF93EC01662319F082E0C2
:104810000E942F10CE019056811520E2920720F0C1
:10482000905E8115904108F4DD27CE01DF91CF9194
:104830000C94B3039C013056211540E2340720F05C
:10484000305E2115304108F499270C94C803FC010F
:1048500023E0F695E7952A95E1F7EE71FF27EA5BED
:10486000FC4F20813181AC014F70552781E090E0F1
:1048700002C0880F991F4A95E2F7662329F0822B20
:10488000932B918380830895809590958223932321
:10489000F8CFFC0123E0F695E7952A95E1F7EE7154
:1048A000FF27EA5BFC4F8F70992721E030E002C0C0
:1048B000220F331F8A95E2F78081918128233923C3
:1048C00081E0232B09F480E00895DF92EF92FF92BC
:1048D0000F931F93CF93DF93EC017B01D42E8901BB
:1048E00080910C0182FF86C020916E0330916F038E
:1048F0002C173D0719F0209709F07CC090910C010E
:104900009B7F90930C0161E091FD10C0809170033A
:1049100090917103A701481B590B61E080910D0133
:1049200090910E014817590708F460E0617080917A
:104930000C0160FB81F980930C01C9010E942724BE
:104940000E94191081FF08C080910C018061809342
:104950000C0182E00E9422100E94191085FF08C0FD
:1049600080910C01806280930C0180E20E942210F1
:1049700060910C0166956170A80180916E03909121
:104980006F030E940224D11014C080917F04909183
:104990008004019740F560910C0166956170A80153
:1049A00080916E0390916F030E941A240E94E42369
:1049B00030C0B80180916E0390916F030E949B22DA
:1049C000882319F3B80180916E0390916F030E94C0
:1049D000A1228111DACFDF91CF911F910F91FF902A
:1049E000EF90DF900895EFE9FFE03197F1F700C015
:1049F0000000CFCFCE010E944924A801682FCE012C
:104A00000E941A2480916E0390916F038C179D076A
:104A100069F2F0927103E0927003DDCF80917C0423
:104A200080FF1EC080910C0182FF1AC00E94012EDF
:104A30002091700330917103AC01421B530B209104
:104A40000D0130910E014217530750F026E633E076
:104A500041E0BC0180916E0390916F030C9465243A
:104A6000089590910C01892F8E7F90FF8160809333
:104A70000C010C94E42380910C018E7F80930C0137
:104A80000C94E42390930E0180930D010895CF922E
:104A9000DF92EF92FF920F931F93CF93DF93EC017E
:104AA0007B0180917C0480FD0BC011E0812FDF91A0
:104AB000CF911F910F91FF90EF90DF90CF900895CD
:104AC0000E94012E6C01F7018281882391F180916F
:104AD0000C0182FF08C026E633E040E0B60190E01A
:104AE00080E00E946524CB31FCE5DF07C9F0CC31C2
:104AF0002CE5D207D9F0CA318CE5D80711F40E9411
:104B00003125CE0190568115E0E29E0720F0905E9F
:104B100081159041E0F410926F0310926E03C5CF9F
:104B200080910C01816080930C01EBCF0E943B25AA
:104B3000E8CF80910C018F7EC13ED10531F0C53E9A
:104B4000D105B9F580910C018F7D80930C01809186
:104B50000C0180FFAACFB701CE010E947222F7019B
:104B60001281882309F4C8C0112309F4BEC00E9431
:104B70001910182F0E943F10812B8D7FB9F11092D0
:104B80006F0310926E0380917C0481FD2FC060E062
:104B9000CE010E942724A70160E0CE010E940224DA
:104BA0000E943F108D7F0E945B1082E00E94F910EE
:104BB00072C0CE019056811520E2920720F0905EDF
:104BC0008115904120F680910C0182FF6ECFB701D4
:104BD000CE010E945C22811168CF26E633E040E0DE
:104BE000B60190E080E00E9465245FCF88E0F70185
:104BF000A6E6B3E001900D928A95E1F71092680362
:104C000010926A031092690380916E0390916F0372
:104C1000C817D90709F04AC0B701CE010E949B22EC
:104C2000882309F443C080910C0181FD36C0809136
:104C30007003909171038601081B190BB7018091D5
:104C40006E0390916F030E9453220817190770F5A5
:104C50000E94191081FF08C080910C01806180932F
:104C60000C0182E00E9422100E94191085FF08C0EA
:104C700080910C01806280930C0180E20E942210DE
:104C800060910C0166956170A70180916E0390910F
:104C90006F030E94022410E009CFB70180916E03D8
:104CA00090916F030E94A1228111C1CF0E9419101F
:104CB000182F0E943F10812B90910C0181FB91F9DC
:104CC00090930C010E943F108D7F0E945B10D09347
:104CD0006F03C0936E03D0927103C09270038091F2
:104CE0000C01846080930C0160CF970140E0B60115
:104CF000CE010E946524DACE11110DCFD6CE0895D3
:104D00000F931F93CF93DF938091DD03E0917203A4
:104D10001CE081111AC0DF91CF911F910F9108956E
:104D200001E00E0F00937203CE2FD0E0E19FF0015F
:104D30001124E358FC4F83819481892B29F08081D1
:104D4000918189238F3FF9F4E02F8091DD03E817EB
:104D500038F31092DD0310927203DDCF18968D9117
:104D60009C918F3F9807E1F061E00E947F261C9F95
:104D7000F0011D9FF00D1124E358FC4F14821382A3
:104D80000E943C10E1CF1C9FD0011D9FB00D11244B
:104D9000A358BC4F16968D919C911797892BF1F2D1
:104DA000208131814281538164817581868197811F
:104DB0000E941D0FDCCF1092DF031092DE032091C2
:104DC000100130911101E8E4F2E090E080E0281752
:104DD000390709F408954581411102C014821682F1
:104DE00001963796F4CFDC0160917B0380917C03C0
:104DF000962F891301C00895292F30E0F901EE0F95
:104E0000FF1FED58FC4F408151814A175B07A1F409
:104E100087E08A9FA0018B9F500D1124485B5D4F56
:104E200081E0FA0184839613E6CF2F5F3F4F237012
:104E3000332720937B0308952F5F3F4F922F93706A
:104E4000D8CF6F927F929F92AF92BF92CF92DF9214
:104E5000EF92FF920F931F93CF93DF93DB01149692
:104E60002C911497211169C0A090DD03EDE7F3E0C8
:104E700030E020E0B12C66246394712C2A1508F0F0
:104E800047C0C284D384ED90FC9011976FEF7FEF01
:104E9000912C492D50E08A01000F111F0E0D1F1D8E
:104EA000E801088119810115110531F0C016D106FC
:104EB00009F4BA019394EDCF6F3F7607D1F1E30186
:104EC00002C0CC0FDD1F6A95E2F7BC2AB30102C015
:104ED000660F771F9A94E2F7AB0141505109B4165F
:104EE000150629F512964D915C9113976CE0629F1F
:104EF000F001639FF00D1124E358FC4F5783468364
:104F00002EEF208321839187808721E015962C93B3
:104F1000DF91CF911F910F91FF90EF90DF90CF9095
:104F2000BF90AF909F907F906F900C94F326148267
:104F300013822F5F3F4F3C96A1CFDF91CF911F91FE
:104F40000F91FF90EF90DF90CF90BF90AF909F9028
:104F50007F906F9008951F93CF93DF93C0917B0351
:104F600017E080917C038C1307C00E948026DF919C
:104F7000CF911F910C94DB26D0E0FE01EE0FFF1FB6
:104F8000ED58FC4F80819181189FB001199F700DE1
:104F90001124685B7D4F0E9421272196C370E1CFC9
:104FA0000F931F93CF93DF93DC012D913C911197C9
:104FB00040E090E080E0E82FF0E0EE0FFF1FE20F0E
:104FC000F31FC081D1812097B9F0FB0100811181CD
:104FD00090E005C0CE17DF0709F441E09F5FE92F9D
:104FE000F0E0EE0FFF1FE00FF11F0190F081E02DC8
:104FF000309781F78F5FDFCF442349F0981708F48B
:10500000DB01CD01DF91CF911F910F910895B0E0A9
:10501000A0E0F7CF80910F01882341F18091E00358
:105020009091E103009711F10E94192E2091DE0367
:105030003091DF0328173907C8F490917B038091E2
:105040007C03981759F00E94AB271092DF0310924F
:10505000DE031092E1031092E00308950E9480267F
:105060001092E1031092E0030C94DB260895109255
:10507000E1031092E00310920F0180917C03809372
:105080007B030E94DB260C94802680910F01811106
:105090000C94372881E080930F0108952F923F925E
:1050A0004F925F926F927F928F929F92AF92BF9238
:1050B000CF92DF92EF92FF920F931F93CF93DF93E4
:1050C000CDB7DEB72A970FB6F894DEBF0FBECDBFBF
:1050D0006C012B01FB011281873FFCE59F07F9F46E
:1050E000112321F181E080930F01812F2A960FB6C1
:1050F000F894DEBF0FBECDBFDF91CF911F910F910E
:10510000FF90EF90DF90CF90BF90AF909F908F90E7
:105110007F906F905F904F903F902F900895883FC1
:105120002CE5920709F04DC0111148C008E412E0C7
:10513000F12CE12C1986AA24A394B12C80911001A2
:1051400090911101E816F90608F445C0F201828138
:10515000882309F466C1F985FF2309F462C10E941E
:10516000012E9093E1038093E0038091DD0388306A
:1051700008F591E0980F9093DD0398E0F201DE01CD
:10518000119601900D929A95E1F72CE0829FC00153
:10519000112483589C4F28E0FE013196DC010190D8
:1051A0000D922A95E1F72FEF3FEFFC013187208721
:1051B000D386C28611E0F9851F2797CF0E94372832
:1051C00094CF893F9C4509F0B1CF112309F4AECFAC
:1051D0000E9445288ACFF8012081318166246A9493
:1051E000762C212C822D90E0FC01EE0FFF1FE20FA8
:1051F000F31F408151814115510531F0C416D50688
:1052000009F43C012394EECF312CFFEF6F167F069B
:1052100009F448C0F801448130900F01832D4111F9
:1052200080E0F82FF1703F2EF2018281882309F48B
:1052300096C0332009F493C0B801C7010E946D22C3
:105240004C01F8018581811113C0950101C0220F25
:105250006A94EAF78681822B86838091DE0390919F
:10526000DF038815990520F49092DF038092DE0316
:10527000C50102C0880F991F2A94E2F70197F8012F
:1052800026812817190671F48091E0039091E103BB
:10529000009789F00E94192E8816990660F421E083
:1052A000F8012483F985F329F9872FEFE21AF20A2E
:1052B000095F1F4F43CF20907B0330917C033A87D7
:1052C00090E080E0EA852E1215C08017910751F317
:1052D000822C912CF401EE0FFF1FED58FC4FF18250
:1052E000E082FFEF8F1A9F0A23E0822299248092A6
:1052F0007C03D8CF822C912CF401EE0FFF1FED58C8
:10530000FC4F2081318147E0429FC001439F900DB7
:105310001124FC01E85BFD4F3F01B801CF010E9461
:10532000D0270097A9F021E0FC0124838017910782
:1053300009F4B8CF20917B0322120AC068167906BF
:1053400039F494012F5F3F4F2370332720937B0361
:105350003FEF831A930A482D4370242EB3CFF801F0
:105360009580868190E091101EC0950102C0220FA9
:10537000331F2A94E2F7215031092817390731F4F5
:10538000442309F44CC0C7010E94F326C50101C0A3
:10539000880F6A94EAF7982F9095F80186818923FF
:1053A0008683392C7FCF9C01062C02C0359527952A
:1053B0000A94E2F7A90141705527BC0161507109B7
:1053C00086239723892B39F5452B29F182819381F7
:1053D000892BE1F01B821C821D821E82FEEFF98365
:1053E000FA830E94012E8160582F9D838C83F801DF
:1053F000828193818F83988729813A814B816D8146
:105400007E810E941D0FF8011582C0CF60E0C701A8
:105410000E947F26F8CFF22FF1709F2EB7CF932CEA
:10542000B5CF90917B0380917C03981719F00E946F
:10543000AB27C0CE0E9480261092E1031092E003B9
:105440000E94DB26B7CECF93DF93EB0186319C45DC
:1054500009F03BC00E941910982F9A7A20917B0482
:1054600020FF04C0382F347409F090E021FF04C0FD
:10547000382F317109F090E022FF04C0382F3878BE
:1054800009F090E023FF03C0827209F090E08A8166
:10549000882389F081E0911101C080E08093E203CC
:1054A00089E2911185E30E94BD0F0E94811080E086
:1054B000DF91CF9108958091E203811104C089E2C8
:1054C0000E94C40FF2CF85E3FBCF81E0F1CFAF9212
:1054D000BF92CF92DF92EF92FF920F931F93CF93E1
:1054E000DF937C015B01C42FD22FFC0182818823D2
:1054F000F9F04093E5030E94012E9093E40380931A
:10550000E30380E28C0F883008F061C0C77081E04F
:1055100001C0880FCA95EAF7DF91CF911F910F91D3
:10552000FF90EF90DF90CF90BF90AF900C947007FA
:105530001091E503141340C08091E3039091E403BC
:105540000E94192E6C01B701C5010E945322C81692
:10555000D90690F5C0E2CD0F1D17B9F080E2810F9A
:10556000883040F4177081E001C0880F1A95EAF77F
:105570000E947707C83048F481E09D2F977001C0E2
:10558000880F9A95EAF70E947007802F0E9464079F
:10559000C830E8F4D77081E001C0880FDA95EAF7E7
:1055A000DF91CF911F910F91FF90EF90DF90CF90FF
:1055B000BF90AF900C94770780E28C0F883038F45E
:1055C000C77081E001C0880FCA95EAF7E9CFDF9183
:1055D000CF911F910F91FF90EF90DF90CF90BF90F0
:1055E000AF9008950F939C01CB01233F4CE5340706
:1055F00059F1A8F4283DFCE53F0701F1293D4CE5B0
:105600003407D1F1273D3C4591F406E221EE41EE0D
:1056100067ED7CE50E94672A80E00F910895253FA1
:10562000FCE53F07E9F0B0F0263F3C45F9F0FC010E
:105630008281882339F11092E503EFCF07E225EE4E
:1056400045EE68ED7CE5E6CF06E221EE40EE63EF45
:105650007CE5E0CF07E225EE44EE64EF7CE5DACFAF
:1056600006E221EE42EE65EF7CE5D4CF07E225EEBF
:1056700046EE66EF7CE5CECF08E221E045EE69ED2F
:105680007CE5C8CF81E0C9CFCF93DF93EC01898956
:10569000811115C081E0898B8F810E941C10888543
:1056A0000E942F100E948110EA81FB81309739F00F
:1056B0006C897D89CE010696DF91CF910994DF91A7
:1056C000CF910895EF92FF920F931F93CF93DF93A3
:1056D000EC018A85811134C0EB80FC8087E5F81AE3
:1056E00026E12E9DC0012F9D900D1124DC01A058B4
:1056F000BD4F1496ED91FC911597309731F054966B
:105700006D917C918A579D4F099586E18E9D800110
:105710008F9D100D112400581D4FF80187810E94A4
:105720002210F80180850E9435100E948110188295
:1057300019861B861E821D821092E7031092E603D3
:10574000DF91CF911F910F91FF90EF900895DF921D
:10575000EF92FF920F931F93CF93DF937C01FB0196
:105760008281882399F08091120190911301019612
:1057700069F0C0E8D2E010E000E0DD24D39480912D
:105780001201909113018017910744F4DF91CF919A
:105790001F910F91FF90EF90DF9008958E818823E5
:1057A000C1F089859A858E159F0539F48091E603AD
:1057B0009091E7038E159F0561F0DF86FC86EB86EE
:1057C000CE010E94442BCE0106960E94622B0E94BD
:1057D0003C100F5F1F4F6696D2CFEF92FF920F9350
:1057E0001F93CF93DF937C0197558F3F910509F06D
:1057F000E0F520911201309113012817390724F4A4
:105800009093130180931201FB01228136E1389FAE
:105810008001399F100D1124E801C058DD4F288BFD
:1058200092818E81992349F1FA86E9868F5F8E8372
:105830000E94012E9E878D870E943F108F830E94B9
:10584000191088870E942C109885892B8887E881F9
:10585000F981309731F06C897D89C8018A579D4F55
:105860000995F092E703E092E60381E0DF91CF91A2
:105870001F910F91FF90EF9008958823B1F38989CC
:10588000882399F3C8018A579D4F0E94622BEDCF60
:105890009F92AF92BF92CF92DF92EF92FF920F93BF
:1058A0001F93CF93DF93CDB7DEB728970FB6F89449
:1058B000DEBF0FBECDBF8091120190911301019602
:1058C00009F052C028960FB6F894DEBF0FBECDBFC8
:1058D000DF91CF911F910F91FF90EF90DF90CF90CC
:1058E000BF90AF909F9008950A9DF0010B9DF00D21
:1058F0001124E058FD4FC288D388C114D10459F453
:10590000D701292D1D922A95E9F7B7018185928546
:105910000E9453226C010A9DF0010B9DF00D112491
:10592000E058FD4F86818823A1F0858596850E94E9
:10593000192EC816D90668F4109F60011124C601FB
:1059400080589D4F0E94442BC6018A579D4F0E944C
:10595000622B1F5FA12EB12C809112019091130137
:105960008A159B050CF6AECF10E006E188E0982E74
:10597000CE0101967C01EECF9093AB018093AA01FA
:1059800008959093ED038093EC030895E091EC0368
:10599000F091ED03309721F00190F081E02D099412
:1059A00080E00895E091EC03F091ED03309721F051
:1059B0000280F381E02D09940895E091EC03F091C9
:1059C000ED03309739F022E0DC012C930480F5815F
:1059D000E02D099408952091EA033091EB032817F4
:1059E000390771F09093EB038093EA03E091EC03A5
:1059F000F091ED03309721F00680F781E02D0994B6
:105A000008952091E8033091E9032817390771F0D0
:105A10009093E9038093E803E091EC03F091ED03A8
:105A2000309721F00084F185E02D099408959C01C0
:105A30002E5F3F4FAC01485F5F4F80E02417350772
:105A400009F40895F90191919F019923B9F38F5FAA
:105A5000F5CF662349F0FC0132960896219126176E
:105A600029F0E817F907D1F780E0089581E008955B
:105A70009C01FC0132969FEF80E04191461751F066
:105A80009F3F19F4411101C0982F8F5F8630A9F70D
:105A90009F3F09F40895290F311D97FD3A95F901AB
:105AA00062830895FC01329608962191261303C063
:105AB000DF0111971C92E817F907B9F708950C94C4
:105AC000382D0C94522D029626E0FC0111922A9555
:105AD000E9F7089508950C946A2D811105C081E0BD
